:020000040000FA
:10000000900A00201D110000773B00006D100000D9
:100010006D1000006D1000006D1000006D100000EC
:100020006D1000006D1000006D1000005D0F0000ED
:100030006D1000006D100000090F0000753A0000FF
:10004000DD100000DD100000DD100000DD100000FC
:10005000DD100000DD100000DD100000DD100000EC
:10006000DD100000DD100000DD100000DD100000DC
:10007000DD100000DD100000DD100000DD100000CC
:10008000DD100000DD100000DD100000DD100000BC
:10009000DD100000DD100000DD100000DD100000AC
:1000A000DD100000DD100000DD100000DD1000009C
:1000B000DD100000DD100000DD100000DD1000008C
:1000C000DD100000DD100000DD100000DD1000007C
:1000D000DD100000DD100000DD100000DD1000006C
:1000E000DD100000DD100000DD100000DD1000005C
:1000F000DD100000DD100000DD100000DD1000004C
:10010000DD100000DD100000DD100000DD1000003B
:10011000DD100000DD100000DD100000DD1000002B
:10012000DD100000DD100000DD100000DD1000001B
:10013000DD100000DD100000DD100000DD1000000B
:10014000DD100000000000000000000000000000C2
:10015000000000000000000000000000000000009F
:10016000000000000000000000000000000000008F
:10017000000000000000000000000000000000007F
:10018000000000000000000000000000000000006F
:10019000000000000000000000000000000000005F
:1001A000000000000000000000000000000000004F
:1001B000000000000000000000000000000000003F
:1001C000000000000000000000000000000000002F
:1001D000000000000000000000000000000000001F
:1001E000000000000000000000000000000000000F
:1001F00000000000000000000000000000000000FF
:10020000DEE61E284CBBCE8F015B000000800000A4
:100210000100000000000000D0130020C5190000FC
:1002200053B94AB9002908BF00281CBF4FF0FF315D
:100230004FF0FF3000F070B9ADF1080C6DE904CE5D
:1002400000F006F8DDF804E0DDE9022304B07047B1
:100250002DE9F04F099E04468946002B40F083802B
:100260008A42154645D9B2FA82F24AB1C2F1200754
:1002700001FA02F39540944020FA07F747EA030990
:100280004FEA154E230C1FFA85F8B9FBFEFC0EFB56
:100290001C990CFB08F143EA094399420AD9EB186F
:1002A0002CBF01200020994202D9002800F01D81B6
:1002B0000CF1FF3C591AA3B2B1FBFEF00EFB10117A
:1002C00000FB08F843EA0144A04505D92C1902D2E5
:1002D000A04500F20E810138A4EB080440EA0C406E
:1002E00000271EB1D4400023C6E900433946BDE8CB
:1002F000F08F002A51D0B2FA82F2002A40F0AF808B
:10030000491B4FEA154E1FFA85F80127230CB1FB54
:10031000FEFC0EFB1C1108FB0CF043EA0143984263
:100320000AD9EB182CBF01210021984202D90029DB
:1003300000F0D7800CF1FF3C191AA3B2B1FBFEF01C
:100340000EFB101108FB00F843EA0144A04505D953
:100350002C1902D2A04500F2C1800138A4EB080498
:1003600040EA0C40BDE78B4208D9002E74D000272C
:10037000C6E9000138463946BDE8F08FB3FA83F785
:1003800067B98B42C0F0A480824240F2A180384617
:10039000002EABD0C6E90049A8E7FFDEC7F1200573
:1003A000BB4002FA07FC01FA07F4EA4020FA05F81C
:1003B000E94000FA07FE1A4348EA04044FEA1248EB
:1003C000200C1FFA82F9B1FBF8FA08FB1A110AFB9C
:1003D00009FB40EA01418B450AD951182CBF012382
:1003E00000238B4502D9002B00F088800AF1FF3AE8
:1003F000A1EB0B01A4B2B1FBF8F008FB101100FB5C
:1004000009F944EA0141894504D9511801D28945C5
:100410007BD8013840EA0A40A1EB0901A0FB0C8916
:10042000494544464B4602D306D1C64504D201385D
:10043000B8EB0C0469EB0203002E5DD0BEEB0402A6
:1004400061EB030101FA05F522FA07F3F9400027F1
:100450001D43C6E9005149E73746304646E7C2F139
:100460002000954001FA02F721FA00F34FEA154EF9
:1004700024FA00F11FFA85F894403943B3FBFEF0EB
:100480000F0C0EFB103300FB08FC47EA03439C45AE
:1004900007D9EB182CBF012700279C4500D98FB343
:1004A0000138A3EB0C0389B2B3FBFEF70EFB173345
:1004B00007FB08FC41EA03418C4504D9691801D2C5
:1004C0008C4525D8013FA1EB0C0147EA00471DE709
:1004D000841A61EB03030120994659E702382C4442
:1004E0003CE7ACF1020C2B4426E7ACF1020C2B44A8
:1004F000E0E602382C44EFE63746F7E6AAF1020AB6
:10050000114475E702382B44CBE70238114481E7E8
:10051000023F2944D7E700BF704700BF2DE9E04FF5
:100520002746A046A146A246A346A4462DED108B21
:100530004FF0000545EC185B45EC195A45EC1A5A8A
:1005400045EC1B5A45EC1C5A45EC1D5A45EC1E5A0D
:1005500045EC1F5AF1EE105A4FF66076C0F6FF7662
:100560003540E1EE105A84F3008825462646A4471C
:10057000BDEC108BBDE8E08F0B6801330B60014BC5
:100580001B681847D41300202DE9F04F85B00E9C4E
:100590009B46012CB8BF0124012B0CBF3023202324
:1005A00016468246884601250A270022DFF86C900D
:1005B0000293B6FBF9F301930AB9B1451CD8019B2C
:1005C000414603F13000D04701220135019B013F34
:1005D00009FB13660A23012FB9FBF3F9E9D1414660
:1005E00006F13000D047BBF1030F02D1641B002C91
:1005F0000EDC05B0BDE8F08FBC42E7DBBBF1020FBB
:10060000E4D84146029803920135D047039ADDE7CA
:1006100041462020D047013CE9E700BF00CA9A3B91
:10062000014B1860704700BFD4130020002307B5AA
:100630000246019303480B4601A902F0DAFF03B01A
:100640005DF804FB790500004FF02002EFF3118301
:1006500082F31188BFF36F8F0121044AC2F840155D
:1006600083F31188BFF36F8F002070470090035011
:100670000A2838B50446074D04D1286843680D217F
:100680005B68984728684368E1B25B6898472046F2
:1006900038BD00BF0800002010B5044C204601F012
:1006A0009FF82046BDE81040FFF7BABF7106000072
:1006B00008B5044801F08AFA034B1860FFF7ECFF15
:1006C000002008BD2F4600000800002008B5114B8F
:1006D0001A686AB14FF05022D2F80423D10707D527
:1006E00000220D481A6083685B7A0BB903F0A5F904
:1006F0000A4B1A6862B14FF05022D2F804239207D5
:1007000006D5002206481A60BDE8084003F095B9F6
:1007100008BD00BF00510050841400200451005057
:100720009014002000220D4BC3F840214FF020020E
:10073000EFF3118182F31188BFF36F8F084AD3F86A
:1007400004051368C01A20F07F400344136081F34E
:100750001188BFF36F8F01F0A3BF00BF005001509D
:100760002400002070B5184801F030FA48B34368FF
:1007700000211B689847012600244FF480334FF472
:100780000012124D3146C5F80845C5F84065C5F858
:1007900004330F4B15201C600E4BC3F880212246FA
:1007A00000F0FCFB152000F0E9FB20460A4B1E6020
:1007B0002E60D5F80435334423F07F43C5F8403527
:1007C00070BD4FF0FF30FBE736460000005001508F
:1007D0004051015000E100E00850015070B5254C37
:1007E000B0F1FF3F08BF20464FF02003EFF3118523
:1007F00083F31188BFF36F8F1F4BD3F804151F4B82
:100800001B68CA1A22F07F4612021AD4421E22EA3C
:10081000E272A242A8BF2246701C1044A04294BFBC
:1008200018181819411A21F07F41134A20F07F430C
:100830000229C2F8403506D985F31188BFF36F8FBE
:1008400070BD0022E8E7D2F804350D49C31A23F041
:100850007F435C1E8C4205D94FF40012094BC3F84C
:100860000021E9E7012B02BF023020F07F40C2F8EF
:100870004005E1E7FEFFFF0000500150240000208A
:10088000FEFF7F0000E100E04FF02002EFF3118354
:1008900082F31188BFF36F8F064AD2F80405064A27
:1008A0001268801A20F07F4083F31188BFF36F8FA6
:1008B000704700BF005001502400002008B543B22B
:1008C000002B0CDB012200F01F018A405B0910495C
:1008D000203341F82320BFF34F8FBFF36F8F830086
:1008E00003F1A04303F540533128D3F8002806D084
:1008F000002A07DA02F00302023A012A02D8054A66
:10090000C3F80028002103F005F9002008BD00BF4E
:1009100000E100E00001008030B54FF440444CF2AB
:10092000040585B04FF440412C4802F0D2FF216805
:100930002B4802F0CEFF29682A4802F0CAFF102295
:100940000021684603F0AEF92368684600930294DC
:1009500000F0D0FE012000F0FDFE002000F0E6FED9
:10096000002000F00BFF0121002000F025FF00F027
:1009700019FF2C681C4802F0ACFF0820FFF79EFF0F
:1009800024F00104BFF34F8FBFF36F8F640864003E
:100990002046214622462346B7EE000AF7EE000A1B
:1009A000B7EE001AF7EE001AB7EE002AF7EE002AAB
:1009B000B7EE003AF7EE003AB7EE004AF7EE004A1B
:1009C000B7EE005AF7EE005AB7EE006AF7EE006A8B
:1009D000B7EE007AF7EE007AFFF7A0FD9847000027
:1009E000AF470000C4470000E24700002DE9F8438C
:1009F000704802F06EFF00216F4EDFF8D891DFF8EB
:100A000000826E4D56F8044BCA0301F5C07349F8D5
:100A10002340404602F500434F1C02F05AFF684B4A
:100A200014F0100F6749684808BF194602F051FFDB
:100A300014F0040F14BF72212D21284602F049FF43
:100A400014F0020F14BF77212D21284602F041FF38
:100A500014F0010F14BF78212D21284602F039FF30
:100A600014F4807F14BF6C212D21284602F031FF41
:100A7000564802F02EFF202F3946C3D1544B554A19
:100A8000C3F3C431C3F30E03C3F50043C3F34313ED
:100A9000C2F80015C2F80435D2F80015D2F80425C2
:100AA0004D48520102F015FF484802F012FF02F0D3
:100AB000E3FF014610B1494802F00BFF434802F042
:100AC00008FF474802F005FF0021464EDFF8049179
:100AD000DFF83081394D56F8044B4A0301F5E073D5
:100AE00049F82340404602F500534F1C02F0F1FE46
:100AF000334B14F0100F3349334808BF194602F046
:100B0000E8FE14F0040F14BF72212D21284602F0D4
:100B1000E0FE14F0020F14BF77212D21284602F0C9
:100B2000D8FE14F0010F14BF78212D21284602F0C1
:100B3000D0FE14F4807F14BF6C212D21284602F0D2
:100B4000C8FE224802F0C5FE202F3946C3D100243A
:100B5000204D1E4802F0BDFEC5F88044224802F038
:100B6000B8FE224FC5F8C044DFF89C80204DDFF866
:100B70009C906E792A68002E14BF3B46434621465E
:100B8000484602F0A6FE66B91A48013402F0A1FEFA
:100B90001A2C05F10805ECD10C48BDE8F84302F029
:100BA00098BE2879FFF78AFE08B11348EDE713488D
:100BB000EBE700BF74460000F4420000AC460000C2
:100BC0005D46000054460000814700009449000043
:100BD000E07F000000300050AF460000F546000006
:100BE00025470000444400005B47000069460000C0
:100BF00074430000844700008B47000093470000C7
:100C00009746000047470000614600007747000014
:100C100010B500284BD0002A49D0264B99423CD928
:100C2000541803F61D239C423AD803F011F8002013
:100C3000BDE81040714672467346B7EE000AF7EE03
:100C4000000AB7EE001AF7EE001AB7EE002AF7EE28
:100C5000002AB7EE003AF7EE003AB7EE004AF7EE98
:100C6000004AB7EE005AF7EE005AB7EE006AF7EE08
:100C7000006AB7EE007AF7EE007A8EF3008C10B4BB
:100C8000F1EE10CA4FF66074C0F6FF740CEA040C63
:100C9000E1EE10CA10BCF4467447074B994203D9E1
:100CA000064B54189C42C0D94FF0FF30C0E76FF09C
:100CB0001500BDE70302FF002F01FF003801FF0010
:100CC0002DE9F04F834685B08946002951D0002791
:100CD000DFF8B0A0DFF8B08001AE5AF8044B98E816
:100CE00007005C4486E807000C223146204602F0EB
:100CF00088FF054608B9002C3ED10137032FECD1FF
:100D00006FF00D05284605B0B7EE000AF7EE000AB1
:100D1000B7EE001AF7EE001AB7EE002AF7EE002A37
:100D2000B7EE003AF7EE003AB7EE004AF7EE004AA7
:100D3000B7EE005AF7EE005AB7EE006AF7EE006A17
:100D4000B7EE007ABDE8F04F714672467346F7EE93
:100D5000007A8EF3008C10B4F1EE10CA4FF6607476
:100D6000C0F6FF740CEA040CE1EE10CA10BCF446A5
:100D700074476FF01505C5E720222146484602F06A
:100D800067FFBFE7C444000094420000014801F03F
:100D9000E7BE00BFD044000008B530B143683BB1A6
:100DA000006801F005F9002008BD6FF4E040FBE7A2
:100DB0000048F9E7EA8FFFFF38B5044618B90B4B36
:100DC0000B485B689847656855B115F002052068C7
:100DD00007D10146074801F04BF825600023636006
:100DE00038BD1422002102F05DFFF7E7281400202F
:100DF000094900002800002010B5044618B9134B1B
:100E000013485B6898476368BBB92368ABB94FF078
:100E1000FF3221460F4800F0FFFF08B923681BB9D5
:100E20000A4B0D485B68984714220021206802F0A5
:100E300039FF636843F002036360206802F0C1FF7A
:100E4000636843F00103636010BD00BF28140020F5
:100E500009490000280000202F49000008B558B1BA
:100E6000436863B100684FF0FF3101F02FF8054B84
:100E7000002818BF184608BD6FF4E040FBE70248A1
:100E8000F9E700BFE98FFFFFEA8FFFFF08B50649CA
:100E900040230648142202F082FFBDE808400449BE
:100EA000044801F095BE00BF440000202800002047
:100EB000E8440000D844000004488168406A884241
:100EC00003D003494FF080520A607047300600207B
:100ED00004ED00E0094A0A49936809685866996672
:100EE00008494B6843F080534B60002383F311881B
:100EF000BFF36F8F9368986E704700BF3006002075
:100F00002C45000000ED00E012498A684FF02800EF
:100F10001044EFF3098C80E8F01F202080F3118843
:100F2000BFF36F8F0C4F4FF000664A6A8A603E60D5
:100F3000506E0023536680F3118804B5104602F00A
:100F400021FEBDE8044002F1280090E8F01F8CF378
:100F5000098870473006002004ED00E01EF0040F01
:100F60000CBFEFF30880EFF30980816911F8021CD0
:100F70000229FFD001B502F0FAFD01BD43B2002BFA
:100F800008DB012200F01F0002FA00F0024A5B09B0
:100F900042F82300704700BF00E100E043B2002B9D
:100FA00001F10101A8BF03F160434FEA4111B8BF4D
:100FB000054BC9B2ABBF03F5614300F00F0083F8E6
:100FC00000131954704700BF14ED00E073B51E46BE
:100FD0000A9B05460093099B8C1802F0A8FF0B4A58
:100FE000A4F1200323F0070322F001029A61069A7C
:100FF0001E605A60079A9A60089ADA604FF0807211
:10100000DA61AB6400236B6602B070BDBF350000CF
:10101000F8B51E4605460C4617460023E1EE103A89
:1010200000F0D6F90A4B3C4428469D6024F00704A2
:1010300002F0A8FD304684F30988002163B681F3ED
:101040001188BFF36F8F0022002302F0B8FA00BFAF
:1010500030060020014910220A60704710ED00E0C0
:10106000404080F3118830BF704700BFEFF3088025
:10107000EFF30981724601B500F0D2F801BD00BF5F
:1010800030BFFFF7FDBF00BF114A08B5114B22F07A
:101090007F029A60BFF34F8FBFF36F8FD3F8882022
:1010A00042F4A002C3F888200B4A536823F040435F
:1010B0005360BFF34F8FBFF36F8F0023E1EE103A01
:1010C00000F0C4FD00F0CCFD00F050F900F000FE8F
:1010D0000000000000ED00E030EF00E001B572B666
:1010E0000B4A106A00281EBF0021116202F055FE53
:1010F00062B6EFF30580A0F110004FEAC000054989
:10110000014409C99847BDE8014003490847000068
:101110003006002014400000B90E000002F0E7FB8A
:10112000202080F3118808484FF40061401880F3B4
:101130000988EFF314800221084380F31488BFF379
:101140006F8FFFF7A1FF0000D00B00200C4B9A6AB5
:101150009A6A9A6A920708D55A6B9A6A120604D557
:1011600018B19A6A22F080029A620020044B9A6AAF
:101170009A6A9A6A9A6A42F0FF029A620870704705
:1011800000ED00E00D4B9A6A9A6A9A6A920508D5BA
:101190009A6B9A6A120404D518B19A6A22F4004232
:1011A0009A620020054B9A6A9A6AD20558BF9A6AD9
:1011B0009A6A42F47F429A620870704700ED00E03C
:1011C000074B00209A6A9A6A9A6A9A6A9A6A9A6A95
:1011D0009A6A9A6A6FEA02426FEA12429A6270470A
:1011E00000ED00E00D4B9A695A695A69D0070FD497
:1011F0005A6991070CD45A69520709D45A691007E1
:1012000006D45A69D10603D45A69920658BF5A695E
:101210005A6942F0FF025A61704700BFD0ED00E00A
:10122000F0B5414B8BB05B680025C3F3080385F331
:101230001188BFF36F8F02F07F44B4F17F4F1ED14E
:1012400012F001041AD0560602F0080467D482F0A6
:101250000402C2F3800564B1EFF389860022033BE8
:101260008DF80720042B4BD8DFE803F00B4C5041DE
:101270004800EFF38886F1E70E46EFE725462E4655
:10128000ECE7294BDA6A92073AD4DC6A14F080441E
:1012900008D028331B78EBB101200DF10701FFF7CF
:1012A00055FF04469DF8073093B92022314602A825
:1012B00002F0CEFC099B6DB3C3F3080222B96FEABA
:1012C00053236FEA4323099302A9204602F04DFC01
:1012D0000BB0F0BD154B1B782BB101200DF10701B0
:1012E000FFF750FFDDE7124B1F88BFB217B1FFF7C2
:1012F00067FFD6E70F4B5C69002CD3D0FFF772FF76
:101300000024CFE70DF107010020C8E70DF1070128
:101310000020E5E723F4FF7323F00103D3E7002C5B
:10132000AAD10646012599E700ED00E029ED00E08D
:101330002AED00E0D0ED00E0024A536943F01003CB
:101340005361704700ED00E0BFF34F8F0549064B36
:10135000CA6802F4E0621343CB60BFF34F8F00BF53
:10136000FDE700BF00ED00E00400FA0500232021A6
:101370000348C2180133412B82F80013F9D170479A
:1013800000E100E038B505464FF02003EFF311848B
:1013900083F31188BFF36F8F02F0D8FD0A4B9B686F
:1013A000AB420BD1094B5A68C2F3080212B920466E
:1013B000FFF790FD5A6842F080525A602046BDE81F
:1013C000384002F031BD00BF3006002000ED00E0E3
:1013D00010B50E4B88B002930D4B0E4C03930E4B81
:1013E0000E4A049302AB019301A82346012100F0A9
:1013F00003F9002307930A4B0121E41A05A805937A
:10140000069400F003F908B010BD00BF00000020F2
:101410000000000000000120060001000000002084
:101420000000002010B50B680C7A23F01F0204F0B6
:101430001F031A43CB68640923F01F03044943EADE
:10144000440343F001038860CA600B6110BD00BF14
:1014500090ED00E02DE9F04F8046894614460027C4
:10146000484D85B04F4507DA58F827305E68C6B357
:101470001F2E05D86FF01504204605B0BDE8F08F8B
:10148000F206F7D1D3F800A01AF01F0FF2D15046A0
:1014900002F0A2FB834606EB0A00013802F09CFB37
:1014A0008345E7D11BF1160FE4D0631E5B45E1DBFA
:1014B000C5F808B0E86858F82710C5F808B02E69D4
:1014C00020F01F00D1E900321A44984246F01F066E
:1014D00002F1FF3A18D1564505D15FFA8BF002F0C0
:1014E00059FB0137BEE7C5F808B0EB6822F01F02D0
:1014F00003F01F031A43EA60E0B202F04BFB10F165
:10150000160FB7D0441CECE7C5F808B02A69013BB8
:1015100023F01F0302F01F0213435645E0B22B6174
:10152000EBD002F037FB10F1160FA3D0C5F808B0CE
:10153000EA689DF80830013E62F304038DF8083034
:101540002B699DF808205B0863F347128DF808208B
:1015500058F827200130D2E900321344009323F0D9
:101560001F031E44A6EB0A06C4B226F01F060F2C6A
:1015700003963FF67FAF20466946FFF753FF0134DD
:10158000AFE700BF90ED00E00522034B5A60BFF3C8
:101590004F8FBFF36F8F704790ED00E0BFF35F8F09
:1015A0000022014B5A60704790ED00E070B50E4D7F
:1015B0002E68102E15D80024FFF7F0FF0B4B0C4AB5
:1015C0001A63A64205D10B4B1E70FFF7DDFF00200A
:1015D00070BD6968204601EB0411FFF723FF013459
:1015E000EFE74FF0FF30F3E7A042000090ED00E09E
:1015F000AAFF44008C06002010B5034C2278FFF7A8
:1016000029FF207010BD00BF8C0600202DE9F74F88
:10161000254C8A4680460027A1464FF0140B234DE7
:1016200057451ADAD8F804300193002B36D0D8F891
:1016300000100846009102F0CFFADDE900130646DB
:101640005818013802F0C8FA8642194A08D0142303
:101650005F436FF0150349F8073003B0BDE8F08F22
:1016600016F1160F2660F8D01378B342F5DD0BFBA8
:101670000793AE60AE60E868197B60F304011973EC
:101680002969187B490861F347101873EB6823F048
:101690001F0363602B6923F01F0323610137143498
:1016A00008F10C08BCE700BF4405002090ED00E005
:1016B0008C06002070B50C4B0E461C780546234660
:1016C00000210A4A0F2B0BDD094951F8040BFFF7E3
:1016D000A9FE224631462846BDE87040FFF7BABE53
:1016E000936011610133EDE78C06002090ED00E07E
:1016F0004405002082680C4B9A60036883F3888855
:10170000436883F38988027B02F00101EFF394833D
:1017100023F00303920748BF43F0020309B143F0EB
:10172000010383F39488704700ED02E0084AD36810
:1017300048B123F400531B041B0C43F0BF6343F474
:101740000033D36070479BB243F40053F5E700BF0A
:1017500000ED00E0084AD36840B19BB243F48043F7
:1017600043F0BF6343F40033D360704723F48043F6
:101770001B041B0CF4E700BF00ED00E0084AD3682F
:1017800040B19BB243F0080343F0BF6343F400331E
:10179000D360704723F008031B041B0CF4E700BF61
:1017A00000ED00E0034AD2F88C3043F44063C2F805
:1017B0008C30704700ED00E0084B1A6818B142F019
:1017C00001021A60704722F001021A601A6811B112
:1017D00042F00202F5E722F00202F2E7D0ED00E06B
:1017E000014B1860704700BFF8130020F0B54B792B
:1017F000012B29D0032B24D110268B79032B20D148
:10180000CC792CB1012C1CD103689B681B79C3B126
:101810000A7912B1022A14D10E2247F6122705685E
:101820000B68AD68BB422D6862D029D8B3F5965FCE
:1018300061D014D8B3F5167F5FD007D8B3F5967F83
:101840005ED06FF0220052E00026D6E7B3F5966F27
:1018500059D0B3F5166FF4D14FF41D233CE0B3F526
:10186000615F53D004D8B3F5165FEAD1324B33E051
:10187000B3F5964F4CD0B3F5E14FE2D12F4B2BE0AF
:10188000B3F5E13F46D012D84DF6C027BB4244D055
:1018900005D8B3F5164FD4D14FF41D031CE0B3F5B2
:1018A000614F3DD0B3F5963FCBD1254B14E0B3F556
:1018B000E12F38D008D8B3F5613F37D0214FBB4274
:1018C000BFD14FF0806307E0B3F5612F31D01E4FD9
:1018D000BB42B6D14FF08053C5F8243534438368FA
:1018E000224303C9C5F86C2583E803000020F0BD3E
:1018F0004FF40003F0E7154BEEE74FF41C33EBE732
:101900004FF4A033E8E74FF49E23E5E7104BE3E7FD
:10191000104BE1E74FF0EB73DEE74FF46503DBE7D5
:101920004FF46B03D8E74FF0E863D5E74FF06C73E3
:10193000D2E74FF07063CFE70050270000C075007A
:1019400000903A0190D0030040420F0000B0130015
:1019500000F03A0000A04E00026870B59268184B83
:1019600014684FF00052856803219A601D260022FA
:10197000C3F87412C3F87022C4F80C651C26C4F8AE
:1019800014654FF000669E60C3F86C12C3F86822BD
:101990001B23C4F808351A232946C4F81035FFF76D
:1019A00025FF58B90823C4F800351D440123C4F8A5
:1019B0001001C4F83455C4F83835236070BD00BF39
:1019C00000258450F0B5DAB100231C460E4D0F4FB0
:1019D000BB4206D3002C14BF6FF008006FF001006B
:1019E00009E055F8046BD6F80CC0604506D14C1ED2
:1019F00011B908461660F0BD214601240133E7E71E
:101A00006FF00D00F7E700BFA049000000000000E4
:101A1000054B1868043B1B68092B03D1431E584231
:101A200058417047002070473401FF004F4A08B505
:101A3000136843F0020313604D4B1B68092B01BF71
:101A40004FF050230022C3F81421C3F81821FFF7E8
:101A5000DFFF30B10123474A1360A2F63822C2F8F3
:101A60007835434B1B68092B07D1434B1B68012B6F
:101A70001EBF0122414BC3F87825FFF7C9FF10B103
:101A80000E223F4B1A603A4B1B68092B04D10022EF
:101A90003C4B1A6001225A600022D30003F57F03F9
:101AA000D3F80013013108D0D3F800130132D3F872
:101AB0000433B2F5807F0B60EFD1334BDA69D10785
:101AC0003BD5324B1946D3F80024012AFBD1C3F889
:101AD0000425D1F80034012BFBD12B4BDA69D20756
:101AE00008D5DA69294922F00102DA61D1F8002427
:101AF000012AFBD11A6A01320AD11A6A22F0FF02C6
:101B000042F020021A62214AD2F80034012BFBD1A4
:101B100000221E4BC3F80425D3F80024012AFBD170
:101B2000BFF34F8F1A491B4BCA6802F4E06213439C
:101B3000CB60BFF34F8F00BFFDE71B6A0133C0D0FE
:101B4000134BD3F88C2042F44062C3F88C20D3F8B6
:101B5000882042F47002C3F88820BFF34F8FBFF390
:101B60006F8F0D4B0D4A1A6008BD00BFD0ED00E02D
:101B70003001FF00384A00503401FF00004000509F
:101B8000E4AE03500C4700500080FF00009003506B
:101B900000ED00E00400FA05081400200090D003D6
:101BA00070B50026084B53F82040013053F8205000
:101BB000A54200D870BD236820465B68984700B1F5
:101BC00066600C34F4E700BF18450000104B70B598
:101BD00005461E460F4C9C4204D10E4CB44209D11E
:101BE000002412E062681AB122681268AA420CD07E
:101BF0000C34F0E763680BB90C34EFE72368284630
:101C0000196801F0F2FF0028F6D1204670BD00BF30
:101C1000CC1400205414002008B50B4D4FF02002C6
:101C2000EFF3118382F31188BFF36F8F02F0C3F9D2
:101C3000012104460228D8BF084602F0CCF92C62E4
:101C4000FFF70EFAEAE700BF300600200248034A19
:101C50000021121A02F026B8000000209006002091
:101C600008B50648064A0749121A01F0F1FFBDE817
:101C70000840054A0549064801F0EABFD413002090
:101C800030150020A049000000000000A04900001D
:101C90000000002008B50220FFF782FF084A09492A
:101CA000094801F016FE0320FFF77AFF00F022FC3E
:101CB00001F038FC054A137B23F00103137308BDC0
:101CC0005C460000674900006D490000C405002023
:101CD00080B5374BA2B083F308880025E023354C4C
:101CE000012784F82230E57725766576A576E576B6
:101CF000636A314E43F4E0236362636A43F4002372
:101D00006362A563FFF718FBFFF7A4F94FF0FF33F9
:101D1000A362E36207AB6C222946184601F0C2FFBA
:101D2000264C8DF82970A0602846FFF739FF384609
:101D3000FFF736FF00F090FB214B66624FF48062A4
:101D4000CDE90473CDE902551E4BCDE900551E497E
:101D5000304600F0B7FB737B23F0040213F01B0F37
:101D6000727304D1B36913B9304600F007FA174B08
:101D7000012205930F23CDE903320023144DCDE951
:101D8000013300934FF4A072124B1349284600F020
:101D900099FB6B7BE56023F004036B730F4B4FF4EF
:101DA0008062C4E906330849064B0348FFF730F95F
:101DB000D013002000ED00E0C40500203006002014
:101DC00096490000951C0000900600209B490000E9
:101DD00058050020191C0000900A00204806002029
:101DE00070B500240A4B0B48834201D3002070BD1C
:101DF00000211A699D685C61A94201D11C33F3E797
:101E00005E6901311660DE685A613244F4E700BF52
:101E1000CC140020CC14002010B513460C464FF013
:101E20002002EFF3118182F31188BFF36F8F4269B3
:101E30005AB12260136843618369013383610020D2
:101E400081F31188BFF36F8F0DE01BB923606FF032
:101E50000B00F5E70246044800F0A8FA18B9034B56
:101E60009B685B69236010BD8D0600203006002052
:101E700070B504460D464FF02003EFF3118683F34F
:101E80001188BFF36F8F02F01CF880B100212A681F
:101E900081664261427BD20603D183690BB900F0AF
:101EA0006DF93146BDE87040074801F0B2BF2B68BC
:101EB00062691A602B686361A369013BA36186F3C1
:101EC0001188BFF36F8F70BD8D060020F8B50446F2
:101ED0000F464FF02003EFF3118583F31188BFF312
:101EE0006F8FC26830495AB180688E68B04215D091
:101EF000B7B985F31188BFF36F8F6FF00F000CE057
:101F00008B6893F90E3023618B680132E260A36025
:101F100085F31188BFF36F8F0020F8BD2369F2E7C6
:101F200090F90E3096F90E109942A8BF194621EA91
:101F3000E17199422BDA00F04DFA06463B46224603
:101F400029461A4800F032FA0028E6D04FF0200364
:101F5000EFF3118583F31188BFF36F8F2368216935
:101F60009C4207D033B193F90E309942A8BF19466D
:101F700021EAE171A06890F90E30994209D16EB161
:101F800029460A4801F045FF6FF00A00C5E7002620
:101F9000D4E700F01FFA0028F2D1F0E785F31188AA
:101FA000BFF36F8FF0E700BF300600208D060020E2
:101FB00038B51D4B04469A68D37B013BD373C36885
:101FC000012B05D0013BC360BDE8384000F0BAB832
:101FD0004FF02003EFF3118583F31188BFF36F8F68
:101FE0000169806890F90E30994201D000F0F2F951
:101FF000204601F066FFA06080B190F90E202261BA
:1020000000228266427BD20603D183690BB900F0BD
:10201000B5F82946054801F0FCFED5E7E06085F3F8
:102020001188BFF36F8FCFE7300600208D060020A8
:1020300010B5084C23685BB1FEF726FC2368064AFE
:10204000184410610021BDE81040184601F0C3BFDC
:1020500010BD00BF6806002030060020F8B50D4610
:102060004FF02003EFF3118483F31188BFF36F8FD8
:102070004FF4004140F2E73600270022E1FB006701
:10208000094B30461A6139464FF47A720023FEF745
:10209000C7F8064B1860064B1D60FFF7C9FF84F3B5
:1020A0001188BFF36F8FF8BD30060020680600204E
:1020B000640600204FF02003EFF3118183F31188B1
:1020C000BFF36F8F044B9A68D37B013BD37381F3CB
:1020D0001188BFF36F8F704730060020094B03F162
:1020E0002802824205D19B688B4202D14B7BDB06E2
:1020F00006D1D1E9003213605A600023C1E90033F0
:10210000704700BF3006002038B50D4C024604F180
:10211000280001F09FFE054600B9E568A3684AB9AA
:102120005A7BD20606D1AA6922B9DA897F2A01D957
:10213000636238BD9D4201D0FFF77AFF6562F8E720
:102140003006002010B54FF02003EFF3118483F325
:102150001188BFF36F8F084B00209A68D37B01333F
:10216000D373FFF7D1FF84F31188BFF36F8FBDE8FE
:10217000104001F065BE00BF30060020F8B54FF0FA
:102180002003EFF3118483F31188BFF36F8F154A97
:10219000114651F8283F8B421DD0E3B1D66A90F921
:1021A0000E5093F90E70AF4210DD5A68C0E900324C
:1021B00010605860437B43F0400343730020FFF7F7
:1021C000A3FF84F31188BFF36F8FF8BDB34202D031
:1021D0001B68002BE5D1D36A01604360D36A1860A5
:1021E000D062E7E730060020F8B504464FF0200340
:1021F000EFF3118583F31188BFF36F8F437B5A068A
:1022000003D501461748FFF769FF174A02F1280175
:10221000D2E90A308B421FD0F3B194F90E6093F9E2
:102220000E70B74213DD5968C4E900310C605C6080
:10223000637B906843F040036373031B584258412B
:10224000FFF762FF85F31188BFF36F8FF8BD9842E7
:1022500002D01B68002BE2D1C4E90010D36A1C60D5
:10226000D462E5E75806002030060020154A1649DA
:1022700038B50C689368A342144603D1BDE83840D2
:10228000FFF7D6BE00250D6010490968B9B1D9899C
:102290007F2914D80E4993F90E5009688D420EDB40
:1022A0000C498B420BD0996949B91169814203DC11
:1022B0001846FFF799FFE1E7091A116138BD0023BD
:1022C0002361FBE73006002060060020680600203E
:1022D000640600205805002038B504464FF020035E
:1022E000EFF3118583F31188BFF36F8F437B5A0699
:1022F00007D501460948FFF7F1FE637B23F0400351
:102300006373074B9868031B58425841FFF7FCFE64
:1023100085F31188BFF36F8F38BD00BF58060020CA
:102320003006002070B504460D461646FFF7D4FF70
:10233000637B43F0020363737DB12B68A5609D420C
:1023400029D043B394F90E2093F90E1091421CDD6D
:102350005A68C4E9003214605C60731C22D04FF4E8
:10236000004540F2E730002126EAE6764FF47A7223
:10237000C5FB06010023FDF753FF0B49421C04F186
:102380001800BDE8704000F049B969688B4202D07E
:102390001B68002BD8D16B68256063606B681C607C
:1023A0006C60DAE770BD00BF613E000010B50C46FE
:1023B0001146064A9068064A10601A46FFF7B2FFB7
:1023C0002046BDE81040FEF785BD00BF3006002066
:1023D000600600202DE9F84304464FF02003EFF398
:1023E000118983F31188BFF36F8F01F0F0FC4EB2B7
:1023F000804660B3174D214605F128073846FFF7A0
:102400006DFEAB6AA673BB422A4619D0C3B1E96A16
:1024100093F90E00B0420EDD5A68C4E90032146030
:102420005C600120FFF770FE89F31188BFF36F8FA6
:102430004046BDE8F883994202D01B68002BE7D1E3
:10244000D36A27606360D36A1C60D462E9E7A6732D
:10245000EAE700BF300600200021044B084603F1E4
:102460002802C3E90A22FFF7F9BD00BF30060020A9
:10247000014B9868704700BF3006002010B5024637
:102480004FF02003EFF3118483F31188BFF36F8FB4
:10249000437B590704D484F31188BFF36F8F10BDB9
:1024A00023F00403437301F039FD10B11046FFF728
:1024B00065FE2146BDE81040014801F0AABC00BFFE
:1024C0008D06002030B587B00E9D044604950D9D05
:1024D00003950C9D02950B9D01950A9D0095FEF7B5
:1024E00075FD034B9B6803B11B6E236607B030BDBF
:1024F000300600202DE9F04F284E294DB04687B018
:10250000B54205F1300410D3FFF7D4FD4FF4004974
:1025100040F2E7360027224CDFF888A0444521D35B
:1025200007B0BDE8F04FFFF70DBE54F8043C05932B
:1025300054F8103C049354F8143C039354F8183C9A
:10254000029354F81C3C019354F8203C009354E946
:102550000A2354E90C01FFF7B5FF54F8303CDD6461
:102560002546CDE7616A4B1C04D0256821B9284671
:10257000FFF784FF3034D1E7B346BC46E9FB01BC2A
:102580004FF47A72002358466146FDF749FE5146E2
:10259000421C05F1180000F041F8EBE7CC140020D4
:1025A000CC140020613E0000034B1B680BB9FEF702
:1025B0006BB90020704700BF6C060020036840B173
:1025C000074A5268904204D01BB19A6881680A4455
:1025D0009A60426813605A600023C0E90033704774
:1025E0000C1400200B4B10B51C689C4208BF002443
:1025F000FFF7DAFF54B1A368181A20EAE070064B1F
:102600001B6913B19842A8BF184610BD6FF0004077
:10261000F5E700BF0C1400203006002070B504461A
:102620001646C1604FF02003EFF3118583F3118844
:10263000BFF36F8FFFF7B8FF012EACBF80190130D9
:10264000164BA0601A689A4201D05E6832B95A6887
:10265000236062605A6814605C600AE09068A16858
:10266000884215DD411A91605168C4E900210C606F
:1026700054601A689A4206D0944204D1FFF7B2FF20
:102680000021FEF7ABF885F31188BFF36F8F70BDA3
:10269000091A9642A160DAD01268D7E70C1400201C
:1026A0002DE9F04B0446FFF7E1FD4FF02003EFF377
:1026B000118583F31188BFF36F8F214F214EB846E8
:1026C000DFF884903460D9F8004032684C45D7E98F
:1026D00000BC05D024B1A368934214DD9B1AA3600B
:1026E00000241BEB02004CEBE271C8E900013460EE
:1026F000FFF778FF2146FEF771F885F31188BFF3E5
:102700006F8FBDE8F08B1BEB03004CEBE371D31A2A
:1027100033600023C7E90001A3602046FFF74EFFA6
:1027200085F31188BFF36F8FE36898474FF020035C
:10273000EFF3118583F31188BFF36F8FC3E700BFF9
:10274000000000206C0600200C14002038B5074C57
:10275000074DAC4201D3002038BD04F114032046DC
:10276000C4E9053300F0E5FE1C34F2E7CC14002088
:10277000CC14002001F055BA0A46002101F092BAAB
:1027800010B5114800F048F800B110BD0F4800F036
:1027900043F80028F9D10E4C204600F03DF80028FF
:1027A000F3D10C4B0C481C6000F036F801460028B1
:1027B000EBD100F02DF8044608B1204610BD00F022
:1027C00051F82046FAE700BF20140020141400201E
:1027D0001C140020241400201814002008B50848F8
:1027E00000F024F8074800F021F8074800F01EF830
:1027F000064800F01BF8BDE8084000F00BB800BF29
:1028000020140020141400201C1400201814002090
:1028100000207047704700BF08B5034B02681B6873
:1028200010689847002008BD3014002008B5034BFD
:1028300002685B6810689847002008BD30140020CB
:102840000268024B10689B68184700BF30140020D4
:1028500008B5034B0268DB6810689847002008BD84
:102860003014002070B5094C094D2069AB689847B9
:1028700018B1084B08485B6898470021074AEB6885
:1028800011602069BDE87040184700BF4014002067
:10289000301400202814002030450000700600206D
:1028A00070B5144C144D0646AB6820699847F0B9D2
:1028B000124A13685EB91BB901201149C1F800051D
:1028C00001331360EB6820699847002070BD002B2E
:1028D000F8D0012B08BF0A4903F1FF3308BFC1F844
:1028E000000520691360EB6898470020EEE7054873
:1028F00070BD00BF4014002030140020700600207E
:1029000000008450E98FFFFF0020704700207047CF
:10291000430503D54FF0FF32024B1A60024B18609B
:10292000704700BF08118450081A8450014B18608A
:10293000704700BF041A845008B100F003B84FF488
:10294000750070470246074803681342FCD021B166
:10295000054B06481B680B600360054B00201A609E
:10296000704700BF001A845004118450081184502D
:10297000081A845000F0A0B830B129B100230144F6
:10298000037001308142FBD1704700BF2DE9F04157
:10299000ADF51A7D0F4605920021144612A84FF49A
:1029A00008721E4601F07EF9002308A81946282265
:1029B000069301F077F9002F3CD0002E3AD0002C7E
:1029C00038D0042106A8FFF7D7FE08A82821FFF772
:1029D000D3FE08A800F032F878B14FF0FF3512A806
:1029E0004FF40871FFF7C8FF06A80421FFF7C4FFE2
:1029F00028460DF51A7DBDE8F08112AB0DF11C08DB
:102A00000390CDE90163024605AB08A9CDF800802B
:102A100006A800F0E9FC0028DFD13368A342DCD32C
:102A2000D8F800100546083138462246FFF7A2FEC6
:102A30003460D4E74FF0FF35DAE700BF1C2330B530
:102A400083B002A941F8043D044600F0B1F90546FF
:102A5000D8B9019B1C2B1BD1D4E9003201210033D2
:102A6000E16118BF01230AB143F00203A26832B941
:102A7000E268AAB9C4E908323BB90D4D09E0E26841
:102A800043F0040362B9C4E90832284603B030BDFC
:102A9000084D20461C21FFF76FFE284603B030BDCD
:102AA0000022284643F00803C4E9083203B030BDD1
:102AB0000E0CF000370CF00010B50C4C236813B16D
:102AC0000B4B1B686BB900F031F938B1013806289F
:102AD00096BF084B084853F8200010BD0122044B54
:102AE0001A6001230020236010BD00BF740600207F
:102AF0007806002050450000FE8FFFFF10B5094CFE
:102B000023681BB101230020236010BD00F07CF876
:102B10000028F7D00138062896BF034B034853F826
:102B2000200010BD7406002050450000FE8FFFFFFE
:102B3000BFF34F8F0549064BCA6802F4E0621343A6
:102B4000CB60BFF34F8F00BFFDE700BF00ED00E09B
:102B50000400FA05014B5B68184700BF28140020E9
:102B6000024BD0E90012C3E900127047281400207C
:102B7000704700BF10B5044620B1BFF35F8F00203F
:102B8000206010BD0348FFF7E5FFBFF35F8F002013
:102B9000206010BD9045000010B5044610B1002320
:102BA000236010BD0248FFF7D5FF0023236010BD4E
:102BB0006C45000050B10122D0E8EF3FC0E8E12FA2
:102BC0000029F9D1012BF7D0BFF35F8F00207047A8
:102BD00070B40B4B0668C268D0E90154C3E90242E5
:102BE000C3E90065D1E903020E68064BD1E901543F
:102BF000C3E90065C3E902401A6170BC704700BFB9
:102C0000301400204014002010B5FFF77DFE70B98D
:102C1000FFF7B6FD80B9FFF743FE80B9114B1B6883
:102C20001B0EF02B0DD00624FFF770FE00E00324EE
:102C3000FFF7D4FD204610BD0424204610BD00241B
:102C4000F2E7094A094B12689A4201D00724EBE7E0
:102C50000120FFF725FE0028F1D1054B044618603E
:102C6000E8E700BF28198450241A84500000E020AF
:102C70000C1A845030B5ADF5157D4FF40872002163
:102C80000CA801F00FF8002302A81946282201938E
:102C900001F008F802A8FFF7D1FE18B105200DF5E4
:102CA000157D30BD1C4D4FF0FF312868FFF7C8FD82
:102CB0000446F0B90020FFF7F3FDB0B90CAA02A951
:102CC00001A800F0D5FB04460120FFF7E9FDF0B9AB
:102CD0002868FFF7BDFD10B11048FFF73BFF204605
:102CE000002CDBD10DF5157D30BD0D48FFF732FF0F
:102CF000E4E70C48FFF72EFF012CDBD12868FFF733
:102D0000A7FD0028CAD00548FFF724FFC6E70648FC
:102D1000FFF720FFDCE700BF24140020C8450000B7
:102D2000E0450000B04500000046000008B5FFF790
:102D3000EBFD18B1FFF752FD032008BDFFF720FDA2
:102D400068B9FFF7ADFD60B9154B1B681B0EF02B82
:102D500012D0FFF7DBFDFFF741FD062008BD042080
:102D600008BDFFF7D3FDFFF739FDFFF783FF00280C
:102D70000CBF0020052008BD0A4A0B4B12689A427E
:102D800005D0FFF7C3FDFFF729FD072008BD01208F
:102D9000FFF786FD0028E4D1044B1860E5E700BF8B
:102DA00028198450241A84500000E0200C1A845002
:102DB00018B111B10B681C2B01D0012070474FF4E2
:102DC0007F033A4AD3F8101C91425AD0D3F8102C02
:102DD000013256D0D3F8102C4FF47F030260D3F8A1
:102DE000141C334A91425ED0D3F8142C01325AD0CD
:102DF000D3F8142C4FF47F034260D3F8182C12F54B
:102E0000947F4DD0D3F8182C013249D0D3F8182C28
:102E10004FF47F038260D3F81C1C264A91423CD0B9
:102E2000D3F81C2C013238D0D3F81C2C4FF47F037C
:102E3000C260D3F8002C70322DD0D3F8002C0132B0
:102E400029D0D3F8002C4FF47F030261D3F8042C6F
:102E5000AF321ED0D3F8042C01321AD0D3F8042C90
:102E60004FF47F034261D3F8081C134A91420BD000
:102E7000D3F8082C013207D0D3F8083C8361002036
:102E8000704740F6FC02A7E740F237338361002029
:102E900070475122E4E79022D5E742F60412C5E7D5
:102EA00040F6D862B4E742F2D002A3E7FCF8FFFF95
:102EB000D020FFFF0429FFFF37F3FFFFA8B32DE960
:102EC000F0414C1EB4F5047F2CD25BB352B34FF0EB
:102ED000000CC900E646654664464F1E03F1FF3804
:102EE0000CE0AB4216D08E4501D10CF1010CA84587
:102EF00016D00134BC4205F1010518D8610950F81B
:102F0000211004F01F06F1401F2E18BF01F001012F
:102F1000002CE6D10025A8458E464FF0010CE8D1E3
:102F20006245E6D20348BDE8F081024870470020C0
:102F3000BDE8F081370CF1002DE9F04F8FB00D4660
:102F4000DDE919418346002957D129690391002100
:102F50001C60189B1960002A00F02281814A824B74
:102F600011686A6A1B689A4257D10A2955D19BF8A1
:102F7000033006930399042308467C4A0293A2FB7C
:102F800000029208CB0002EB420204F10800A1EB20
:102F90004202013BDFF8D091DFF800A204900092DA
:102FA0000593189B039C1C60002C00F0CC8000262D
:102FB000049F00F0A9FA00230793069BBBF1000FC2
:102FC0003AD0002D34D053BB5B000693BBF1000F09
:102FD00036D0002D34D0E3B106A9284600F084FA9B
:102FE000002800F07D81624B984212D0009000F0E2
:102FF0008BFA00980FB0BDE8F08F4FF47F01D1F845
:103000000C0C01300CBF4FF40471D1F80C1C03916F
:103010009DE72B6A73B95648E8E75648E6E706A9E4
:10302000284600F061FA68B1534B9842DED0069B07
:10303000082BC9D15148D9E7082BFBD05B00069378
:103040004F48D3E72946069800F030FA0028EBD124
:10305000069B082B00F00E81042B00F03181A3F1B8
:103060000203B3FA83F35B09019301231946454A2E
:10307000136042F8843C434B19606B6AC9F8003016
:10308000D9F800206B6A9A42F5D14FF000084FF052
:10309000FF30CAF80080FFF73BFC3B4A3B4B404601
:1030A0001A60FFF743FC0A22019839492D4B08604A
:1030B0001A602A69A8F15538A8FB02126B6A120936
:1030C00003EB4303DB0303FB02F3324A9B09136068
:1030D0000123CAF800300699DBF800200B0243EA0E
:1030E000016322F07F421343CBF8003007A800F0C1
:1030F000CDF9002898D1284BA8FB04281A6814336E
:10310000089253F8102CB6EB980F099253F80C2C38
:103110000A9253F8082C0B9253F8042C0C921B685B
:103120000D9301D1009B9BB93846182208A9FFF7DF
:1031300021FB183C18370136002C7FF43AAF049B72
:10314000002B40F09A800023189A1360069B6FE7CB
:103150001A46384608A9E41AFFF70CFB009B1F44E7
:10316000E9E700BF3811845030118450ABAAAAAAF5
:10317000310CF100300CF100020CF100320CF100C6
:10318000350CF100C4118450FEFFFF0F0011845074
:103190000C118450D8118450141184502C11845077
:1031A000BBF1000F3FF44CAF002D3FF449AF0123BA
:1031B0000EA941F8203DCBF80020284600F094F9F4
:1031C00000287FF413AF2946069800F06FF9002815
:1031D0007FF40CAF069F082F00F0EB80042F00F067
:1031E000EA80A7F10207B7FA87F77F09012216469E
:1031F000734B74491A6018460A60943B06606A6A09
:103200001A6019686A6A9142F8D14FF000086E4B53
:103210004FF0FF30C3F80080FFF77AFB6B4B6C4A2E
:1032200040461A60FFF782FB0A226A496A4B0F6028
:103230001A601A992B6901296A6A00F0B1806749FE
:10324000A1FB03131B09012102EB4202D20303FB82
:1032500002F3634A9B0913605B4B19600699DBF824
:1032600000200B0243EA016322F07F421343CBF8B4
:1032700000307FE603230193F7E6039BB3F5047F59
:103280003FF661AFDDE9047C204623466E6904E029
:10329000012001336345144615D85A0957F82220F6
:1032A00003F01F01CA401F2918BF02F00102002BC2
:1032B000EED0A242ECD101308642EAD149480BE07F
:1032C00002230193D1E64FF48063DDE90310AA697C
:1032D000FFF7F4FD00285DD00023189A1360A3E6E1
:1032E0002946069800F0E2F800287FF47CAE069CA0
:1032F000082C51D0042C51D0A4F10204B4FA84F467
:10330000640901231E4619462D4A136042F8843C85
:103310002B4B19606B6AC9F80030D9F800206B6A32
:103320009A42F5D100274FF0FF30CAF80070FFF73E
:10333000EFFA264B264A38461A60FFF7F7FA0A22B8
:103340002449254B0C601A602A6924496B6AA1FB49
:10335000021203EB43031209DB0303FB02F3204ACF
:103360009B091360CAF80060069BDBF800101A0284
:1033700042EA036321F07F421A43130A03F47F03F6
:10338000134323F07F43CBF80030029B013B0293B1
:103390007FF407AE002029E60324B2E70224B0E759
:1033A0004FF47F03D3F80C1C013106D0D3F80C3C4A
:1033B00045E703271AE7022718E7162343E700BF6C
:1033C000C4118450401184502C1184500011845039
:1033D000FEFFFF0F0C11845038118450ABAAAAAA2B
:1033E000D8118450360CF1002DE9F0431B4C85B008
:1033F0000746DDE90D56884620684FF0FF319146BB
:10340000FFF71EFA28BB0020FFF74AFAE8B90023AD
:10341000CDE9005602934A46414638460C9BFFF7D9
:103420008BFD05460120FFF73BFA50B92068FFF7F6
:103430000FFA10B10A48FFF78DFB284605B0BDE82A
:10344000F0830848FFF786FBF0E70748FFF782FBA9
:10345000DDE70648FFF77EFBD5E700BF2414002018
:10346000C845000000460000E0450000B0450000EF
:1034700010B5012486B005ABCDE9012400930022EC
:1034800004ABFFF759FD06B010BD00BF08B50146FB
:103490004FF48060FFF750FA00230249024A0B60A4
:1034A000136008BDC81184502C11845001380728BE
:1034B00015D8DFE800F0100C140814141404CB68BD
:1034C00000204B6270478B6800204B6270474B684E
:1034D00000204B6270470B6800204B627047014828
:1034E000704700BF310CF1000B6802E0082B0B6045
:1034F00006D8026A13424FEA4303F7D00020704710
:1035000000487047310CF10000230449044A0B6065
:103510004FF480601360FFF7FBB900BF2C1184509B
:10352000C411845008B5FDF761FABDE80840FDF705
:10353000F3B9FF232DE9F04F4668C37232460023EA
:103540004FF00C090789016806FB07FC90F80A8018
:103550006144984505DC002319468F4220DCBDE814
:10356000F08FBCFBF2F509FB03FED0F80CA0202D78
:103570000AEB0E0404F1040BC4E901BB05D8C372C5
:10358000920822F003020133E3E715F11F0448BF5C
:1035900005F13E0464114AF80E1001EB8401EFE7D7
:1035A000C268056802F1040CEC1845F803C0956880
:1035B00001316560956833442C609460CDE7044622
:1035C00008B5084611461A46A047FEF751FFFDF719
:1035D000D9FE0020704770B50D4604464520A0472F
:1035E00029465220A04729462346BDE87040522074
:1035F00018472DE9F04F4FF0000806460F464FF0F0
:10360000FF3AC1468BB01C46531E0293002505E0CD
:103610006DB9252800F04F813946B047029B13F859
:10362000010F02930028F3D10BB0BDE8F08F64289E
:103630006ED01AD839280AD8312860D22D2800F047
:10364000408130284CD0252807D139460BE0582836
:1036500000F0BB80632800F02A8139462520B0475E
:103660003946029B1878B047D0E7702800F0A38055
:1036700011D869284CD06C2805D1B8F16C0F2AD12B
:103680004FF04C08CAE76828E7D1B8F1680F22D19B
:103690004FF04808C2E7752871D018D87328DCD1DC
:1036A00054F8045BAB465B461BF8010B002840F066
:1036B000FB80B9F1030F40F00A815D1BAAEB050501
:1036C000002DA3DD39462020B047013DF8E77828DA
:1036D0007BD07A28C1D1B8F1000FBED180469DE7DA
:1036E000BAF1000F0EDAB9F1000F00F0ED80A0F191
:1036F000300AB9F1000F08BF4FF002098EE7BAF1A6
:10370000000FF4DB0A2303FB0A0AAAF1300AF0E7F0
:10371000B8F17A0F02D154F8045B1FE0B8F16C0FD6
:10372000F9D0B8F14C0FF6D1073424F00704F4E8CF
:10373000022312F10041069143F10001079100219B
:10374000DDE906BC4FF0FF30614508BF584504D2A3
:1037500039463046FFF73FFF58E71546002D05DA9A
:1037600039462D20B0476D420AF1FF3A4B462A46B2
:10377000CDF800A039463046FCF706FF46E7B8F121
:103780007A0F02D154F8042B11E0B8F16C0FF9D084
:10379000B8F14C0FF6D100214FF0FF30073424F080
:1037A0000704F4E80223994208BF9042D0D3CDF831
:1037B00000A04B46DEE739463020B0473946782036
:1037C000B0474FF0080A4FF00109029B1B78702B9D
:1037D00004D154F8043B049300230DE0B8F16C0FBE
:1037E000F7D0B8F14C0FF4D1073424F007031C468E
:1037F00054F8082B5B680492002110224FF0400B14
:1038000003910591ABF1040B0498CBF1200CABF1C3
:10381000200120FA0BF003FA0CFC40EA0C0023FA1A
:1038200001F1084310F00F0006D1059911B9BBF161
:10383000000F22D1302103E009288CBF572130210D
:10384000084440B2394608930592B047039B059A55
:1038500001330393089BBBF1000F23D1B9F1030F90
:103860007FF4D4AE039BC3EB4A05002D7FF7CEAEA9
:1038700039462020B047013DF7E7511E9245089197
:1038800007DBB9F1010F06D1394630200993B04763
:10389000099B089AB6E7B9F1020FFAD109933946A4
:1038A0002020F4E70595ADE73946B047FBE63946F9
:1038B00054F8040BD7E6A846A9464FF0FF3A012575
:1038C000ACE64FF00309A9E64FF00109A6E605466C
:1038D000A4E60FB407B504A951F8040B0191FCF755
:1038E000A5FE03B05DF804EB04B070477047FEF727
:1038F0009DB883685A7A32B993F908000028CCBF82
:1039000000200120704702207047026870B595685A
:1039100084684FF02003EFF3118683F31188BFF31F
:103920006F8F237A013B5BB2002B237218D1C4E95D
:1039300000336B6883B90122EB7A03F150231A60DC
:1039400000222B8903F150231A600020607286F355
:103950001188BFF36F8F70BD98470028EBD1F4E753
:103960004FF00000BCBF20726FF04400EFE7F8B5E5
:103970000368064614469F6885684FF02003EFF3FE
:10398000118283F31188BFF36F8F2B7A01335BB2FF
:103990002B7282F31188BFF36F8F6A7A32B10CB940
:1039A0000020F8BDD4E901319847F9E7012B06D191
:1039B0003B6833B90122BB7A03F150231A604CB93A
:1039C000EEE798470028F5D1002CE9D0D4E9013181
:1039D000304698472B689C420DD013B11B68002BD2
:1039E000F9D1002020606B6813B9C5E90044D7E71E
:1039F0001C606C60D5E76FF04400D2E70022FFF74F
:103A0000B6BF83680020C3E90000704710B50022EC
:103A1000044601210520FDF7C1FA0520FDF7AEFAA5
:103A20004FF050230222C3F8182503220020C3F8C8
:103A30000423A368C3E9000010BD38B584680546B7
:103A400023682BB161681A688B42226008BF6260EC
:103A50000122627203B938BDD3E90121284690479B
:103A60002368002BF7D061681A688B42226008BF78
:103A70006260EFE770477047002307B501A88DF833
:103A80000430FEF777FF03B05DF804FB902908B51A
:103A9000134639D10A4601460020FEF777FFBDE8FC
:103AA0000840714672467346B7EE000AF7EE000A08
:103AB000B7EE001AF7EE001AB7EE002AF7EE002A6A
:103AC000B7EE003AF7EE003AB7EE004AF7EE004ADA
:103AD000B7EE005AF7EE005AB7EE006AF7EE006A4A
:103AE000B7EE007AF7EE007A8EF3008C10B4F1EEA8
:103AF00010CA4FF66074C0F6FF740CEA040CE1EED5
:103B000010CA10BCF44674476FF01500C7E7FEE713
:103B1000FDF7ACBA43B2A9B1002B12DB01215B095E
:103B20009B0003F1604303F56143D3F8802200F06A
:103B30001F0001FA00F022EA0002C3F88022D3F845
:103B400080327047002BFCDB01225B099B0003F1F4
:103B5000604303F56143D3F8801200F01F0002FABE
:103B600000F00843C3F88002E9E700F007B9014616
:103B7000006800F003B908B5FDF782FABDE8084017
:103B8000FDF79AB907B5002101A8FDF793FD03B031
:103B90005DF804FB30B50B6885B04C689DF80820D3
:103BA0000D89013C0093498923F01F03234465F3E9
:103BB000040261F3471223F01F030F288DF8082039
:103BC0000393044605D86946FDF72CFC204605B052
:103BD00030BD6FF01504F9E740E800F313F4803FBF
:103BE000D8B208BF6FF0150070470138013910F8DE
:103BF000013F11F8012F934201D1002BF7D1981A00
:103C0000704710B55AB10139841810F8012B11F81A
:103C1000013FA04201D09A42F7D0D01A10BD104601
:103C2000FCE7431A934210B500EB020308D30246A7
:103C300001399A420BD011F8014F02F8014BF8E715
:103C40000A4412F8014D8A4203F8014DF9D110BD22
:103C5000F0B581EA0004A50703460BD0013B0A44F6
:103C600091421AD1F0BD002AFCD011F8014B013A63
:103C700003F8014B9C07F6D19508AC001E1F0F19E5
:103C8000B94205D16FF00306234406FB0522E5E7A0
:103C900051F804CB46F804CFF2E711F8014B03F8D2
:103CA000014FDDE7034670B5C9B29C0710D141EA68
:103CB000012444EA0445940803EB8406B3420DD181
:103CC0006FF0030505FB04241C44A34209D170BD19
:103CD000002AFCD003F8011B013AE6E743F8045B35
:103CE000ECE703F8011BF0E74FF0FF3070470B469D
:103CF000826892E8030083E80300002070470368AD
:103D00009B681B68D3F88004C3F88004704703687D
:103D100082689B681B68D3F8100138B1127A0020C2
:103D20000A700122C3F810011A6070474FF0FF308B
:103D300070470022036882B09B688DF807101B68EB
:103D4000C3F820210DF10702C3F844250122C3F86E
:103D500048259A60D3F820110029FBD0DA6002B020
:103D6000704708B50020FDF7EFFA08B5FDF70EF82B
:103D7000FDF78CF8BDE80840FEF7C0BE70B50546FB
:103D80000E46FEF775FB314604462846FFF7E9FF6D
:103D90002046BDE87040FDF7F5BAFFF76CBE30B5C0
:103DA0000024C0E90232C0E905440161A34202D106
:103DB000C0E9000030BD456901340D604161114426
:103DC000F4E70023C0E90000C0E902337047437BF9
:103DD000DB0603BF8069B0FA80F04009002070471D
:103DE00038B504464FF02003EFF3118583F31188B3
:103DF000BFF36F8F01468068FEF770F9637B23F095
:103E00000203637385F31188BFF36F8F0023A360F0
:103E100038BD21B9EFF3058008B9FDF75BB881F330
:103E20001188BFF36F8F7047034620B9EFF3058207
:103E30000AB9FDF74FB883F31188BFF36F8F70474E
:103E40004FF02003EFF3118083F31188BFF36F8FDE
:103E5000FFF7EABF0368984214BF18460020704776
:103E600050F8103C70B50446A0F11805CBB14FF0E6
:103E70002003EFF3118683F31188BFF36F8F294678
:103E800050F8100CFEF72AF914F80B3C23F002034B
:103E900004F80B3C86F31188BFF36F8F002344F8BE
:103EA000103C14F80B3C284623F0140304F80B3C98
:103EB000FFF78DFF20B12846BDE87040FEF75EB9E0
:103EC00070BD38B54FF02003EFF3118283F31188F2
:103ED000BFF36F8FFFF7BEFF044682F31188BFF375
:103EE0006F8FC8B14FF02003EFF3118583F3118872
:103EF000BFF36F8F01468068FEF7F0F8637B23F015
:103F00000203637385F31188BFF36F8F002304F1FD
:103F10001800A36000F039F8204638BD437BDB066B
:103F200003BF8069B0FA80F040090020704710B5E7
:103F3000029C8373047300230424C3734473C0E995
:103F40000633C0E91333C0E9161210BD036D10B576
:103F5000044603B198472046FFF7E0FF38B12046FA
:103F6000FEF7BAF9637B43F00803637310BD637B0C
:103F70009B0702D52046FFF733FFA369002BF1D042
:103F800004F1180000F001F8ECE710B54FF0200242
:103F9000EFF3118482F31188BFF36F8F03683BB195
:103FA000FEF70CFB002084F31188BFF36F8F10BD68
:103FB0006FF01500F7E710B54FF02003EFF3118411
:103FC00083F31188BFF36F8FFEF70CFB84F3118826
:103FD000BFF36F8F10BD70B504460E464FF020033F
:103FE000EFF3118583F31188BFF36F8FFEF7FAFAB1
:103FF000012805DDA04203DD31462046FCF7EEFB3B
:1040000085F31188BFF36F8F70BD704744C2FF7F87
:104010000100000000000000113B00000000000053
:10402000113B000000000000113B000000000000F8
:10403000113B000000000000113B000000000000E8
:10404000CD06000000000000113B00000000000051
:10405000113B000000000000113B000000000000C8
:10406000113B000000000000113B000000000000B8
:10407000113B000000000000113B000000000000A8
:10408000113B000000000000113B00000000000098
:10409000113B000000000000113B00000000000088
:1040A000113B000000000000113B00000000000078
:1040B000113B000000000000113B00000000000068
:1040C0002507000000000000113B00000000000078
:1040D000113B000000000000113B00000000000048
:1040E000113B000000000000113B00000000000038
:1040F000113B000000000000113B00000000000028
:10410000113B000000000000113B00000000000017
:10411000113B000000000000113B00000000000007
:10412000113B000000000000113B000000000000F7
:10413000113B000000000000113B000000000000E7
:10414000113B000000000000113B000000000000D7
:10415000113B000000000000113B000000000000C7
:10416000113B000000000000113B000000000000B7
:10417000113B000000000000113B000000000000A7
:10418000113B000000000000113B00000000000097
:10419000113B000000000000113B00000000000087
:1041A000113B000000000000113B00000000000077
:1041B000113B000000000000113B00000000000067
:1041C000113B000000000000113B00000000000057
:1041D000113B000000000000113B00000000000047
:1041E000113B000000000000113B00000000000037
:1041F000113B000000000000113B00000000000027
:10420000113B000000000000113B00000000000016
:10421000113B000000000000113B00005C46000064
:1042200049060000000000005C460000B1060000E6
:104230000000000036460000033A0000E84200009B
:10424000404600000D3A0000DC4200004A460000F3
:1042500065070000000000005C460000AD1500008E
:10426000000000002F460000591900001045000012
:104270005C4900006B3D0000000000005C4600004F
:10428000E11D0000000000005C4600004D2700001A
:1042900000000000DEE61E284CBBCE8F015B000054
:1042A00002000000A84200000000000020460000BC
:1042B00006000000E0FF0F0000000020284600007C
:1042C00021000000E0FF0020FD3900000B39000054
:1042D0006F39000000000000F3380000000000000B
:1042E00000000000000100040000000000000000C9
:1042F0000401080C1701000007010000070100007D
:10430000070100000701000007010000070100008D
:10431000070100000701000007010000070100007D
:10432000070100000701000007010000070100006D
:10433000070100000701000007010000070100005D
:10434000070100000701000007010000070100004D
:10435000070100000701000007010000070100003D
:10436000070100000701000007010000070100002D
:10437000070100000D480000420100001448000041
:10438000050100001E48000014010000274800003D
:1043900015010000304800003901000039480000D4
:1043A00009010000444800000A0100004F480000D5
:1043B0000A010000594800000B010000634800009A
:1043C0000F0100006E480000100100007948000055
:1043D00011010000844800000E0100008E4800001A
:1043E000210100009748000022010000A0480000C1
:1043F00023010000A948000024010000B248000089
:1044000018000000BA4800002A010000C24800005D
:104410003A010000CA4800002C010000D248000008
:104420001C010000DB4800001D010000E448000002
:1044300017010000EE48000031010000FA480000BA
:10444000040100001701000017010000170100001F
:1044500017010000170100001701000017010000FC
:10446000170100000701000007010000070100001C
:10447000070100000701000007010000070100001C
:10448000070100000701000007010000070100000C
:1044900007010000070100000701000007010000FC
:1044A00007010000070100000701000007010000EC
:1044B00007010000070100000701000007010000DC
:1044C00007010000000200000004000000080000D6
:1044D000000000000F3B0000F90D0000B90D0000C6
:1044E0005D0E0000990D0000F0130020D81300208D
:1044F000E813002000000000E01300200F3D000042
:10450000333D0000FF3C0000ED170000EF3C0000D1
:10451000008000500100000054140020B41400205A
:10452000C0140020CC140020CC140020F5FFFFFFA5
:10453000436F756C64206E6F74206C6F636B2070BA
:104540006F7765722073617665206D75746578008C
:10455000FF8FFFFFFF8FFFFFFE8FFFFFFE8FFFFF2D
:10456000FD8FFFFFFC8FFFFFFC8FFFFF43616E2776
:104570007420696E697469616C697A65206D7574FF
:1045800065782C20776173204E554C4C0D0A000045
:1045900043616E277420756E6C6F636B206D75744C
:1045A00065782C20776173204E554C4C0D0A000025
:1045B0004661696C20746F20616371756972652052
:1045C0006D757465780A00004661696C20746F200F
:1045D00072656C65617365206D757465780A00009D
:1045E0004661696C20746F20696E637265617365E2
:1045F00020504D20636F756E7465720A00000000D4
:104600004661696C20746F206465637265617365CF
:1046100020504D20636F756E7465720A00000000B3
:10462000464C4153485F30005352414D5F30005576
:104630004152545F3000434C4F434B5F33324B0089
:10464000434C4F434B5F31364D007379735F636C5E
:104650006F636B005365637572650909004E6F6E79
:104660002D53656375726509004E6F6E2D5365633A
:1046700075726500466C61736820726567696F6E5C
:104680000909446F6D61696E09095065726D69733E
:1046900073696F6E730A00253032752030782530CB
:1046A0003578203078253035782009002563004E94
:1046B0006F6E2D7365637572652063616C6C6162EA
:1046C0006C6520726567696F6E203020706C616365
:1046D000656420696E20666C617368207265676925
:1046E0006F6E20256420776974682073697A65206D
:1046F00025642E0A00436F756C64206E6F74206908
:104700006E697469616C697A652073656375726539
:10471000207365727669636573202865727220253F
:1047200064292E0A005352414D20726567696F6EED
:104730000909446F6D61696E09095065726D69738D
:1047400073696F6E730A002530327520307825301A
:1047500035782030782530357809005065726970D9
:10476000686572616C0909446F6D61696E0909536E
:1047700074617475730A002530327520252D32312D
:104780007325730009534B49500A00094552524F93
:10479000520A00094F4B0A0053504D3A204E532005
:1047A000696D61676520617420307825780A00534F
:1047B000504D3A204E53204D535020617420307894
:1047C00025780A0053504D3A204E53207265736588
:1047D0007420766563746F72206174203078257858
:1047E0000A0053504D3A20707265706172652074F2
:1047F0006F206A756D7020746F204E6F6E2D53653B
:104800006375726520696D6167652E0A004E5246B8
:104810005F5030004E52465F434C4F434B004E5268
:10482000465F52544330004E52465F52544331006B
:104830004E52465F4E564D43004E52465F554152D2
:10484000544531004E52465F554152544532004E58
:1048500052465F5457494D32004E52465F535049BD
:104860004D33004E52465F54494D455230004E5232
:10487000465F54494D455231004E52465F54494DB2
:10488000455232004E52465F5341414443004E521E
:10489000465F50574D30004E52465F50574D3100E5
:1048A0004E52465F50574D32004E52465F50574D64
:1048B00033004E52465F574454004E52465F4950B3
:1048C00043004E52465F564D43004E52465F46509F
:1048D00055004E52465F45475531004E52465F45A2
:1048E000475532004E52465F4450504943004E52A5
:1048F000465F4750494F544531004E52465F52453E
:1049000047554C41544F5253006D757465785F693B
:104910006E69742063616C6C6564207769746820CB
:104920004E554C4C20706172616D65746572004328
:104930006F756C64206E6F7420616C6C6F63617452
:1049400065206D75746578206265666F7265206993
:104950006E697469616C697A696E670048575F4374
:10496000433331305F3000322E312E30002A2A2A74
:1049700020426F6F74696E67205A65706879722083
:104980004F532076657273696F6E202573202573EF
:10499000202A2A2A0A006D61696E0069646C65002C
:1049A000D3350000E014002001000000F4140020C2
:1049B0000100000008150020010000001C15002067
:1049C00001000000E93C000000C2010000010300FA
:1049D000000000000090D0030C1400200C140020F4
:1049E00044140020501400204814002040140020DB
:1049F0001C14002000000000312B0000992B000047
:104A0000712B0000B52B0000752B000088060020DC
:104A10007C060020840600200000000080060020A4
:104A20001C42000000000000000000007C4200006A
:104A300000000000000000008842000000000000AC
:104A400000000000584200000000000000000000CC
:104A500040420000C84200000C0000203442000028
:104A6000C84200001800002064420000FC4400001E
:104A7000FC1300202842000000000000000000009D
:104A80004C420000000000000000000070420000E6
:104A90000000000000000000CC140020CC14002016
:104AA00000000000000000000F000000E0140020E3
:104AB000E014002000000000000000000F000000D3
:104AC000F4140020F4140020000000000000000096
:104AD0000F0000000815002008150020000000004D
:104AE000000000000F0000001C1500201C15002015
:104AF00000000000000000000F000000FFFFFFFFAB
:104B000000000000000000000000000000000000A5
:104B10000000000000000000000000000000000095
:104B20000000000000000000000000000000000085
:104B30000000000000000000000000000000000075
:107FE0007FE97FE9F8F714BE7FE97FE9F8F768BE1B
:107FF0007FE97FE9FBF74ABD0000000000000000B8
:10C000008881022055F9000033D0010075F7000047
:10C0100075F7000075F7000075F7000075F7000070
:10C0200075F7000075F7000075F7000035F60000A1
:10C0300075F7000075F7000085F5000023D00100BA
:10C0400015F9000015F9000015F9000015F90000B8
:10C0500015F9000015F9000015F9000015F90000A8
:10C0600015F9000015F9000015F9000015F9000098
:10C0700015F9000015F9000015F9000015F9000088
:10C0800015F9000015F9000015F9000015F9000078
:10C0900015F9000015F9000015F9000015F9000068
:10C0A00015F9000015F9000015F9000015F9000058
:10C0B000E51501001DDB010015F9000015F9000070
:10C0C00015F9000015F9000015F9000015F9000038
:10C0D00015F9000015F9000015F9000015F9000028
:10C0E00015F9000015F900003BDB010015F900000F
:10C0F00015F9000015F9000015F9000015F9000008
:10C1000015F9000015F9000015F9000015F90000F7
:10C1100015F9000015F9000015F9000015F90000E7
:10C1200015F9000015F9000015F9000015F90000D7
:10C1300015F9000015F9000015F9000015F90000C7
:10C1400015F90000000000000000000000000000E1
:10C1500000000000000000000000000000000000DF
:10C1600000000000000000000000000000000000CF
:10C1700000000000000000000000000000000000BF
:10C1800000000000000000000000000000000000AF
:10C19000000000000000000000000000000000009F
:10C1A000000000000000000000000000000000008F
:10C1B000000000000000000000000000000000007F
:10C1C000000000000000000000000000000000006F
:10C1D000000000000000000000000000000000005F
:10C1E000000000000000000000000000000000004F
:10C1F000000000000000000000000000000000003F
:10C20000DEE61E284CBBCE8F015B0000884F01008C
:10C210000100000000C00000D8C402209D250100DC
:10C220004FEA410212F5001215D211D56FF478735E
:10C23000B3EB625212D94FEAC12343F0004343EA01
:10C24000505311F0004F23FA02F018BF40427047DC
:10C250004FF00000704750EA013005D111F0004066
:10C2600008BF6FF0004070474FF00000704700BFFC
:10C2700053B94AB9002908BF00281CBF4FF0FF314D
:10C280004FF0FF3000F070B9ADF1080C6DE904CE4D
:10C2900000F006F8DDF804E0DDE9022304B07047A1
:10C2A0002DE9F04F099E04468946002B40F083801B
:10C2B0008A42154645D9B2FA82F24AB1C2F1200744
:10C2C00001FA02F39540944020FA07F747EA030980
:10C2D0004FEA154E230C1FFA85F8B9FBFEFC0EFB46
:10C2E0001C990CFB08F143EA094399420AD9EB185F
:10C2F0002CBF01200020994202D9002800F01D81A6
:10C300000CF1FF3C591AA3B2B1FBFEF00EFB101169
:10C3100000FB08F843EA0144A04505D92C1902D2D4
:10C32000A04500F20E810138A4EB080440EA0C405D
:10C3300000271EB1D4400023C6E900433946BDE8BA
:10C34000F08F002A51D0B2FA82F2002A40F0AF807A
:10C35000491B4FEA154E1FFA85F80127230CB1FB44
:10C36000FEFC0EFB1C1108FB0CF043EA0143984253
:10C370000AD9EB182CBF01210021984202D90029CB
:10C3800000F0D7800CF1FF3C191AA3B2B1FBFEF00C
:10C390000EFB101108FB00F843EA0144A04505D943
:10C3A0002C1902D2A04500F2C1800138A4EB080488
:10C3B00040EA0C40BDE78B4208D9002E74D000271C
:10C3C000C6E9000138463946BDE8F08FB3FA83F775
:10C3D00067B98B42C0F0A480824240F2A180384607
:10C3E000002EABD0C6E90049A8E7FFDEC7F1200563
:10C3F000BB4002FA07FC01FA07F4EA4020FA05F80C
:10C40000E94000FA07FE1A4348EA04044FEA1248DA
:10C41000200C1FFA82F9B1FBF8FA08FB1A110AFB8B
:10C4200009FB40EA01418B450AD951182CBF012371
:10C4300000238B4502D9002B00F088800AF1FF3AD7
:10C44000A1EB0B01A4B2B1FBF8F008FB101100FB4B
:10C4500009F944EA0141894504D9511801D28945B5
:10C460007BD8013840EA0A40A1EB0901A0FB0C8906
:10C47000494544464B4602D306D1C64504D201384D
:10C48000B8EB0C0469EB0203002E5DD0BEEB040296
:10C4900061EB030101FA05F522FA07F3F9400027E1
:10C4A0001D43C6E9005149E73746304646E7C2F129
:10C4B0002000954001FA02F721FA00F34FEA154EE9
:10C4C00024FA00F11FFA85F894403943B3FBFEF0DB
:10C4D0000F0C0EFB103300FB08FC47EA03439C459E
:10C4E00007D9EB182CBF012700279C4500D98FB333
:10C4F0000138A3EB0C0389B2B3FBFEF70EFB173335
:10C5000007FB08FC41EA03418C4504D9691801D2B4
:10C510008C4525D8013FA1EB0C0147EA00471DE7F8
:10C52000841A61EB03030120994659E702382C4431
:10C530003CE7ACF1020C2B4426E7ACF1020C2B4497
:10C54000E0E602382C44EFE63746F7E6AAF1020AA5
:10C55000114475E702382B44CBE70238114481E7D8
:10C56000023F2944D7E700BF704700BF01234FF0C7
:10C570000002064963F30702054B5B1ADB0801461C
:10C5800063F38F12034810F0CBB900BF0CF1010028
:10C590000CF10100D8F6010003234FF0000110B5A3
:10C5A00063F30701144C154B1548E41AC4F3C9048E
:10C5B00064F38F1110F0A7F900F002F9014658B1A9
:10C5C0004FF0000201230F4863F3070264F38F1258
:10C5D000BDE8104010F0A4B908210B4811F03FFF4E
:10C5E000014640B14FF00002012363F3070264F3F8
:10C5F0008F120648ECE710BD0CF101000CF10100B0
:10C60000F5F6010014F70100E80002202FF7010001
:10C6100070B50446054E4518AC4200D170BD306877
:10C6200014F8011B43685B689847F5E70401022092
:10C630002DE9F74F074643685B6C03B198477B6869
:10C640005B6B9BB13846984780B14F4D4F4B504E76
:10C65000ED1ADFF868B1C5F3C9057B689B692BB19A
:10C6600001220DF107013846984710B903B0BDE823
:10C67000F08F32689DF80710541C2229346019D0BD
:10C680007F2901D008291BD102B1013A022C38BF01
:10C69000022400203F4B023C985434609BF8003049
:10C6A000002BDAD13C4B1B78032B5ED8DFE803F07C
:10C6B0002F2F4D559BF8003083F001038BF800308D
:10C6C00040F68C239C420FD928F03F0242F0010231
:10C6D00062F3070865F38F184246304810F020F9DE
:10C6E00040F68C233360B8E774B929F03F0343F078
:10C6F000010363F3070965F38F194A462146284869
:10C7000010F00EF93460A8E7224B9954C6E7254A89
:10C71000D35C8B42A1D1244B18684368DB6A03B118
:10C7200098472249D1E8EF3F43F00102C1E8E02FEA
:10C730000028F7D1DB0703D408391D4812F027F889
:10C740001C4B32681A600023CCE7124B1A4412F8D3
:10C75000013C002B81D00A29DCE70E4B1A4412F869
:10C76000013C0D2B7FF479AFF5E72AF03F0242F050
:10C77000010262F3070A65F38F1A524619460E4802
:10C7800010F0CEF869E700BF1CF101000CF10100C8
:10C79000F4000220264E02203F630220F0F7010041
:10C7A00010F8010091F901000401022000010220AB
:10C7B000404D0220F00002202EF801003E630220CE
:10C7C000F7B50322494B4A4900201A7005F056FC80
:10C7D000484C494B0546E41AC4F3C90468B14FF00C
:10C7E0000002012363F30702014664F38F124348FA
:10C7F00010F096F8284603B0F0BD41480EF06CFAF0
:10C80000404D2860E8B1404F286843689B68002B82
:10C8100048D098470146002844D026F03F0343F013
:10C82000010363F3070664F38F163246384610F0AF
:10C8300077F8286843689B69EBB90A200FF0F0F895
:10C84000E2E701234FF0000263F3070264F38F1263
:10C850002B492E4810F064F84FF0000201236FF0CE
:10C86000150163F307022A4864F38F1210F058F899
:10C870006FF00D05BEE701220DF107019847002872
:10C88000D7D1DAE7234801F047FF05460028B1D0A9
:10C890004FF00002012363F30702014664F38F1295
:10C8A0001D48E3E72A68536823B19B6C13B11B4909
:10C8B0001046984700221A4B1A492868C3E901120A
:10C8C0001A600FF069FC07211748FFF7A1FE114815
:10C8D00001F00AFA01460028D4D04FF000020123EB
:10C8E00063F3070264F38F121048BFE73F6302202F
:10C8F000B7C101001CF101000CF101004BF801006F
:10C9000069F8010004010220A0F8010070F801009C
:10C9100080F80100A3C1010000F9010031C6000048
:10C92000F8000220C1C90000D5F80100DDF80100BF
:10C9300008B50FF052FC014668B102234FF0000227
:10C94000194863F30702194B1B1ADB0863F38F12B4
:10C9500017480FF0E5FF01F079FF014668B10223A7
:10C960004FF00002104863F30702104B1B1ADB085C
:10C9700063F38F120F480FF0D3FF0F49002005F02B
:10C98000CDFB014678B102234FF00002064863F365
:10C990000702064B1B1ADB0863F38F120748BDE83A
:10C9A00008400FF0BDBF08BD0CF101001CF10100F3
:10C9B00021F9010046F90100B7C1010069F9010040
:10C9C000684A694B116840F68B22914228BF114694
:10C9D000002230B51C46654887B05A5414F8011B34
:10C9E000A1F16105192D10F8015B98BF20398D4226
:10C9F00005D101320A2AF1D110215D4879E00021E8
:10CA00005C4813F8012BA2F16104192C10F8014BBA
:10CA100098BF203A94427AD101310929F1D1564A7E
:10CA20000021514811F0CAFC041E18DA01234FF00E
:10CA30000002524963F30702514B52485B1ADB086C
:10CA400063F38F1221460FF06BFF08214E48FFF76A
:10CA5000DFFD4E4B18680FF09FFB07B030BD42481A
:10CA600011F0AFFC012805462CD1434811F0D5FD4B
:10CA700001280ED801234FF00001404A63F307015B
:10CA80003F4B43489B1ADB0863F38F110FF03BFFCA
:10CA9000DBE702AA2946384811F08AFD0028E9DBC5
:10CAA000BDF80830002BE5D0022B08D9032BE1D1CB
:10CAB000BDF808000FF04EFB05213648C7E7FFF729
:10CAC00037FFF5E7002CC0D1F6E79DF80730032BC0
:10CAD000BFD801A252F823F0E9CA00004BCA0000F7
:10CAE000F9CA000009CB00002B4810F047FC0146B2
:10CAF0002948FFF78DFDDFE70A46284902A804F020
:10CB0000F3F8411C02A8A2E70A462549F6E71648B1
:10CB100000F040FE0028CFD0233096D1124801F01B
:10CB2000B9FD0028C8D023308FD11B490DF1070370
:10CB300040F68C220C4805F0FDF9011EC5DA0123F0
:10CB40004FF000020D4863F307020D4B1B1ADB0880
:10CB500063F38F1213480FF0E3FE01238DF80730C3
:10CB600073E700BFF0000220264E022050F70100BC
:10CB7000E0F701005BF70100E80002200CF1010082
:10CB80001CF1010065F701009BF701000401022080
:10CB900083F7010096F70100B2580220CAF701009E
:10CBA000D5F70100A3F70100014B1B681B6818476C
:10CBB0001C030220014B1B685B6818471C03022002
:10CBC00070B5184C06462068002829DDFFF7F2FFF3
:10CBD000051E16DA02234FF00005134A63F307051A
:10CBE000124B9B1ADB0863F38F150FF0F2FA016802
:10CBF0002A4649420E480FF093FE0FF0EAFA056804
:10CC00006D424FF0FF3323600023324609490A4842
:10CC1000A38004F069F8A36807489847284670BDC8
:10CC20000025FBE7080102200CF1010084F101005E
:10CC3000ADF90100C0F9010040630220012838B5B8
:10CC40000146214C2DD10622FFF7AEFF06232060BE
:10CC500023712268002A2DDA01234FF000051B4AB8
:10CC600063F307051A4B9B1ADB0863F38F150FF06C
:10CC7000B0FA01682A46494216480FF051FE0FF0FB
:10CC8000A8FA026814495242144804F02DF8A36827
:10CC900012489847002323710FF09BFA0068404226
:10CCA00038BD0228D5D111220120FFF77DFF1123C5
:10CCB0002060CDE723790A49084804F015F80748B1
:10CCC000A36898470020EBE7080102200CF101005F
:10CCD00084F10100CFF90100C0F901004063022096
:10CCE000E3F90100012813B5044604D0022850D00E
:10CCF0006FF015042EE0304811F08FFC0128F7D9B1
:10CD0000214601AA2C4811F053FC041E22DBBDF879
:10CD10000400012827D1284811F07FFC0228E7D918
:10CD20000DF106020221244811F042FC041E11DB21
:10CD3000224B1B68002B10DD02234FF00001204A1C
:10CD400063F307011F4B20489B1ADB0863F38F1125
:10CD50000FF0D9FD204602B010BD9DF80600FFF788
:10CD60006DFF0446F6E70028F4D1144B1B68002B36
:10CD70000CDA02234FF00001114A63F30701114B53
:10CD800012489B1ADB0863F38F11E1E7FFF718FFE6
:10CD9000E7E70A4C2268531C09D023790C490D4857
:10CDA00003F0A2FFA3680B4898470024D2E70A4982
:10CDB000084803F099FFF5E7E80002200801022087
:10CDC0000CF1010084F10100D3FA0100ECFA01003A
:10CDD000E3F901004063022005FB0100044B10B49D
:10CDE0001B68DC6A0023A4465DF8044B604700BF63
:10CDF0001C0302204FF41073F0B52F4DADF5137DD9
:10CE000001936B79044693B901234FF000012B4A3B
:10CE100063F307012A4B2B489B1ADB0863F38F113E
:10CE20000FF071FD6FF015000DF5137DF0BD0128B9
:10CE3000F8D1254811F0F1FB0128F3D902AE01AB7E
:10CE400032462146204811F0C5FB0028ECDB0024C7
:10CE5000019B3046F45410F091FA0746A7421FD9BF
:10CE60003A1B31192868FFF7B9FF002822DA0FF0C2
:10CE7000B0F900684FF000064042FFF7A1FE022320
:10CE80000E4A63F307060E4B9B1ADB0863F38F16FB
:10CE90000FF09FF90168324649420C480FF040FDFF
:10CEA00022460B490B4803F01FFF0A48AB6898471E
:10CEB0000020B9E70444D1E7080102200CF1010089
:10CEC00084F1010066FB0100E80002207CFB010008
:10CED0008EFB010040630220044B10B41B685C6AA7
:10CEE0000023A4465DF8044B604700BF1C030220EA
:10CEF00030B52D4D85B02B680446002B11DA012387
:10CF00004FF00001294A63F30701294B29489B1A76
:10CF1000DB0863F38F110FF0F6FC6FF0150005B01E
:10CF200030BD0128F9D1244811F077FB0128F4D94C
:10CF30000DF106022146204811F03AFB0028EEDBF5
:10CF4000BDF80620ADF80840130243EA122300247E
:10CF50000822ADF80A30194B03941B680DEB02014F
:10CF6000DB6828689847A0421BDA01230F4A63F365
:10CF700007040F4B9B1ADB0863F38F140FF029F99A
