:020000040000FA
:10000000900A002059110000D73B0000A910000001
:10001000A9100000A9100000A9100000A9100000FC
:10002000A9100000A9100000A9100000990F0000FD
:10003000A9100000A9100000450F0000D93A0000E7
:100040001911000019110000191100001911000008
:1000500019110000191100001911000019110000F8
:1000600019110000191100001911000019110000E8
:1000700019110000191100001911000019110000D8
:1000800019110000191100001911000019110000C8
:1000900019110000191100001911000019110000B8
:1000A00019110000191100001911000019110000A8
:1000B0001911000019110000191100001911000098
:1000C0001911000019110000191100001911000088
:1000D0001911000019110000191100001911000078
:1000E0001911000019110000191100001911000068
:1000F0001911000019110000191100001911000058
:100100001911000019110000191100001911000047
:100110001911000019110000191100001911000037
:100120001911000019110000191100001911000027
:100130001911000019110000191100001911000017
:100140001911000000000000000000000000000085
:10015000000000000000000000000000000000009F
:10016000000000000000000000000000000000008F
:10017000000000000000000000000000000000007F
:10018000000000000000000000000000000000006F
:10019000000000000000000000000000000000005F
:1001A000000000000000000000000000000000004F
:1001B000000000000000000000000000000000003F
:1001C000000000000000000000000000000000002F
:1001D000000000000000000000000000000000001F
:1001E000000000000000000000000000000000000F
:1001F00000000000000000000000000000000000FF
:10020000DEE61E284CBBCE8F015B000000800000A4
:100210000100000000000000D0130020011A0000BF
:1002200053B94AB9002908BF00281CBF4FF0FF315D
:100230004FF0FF3000F07CB9ADF1080C6DE904CE51
:1002400000F006F8DDF804E0DDE9022304B07047B1
:100250002DE9F0478C46089D04468A46002B4AD17A
:100260008A42174662D9B2FA82F64EB1C6F1200E22
:1002700001FA06F3B740B44020FA0EFE4EEA030A34
:100280004FEA1748230C1FFA87F9BAFBF8FE08FB60
:100290001EAA0EFB09F243EA0A439A420BD9FB1845
:1002A0000EF1FF312CBF012000209A4202D9002814
:1002B00000F02A818E469A1AA3B2B2FBF8F008FB2E
:1002C000102200FB09F943EA0244A14507D93C1971
:1002D00000F1FF3302D2A14500F210811846A4EBD1
:1002E000090440EA0E4000211DB1F4400023C5E995
:1002F0000043BDE8F0878B4208D9002D00F0F28062
:100300000021C5E9000C0846BDE8F087B3FA83F187
:1003100000294ED16345C0F0E880824240F2E5807A
:100320000846002DE5D0C5E9004AE2E702B9FFDE44
:10033000B2FA82F6002E40F099808B1A4FEA124EE4
:100340001FFA82F801214FEA144CB3FBFEF20EFBB8
:10035000123008FB02F94CEA004CE14508D917EBD2
:100360000C0C02F1FF3302D2E14500F2CA801A46BA
:10037000ACEB090CA3B2BCFBFEF00EFB10CC08FBEF
:1003800000F843EA0C44A0450ED93C1900F1FF33B4
:100390002CBF4FF0010C4FF0000CA04503D9BCF16D
:1003A000000F00F0A8801846A4EB080440EA0240C1
:1003B0009AE7C1F120048B4002FA01FE0CFA01F623
:1003C000E24020FA04F72CFA04FC00FA01F8134387
:1003D0003E431F0C320C1FFA83F9BCFBF7F007FBFE
:1003E00010CC00FB09FA42EA0C4CE24508D913EBA9
:1003F0000C0C00F1FF3202D2E24500F28980104677
:10040000ACEB0A0CB6B2BCFBF7FA07FB1ACC0AFB42
:1004100009F946EA0C42914506D99A180AF1FF36C5
:1004200001D291457AD8B2464AEA0040A2EB0902CD
:10043000A0FB0E67BA42B446B94602D307D1B04515
:1004400005D2B6EB0E0C67EB030301389946002D7D
:100450006BD0B8EB0C0362EB090202FA04F4CB4058
:10046000CA4000211C43C5E9004242E7B740C6F13B
:10047000200201FA06F3B44021FA02FC4FEA174EBB
:1004800020FA02F21FFA87F8BCFBFEF11A430EFBBA
:1004900011CC01FB08F0130C43EA0C4C604507D962
:1004A00017EB0C0C01F1FF3301D2604533D819462C
:1004B000ACEB000C92B2BCFBFEF00EFB10CC00FBD0
:1004C00008F342EA0C4C634507D917EB0C0C00F11A
:1004D000FF3201D2634525D81046ACEB030340EA56
:1004E000014130E72946284603E7841A6CEB0303F1
:1004F00001209A4615E702383C4455E702383C444F
:10050000EDE6023ABC4433E7AEF1020E3B44D2E6DC
:1005100002389C4474E70239BC44C9E7AAF1020AD4
:100520001A4481E70238BC44D7E72946E1E600BF18
:10053000704700BF2DE9E04F2746A046A146A246DE
:10054000A346A4462DED108B4FF0000545EC185B3B
:1005500045EC195A45EC1A5A45EC1B5A45EC1C5A05
:1005600045EC1D5A45EC1E5A45EC1F5AF1EE105A47
:100570004FF66076C0F6FF763540E1EE105A84F310
:10058000008825462646A447BDEC108BBDE8E08FC9
:100590000B6801330B60014B1B681847D413002014
:1005A0002DE9F04F85B00E9C9B46012CB8BF01246D
:1005B000012B0CBF30232023164682468846012596
:1005C0000A270022DFF86C900293B6FBF9F301933F
:1005D0000AB9B1451CD8019B414603F13000D04710
:1005E00001220135019B013F09FB13660A23012FFC
:1005F000B9FBF3F9E9D1414606F13000D047BBF130
:10060000030F02D1641B002C0EDC05B0BDE8F08F97
:10061000BC42E7DBBBF1020FE4D8414602980392EB
:100620000135D047039ADDE741462020D047013C01
:10063000E9E700BF00CA9A3B014B1860704700BF52
:10064000D4130020002313B502AC44F8043D024645
:100650000B460348214602F0F6FF02B010BD00BF72
:10066000910500004FF02002EFF3118382F311880F
:10067000BFF36F8F0121044AC2F8401583F311883C
:10068000BFF36F8F00207047009003500A2838B5E1
:100690000446074D04D1286843680D215B689847DC
:1006A00028684368E1B25B689847204638BD00BFC0
:1006B0000800002010B5044C204601F0ADF820469B
:1006C000BDE81040FFF7B8BF8D06000008B504482C
:1006D00001F09AFA034B1860FFF7ECFF002008BD09
:1006E000834600000800002008B5114B1A686AB163
:1006F0004FF05022D2F80423D10707D500220D482D
:100700001A6083685B7A0BB903F0C9F90A4B1A685F
:1007100062B14FF05022D2F80423920706D500228E
:1007200006481A60BDE8084003F0B9B908BD00BF2B
:1007300000510050841400200451005090140020F7
:1007400000220D4BC3F840214FF02002EFF311813E
:1007500082F31188BFF36F8F084AD3F8040513683A
:10076000C01A20F07F400344136081F31188BFF367
:100770006F8F01F0B9BF00BF00500150240000206E
:1007800070B5184801F040FA48B3436800211B686F
:100790009847012600244FF480334FF40012124D85
:1007A0003146C5F80845C5F84065C5F804330F4B18
:1007B00015201C600E4BC3F88021224600F00CFC73
:1007C000152000F0F9FB20460A4B1E602E60D5F87C
:1007D0000435334423F07F43C5F8403570BD4FF0F6
:1007E000FF30FBE78A4600000050015040510150A5
:1007F00000E100E00850015070B5214EB0F1FF3F1C
:1008000008BF30464FF02003EFF3118483F31188C3
:10081000BFF36F8F1B491C4BD1F804251D680138AD
:10082000531B23F07F4301352B4420EAE070B04294
:10083000D4BF18189819821A22F07F4220F07F4303
:10084000022AC1F8403504D984F31188BFF36F8FB1
:1008500070BDD1F804350D4AC31A23F07F435D1EE5
:10086000954205D94FF40012094BC3F80021EBE77C
:10087000012B02BF023020F07F40C1F84005E3E7C2
:10088000FEFFFF000050015024000020FEFF7F000B
:1008900000E100E04FF02002EFF3118382F31188B2
:1008A000BFF36F8F064AD2F80405064A1268801A11
:1008B00020F07F4083F31188BFF36F8F704700BF34
:1008C000005001502400002008B543B2002B0CDB7F
:1008D000012200F01F018A405B091049203341F8D2
:1008E0002320BFF34F8FBFF36F8F830003F1A0432B
:1008F00003F540533128D3F8002806D0002A07DA40
:1009000002F00302023A012A02D8054AC3F800287D
:10091000002103F031F9002008BD00BF00E100E034
:100920000001008030B54FF440444CF2040585B01E
:100930004FF440412C4802F0FEFF21682B4802F0A2
:10094000FAFF29682A4802F0F6FF102200216846C3
:1009500003F0CCF9236868460093029400F0E6FEA9
:10096000012000F013FF002000F0FCFE002000F04A
:1009700021FF0121002000F03BFF00F02FFF2C6839
:100980001C4802F0D8FF0820FFF79EFF24F0010466
:10099000BFF34F8FBFF36F8F64086400204621467A
:1009A000224623469FED140ADFED130A9FED121A2B
:1009B000DFED111A9FED102ADFED0F2A9FED0E3AA1
:1009C000DFED0D3A9FED0C4ADFED0B4A9FED0A5A21
:1009D000DFED095A9FED086ADFED076A9FED067AA1
:1009E000DFED057AFFF7A6FDEC47000003480000A5
:1009F0001848000036480000000000002DE9F843C8
:100A00006F4802F098FF0021DFF800826D4F6E4DB5
:100A100058F82140CA0301F5C07347F823406B48DA
:100A200002F500434E1C02F086FF694B14F0100FD4
:100A30006849694808BF194602F07DFF14F0040FA9
:100A400014BF72212D21284602F075FF14F0020F09
:100A500014BF77212D21284602F06DFF14F0010FFD
:100A600014BF78212D21284602F065FF14F4807F01
:100A700014BF6C212D21284602F05DFF574802F07B
:100A80005AFF202E3146C3D1554B4E4AC3F3C431D1
:100A9000C3F30E03C3F50043C3F34313C2F80015B9
:100AA000C2F80435D2F80015D2F804254D48520199
:100AB00002F041FF494802F03EFF03F00FF8014603
:100AC00010B1494802F037FF444802F034FF47486C
:100AD00002F031FF0021DFF838813A4F3A4D58F8E3
:100AE00021404A0301F5E07347F82340404802F5EE
:100AF00000534E1C02F01FFF354B14F0100F354908
:100B0000354808BF194602F016FF14F0040F14BF51
:100B100072212D21284602F00EFF14F0020F14BF9F
:100B200077212D21284602F006FF14F0010F14BF93
:100B300078212D21284602F0FEFE14F4807F14BF98
:100B40006C212D21284602F0F6FE244802F0F3FE27
:100B5000202E3146C3D1214802F0EDFE4FF6FF733F
:100B60000024184D2348C5F8803402F0E4FEDFF875
:100B7000A480C5F8C044DFF8A0901F4D05EBC40663
:100B8000777955F83420002F14BF43464B46214651
:100B90001A4802F0D0FE57B91948013402F0CBFED2
:100BA000192CEBD10D48BDE8F84302F0C4BE3079F2
:100BB000FFF78AFE08B11348EFE71348EDE700BFDF
:100BC000C84600000030005000470000EB4600001F
:100BD000B1460000A8460000D5470000F8490000D3
:100BE000E07F00000347000049470000794700000C
:100BF0009B470000AF470000D0430000CB470000F8
:100C0000D8470000DF470000E747000050430000DE
:100C100098440000BD460000B546000010B500280D
:100C20004BD0002A49D0264B99423CD9541803F6A0
:100C30001D239C423AD803F02CF80020BDE8104058
:100C4000714672467346B7EE000AF7EE000AB7EE39
:100C5000001AF7EE001AB7EE002AF7EE002AB7EEF8
:100C6000003AF7EE003AB7EE004AF7EE004AB7EE68
:100C7000005AF7EE005AB7EE006AF7EE006AB7EED8
:100C8000007AF7EE007A8EF3008C10B4F1EE10CA01
:100C90004FF66074C0F6FF740CEA040CE1EE10CA63
:100CA00010BCF4467447074B994203D9064B5418BD
:100CB0009C42C0D94FF0FF30C0E76FF01500BDE790
:100CC0000302FF002F01FF003801FF002DE9F04F64
:100CD000844685B00F4600296AD0002445F6013AC3
:100CE000DFF8D8E0344EDFF8D880DFF8D89001ADD7
:100CF0005EF824B096E807000CEB0B0385E80700CC
:100D00009A0744D15CF80B20424505D15A684A4500
:100D100002D19A68524544D00134032CE8D16FF0D7
:100D20000D0005B0B7EE000AF7EE000AB7EE001AA4
:100D3000F7EE001AB7EE002AF7EE002AB7EE003AF7
:100D4000F7EE003AB7EE004AF7EE004AB7EE005A67
:100D5000F7EE005AB7EE006AF7EE006AB7EE007AD7
:100D6000BDE8F04F714672467346F7EE007A8EF397
:100D7000008C10B4F1EE10CA4FF66074C0F6FF7428
:100D80000CEA040CE1EE10CA10BCF44674470022D1
:100D9000985CA95C8842BFD101320C2AF8D1002BA3
:100DA000BAD020221946384602F073FF0020B8E777
:100DB0006FF01500B5E700BFF042000018450000D5
:100DC000DEE61E284CBBCE8F014801F0EDBE00BF11
:100DD0002445000008B530B143683BB1006801F01C
:100DE00001F9002008BD6FF4E040FBE70048F9E797
:100DF000EA8FFFFF08B558B1436863B100684FF050
:100E0000FF3101F07DF80028044808BF002008BD2C
:100E10006FF4E040FBE70248F9E700BFE98FFFFF0E
:100E2000EA8FFFFF38B5044618B90B4B0B485B68D7
:100E30009847656855B115F00205206807D101464D
:100E4000074801F02FF825600023636038BD1422A5
:100E5000002102F04BFFF7E728140020544900005E
:100E60002800002010B5044618B9134B13485B68DE
:100E700098476368BBB92368ABB94FF0FF3221468E
:100E80000F4800F0E1FF08B923681BB90A4B0D4871
:100E90005B68984714220021206802F027FF6368EE
:100EA00043F002036360206802F0B8FF636843F018
:100EB0000103636010BD00BF2814002054490000E6
:100EC000280000207A49000008B50649402306485A
:100ED000142202F091FFBDE808400449044801F0E3
:100EE0009BBE00BF44000020280000203C450000BD
:100EF0002C45000004488168406A884203D00349B9
:100F00004FF080520A6070473006002004ED00E088
:100F1000094A0A49936809685866996608494B68FE
:100F200043F080534B60002383F31188BFF36F8F2E
:100F30009368986E704700BF30060020804500001F
:100F400000ED00E012498A684FF028001044EFF3EA
:100F5000098C80E8F01F202080F31188BFF36F8F89
:100F60000C4F4FF000664A6A8A603E60506E002364
:100F7000536680F3118804B5104602F033FEBDE8D5
:100F8000044002F1280090E8F01F8CF309887047B4
:100F90003006002004ED00E01EF0040F0CBFEFF35C
:100FA0000880EFF30980816911F8021C0229FFD043
:100FB00001B502F00CFE01BD43B2002B08DB01229B
:100FC00000F01F0002FA00F0024A5B0942F8230019
:100FD000704700BF00E100E043B2002B01F10101C6
:100FE000A8BF03F160434FEA4111B8BF054BC9B236
:100FF000ABBF03F5614300F00F0083F800131954F1
:10100000704700BF14ED00E073B51E460A9B05460D
:101010000093099B8C1802F0B7FF0B4AA4F1200340
:1010200023F0070322F001029A61069A1E605A60BB
:10103000079A9A60089ADA604FF08072DA61AB64BE
:1010400000236B6602B070BD13360000F8B51E4673
:1010500005460C4617460023E1EE103A00F0C4F9AD
:101060000A4B3C4428469D6024F0070402F0BAFD78
:10107000304684F30988002163B681F31188BFF3F9
:101080006F8F0022002302F0C4FA00BF3006002058
:10109000014910220A60704710ED00E0404080F3E3
:1010A000118830BF704700BFEFF30880EFF309816C
:1010B000724601B500F0D2F801BD00BF30BFFFF7A6
:1010C000FDBF00BF114A08B5114B22F07F029A60A4
:1010D000BFF34F8FBFF36F8FD3F8882042F4A00285
:1010E000C3F888200B4A536823F040435360BFF392
:1010F0004F8FBFF36F8F0023E1EE103A00F0C4FD75
:1011000000F0CCFD00F03EF900F0FAFD0000000018
:1011100000ED00E030EF00E001B572B60B4A106A56
:1011200000281EBF0021116202F064FE62B6EFF3D8
:101130000580A0F110004FEAC0000549014409C92B
:101140009847BDE8014003490847000030060020E9
:1011500070400000F50E000002F0FBFB202080F341
:10116000118808484FF40061401880F30988EFF3B4
:1011700014800221084380F31488BFF36F8FFFF7B8
:10118000A1FF0000D00B00200C4B9A6A9A6A9A6A61
:10119000920708D55A6B9A6A120604D518B19A6A52
:1011A00022F080029A6200209A6A9A6A9A6A9A6A7F
:1011B00042F0FF029A620870704700BF00ED00E045
:1011C0000D4B9A6A9A6A9A6A920508D59A6B9A6A3E
:1011D000120404D518B19A6A22F400429A620020DF
:1011E0009A6A9A6AD205044A58BF9B6A936A43F482
:1011F0007F4393620870704700ED00E0074B0020CA
:101200009A6A9A6A9A6A9A6A9A6A9A6A9A6A9A6ABE
:101210006FEA02426FEA12429A62704700ED00E004
:101220000D4B9A695A695A69D0070FD45A699107C8
:101230000CD45A69520709D45A69100706D45A695E
:10124000D10603D45A69920658BF5A695A6942F0C6
:10125000FF025A61704700BFD0ED00E0F0B5414B8E
:101260008BB05B680025C3F3080385F31188BFF3D7
:101270006F8F02F07F44B4F17F4F1FD112F0010451
:101280001BD0560602F0080468D482F00402C2F3B0
:10129000800564B1EFF389860022033B8DF80720B7
:1012A000042B4CD8DFE803F00C4D51424900EFF31A
:1012B0008886F1E706460125EEE725462E46EBE750
:1012C000284BDA6A92073AD4DC6A14F0804408D0DA
:1012D00028331B78EBB101200DF10701FFF754FF14
:1012E00004469DF8073093B92022314602A802F047
:1012F000D0FC099B6DB3C3F3080222B96FEA5323F4
:101300006FEA4323099302A9204602F05EFC0BB06A
:10131000F0BD154B1B782BB101200DF10701FFF734
:101320004FFFDDE7114B1C88A7B217B1FFF766FF2F
:10133000D6E70F4B5C69002CD3D0FFF771FF002478
:10134000CFE70DF107010020C8E70DF107010020EC
:10135000E5E723F4FF7323F00103D3E7002CA9D0C2
:101360000E4699E700ED00E029ED00E02AED00E0EF
:10137000D0ED00E0024A536943F010035361704717
:1013800000ED00E0002320210348C2180133412B67
:1013900082F80013F9D1704700E100E038B5054646
:1013A0004FF02003EFF3118483F31188BFF36F8FA5
:1013B00002F0F9FD0A4B9B68AB420BD1094B5A680E
:1013C000C2F3080212B92046FFF7A2FD5A6842F0A4
:1013D00080525A602046BDE8384002F052BD00BF3E
:1013E0003006002000ED00E010B50E4B88B00293EF
:1013F0000D4B0E4C03930E4B08A8049302AB40F820
:101400001C3D0C4A2346012100F068F80023079395
:10141000094B0121E41A05A80593069400F004F98C
:1014200008B010BD000000200000000000000120F6
:1014300006000100000000200000002010B50B682D
:101440000C7A23F01F0304F01F021A43CB686409CF
:1014500023F01F03044943F0010343EA4403886077
:10146000CA600B6110BD00BF90ED00E00522034B88
:101470005A60BFF34F8FBFF36F8F704790ED00E05E
:10148000BFF35F8F0022014B5A60704790ED00E080
:1014900070B50E4D2E68102E15D80024FFF7F0FF02
:1014A0000B4B0C4A1A63A64205D10B4B1E70FFF77B
:1014B000DDFF002070BD6968204601EB0411FFF7D5
:1014C000BDFF0134EFE74FF0FF30F3E7FC420000CF
:1014D00090ED00E0AAFF44008C0600202DE9F04FBB
:1014E00081468A4600274E4B87B01C784D4D0193AC
:1014F000574507DA59F827305E68CEB31F2E06D855
:101500006FF01504019B1C7007B0BDE8F08FF20668
:10151000F6D1D3F800B01BF01F0FF1D1584602F0FE
:101520008BFB804606EB0B00013802F085FB804503
:10153000E6D118F1160FE3D0621E4245E0DBC5F894
:101540000880EB6859F82710C5F808802E6923F049
:101550001F0CD1E900201044944546F01F0600F10D
:10156000FF3B18D15E4505D15FFA88F002F042FBDF
:101570000137BDE7C5F80880EB6820F01F0003F0D5
:101580001F031843E860E0B202F034FB10F1160FBD
:10159000B6D0441CECE7013A5E45E0B222F01F02EF
:1015A000C5F8088005D12B6903F01F031A432A618F
:1015B000EAE72C6904F01F0C4CEA02022A6102F0EF
:1015C00019FB10F1160F9BD0C5F80880EA689DF84A
:1015D0001030013E62F304038DF810302B699DF842
:1015E00010205B0863F347128DF8102059F827206C
:1015F0000130D2E900321344029323F01F031E444A
:10160000A6EB0B06C4B226F01F060F2C05963FF67C
:1016100077AF204602A9FFF711FF0134A8E700BF0A
:101620008C06002090ED00E02DE9F74F8946074633
:101630000026DFF89080DFF890A0214C4E4519DAA3
:10164000D7F804B0BBF1000F36D03B6818460193C1
:1016500002F0F2FA019B05460BEB0300013802F0A1
:10166000EBFA1423854203FB06F306D06FF0150254
:1016700048F8032003B0BDE8F08F15F1160F48F8C5
:101680000350F7D09AF80020AA42F3DDA560434446
:10169000A560E068197B60F3040119732169187B68
:1016A000490861F347101873E26822F01F025A607C
:1016B000226922F01F021A6101360C37BEE700BF13
:1016C00090ED00E0440500208C06002070B5144B1E
:1016D000064618780D4602460021124B0F2A07DDF8
:1016E0000024114A12689A601C61AC4204DB70BD90
:1016F0009A6019610132F1E756F824104B686BB11A
:101700001F2BF4D9DA06F2D10B68DB06EFD1C0B299
:1017100002F070FA10F1160FE9D001300134E4E75D
:101720008C06002090ED00E04405002082680C4B00
:101730009A60036883F38888436883F38988027B0F
:1017400002F00101EFF3948323F00303920748BFF3
:1017500043F0020309B143F0010383F39488704717
:1017600000ED02E0084AD36848B123F400531B049B
:101770001B0C43F0BF6343F40033D36070479BB24C
:1017800043F40053F5E700BF00ED00E0084AD368DA
:1017900040B19BB243F4804343F0BF6343F4003352
:1017A000D360704723F480431B041B0CF4E700BF95
:1017B00000ED00E0084AD36840B19BB243F0080353
:1017C00043F0BF6343F40033D360704723F0080352
:1017D0001B041B0CF4E700BF00ED00E0034AD2F845
:1017E0008C3043F44063C2F88C30704700ED00E069
:1017F000084B1A6818B142F001021A60704722F0D3
:1018000001021A601A6811B142F00202F5E722F0F3
:101810000202F2E7D0ED00E0014B1860704700BF14
:10182000F8130020F0B54B79012B29D0032B24D1DC
:1018300010268B79032B20D1CC792CB1012C1CD113
:1018400003689B681B79C3B10A7912B1022A14D1CB
:101850000E2247F6122703689B681D680B68BB427F
:101860006FD029D8B3F5965F65D014D8B3F5167F3D
:101870004FD007D8B3F5967F78D06FF0220056E0AE
:101880000026D6E7B3F5966F52D0B3F5166FF4D1B4
:101890004FF41D233FE0B3F5615F4ED004D8B3F59C
:1018A000165FEAD1334B36E0B3F5964F47D0B3F528
:1018B000E14FE2D1304B2EE0B3F5E13F4AD012D8F0
:1018C0004DF6C027BB423FD005D8B3F5164FD4D153
:1018D0004FF41D031FE0B3F5614F38D0B3F5963FC9
:1018E000CBD1264B17E0B3F5E12F39D008D8B3F5AB
:1018F000613F32D0224FBB42BFD14FF080630AE03C
:10190000B3F5612F2FD01F4FBB42B6D14FF080539C
:1019100001E04FF41C33C5F8243544EA06031343B1
:10192000C5F86C35836803C983E803000020F0BD67
:101930004FF49E23EFE7144BEDE7144BEBE7144B0A
:10194000E9E74FF40003E6E74FF46503E3E74FF4FC
:101950006B03E0E74FF0EB73DDE74FF06C73DAE712
:101960004FF0E863D7E74FF07063D4E74FF4A0334C
:10197000D1E700BF0050270000C0750000903A0179
:1019800090D0030040420F0000B0130000F03A0076
:1019900000A04E00026870B59268184B14684FF0B2
:1019A0000052856803219A601D260022C3F8741234
:1019B000C3F87022C4F80C651C26C4F814654FF0F7
:1019C00000669E60C3F86C12C3F868221B23C4F83B
:1019D00008351A232946C4F81035FFF723FF58B9F4
:1019E0000823C4F800351D440123C4F81001C4F8CD
:1019F0003455C4F83835236070BD00BF00258450CD
:101A0000F0B5DAB100231C460E4E0F4FB34206D399
:101A1000002C14BF6FF008006FF0010009E057F8C8
:101A20002350D5F80CC0604506D14C1E11B90846AC
:101A30001560F0BD214601240133E7E76FF00D008A
:101A4000F7E700BF00000000044A0000054B1868DB
:101A5000043B1B68092B03D1431E58425841704771
:101A6000002070473401FF004F4A08B5136843F067
:101A7000020313604D4B1B68092B01BF4FF050232D
:101A80000022C3F81421C3F81821FFF7DFFF30B19B
:101A90000123474A1360A2F63822C2F87835434B37
:101AA0001B68092B07D1434B1B68012B1EBF01226A
:101AB000414BC3F87825FFF7C9FF10B10E223F4B09
:101AC0001A603A4B1B68092B04D100223C4B1A6068
:101AD00001225A600022D30003F57F03D3F80013DC
:101AE000013108D0D3F800130132D3F80433B2F532
:101AF000807F0B60EFD1334BDA69D1073BD5324B96
:101B00001946D3F80024012AFBD1C3F80425D1F8E3
:101B10000034012BFBD12B4BDA69D20708D5DA69E7
:101B2000294922F00102DA61D1F80024012AFBD10F
:101B30001A6A01320AD11A6A22F0FF0242F0200228
:101B40001A62214AD2F80034012BFBD100221E4B2D
:101B5000C3F80425D3F80024012AFBD1BFF34F8F2B
:101B60001A491B4BCA6802F4E0621343CB60BFF30F
:101B70004F8F00BFFDE71B6A0133C0D0134BD3F872
:101B80008C2042F44062C3F88C20D3F8882042F4C1
:101B90007002C3F88820BFF34F8FBFF36F8F0D4BD8
:101BA0000D4A1A6008BD00BFD0ED00E03001FF0013
:101BB000384A00503401FF0000400050E4AE0350AA
:101BC0000C4700500080FF000090035000ED00E043
:101BD0000400FA05081400200090D00370B5002618
:101BE000084B53F82040013053F82050A54200D84C
:101BF00070BD236820465B68984700B166600C346E
:101C0000F4E700BF6C450000104B70B505461E465A
:101C10000F4C9C4204D10E4CB44209D1002412E076
:101C200062681AB122681268AA420CD00C34F0E73C
:101C300063680BB90C34EFE723682846196802F093
:101C400004F80028F6D1204670BD00BFCC14002057
:101C50005414002008B50B4D4FF02002EFF3118310
:101C600082F31188BFF36F8F02F0D2F9012104468D
:101C70000228D8BF084602F0DBF92C62FFF70EFA03
:101C8000EAE700BF300600200248034A0021121A8A
:101C900002F02CB8000000209006002008B506488D
:101CA000064A0749121A01F0F4FFBDE80840054A48
:101CB0000549064801F0EDBFD4130020301500207F
:101CC000044A000000000000044A00000000002058
:101CD00008B50220FFF782FF074801F02CFE032021
:101CE000FFF77CFF00F026FC01F040FC034A137B69
:101CF00023F00103137308BDB2490000C40500209E
:101D000080B5374BA2B083F308880025E023354C1B
:101D1000012784F82230E57725766576A576E57685
:101D2000636A314E43F4E0236362636A43F4002341
:101D30006362A563FFF71EFBFFF7AAF94FF0FF33BD
:101D4000A362E36207AB6C222946184601F0CEFF7E
:101D5000264C8DF82970A0602846FFF73FFF3846D3
:101D6000FFF73CFF00F096FB214B66624FF4806268
:101D7000CDE90473CDE902551E4BCDE900551E494E
:101D8000304600F0BDFB737B23F0040213F01B0F01
:101D9000727304D1B36913B9304600F009FA174BD6
:101DA000012205930F23CDE903320023144DCDE921
:101DB000013300934FF4A072124B1349284600F0F0
:101DC0009FFB6B7BE56023F004036B730F4B4FF4B9
:101DD0008062C4E906330849064B0348FFF736F929
:101DE000D013002000ED00E0C405002030060020E4
:101DF000FA490000D11C000090060020FF490000B5
:101E000058050020551C0000900A002048060020BC
:101E100070B500240A4B0B48834201D3002070BDEB
:101E200000211A699D685C61A94201D11C33F3E766
:101E30005E6901311660DE685A613244F4E700BF22
:101E4000CC140020CC14002010B513460C464FF0E3
:101E50002002EFF3118182F31188BFF36F8F426983
:101E600062B1226043691B68436183690133836106
:101E7000002081F31188BFF36F8F0DE01BB9236041
:101E80006FF00B00F5E70246044800F0ADFA18B910
:101E9000034B9B685B69236010BD00BF8D0600206B
:101EA0003006002070B504460D464FF02003EFF3D6
:101EB000118683F31188BFF36F8F02F02FF880B182
:101EC00000212A6881664261427BD20603D1836980
:101ED0000BB900F06DF93146BDE87040074801F0DC
:101EE000C5BF2B6862691A602B686361A369013BF7
:101EF000A36186F31188BFF36F8F70BD8D0600203C
:101F0000F8B504460F464FF02003EFF3118583F335
:101F10001188BFF36F8FC26830495AB180688E68EC
:101F2000B04215D0B7B985F31188BFF36F8F6FF04A
:101F30000F000CE08B6893F90E3023618B6801323F
:101F4000E260A36085F31188BFF36F8F0020F8BDB6
:101F50002369F2E790F90E3096F90E109942A8BF66
:101F6000194621EAE17199422BDA00F051FA06464E
:101F70003B46224629461A4800F036FA0028E6D0A9
:101F80004FF02003EFF3118583F31188BFF36F8FB8
:101F9000236821699C4207D033B193F90E309942EE
:101FA000A8BF194621EAE171A06890F90E30994264
:101FB00009D16EB129460A4801F058FF6FF00A00B6
:101FC000C5E70026D4E700F023FA0028F2D1F0E7B5
:101FD00085F31188BFF36F8FF0E700BF3006002054
:101FE0008D0600201E4B70B59A680446D37B013BDA
:101FF000D373C368012B05D0013BC360BDE87040BB
:1020000000F0BAB84FF02003EFF3118683F3118884
:10201000BFF36F8F0169806890F90E30994201D04B
:1020200000F0F6F9204601F079FF0546A06080B186
:10203000437BDB0603D183690BB900F0B9F886F363
:102040001188BFF36F8F0023AB6695F90E302361C3
:10205000D4E7E06086F31188BFF36F8FCEE700BF4F
:102060003006002010B5084C23685BB1FEF712FC67
:102070002368064A184410610021BDE81040184644
:1020800001F0D6BF10BD00BF68060020300600205A
:10209000F8B50D464FF02003EFF3118483F3118858
:1020A000BFF36F8F4FF4004140F2E7360027002264
:1020B000E1FB0067094B30461A6139464FF47A72EA
:1020C0000023FEF7ADF8064B1860064B1D60FFF7C6
:1020D000C9FF84F31188BFF36F8FF8BD300600206D
:1020E00068060020640600204FF02003EFF3118102
:1020F00083F31188BFF36F8F044B9A68D37B013B46
:10210000D37381F31188BFF36F8F704730060020BF
:10211000094B03F12802824205D19B688B4202D110
:102120004B7BDB0607D1D1E900231A600A685360B4
:102130000023C1E9003370473006002038B50D4C4C
:10214000024604F1280001F0B2FE054600B9E56838
:10215000A3684AB95A7BD20606D1AA6922B9DA899C
:102160007F2A01D9636238BD9D4201D0FFF77AFF13
:102170006562F8E73006002010B54FF02003EFF35A
:10218000118483F31188BFF36F8F084B00209A6886
:10219000D37B0133D373FFF7D1FF84F31188BFF3EF
:1021A0006F8FBDE8104001F078BE00BF3006002000
:1021B000F8B54FF02003EFF3118483F31188BFF3D8
:1021C0006F8F164A114651F8283F8B420CD05BB1F5
:1021D000D66A90F90E5093F90E70AF420BDCB34201
:1021E00002D01B68002BF6D1D36A01604360D36A2A
:1021F0001860D06205E05A68C0E900325A68106081
:102200005860437B43F0400343730020FFF796FF81
:1022100084F31188BFF36F8FF8BD00BF3006002034
:10222000F8B504464FF02003EFF3118583F31188CE
:10223000BFF36F8F437B5A0603D501461848FFF75B
:1022400067FF184A02F12801D2E90A308B420BD00D
:1022500053B194F90E6093F90E70B7420ADC8342D1
:1022600002D01B68002BF6D1C4E90010D36A1C60B1
:10227000D46205E05968C4E9003159680C605C60BB
:10228000637B906843F040036373031B58425841DB
:10229000FFF754FF85F31188BFF36F8FF8BD00BFC0
:1022A0005806002030060020154A164938B50C683B
:1022B0009368A342144603D1BDE83840FFF7D2BE6D
:1022C00000250D6010490968B9B1D9897F2914D852
:1022D0000E4993F90E5009688D420EDB0C498B4272
:1022E0000BD0996949B91169814203DC1846FFF79F
:1022F00097FFE1E7091A116138BD00232361FBE76D
:1023000030060020600600206806002064060020D9
:102310005805002038B504464FF02003EFF311852F
:1023200083F31188BFF36F8F437B5A0607D50146AD
:102330000948FFF7EDFE637B23F040036373074B0F
:102340009868031B58425841FFF7F8FE85F311883F
:10235000BFF36F8F38BD00BF580600203006002045
:1023600070B504460D461646FFF7D4FF637B43F075
:1023700002036373EDB12B68A5609D420CD05BB185
:1023800094F90E2093F90E1091420CDC69688B428F
:1023900002D01B68002BF5D16B68256063606B6809
:1023A0001C606C6005E05A68C4E900325A68146029
:1023B0005C60731C15D04FF4004540F2E7300021FB
:1023C00026EAE6764FF47A72C5FB06010023FDF794
:1023D00027FF0449421C04F11800BDE8704000F0DA
:1023E0003FB970BDBB3E000010B50C461146064A11
:1023F0009068064A10601A46FFF7B2FF2046BDE813
:102400001040FEF785BD00BF3006002060060020AA
:102410002DE9F84304464FF02003EFF3118983F3CD
:102420001188BFF36F8F01F0FFFC4EB2804668B396
:10243000174D214605F128073846FFF769FEAB6ABC
:10244000A673BB422A460AD04BB1E96A93F90E0043
:10245000B0420BDC994202D01B68002BF6D1D36A44
:1024600027606360D36A1C60D46205E05A68C4E9DF
:1024700000325A6814605C600120FFF75FFE89F348
:102480001188BFF36F8F4046BDE8F883A673F6E767
:10249000300600200021044B084603F12802C3E95E
:1024A0000A22FFF7F5BD00BF30060020014B9868F7
:1024B000704700BF3006002010B502464FF02003E1
:1024C000EFF3118483F31188BFF36F8F437B5907B8
:1024D00004D484F31188BFF36F8F10BD23F004037D
:1024E000437301F048FD10B11046FFF761FE21462D
:1024F000BDE81040014801F0B9BC00BF8D060020C6
:1025000030B587B00E9D044604950D9D03950C9D36
:1025100002950B9D01950A9D0095FEF775FD044BF4
:102520009B6813B9236607B030BD1B6EFAE700BF86
:10253000300600202DE9F04F284E294DB04687B0D7
:10254000B54205F1300410D3FFF7CEFD4FF400493A
:1025500040F2E7360027224CDFF888A0444521D31B
:1025600007B0BDE8F04FFFF707BE54F8043C0593F1
:1025700054F8103C049354F8143C039354F8183C5A
:10258000029354F81C3C019354F8203C009354E906
:102590000A2354E90C01FFF7B3FF54F8303CDD6423
:1025A0002546CDE7616A4B1C04D0256821B9284631
:1025B000FFF782FF3034D1E7B346BC46E9FB01BCEC
:1025C0004FF47A72002358466146FDF729FE5146C2
:1025D000421C05F1180000F043F8EBE7CC14002092
:1025E000CC140020BB3E0000034B1B680BB9FEF768
:1025F00051B90020704700BF6C060020036840B14D
:10260000084A5268904204D01BB19A6881680A4413
:102610009A604268136003685A600023C0E900337F
:10262000704700BF0C1400200B4B10B51C689C4277
:1026300008BF0024FFF7D8FF54B1A368181A20EA96
:10264000E070064B1B6913B19842A8BF184610BD35
:102650006FF00040F5E700BF0C14002030060020AA
:1026600070B504461646C1604FF02003EFF31185A4
:1026700083F31188BFF36F8FFFF7B6FF012EACBF56
:1026800080190130174BA0601A689A4201D05E6829
:1026900032B95A68236062605A6814605C600BE06B
:1026A0009068A168884216DD411A91605168C4E9BA
:1026B000002151680C6054601A689A4206D0944216
:1026C00004D1FFF7B1FF0021FEF796F885F31188DA
:1026D000BFF36F8F70BD091A9642A160D9D01268FE
:1026E000D6E700BF0C1400202DE9F04B0446FFF79D
:1026F000DBFD4FF02003EFF3118583F31188BFF367
:102700006F8F214F214EB846DFF884903460D9F89E
:10271000004032684C45D7E900BC05D024B1A3681D
:10272000934214DD9B1AA36000241BEB02004CEBC8
:10273000E271C8E900013460FFF776FF2146FEF739
:102740005BF885F31188BFF36F8FBDE8F08B1BEB4F
:1027500003004CEBE371D31A33600023C7E9000197
:10276000A3602046FFF74AFF85F31188BFF36F8F00
:10277000E36898474FF02003EFF3118583F3118846
:10278000BFF36F8FC3E700BF000000206C0600207E
:102790000C14002038B5074C074DAC4201D3002083
:1027A00038BD04F114032046C4E9053300F0E5FE0A
:1027B0001C34F2E7CC140020CC14002001F052BAF3
:1027C0000A46002101F092BA10B5114800F048F80D
:1027D00000B110BD0F4800F043F80028F9D10E4CAD
:1027E000204600F03DF80028F3D10C4B0C481C604B
:1027F00000F036F801460028EBD100F02DF8044631
:1028000008B1204610BD00F051F82046FAE700BF9D
:1028100020140020141400201C1400202414002074
:102820001814002008B5084800F024F8074800F004
:1028300021F8074800F01EF8064800F01BF8BDE834
:10284000084000F00BB800BF201400201414002032
:102850001C1400201814002000207047704700BF8F
:1028600008B5034B02681B6810689847002008BD34
:102870003014002008B5034B02685B681068984765
:10288000002008BD301400200268024B10689B68CD
:10289000184700BF3014002008B5034B0268DB68FE
:1028A00010689847002008BD3014002070B5094C0E
:1028B000094D2069AB68984718B1084B08485B6818
:1028C00098470021074AEB6811602069BDE8704015
:1028D000184700BF401400203014002028140020A6
:1028E000844500007006002070B5144C144D064657
:1028F000AB6820699847F0B9124A13685EB91BB9F2
:1029000001201149C1F8000501331360EB6820690B
:102910009847002070BD002BF8D0012B08BF0A4952
:1029200003F1FF3308BFC1F8000520691360EB68AD
:1029300098470020EEE7054870BD00BF4014002016
:10294000301400207006002000008450E98FFFFF43
:102950000020704700207047430503D54FF0FF3239
:10296000024B1A60024B1860704700BF0811845078
:10297000081A8450014B1860704700BF041A845035
:1029800008B100F003B84FF47500704702460748DD
:1029900003681342FCD021B1054B06481B680B604D
:1029A0000360054B00201A60704700BF001A845076
:1029B0000411845008118450081A845000F0A0B803
:1029C00030B129B100230144037001308142FBD1B1
:1029D000704700BF2DE9F041ADF51A7D0F46059215
:1029E0000021144612A84FF408721E4601F07EF929
:1029F000002308A819462822069301F077F9002F32
:102A00003CD0002E3AD0002C38D0042106A8FFF785
:102A1000D7FE08A82821FFF7D3FE08A800F032F857
:102A200078B14FF0FF3512A84FF40871FFF7C8FFD7
:102A300006A80421FFF7C4FF28460DF51A7DBDE85E
:102A4000F08112AB0DF11C080390CDE90163024641
:102A500005AB08A9CDF8008006A800F0E9FC002825
:102A6000DFD13368A342DCD3D8F800100546083123
:102A700038462246FFF7A2FE3460D4E74FF0FF3518
:102A8000DAE700BF1C2330B583B002A941F8043D4A
:102A9000044600F0B1F90546D8B9019B1C2B1BD1A7
:102AA000D4E9003201210033E16118BF01230AB1EA
:102AB00043F00203A26832B9E268AAB9C4E9083255
:102AC0003BB90D4D09E0E26843F0040362B9C4E983
:102AD0000832284603B030BD084D20461C21FFF7C0
:102AE0006FFE284603B030BD0022284643F008039D
:102AF000C4E9083203B030BD0E0CF000370CF00012
:102B000010B50C4C236813B10B4B1B686BB900F06C
:102B100031F938B10138062896BF084B084853F8F8
:102B2000200010BD0122044B1A6001230020236005
:102B300010BD00BF7406002078060020A4450000E8
:102B4000FE8FFFFF10B5094C23681BB10123002045
:102B5000236010BD00F07CF80028F7D0013806286B
:102B600096BF034B034853F8200010BD74060020A5
:102B7000A4450000FE8FFFFFBFF34F8F0549064BB2
:102B8000CA6802F4E0621343CB60BFF34F8F00BF0B
:102B9000FDE700BF00ED00E00400FA05014B5B68B3
:102BA000184700BF28140020024BD0E90012C3E9E7
:102BB0000012704728140020704700BF10B504466B
:102BC00020B1BFF35F8F0020206010BD0348FFF7E6
:102BD000E5FFBFF35F8F0020206010BDE4450000DB
:102BE00010B5044610B10023236010BD0248FFF762
:102BF000D5FF0023236010BDC045000050B1012265
:102C0000D0E8EF3FC0E8E12F0029F9D1012BF7D040
:102C1000BFF35F8F0020704770B40B4B0668C2682B
:102C2000D0E90154C3E90242C3E90065D1E90302D6
:102C30000E68064BD1E90154C3E90065C3E90240BF
:102C40001A6170BC704700BF30140020401400208F
:102C500010B5FFF77DFE70B9FFF7B6FD80B9FFF73D
:102C600043FE80B9114B1B681B0EF02B0DD00624C0
:102C7000FFF770FE00E00324FFF7D4FD204610BDEF
:102C80000424204610BD0024F2E7094A094B1268CB
:102C90009A4201D00724EBE70120FFF725FE002828
:102CA000F1D1054B04461860E8E700BF28198450AD
:102CB000241A84500000E0200C1A845030B5ADF581
:102CC000157D4FF4087200210CA801F00FF80023C5
:102CD00002A819462822019301F008F802A8FFF77C
:102CE000D1FE18B105200DF5157D30BD1C4D4FF0FE
:102CF000FF312868FFF7C8FD0446F0B90020FFF750
:102D0000F3FDB0B90CAA02A901A800F0D5FB044656
:102D10000120FFF7E9FDF0B92868FFF7BDFD10B10C
:102D20001048FFF73BFF2046002CDBD10DF5157D49
:102D300030BD0D48FFF732FFE4E70C48FFF72EFFE8
:102D4000012CDBD12868FFF7A7FD0028CAD0054871
:102D5000FFF724FFC6E70648FFF720FFDCE700BFC8
:102D6000241400201C4600003446000004460000E5
:102D70005446000008B5FFF7EBFD18B1FFF752FD10
:102D8000032008BDFFF720FD68B9FFF7ADFD60B96E
:102D9000154B1B681B0EF02B12D0FFF7DBFDFFF766
:102DA00041FD062008BD042008BDFFF7D3FDFFF755
:102DB00039FDFFF783FF00280CBF0020052008BD68
:102DC0000A4A0B4B12689A4205D0FFF7C3FDFFF782
:102DD00029FD072008BD0120FFF786FD0028E4D16A
:102DE000044B1860E5E700BF28198450241A84506A
:102DF0000000E0200C1A845018B111B10B681C2B94
:102E000001D0012070474FF47F033A4AD3F8101CD9
:102E100091425AD0D3F8102C013256D0D3F8102C4E
:102E20004FF47F030260D3F8141C334A91425ED002
:102E3000D3F8142C01325AD0D3F8142C4FF47F035A
:102E40004260D3F8182C12F5947F4DD0D3F8182C8B
:102E5000013249D0D3F8182C4FF47F038260D3F8A5
:102E60001C1C264A91423CD0D3F81C2C013238D08D
:102E7000D3F81C2C4FF47F03C260D3F8002C7032BF
:102E80002DD0D3F8002C013229D0D3F8002C4FF4E8
:102E90007F030261D3F8042CAF321ED0D3F8042C88
:102EA00001321AD0D3F8042C4FF47F034261D3F8D7
:102EB000081C134A91420BD0D3F8082C013207D0DA
:102EC000D3F8083C83610020704740F6FC02A7E776
:102ED00040F237338361002070475122E4E79022AB
:102EE000D5E742F60412C5E740F6D862B4E742F2ED
:102EF000D002A3E7FCF8FFFFD020FFFF0429FFFF6B
:102F000037F3FFFFA8B32DE9F0414C1EB4F5047F61
:102F10002CD25BB352B34FF0000CC900E6466546B5
:102F200064464F1E03F1FF380CE0AB4216D08E45CD
:102F300001D10CF1010CA84516D00134BC4205F1B9
:102F4000010518D8610950F8211004F01F06F1405E
:102F50001F2E18BF01F00101002CE6D10025A84565
:102F60008E464FF0010CE8D16245E6D20348BDE839
:102F7000F081024870470020BDE8F081370CF10075
:102F80002DE9F04F8FB00D46DDE919418346002948
:102F900057D12969039100211C60189B1960002AF0
:102FA00000F02281814A824B11686A6A1B689A424A
:102FB00057D10A2955D19BF803300693039904236E
:102FC00008467C4A0293A2FB00029208CB0002EB67
:102FD000420204F10800A1EB4202013BDFF8D0916C
:102FE000DFF800A2049000920593189B039C1C60DC
:102FF000002C00F0CC800026049F00F0A9FA0023EA
:103000000793069BBBF1000F3AD0002D34D053BB81
:103010005B000693BBF1000F36D0002D34D0E3B136
:1030200006A9284600F084FA002800F07D81624B52
:10303000984212D0009000F08BFA00980FB0BDE8D3
:10304000F08F4FF47F01D1F80C0C01300CBF4FF41E
:103050000471D1F80C1C03919DE72B6A73B9564893
:10306000E8E75648E6E706A9284600F061FA68B1A5
:10307000534B9842DED0069B082BC9D15148D9E763
:10308000082BFBD05B0006934F48D3E729460698F0
:1030900000F030FA0028EBD1069B082B00F00E81DF
:1030A000042B00F03181A3F10203B3FA83F35B092F
:1030B000019301231946454A136042F8843C434B6F
:1030C00019606B6AC9F80030D9F800206B6A9A421F
:1030D000F5D14FF000084FF0FF30CAF80080FFF73D
:1030E0003BFC3B4A3B4B40461A60FFF743FC0A223D
:1030F000019839492D4B08601A602A69A8F15538A2
:10310000A8FB02126B6A120903EB4303DB0303FB08
:1031100002F3324A9B0913600123CAF80030069972
:10312000DBF800200B0243EA016322F07F421343E5
:10313000CBF8003007A800F0CDF9002898D1284B33
:10314000A8FB04281A681433089253F8102CB6EB25
:10315000980F099253F80C2C0A9253F8082C0B92F2
:1031600053F8042C0C921B680D9301D1009B9BB962
:103170003846182208A9FFF721FB183C18370136FA
:10318000002C7FF43AAF049B002B40F09A80002380
:10319000189A1360069B6FE71A46384608A9E41A86
:1031A000FFF70CFB009B1F44E9E700BF3811845078
:1031B00030118450ABAAAAAA310CF100300CF100F6
:1031C000020CF100320CF100350CF100C4118450F6
:1031D000FEFFFF0F001184500C118450D811845051
:1031E000141184502C118450BBF1000F3FF44CAFEC
:1031F000002D3FF449AF01230EA941F8203DCBF843
:103200000020284600F094F900287FF413AF2946E7
:10321000069800F06FF900287FF40CAF069F082F86
:1032200000F0EB80042F00F0EA80A7F10207B7FA64
:1032300087F77F0901221646734B74491A601846B6
:103240000A60943B06606A6A1A6019686A6A914269
:10325000F8D14FF000086E4B4FF0FF30C3F80080FC
:10326000FFF77AFB6B4B6C4A40461A60FFF782FB14
:103270000A226A496A4B0F601A601A992B69012960
:103280006A6A00F0B1806749A1FB03131B090121A1
:1032900002EB4202D20303FB02F3634A9B09136071
:1032A0005B4B19600699DBF800200B0243EA0163CF
:1032B00022F07F421343CBF800307FE603230193D3
:1032C000F7E6039BB3F5047F3FF661AFDDE9047CCD
:1032D000204623466E6904E001200133634514460D
:1032E00015D85A0957F8222003F01F01CA401F2998
:1032F00018BF02F00102002BEED0A242ECD1013047
:103300008642EAD149480BE002230193D1E64FF40B
:103310008063DDE90310AA69FFF7F4FD00285DD0A2
:103320000023189A1360A3E62946069800F0E2F8F5
:1033300000287FF47CAE069C082C51D0042C51D080
:10334000A4F10204B4FA84F4640901231E46194668
:103350002D4A136042F8843C2B4B19606B6AC9F804
:103360000030D9F800206B6A9A42F5D100274FF05F
:10337000FF30CAF80070FFF7EFFA264B264A3846AE
:103380001A60FFF7F7FA0A222449254B0C601A60ED
:103390002A6924496B6AA1FB021203EB4303120959
:1033A000DB0303FB02F3204A9B091360CAF80060A9
:1033B000069BDBF800101A0242EA036321F07F4209
:1033C0001A43130A03F47F03134323F07F43CBF81C
:1033D0000030029B013B02937FF407AE002029E6F8
:1033E0000324B2E70224B0E74FF47F03D3F80C1CA8
:1033F000013106D0D3F80C3C45E703271AE7022732
:1034000018E7162343E700BFC411845040118450CD
:103410002C11845000118450FEFFFF0F0C118450BA
:1034200038118450ABAAAAAAD8118450360CF100E6
:103430002DE9F0431B4C85B00746DDE90D56884663
:1034400020684FF0FF319146FFF71EFA28BB00209D
:10345000FFF74AFAE8B90023CDE9005602934A463D
:10346000414638460C9BFFF78BFD05460120FFF7D0
:103470003BFA50B92068FFF70FFA10B10A48FFF77E
:103480008DFB284605B0BDE8F0830848FFF786FBB2
:10349000F0E70748FFF782FBDDE70648FFF77EFB12
:1034A000D5E700BF241400201C460000544600004D
:1034B000344600000446000010B5012486B005AB78
:1034C000CDE901240093002204ABFFF759FD06B0BB
:1034D00010BD00BF08B501464FF48060FFF750FAF9
:1034E00000230249024A0B60136008BDC8118450D2
:1034F0002C1184500138072815D8DFE800F0100C93
:10350000140814141404CB6800204B6270478B68B5
:1035100000204B6270474B6800204B6270470B687D
:1035200000204B6270470148704700BF310CF1002A
:103530000B6802E0082B0B6006D8026A13424FEAC0
:103540004303F7D00020704700487047310CF1006A
:1035500000230449044A0B604FF480601360FFF7B6
:10356000FBB900BF2C118450C411845008B5FDF77D
:1035700045FABDE80840FDF7D5B9FF232DE9F74F1F
:103580004568002229464FF00C0A4FF0200B0789AE
:10359000046805FB07FCC372837A64440193019BB2
:1035A000934208DC002319468F4205EB030C21DC13
:1035B00003B0BDE8F08FBCFBF1F3202B84BF1F33B9
:1035C00093FBFBF30AFB02FED0F80C804FEA91015B
:1035D00008EB0E0606F10409C6E9019921F0030182
:1035E00094BFC27248F80E4002F1010288BF04EB9A
:1035F0008304D4E7C268066802F1040EF41846F8A2
:1036000003E093680131636093681C6094606346D3
:10361000CAE7044608B5084611461A46A047FEF711
:1036200045FFFDF7BBFE0020704770B50D46044610
:103630004520A04729465220A04729462346BDE8F9
:103640007040522018472DE9F04F4FF00008064611
:103650000F461C464FF0FF3AC1468BB002F1FF3BCC
:10366000002505E05DB9252800F056813946B047B0
:103670001BF8010F0028F5D10BB0BDE8F08F6428CE
:103680006DD01AD839280AD831285FD22D2800F0F9
:10369000498130284BD0252807D139460BE05828DE
:1036A00000F0BC80632800F0318139462520B04706
:1036B00039469BF80000B047D2E7702800F0A4809C
:1036C00011D869284BD06C2805D1B8F16C0F29D1DD
:1036D0004FF04C08CCE76828E7D1B8F1680F21D14A
:1036E0004FF04808C4E7752870D017D87328DCD18C
:1036F0002568231D02932B461C4614F8010B002855
:1037000040F0FB80B9F1030F40F012815C1BAAEB83
:103710000404002C00F3F580029CA1E778287DD0FA
:103720007A28C2D1B8F1000FBFD18046A0E7BAF124
:10373000000F0EDAB9F1000F00F0F780A0F1300AA7
:10374000B9F1000F08BF4FF0020991E7BAF1000F7D
:10375000F4DB0A2303FB0A0AAAF1300AF0E7B8F106
:103760007A0F02D1256804341FE0B8F16C0FF9D04C
:10377000B8F14C0FF6D1073424F0070303F1080425
:10378000D3E9002312F10040CDE9022343F1000107
:1037900000234FF0FF328B4208BF824204D23946E9
:1037A0003046FFF742FF5BE7029D002D05DA394600
:1037B0002D20B0476D420AF1FF3A4B462A46CDF81C
:1037C00000A039463046FCF7EBFE49E7B8F17A0F26
:1037D00002D12268043413E0B8F16C0FF9D0B8F1CB
:1037E0004C0FF6D100214FF0FF30073424F00703CF
:1037F00003F10804D3E90023994208BF9042CED3D5
:10380000CDF800A04B46DCE739463020B0473946BA
:103810007820B0474FF0080A4FF001099BF80030BC
:10382000702B05D1236804340693002302930EE025
:10383000B8F16C0FF6D0B8F14C0FF3D1073424F087
:1038400007031A6803F108045B68069202930023D9
:103850001022059307934023043B02990698C3F175
:10386000200CA3F1200ED84001FA0CFC40EA0C0019
:1038700021FA0EFE40EA0E0010F00F0007D1079962
:1038800001B92BBB4FF0300C07E00795E4E709289E
:103890008CBF4FF0570C4FF0300C39466044CDE9E7
:1038A0000732B047059B01330593DDE90732002B52
:1038B000EBD1B9F1030F7FF4D3AE059BC3EB4A05FF
:1038C000002D7FF7CDAE39462020B047013DF7E708
:1038D000511E9245089107DBB9F1010F06D1394617
:1038E00030200993B047099B089AB5E7B9F1020F58
:1038F000FAD1099339462020F4E73946B0472346E8
:10390000FAE639462020B047013C02E72068251D31
:103910003946B0472C46A3E6A846A9464FF0FF3AE1
:103920000125A5E64FF00309A2E64FF001099FE645
:10393000029C05469CE60FB407B504A951F8040B98
:103940000191FCF77FFE03B05DF804EB04B0704713
:103950007047FEF789B883685A7A32B993F908003C
:103960000028CCBF00200120704702207047026869
:1039700070B5956884684FF02003EFF3118683F3E8
:103980001188BFF36F8F237A013B5BB2002B237248
:1039900018D1C4E900336B6883B90122EB7A03F1D3
:1039A00050231A6000222B8903F150231A60002053
:1039B000607286F31188BFF36F8F70BD984700283F
:1039C000EBD1F4E74FF00000BCBF20726FF0440071
:1039D000EFE7F8B50368064614469F6885684FF020
:1039E0002003EFF3118283F31188BFF36F8F2B7ADB
:1039F00001335BB22B7282F31188BFF36F8F6A7A47
:103A000032B10CB90020F8BDD4E901319847F9E78B
:103A1000012B06D13B6833B90122BB7A03F1502355
:103A20001A604CB9EEE798470028F5D1002CE9D090
:103A3000D4E90131304698472B689C420DD013B130
:103A40001B68002BF9D1002020606B6813B9C5E911
:103A50000044D7E71C606C60D5E76FF04400D2E704
:103A60000022FFF7B6BF83680020C3E9000070475B
:103A700010B50022044601210520FDF7ADFA05200E
:103A8000FDF79AFA4FF050230222C3F818250322BB
:103A90000020C3F80423A368C3E9000010BD38B5B3
:103AA0008468054623682BB161681A688B422260DE
:103AB00008BF62600122627203B938BDD3E90121F7
:103AC000284690472368002BF7D061681A688B421C
:103AD000226008BF6260EFE770477047002307B5B8
:103AE00002A800F8043DFEF769FF03B05DF804FB8F
:103AF000902908B5134639D10A4601460020FEF741
:103B000069FFBDE80840714672467346B7EE000A89
:103B1000F7EE000AB7EE001AF7EE001AB7EE002A29
:103B2000F7EE002AB7EE003AF7EE003AB7EE004A99
:103B3000F7EE004AB7EE005AF7EE005AB7EE006A09
:103B4000F7EE006AB7EE007AF7EE007A8EF3008C9B
:103B500010B4F1EE10CA4FF66074C0F6FF740CEAB0
:103B6000040CE1EE10CA10BCF44674476FF0150067
:103B7000C7E7FEE7FDF798BA43B2A9B1002B12DB05
:103B800001215B099B0003F1604303F56143D3F816
:103B9000802200F01F0001FA00F022EA0000C3F8C2
:103BA0008002D3F880327047002BFCDB01225B09D6
:103BB0009B0003F1604303F56143D3F8801200F0EA
:103BC0001F0002FA00F00843E9E700F004B90146DB
:103BD000006800F000B908B5FDF770FABDE80840CC
:103BE000FDF788B907B5002101A8FDF76FFD03B007
:103BF0005DF804FB30B585B09DF808200D890B6891
:103C00004C68498965F3040261F3471200938DF80B
:103C1000082023F01F03621E134423F01F030F2804
:103C20000393044605D86946FDF708FC204605B015
:103C300030BD6FF01504F9E740E800F313F4803F5E
:103C4000D8B208BF6FF0150070470138013910F87D
:103C5000013F11F8012F934202D1002BF7D11A46F0
:103C6000981A7047431A934210B500EB020308D329
:103C7000024601399A420BD011F8014F02F8014B6C
:103C8000F8E70A4412F8014D8A4203F8014DF9D1D0
:103C900010BDF0B581EA0004A50703460BD0013B37
:103CA0000A4491421DD1F0BD002AFCD011F8014B0D
:103CB000013A03F8014B9C07F6D10C461D1F8F18E3
:103CC0003E1B032E08D86FF00305940805FB042261
:103CD000A40023442144E2E754F8046B45F8046F40
:103CE000EEE711F8014B03F8014FDAE70346F0B5B0
:103CF000C9B29C070FD11D4641EA012444EA04449D
:103D00009F187E1B032E0CD8940803EB84041344E5
:103D10009C4209D1F0BD002AFCD003F8011B013AF6
:103D2000E7E745F8044BECE704F8011BF0E74FF038
:103D3000FF3070470B46826892E8030083E8030077
:103D40000020704703689B681B68D3F8240118B1F2
:103D5000D3F88004C3F880047047036882689B68C6
:103D60001B68D3F8100138B1127A00200A700122C2
:103D7000C3F810011A6070474FF0FF30704782B0EF
:103D800002AA02F8011D002103689B681B68C3F8A2
:103D90002011C3F844250122C3F848259A60D3F8BE
:103DA00020110029FBD0DA6002B0704708B5FDF79A
:103DB0000BF8FDF789F8BDE80840FEF7C3BE4FF0E9
:103DC0002002EFF3118382F31188BFF36F8FFEE7B8
:103DD00008B5FFF7F4FF70B505460E46FEF766FB23
:103DE000314604462846FFF7F3FF2046BDE8704001
:103DF000FDF7D4BAFFF771BE30B50024C0E9023236
:103E0000C0E905440161A34202D1C0E9000030BD10
:103E1000456901340D6041611144F4E70023C0E9B4
:103E20000000C0E902337047437BDB0603BF8069B3
:103E3000B0FA80F040090020704738B504464FF0D2
:103E40002003EFF3118583F31188BFF36F8F0146D1
:103E50008068FEF75DF9637B23F00203637385F3EB
:103E60001188BFF36F8F0023A36038BD21B9EFF332
:103E7000058008B9FDF74CB881F31188BFF36F8F47
:103E80007047034620B9EFF305820AB9FDF740B841
:103E900083F31188BFF36F8F70474FF02003EFF368
:103EA000118083F31188BFF36F8FFFF7EABF0368B8
:103EB000984214BF18460020704750F8103C70B567
:103EC0000446A0F11805CBB14FF02003EFF31186A3
:103ED00083F31188BFF36F8F294650F8100CFEF75B
:103EE00017F914F80B3C23F0020304F80B3C86F39B
:103EF0001188BFF36F8F002344F8103C14F80B3C7B
:103F0000284623F0140304F80B3CFFF78DFF20B183
:103F10002846BDE87040FEF74BB970BD38B54FF08C
:103F20002003EFF3118283F31188BFF36F8FFFF744
:103F3000BEFF044682F31188BFF36F8FC8B14FF004
:103F40002003EFF3118583F31188BFF36F8F0146D0
:103F50008068FEF7DDF8637B23F00203637385F36B
:103F60001188BFF36F8F002304F11800A36000F0E5
:103F700039F8204638BD437BDB0603BF8069B0FAC1
:103F800080F040090020704710B5029C83730473D1
:103F900000230424C3734473C0E90633C0E9133318
:103FA000C0E9161210BD036D10B5044603B1984761
:103FB0002046FFF7E0FF38B12046FEF7ABF9637B00
:103FC00043F00803637310BD637B9B0702D5204653
:103FD000FFF733FFA369002BF1D004F1180000F0C4
:103FE00001F8ECE710B54FF02002EFF3118482F3F3
:103FF0001188BFF36F8F03683BB1FEF7FFFA002013
:1040000084F31188BFF36F8F10BD6FF01500F7E7D1
:1040100010B54FF02003EFF3118483F31188BFF341
:104020006F8FFEF701FB84F31188BFF36F8F10BD14
:1040300070B504460E464FF02003EFF3118583F36D
:104040001188BFF36F8FFEF7EFFA012805DDA0425C
:1040500003DD31462046FCF7CFFB85F31188BFF323
:104060006F8F70BD7047FFFFE8C1FF7F0100000048
:1040700000000000753B000000000000753B0000E0
:1040800000000000753B000000000000753B0000D0
:1040900000000000753B000000000000E906000081
:1040A00000000000753B000000000000753B0000B0
:1040B00000000000753B000000000000753B0000A0
:1040C00000000000753B000000000000753B000090
:1040D00000000000753B000000000000753B000080
:1040E00000000000753B000000000000753B000070
:1040F00000000000753B000000000000753B000060
:1041000000000000753B000000000000753B00004F
:1041100000000000753B00000000000041070000A7
:1041200000000000753B000000000000753B00002F
:1041300000000000753B000000000000753B00001F
:1041400000000000753B000000000000753B00000F
:1041500000000000753B000000000000753B0000FF
:1041600000000000753B000000000000753B0000EF
:1041700000000000753B000000000000753B0000DF
:1041800000000000753B000000000000753B0000CF
:1041900000000000753B000000000000753B0000BF
:1041A00000000000753B000000000000753B0000AF
:1041B00000000000753B000000000000753B00009F
:1041C00000000000753B000000000000753B00008F
:1041D00000000000753B000000000000753B00007F
:1041E00000000000753B000000000000753B00006F
:1041F00000000000753B000000000000753B00005F
:1042000000000000753B000000000000753B00004E
:1042100000000000753B000000000000753B00003E
:1042200000000000753B000000000000753B00002E
:1042300000000000753B000000000000753B00001E
:1042400000000000753B000000000000753B00000E
:1042500000000000753B000000000000753B0000FE
:1042600000000000753B000000000000753B0000EE
:1042700000000000753B0000B0460000650600002D
:1042800000000000B0460000CD0600000000000065
:104290008A460000673A000044430000944600004C
:1042A000713A0000384300009E460000810700007C
:1042B00000000000B0460000911400000000000063
:1042C000834600009519000064450000A7490000DE
:1042D000AD3D000000000000B0460000111E0000CF
:1042E00000000000B046000095270000000000001C
:1042F000DEE61E284CBBCE8F015B000002000000F2
:1043000004430000000000007446000006000000A6
:10431000E0FF0F00000000207C46000021000000AC
:10432000E0FF0020613A00006F390000D33900003F
:1043300000000000573900000000000000000000ED
:104340000001000400000000000000000401080C4F
:10435000170100000701000007010000070100002D
:10436000070100000701000007010000070100002D
:10437000070100000701000007010000070100001D
:10438000070100000701000007010000070100000D
:1043900007010000070100000701000007010000FD
:1043A00007010000070100000701000007010000ED
:1043B00007010000070100000701000007010000DD
:1043C00007010000070100000701000007010000CD
:1043D000614800004201000068480000050100003B
:1043E00072480000150100007B4800003901000000
:1043F00084480000090100008F4800000A01000005
:104400009A4800000A010000A44800000B010000C7
:10441000AE4800000F010000B94800001001000084
:10442000C448000011010000CF4800000E01000048
:10443000D948000021010000E248000022010000EC
:10444000EB48000023010000F448000024010000B4
:10445000FD48000018000000054900002A01000086
:104460000D4900003A010000154900002C01000030
:104470001D4900001C010000264900001D0100002C
:104480002F490000170100003949000031010000E8
:104490004549000004010000170100001701000059
:1044A00017010000170100001701000017010000AC
:1044B00017010000170100000701000007010000BC
:1044C00007010000070100000701000007010000CC
:1044D00007010000070100000701000007010000BC
:1044E00007010000070100000701000007010000AC
:1044F000070100000701000007010000070100009C
:10450000070100000701000007010000070100008B
:104510000701000007010000000200000004000085
:104520000008000000000000733B0000650E000062
:10453000250E0000F50D0000D50D0000F013002041
:10454000D8130020E813002000000000E013002032
:104550005B3D00007F3D0000453D00002518000048
:10456000353D000000800050010000005414002080
:10457000B4140020C0140020CC140020CC1400205F
:10458000F5FFFFFF436F756C64206E6F74206C6FD6
:10459000636B20706F7765722073617665206D752F
:1045A00074657800FF8FFFFFFF8FFFFFFE8FFFFF17
:1045B000FE8FFFFFFD8FFFFFFC8FFFFFFC8FFFFFD4
:1045C00043616E277420696E697469616C697A65EC
:1045D000206D757465782C20776173204E554C4C96
:1045E0000D0A000043616E277420756E6C6F636B5B
:1045F000206D757465782C20776173204E554C4C76
:104600000D0A00004661696C20746F20616371754A
:10461000697265206D757465780A00004661696C81
:1046200020746F2072656C65617365206D757465AB
:10463000780A00004661696C20746F20696E6372AD
:104640006561736520504D20636F756E7465720AE5
:10465000000000004661696C20746F20646563721D
:104660006561736520504D20636F756E7465720AC5
:1046700000000000464C4153485F30005352414D0A
:104680005F3000554152545F3000434C4F434B5F05
:1046900033324B00434C4F434B5F31364D007379FF
:1046A000735F636C6F636B005365637572650909B3
:1046B000004E6F6E2D53656375726509004E6F6E07
:1046C0002D53656375726500466C61736820726571
:1046D00067696F6E0909446F6D61696E09095065FC
:1046E000726D697373696F6E730A002530327520BD
:1046F000307825303578203078253035782009001D
:104700002563004E6F6E2D7365637572652063615E
:104710006C6C61626C6520726567696F6E20302019
:10472000706C6163656420696E20666C61736820DB
:10473000726567696F6E20256420776974682073DD
:10474000697A652025642E0A00436F756C64206EBB
:104750006F7420696E697469616C697A652073652C
:104760006375726520736572766963657320286569
:104770007272202564292E0A005352414D20726521
:1047800067696F6E0909446F6D61696E090950654B
:10479000726D697373696F6E730A0025303275200C
:1047A000307825303578203078253035780900503C
:1047B00065726970686572616C0909446F6D616941
:1047C0006E09095374617475730A002530327520BF
:1047D000252D32317325730009534B49500A0009C6
:1047E0004552524F520A00094F4B0A0053504D3A5E
:1047F000204E5320696D61676520617420307825F3
:10480000780A0053504D3A204E53204D53502061AA
:104810007420307825780A0053504D3A204E5320AA
:10482000726573657420766563746F72206174209D
:10483000307825780A0053504D3A207072657061C7
:10484000726520746F206A756D7020746F204E6FD2
:104850006E2D53656375726520696D6167652E0AFB
:10486000004E52465F5030004E52465F434C4F431D
:104870004B004E52465F52544331004E52465F4EFB
:10488000564D43004E52465F554152544531004EFD
:1048900052465F554152544532004E52465F54577E
:1048A000494D32004E52465F5350494D33004E52EF
:1048B000465F54494D455230004E52465F54494D73
:1048C000455231004E52465F54494D455232004EDA
:1048D00052465F5341414443004E52465F50574D4C
:1048E00030004E52465F50574D31004E52465F5099
:1048F000574D32004E52465F50574D33004E524690
:104900005F574454004E52465F495043004E524652
:104910005F564D43004E52465F465055004E52463C
:104920005F45475531004E52465F45475532004E70
:1049300052465F4450504943004E52465F475049EB
:104940004F544531004E52465F524547554C4154F5
:104950004F5253006D757465785F696E697420639A
:10496000616C6C65642077697468204E554C4C20EE
:10497000706172616D6574657200436F756C64205F
:104980006E6F7420616C6C6F63617465206D7574FB
:104990006578206265666F726520696E6974696109
:1049A0006C697A696E670048575F43433331305F03
:1049B00030002A2A2A2A2A20426F6F74696E6720E3
:1049C0005A6570687972204F53206275696C642053
:1049D00076322E302E39392D6E6373312D7263315C
:1049E0002D3735342D6736356632643534373038F7
:1049F0006634202A2A2A2A2A0A006D61696E006913
:104A0000646C650027360000E014002001000000FF
:104A1000F41400200100000008150020010000002F
:104A20001C150020010000002F3D000000C2010005
:104A300000010300000000000090D0030C140020CF
:104A40000C140020441400205014002048140020AE
:104A5000401400201C14002000000000792B0000EE
:104A6000E12B0000B92B0000FD2B0000BD2B000046
:104A7000880600207C06002084060020000000003C
:104A800080060020784200000000000000000000C6
:104A9000D84200000000000000000000E4420000D6
:104AA0000000000000000000B44200000000000010
:104AB000000000009C420000244300000C00002085
:104AC000904200002443000018000020C042000073
:104AD00050450000FC13002084420000000000004C
:104AE00000000000A84200000000000000000000DC
:104AF000CC4200000000000000000000CC140020A8
:104B0000CC14002000000000000000000F00000096
:104B1000E0140020E014002000000000000000006D
:104B20000F000000F4140020F41400200000000026
:104B3000000000000F0000000815002008150020EC
:104B400000000000000000000F0000001C15002005
:104B50001C15002000000000000000000F000000F5
:104B60000000000000000000000000000000000045
:104B70000000000000000000000000000000000035
:104B80000000000000000000000000000000000025
:104B90000000000000000000000000000000000015
:107FE0007FE97FE9F8F71ABE7FE97FE9F8F76EBE0F
:107FF0007FE97FE9FBF77CBD000000000000000086
:10C0000050900220C103010007470200D90101003E
:10C01000D9010100D9010100D9010100D9010100B4
:10C02000D9010100D9010100D901010099000100E5
:10C03000D9010100D9010100E9FF0000F746020023
:10C0400081030100810301008103010081030100DC
:10C0500081030100810301008103010081030100CC
:10C0600081030100810301008103010081030100BC
:10C0700081030100810301008103010081030100AC
:10C08000810301008103010081030100810301009C
:10C09000810301008103010081030100810301008C
:10C0A000810301008103010081030100810301007C
:10C0B00071210100995102008103010081030100F7
:10C0C000810301008103010081030100810301005C
:10C0D000810301008103010081030100810301004C
:10C0E0008103010081030100B751020081030100B7
:10C0F000810301008103010081030100810301002C
:10C10000810301008103010081030100810301001B
:10C11000810301008103010081030100810301000B
:10C1200081030100810301008103010081030100FB
:10C1300081030100810301008103010081030100EB
:10C14000810301000000000000000000000000006A
:10C1500000000000000000000000000000000000DF
:10C1600000000000000000000000000000000000CF
:10C1700000000000000000000000000000000000BF
:10C1800000000000000000000000000000000000AF
:10C19000000000000000000000000000000000009F
:10C1A000000000000000000000000000000000008F
:10C1B000000000000000000000000000000000007F
:10C1C000000000000000000000000000000000006F
:10C1D000000000000000000000000000000000005F
:10C1E000000000000000000000000000000000004F
:10C1F000000000000000000000000000000000003F
:10C20000DEE61E284CBBCE8F015B000044D101004E
:10C210000100000000C0000060BE0220952A01005D
:10C2200081F0004102E000BF83F0004330B54FEAE7
:10C2300041044FEA430594EA050F08BF90EA020F54
:10C240001FBF54EA000C55EA020C7FEA645C7FEAE7
:10C25000655C00F0E2804FEA5454D4EB5555B8BF0A
:10C260006D420CDD2C4480EA020281EA030382EA7B
:10C27000000083EA010180EA020281EA0303362D0D
:10C2800088BF30BD11F0004F4FEA01314FF4801CE0
:10C290004CEA113102D0404261EB410113F0004FF2
:10C2A0004FEA03334CEA133302D0524263EB4303A9
:10C2B00094EA050F00F0A780A4F10104D5F1200E47
:10C2C0000DDB02FA0EFC22FA05F2801841F10001A2
:10C2D00003FA0EF2801843FA05F359410EE0A5F176
:10C2E00020050EF1200E012A03FA0EFC28BF4CF0A7
:10C2F000020C43FA05F3C01851EBE37101F000455D
:10C3000007D54FF0000EDCF1000C7EEB00006EEB69
:10C310000101B1F5801F1BD3B1F5001F0CD34908F3
:10C320005FEA30004FEA3C0C04F101044FEA44524A
:10C3300012F5800F80F09A80BCF1004F08BF5FEAD1
:10C34000500C50F1000041EB045141EA050130BDB1
:10C350005FEA4C0C404141EB010111F4801FA4F154
:10C360000104E9D191F0000F04BF01460020B1FAA9
:10C3700081F308BF2033A3F10B03B3F120020CDAE1
:10C380000C3208DD02F1140CC2F10C0201FA0CF0BF
:10C3900021FA02F10CE002F11402D8BFC2F1200C24
:10C3A00001FA02F120FA0CFCDCBF41EA0C019040DA
:10C3B000E41AA2BF01EB0451294330BD6FEA040423
:10C3C0001F3C1CDA0C340EDC04F11404C4F120020E
:10C3D00020FA04F001FA02F340EA030021FA04F320
:10C3E00045EA030130BDC4F10C04C4F1200220FA77
:10C3F00002F001FA04F340EA0300294630BD21FAB5
:10C4000004F0294630BD94F0000F83F4801306BF7A
:10C4100081F480110134013D4EE77FEA645C18BF6E
:10C420007FEA655C29D094EA050F08BF90EA020F05
:10C4300005D054EA000C04BF1946104630BD91EAFD
:10C44000030F1EBF0021002030BD5FEA545C05D100
:10C450004000494128BF41F0004130BD14F580043F
:10C460003CBF01F5801130BD01F0004545F0FE41B3
:10C4700041F470014FF0000030BD7FEA645C1ABFE8
:10C48000194610467FEA655C1CBF0B46024650EA1F
:10C49000013406BF52EA033591EA030F41F400214B
:10C4A00030BD00BF90F0000F04BF0021704730B5D1
:10C4B0004FF4806404F132044FF000054FF00001A6
:10C4C00050E700BF90F0000F04BF0021704730B567
:10C4D0004FF4806404F1320410F0004548BF40423C
:10C4E0004FF000013EE700BF42004FEAE2014FEA91
:10C4F00031014FEA02701FBF12F07F4393F07F4F6C
:10C5000081F06051704732F07F4208BF704793F06E
:10C510007F4F04BF41F40021704730B54FF4607481
:10C5200001F0004521F000411CE700BF50EA010284
:10C5300008BF704730B54FF000050AE050EA01022D
:10C5400008BF704730B511F0004502D5404261EB9D
:10C5500041014FF4806404F132045FEA915C3FF4DE
:10C56000D8AE4FF003025FEADC0C18BF03325FEA7B
:10C57000DC0C18BF033202EBDC02C2F1200300FA2C
:10C5800003FC20FA02F001FA03FE40EA0E0021FA51
:10C5900002F11444BDE600BF53B94AB9002908BFEF
:10C5A00000281CBF4FF0FF314FF0FF3000F07CB986
:10C5B000ADF1080C6DE904CE00F006F8DDF804E0FA
:10C5C000DDE9022304B070472DE9F0478C46089D51
:10C5D00004468A46002B4AD18A42174662D9B2FAEB
:10C5E00082F64EB1C6F1200E01FA06F3B740B44010
:10C5F00020FA0EFE4EEA030A4FEA1748230C1FFAF0
:10C6000087F9BAFBF8FE08FB1EAA0EFB09F243EA03
:10C610000A439A420BD9FB180EF1FF312CBF0120BF
:10C6200000209A4202D9002800F02A818E469A1AE8
:10C63000A3B2B2FBF8F008FB102200FB09F943EAB1
:10C640000244A14507D93C1900F1FF3302D2A145AC
:10C6500000F210811846A4EB090440EA0E400021C4
:10C660001DB1F4400023C5E90043BDE8F0878B42CB
:10C6700008D9002D00F0F2800021C5E9000C084621
:10C68000BDE8F087B3FA83F100294ED16345C0F0CD
:10C69000E880824240F2E5800846002DE5D0C5E9F9
:10C6A000004AE2E702B9FFDEB2FA82F6002E40F05D
:10C6B00099808B1A4FEA124E1FFA82F801214FEA35
:10C6C000144CB3FBFEF20EFB123008FB02F94CEAED
:10C6D000004CE14508D917EB0C0C02F1FF3302D2F4
:10C6E000E14500F2CA801A46ACEB090CA3B2BCFBD0
:10C6F000FEF00EFB10CC08FB00F843EA0C44A0450A
:10C700000ED93C1900F1FF332CBF4FF0010C4FF054
:10C71000000CA04503D9BCF1000F00F0A88018461A
:10C72000A4EB080440EA02409AE7C1F120048B40E0
:10C7300002FA01FE0CFA01F6E24020FA04F72CFAA4
:10C7400004FC00FA01F813433E431F0C320C1FFA9D
:10C7500083F9BCFBF7F007FB10CC00FB09FA42EAB7
:10C760000C4CE24508D913EB0C0C00F1FF3202D25D
:10C77000E24500F289801046ACEB0A0CB6B2BCFB75
:10C78000F7FA07FB1ACC0AFB09F946EA0C42914575
:10C7900006D99A180AF1FF3601D291457AD8B246E5
:10C7A0004AEA0040A2EB0902A0FB0E67BA42B44677
:10C7B000B94602D307D1B04505D2B6EB0E0C67EBF4
:10C7C000030301389946002D6BD0B8EB0C0362EBE4
:10C7D000090202FA04F4CB40CA4000211C43C5E917
:10C7E000004242E7B740C6F1200201FA06F3B44026
:10C7F00021FA02FC4FEA174E20FA02F21FFA87F8DC
:10C80000BCFBFEF11A430EFB11CC01FB08F0130C2C
:10C8100043EA0C4C604507D917EB0C0C01F1FF33D0
:10C8200001D2604533D81946ACEB000C92B2BCFB88
:10C83000FEF00EFB10CC00FB08F342EA0C4C634503
:10C8400007D917EB0C0C00F1FF3201D2634525D854
:10C850001046ACEB030340EA014130E72946284685
:10C8600003E7841A6CEB030301209A4615E70238AC
:10C870003C4455E702383C44EDE6023ABC4433E719
:10C88000AEF1020E3B44D2E602389C4474E7023912
:10C89000BC44C9E7AAF1020A1A4481E70238BC4441
:10C8A000D7E72946E1E600BF704700BF70B491E8C2
:10C8B0007800B2E802105B1854EB0C04B2E80210E6
:10C8C0004D4156EB0C0680E878008041013070BC89
:10C8D000704770B491E87800B2E802105B1A74EB0C
:10C8E0000C04B2E802108D4176EB0C0680E878006B
:10C8F0008041404270BC70472DE9F00791E8F8078D
:10C90000B2E802105B1854EB0C04B2E802104D417F
:10C9100056EB0C06B2E802104F4158EB0C08B2E897
:10C92000021059EB01095AEB0C0A80E8F807804124
:10C930000130BDE8F00770472DE9F00791E8F807EE
:10C94000B2E802105B1A74EB0C04B2E802108D41DD
:10C9500076EB0C06B2E802108F4178EB0C08B2E8D7
:10C96000021079EB01097AEB0C0A80E8F8078041A4
:10C970004042BDE8F00770472DE9F007524290E8C9
:10C980007800B1E880071740DB1918EA020854EB79
:10C99000080419EA020955EB09051AEA020A56EBDE
:10C9A0000A0678C090E87800B1E8800717407B411C
:10C9B00018EA020854EB080419EA020955EB0905C4
:10C9C0001AEA020A56EB0A0678C080410130BDE837
:10C9D000F00770472DE9F007524290E87800B1E87F
:10C9E00080071740DB1B18EA020874EB080419EAF9
:10C9F000020975EB09051AEA020A76EB0A0678C005
:10CA000090E87800B1E880071740BB4118EA0208B7
:10CA100074EB080419EA020975EB09051AEA020A1F
:10CA200076EB0A0678C080414042BDE8F0077047C7
:10CA300090E8300091E8C000A31B1340E41AF618F8
:10CA4000EB1B1340ED1AFF1830C0C0C17047F0B5A2
:10CA50005242FFF7EDFFFFF7EBFFFFF7E9FFFFF7AC
:10CA6000E7FFF0BD2DE9F0073AC91668A1FB069A69
:10CA70004FF0000CE3FB06AC4FF00007E4FB06C7E9
:10CA80004FF00008E5FB067840F8049B56684FF02D
:10CA90000009E1FB06A91CEB090C4FF0000949EB6A
:10CAA0000909E3FB06C917EB09074FF0000949EB39
:10CAB0000909E4FB067918EB09084FF0000949EB76
:10CAC0000909E5FB068940F804AB96684FF0000AB7
:10CAD000E1FB06CA17EB0A074FF0000A4AEB0A0A05
:10CAE000E3FB067A18EB0A084FF0000A4AEB0A0A41
:10CAF000E4FB068A19EB0A094FF0000A4AEB0A0A1E
:10CB0000E5FB069A40F804CBD6684FF0000CE1FB39
:10CB1000067C18EB0C084FF0000C4CEB0C0CE3FB04
:10CB2000068C19EB0C094FF0000C4CEB0C0CE4FBE1
:10CB3000069C1AEB0C0A4FF0000C4CEB0C0CE5FBBE
:10CB400006AC80E88017BDE8F00770470A462DE97B
:10CB5000F04F41EC140A92EC080A1EC910EE100ABC
:10CB6000A1FB00784FF00009E2FB00894FF0000ABA
:10CB7000E3FB009A4FF0000BE4FB00AB12EE100A4F
:10CB80004FF0000CE1FB00BC4FF0000EE2FB00CECA
:10CB90004FF00005E3FB00E54FF00006E4FB005614
:10CBA00005EE107A10EE900A4FF00007E1FB0087C7
:10CBB00019EB07094FF0000747EB0707E2FB009767
:10CBC0001AEB070A4FF0000747EB0707E3FB00A744
:10CBD0001BEB070B4FF0000747EB0707E4FB00B721
:10CBE00012EE900A1CEB070C4FF0000747EB07070B
:10CBF000E1FB00C71EEB070E4FF0000747EB0707EE
:10CC0000E2FB00E7ED194FF0000747EB0707E3FBF6
:10CC10000057F6194FF0000747EB0707E4FB0067E2
:10CC200005EE908A11EE100A4FF00008E1FB009823
:10CC30001AEB080A4FF0000848EB0808E2FB00A8CE
:10CC40001BEB080B4FF0000848EB0808E3FB00B8AB
:10CC50001CEB080C4FF0000848EB0808E4FB00C888
:10CC600013EE100A1EEB080E4FF0000848EB080800
:10CC7000E1FB00E815EB08054FF0000848EB080859
:10CC8000E2FB005816EB08064FF0000848EB0808D6
:10CC9000E3FB006817EB08074FF0000848EB0808B3
:10CCA000E4FB007806EE109A11EE900A4FF00009AE
:10CCB000E1FB00A91BEB090B4FF0000949EB090947
:10CCC000E2FB00B91CEB090C4FF0000949EB090924
:10CCD000E3FB00C91EEB090E4FF0000949EB0909FF
:10CCE000E4FB00E913EE900A15EB09054FF000098B
:10CCF00049EB0909E1FB005916EB09064FF0000961
:10CD000049EB0909E2FB006917EB09074FF000093D
:10CD100049EB0909E3FB007918EB09084FF000091A
:10CD200049EB0909E4FB008906EE90AA14EE901A7B
:10CD300001F110011EC910EE100A4FF0000AE1FBCC
:10CD400000BA1CEB0A0C4FF0000A4AEB0A0AE2FB9D
:10CD500000CA1EEB0A0E4FF0000A4AEB0A0AE3FB78
:10CD600000EA15EB0A054FF0000A4AEB0A0AE4FB59
:10CD7000005A12EE100A16EB0A064FF0000A4AEBB0
:10CD80000A0AE1FB006A17EB0A074FF0000A4AEBB8
:10CD90000A0AE2FB007A18EB0A084FF0000A4AEB95
:10CDA0000A0AE3FB008A19EB0A094FF0000A4AEB72
:10CDB0000A0AE4FB009A07EE10BA10EE900A4FF050
:10CDC000000BE1FB00CB1EEB0B0E4FF0000B4BEB0F
:10CDD0000B0BE2FB00EB15EB0B054FF0000B4BEBE5
:10CDE0000B0BE3FB005B16EB0B064FF0000B4BEB62
:10CDF0000B0BE4FB006B12EE900A17EB0B074FF0E6
:10CE0000000B4BEB0B0BE1FB007B18EB0B084FF01F
:10CE1000000B4BEB0B0BE2FB008B19EB0B094FF0FC
:10CE2000000B4BEB0B0BE3FB009B1AEB0B0A4FF0D9
:10CE3000000B4BEB0B0BE4FB00AB07EE90CA11EEC3
:10CE4000100A4FF0000CE1FB00EC15EB0C054FF065
:10CE5000000C4CEB0C0CE2FB005C16EB0C064FF0EC
:10CE6000000C4CEB0C0CE3FB006C17EB0C074FF0C9
:10CE7000000C4CEB0C0CE4FB007C13EE100A18EBDE
:10CE80000C084FF0000C4CEB0C0CE1FB008C19EB88
:10CE90000C094FF0000C4CEB0C0CE2FB009C1AEB65
:10CEA0000C0A4FF0000C4CEB0C0CE3FB00AC1BEB42
:10CEB0000C0B4FF0000C4CEB0C0CE4FB00BC08EE30
:10CEC00010EA11EE900A4FF0000EE1FB005E16EB47
:10CED0000E064FF0000E4EEB0E0EE2FB006E17EB4F
:10CEE0000E074FF0000E4EEB0E0EE3FB007E18EB2C
:10CEF0000E084FF0000E4EEB0E0EE4FB008E13EE0C
:10CF0000900A19EB0E094FF0000E4EEB0E0EE1FBEE
:10CF1000009E1AEB0E0A4FF0000E4EEB0E0EE2FBD7
