:020000040000FA
:10000000900A0020451100008B3B00009510000075
:10001000951000009510000095100000951000004C
:10002000951000009510000095100000850F00004D
:100030009510000095100000310F0000893A000073
:100040000511000005110000051100000511000058
:100050000511000005110000051100000511000048
:100060000511000005110000051100000511000038
:100070000511000005110000051100000511000028
:100080000511000005110000051100000511000018
:100090000511000005110000051100000511000008
:1000A00005110000051100000511000005110000F8
:1000B00005110000051100000511000005110000E8
:1000C00005110000051100000511000005110000D8
:1000D00005110000051100000511000005110000C8
:1000E00005110000051100000511000005110000B8
:1000F00005110000051100000511000005110000A8
:100100000511000005110000051100000511000097
:100110000511000005110000051100000511000087
:100120000511000005110000051100000511000077
:100130000511000005110000051100000511000067
:100140000511000000000000000000000000000099
:10015000000000000000000000000000000000009F
:10016000000000000000000000000000000000008F
:10017000000000000000000000000000000000007F
:10018000000000000000000000000000000000006F
:10019000000000000000000000000000000000005F
:1001A000000000000000000000000000000000004F
:1001B000000000000000000000000000000000003F
:1001C000000000000000000000000000000000002F
:1001D000000000000000000000000000000000001F
:1001E000000000000000000000000000000000000F
:1001F00000000000000000000000000000000000FF
:10020000DEE61E284CBBCE8F015B000000800000A4
:100210000100000000000000D0130020E5190000DC
:1002200053B94AB9002908BF00281CBF4FF0FF315D
:100230004FF0FF3000F070B9ADF1080C6DE904CE5D
:1002400000F006F8DDF804E0DDE9022304B07047B1
:100250002DE9F04F099E04468946002B40F083802B
:100260008A42154645D9B2FA82F24AB1C2F1200754
:1002700001FA02F39540944020FA07F747EA030990
:100280004FEA154E230C1FFA85F8B9FBFEFC0EFB56
:100290001C990CFB08F143EA094399420AD9EB186F
:1002A0002CBF01200020994202D9002800F01D81B6
:1002B0000CF1FF3C591AA3B2B1FBFEF00EFB10117A
:1002C00000FB08F843EA0144A04505D92C1902D2E5
:1002D000A04500F20E810138A4EB080440EA0C406E
:1002E00000271EB1D4400023C6E900433946BDE8CB
:1002F000F08F002A51D0B2FA82F2002A40F0AF808B
:10030000491B4FEA154E1FFA85F80127230CB1FB54
:10031000FEFC0EFB1C1108FB0CF043EA0143984263
:100320000AD9EB182CBF01210021984202D90029DB
:1003300000F0D7800CF1FF3C191AA3B2B1FBFEF01C
:100340000EFB101108FB00F843EA0144A04505D953
:100350002C1902D2A04500F2C1800138A4EB080498
:1003600040EA0C40BDE78B4208D9002E74D000272C
:10037000C6E9000138463946BDE8F08FB3FA83F785
:1003800067B98B42C0F0A480824240F2A180384617
:10039000002EABD0C6E90049A8E7FFDEC7F1200573
:1003A000BB4002FA07FC01FA07F4EA4020FA05F81C
:1003B000E94000FA07FE1A4348EA04044FEA1248EB
:1003C000200C1FFA82F9B1FBF8FA08FB1A110AFB9C
:1003D00009FB40EA01418B450AD951182CBF012382
:1003E00000238B4502D9002B00F088800AF1FF3AE8
:1003F000A1EB0B01A4B2B1FBF8F008FB101100FB5C
:1004000009F944EA0141894504D9511801D28945C5
:100410007BD8013840EA0A40A1EB0901A0FB0C8916
:10042000494544464B4602D306D1C64504D201385D
:10043000B8EB0C0469EB0203002E5DD0BEEB0402A6
:1004400061EB030101FA05F522FA07F3F9400027F1
:100450001D43C6E9005149E73746304646E7C2F139
:100460002000954001FA02F721FA00F34FEA154EF9
:1004700024FA00F11FFA85F894403943B3FBFEF0EB
:100480000F0C0EFB103300FB08FC47EA03439C45AE
:1004900007D9EB182CBF012700279C4500D98FB343
:1004A0000138A3EB0C0389B2B3FBFEF70EFB173345
:1004B00007FB08FC41EA03418C4504D9691801D2C5
:1004C0008C4525D8013FA1EB0C0147EA00471DE709
:1004D000841A61EB03030120994659E702382C4442
:1004E0003CE7ACF1020C2B4426E7ACF1020C2B44A8
:1004F000E0E602382C44EFE63746F7E6AAF1020AB6
:10050000114475E702382B44CBE70238114481E7E8
:10051000023F2944D7E700BF704700BF2DE9E04FF5
:100520002746A046A146A246A346A4462DED108B21
:100530004FF0000545EC185B45EC195A45EC1A5A8A
:1005400045EC1B5A45EC1C5A45EC1D5A45EC1E5A0D
:1005500045EC1F5AF1EE105A4FF66076C0F6FF7662
:100560003540E1EE105A84F3008825462646A4471C
:10057000BDEC108BBDE8E08F0B6801330B60014BC5
:100580001B681847D41300202DE9F04F85B00E9C4E
:100590009B46012CB8BF0124012B0CBF3023202324
:1005A00016468246884601250A270022DFF86C900D
:1005B0000293B6FBF9F301930AB9B1451CD8019B2C
:1005C000414603F13000D04701220135019B013F34
:1005D00009FB13660A23012FB9FBF3F9E9D1414660
:1005E00006F13000D047BBF1030F02D1641B002C91
:1005F0000EDC05B0BDE8F08FBC42E7DBBBF1020FBB
:10060000E4D84146029803920135D047039ADDE7CA
:1006100041462020D047013CE9E700BF00CA9A3B91
:10062000014B1860704700BFD4130020002307B5AA
:100630000246019303480B4601A902F0E4FF03B010
:100640005DF804FB790500004FF02002EFF3118301
:1006500082F31188BFF36F8F0121044AC2F840155D
:1006600083F31188BFF36F8F002070470090035011
:100670000A2838B50446074D04D1286843680D217F
:100680005B68984728684368E1B25B6898472046F2
:1006900038BD00BF0800002010B5044C204601F012
:1006A000AFF82046BDE81040FFF7BABF7106000062
:1006B00008B5044801F09AFA034B1860FFF7ECFF05
:1006C000002008BD334600000800002008B5114B8B
:1006D0001A686AB14FF05022D2F80423D10707D527
:1006E00000220D481A6083685B7A0BB903F0AFF9FA
:1006F0000A4B1A6862B14FF05022D2F804239207D5
:1007000006D5002206481A60BDE8084003F09FB9EC
:1007100008BD00BF00510050841400200451005057
:100720009014002000220D4BC3F840214FF020020E
:10073000EFF3118182F31188BFF36F8F084AD3F86A
:1007400004051368C01A20F07F400344136081F34E
:100750001188BFF36F8F01F0ADBF00BF0050015093
:100760002400002070B5184801F040FA48B34368EF
:1007700000211B689847012600244FF480334FF472
:100780000012124D3146C5F80845C5F84065C5F858
:1007900004330F4B15201C600E4BC3F880212246FA
:1007A00000F010FC152000F0FDFB20460A4B1E60F7
:1007B0002E60D5F80435334423F07F43C5F8403527
:1007C00070BD4FF0FF30FBE73A460000005001508B
:1007D0004051015000E100E00850015070B5214E39
:1007E000B0F1FF3F08BF30464FF02003EFF3118414
:1007F00083F31188BFF36F8F1B491C4BD1F804257D
:100800001D680138531B23F07F4301352B4420EA38
:10081000E070B042D4BF18189819821A22F07F42B3
:1008200020F07F43022AC1F8403504D984F31188AF
:10083000BFF36F8F70BDD1F804350D4AC31A23F092
:100840007F435D1E954205D94FF40012094BC3F852
:100850000021EBE7012B02BF023020F07F40C1F8FE
:100860004005E3E7FEFFFF00005001502400002098
:10087000FEFF7F0000E100E04FF02002EFF3118364
:1008800082F31188BFF36F8F064AD2F80405064A37
:100890001268801A20F07F4083F31188BFF36F8FB6
:1008A000704700BF005001502400002008B543B23B
:1008B000002B0CDB012200F01F018A405B0910496C
:1008C000203341F82320BFF34F8FBFF36F8F830096
:1008D00003F1A04303F540533128D3F8002806D094
:1008E000002A07DA02F00302023A012A02D8054A76
:1008F000C3F80028002103F017F9002008BD00BF4D
:1009000000E100E00001008030B54FF440444CF2BB
:10091000040585B04FF440412C4802F0E4FF216803
:100920002B4802F0E0FF29682A4802F0DCFF102281
:100930000021684603F0B0F92368684600930294EA
:1009400000F0E8FE012000F015FF002000F0FEFEA0
:10095000002000F023FF0121002000F03DFF00F007
:1009600031FF2C681C4802F0BEFF0820FFF79EFFF5
:1009700024F00104BFF34F8FBFF36F8F640864004E
:100980002046214622462346B7EE000AF7EE000A2B
:10099000B7EE001AF7EE001AB7EE002AF7EE002ABB
:1009A000B7EE003AF7EE003AB7EE004AF7EE004A2B
:1009B000B7EE005AF7EE005AB7EE006AF7EE006A9B
:1009C000B7EE007AF7EE007AFFF7A8FD9C4700002B
:1009D000B3470000C8470000E64700002DE9F84390
:1009E000714802F080FF0021704EDFF8DC91DFF8E3
:1009F00004826F4D56F8044BCA0301F5C07349F8E1
:100A00002340404602F500434F1C02F06CFF694B47
:100A100014F0100F6849694808BF194602F063FFD7
:100A200014F0040F14BF72212D21284602F05BFF41
:100A300014F0020F14BF77212D21284602F053FF36
:100A400014F0010F14BF78212D21284602F04BFF2E
:100A500014F4807F14BF6C212D21284602F043FF3F
:100A6000574802F040FF202F3946C3D1554B564A14
:100A7000C3F3C431C3F30E03C3F50043C3F34313FD
:100A8000C2F80015C2F80435D2F80015D2F80425D2
:100A90004E48520102F027FF494802F024FF02F0BD
:100AA000F5FF014610B14A4802F01DFF444802F02C
:100AB0001AFF484802F017FF0021474EDFF808915F
:100AC000DFF834813A4D56F8044B4A0301F5E073E0
:100AD00049F82340404602F500534F1C02F003FF43
:100AE000344B14F0100F3449344808BF194602F053
:100AF000FAFE14F0040F14BF72212D21284602F0D3
:100B0000F2FE14F0020F14BF77212D21284602F0C7
:100B1000EAFE14F0010F14BF78212D21284602F0BF
:100B2000E2FE14F4807F14BF6C212D21284602F0D0
:100B3000DAFE234802F0D7FE202F3946C3D12048E1
:100B400002F0D1FE4FF6FF7300241F4D2348C5F875
:100B5000803402F0C8FE224FC5F8C044DFF89C8004
:100B6000204DDFF89C906E792A68002E14BF3B461A
:100B700043462146484602F0B6FE66B91A4801349B
:100B800002F0B1FE192C05F10805ECD10C48BDE8C6
:100B9000F84302F0A8BE2879FFF788FE08B1134891
:100BA000EDE71348EBE700BF784600000043000084
:100BB000B04600006146000058460000854700002E
:100BC000A8490000E07F000000300050B34600005C
:100BD000F946000029470000484400005F47000034
:100BE0006D46000080430000884700008F470000EA
:100BF000974700009B4600004B47000065460000F9
:100C00007B47000010B500284BD0002A49D0264B66
:100C100099423CD9541803F61D239C423AD803F05C
:100C200011F80020BDE81040714672467346B7EED9
:100C3000000AF7EE000AB7EE001AF7EE001AB7EE58
:100C4000002AF7EE002AB7EE003AF7EE003AB7EEC8
:100C5000004AF7EE004AB7EE005AF7EE005AB7EE38
:100C6000006AF7EE006AB7EE007AF7EE007A8EF3CC
:100C7000008C10B4F1EE10CA4FF66074C0F6FF7429
:100C80000CEA040CE1EE10CA10BCF4467447074BA2
:100C9000994203D9064B54189C42C0D94FF0FF30FB
:100CA000C0E76FF01500BDE70302FF002F01FF0052
:100CB0003801FF002DE9F04F864685B00F46002928
:100CC0006DD0002545F6013ADFF8DCC0354EDFF87F
:100CD000DC80DFF8DC9001AC5CF804BB96E8070030
:100CE0000EEB0B0384E807009A070FD15EF80B2088
:100CF000424505D15A684A4502D19A68524512D0F8
:100D00000135032DE8D16FF00D0012E021460022DD
:100D100011F8010B13F802B08345F1D101320C2A0E
:100D2000F6D1002BECD020221946384602F08AFF7B
:100D3000002005B0B7EE000AF7EE000AB7EE001A81
:100D4000F7EE001AB7EE002AF7EE002AB7EE003AE7
:100D5000F7EE003AB7EE004AF7EE004AB7EE005A57
:100D6000F7EE005AB7EE006AF7EE006AB7EE007AC7
:100D7000BDE8F04F714672467346F7EE007A8EF387
:100D8000008C10B4F1EE10CA4FF66074C0F6FF7418
:100D90000CEA040CE1EE10CA10BCF44674476FF084
:100DA0001500C6E7A0420000C8440000DEE61E2889
:100DB0004CBBCE8F014801F0DDBE00BFD444000023
:100DC00008B530B143683BB1006801F0FBF8002082
:100DD00008BD6FF4E040FBE70048F9E7EA8FFFFF4A
:100DE00038B5044618B90B4B0B485B6898476568E3
:100DF00055B115F00205206807D10146074801F0FA
:100E000041F825600023636038BD1422002102F000
:100E100043FFF7E7281400200449000028000020C1
:100E200010B5044618B9134B13485B6898476368BC
:100E3000BBB92368ABB94FF0FF3221460F4800F031
:100E4000F5FF08B923681BB90A4B0D485B68984742
:100E500014220021206802F01FFF636843F00203A0
:100E60006360206802F0B2FF636843F001036360CF
:100E700010BD00BF281400200449000028000020F5
:100E80002A49000008B558B1436863B100684FF0C3
:100E9000FF3101F025F8054B002818BF184608BDA2
:100EA0006FF4E040FBE70248F9E700BFE98FFFFF7E
:100EB000EA8FFFFF08B5064940230648142202F0D6
:100EC00073FFBDE808400449044801F08BBE00BF31
:100ED0004400002028000020EC440000DC44000016
:100EE00004488168406A884203D003494FF0805229
:100EF0000A6070473006002004ED00E0094A0A4904
:100F0000936809685866996608494B6843F08053AE
:100F10004B60002383F31188BFF36F8F9368986E43
:100F2000704700BF300600203045000000ED00E0B3
:100F300012498A684FF028001044EFF3098C80E8CA
:100F4000F01F202080F31188BFF36F8F0C4F4FF0FC
:100F500000664A6A8A603E60506E0023536680F3E2
:100F6000118804B5104602F017FEBDE8044002F1F6
:100F7000280090E8F01F8CF30988704730060020A5
:100F800004ED00E01EF0040F0CBFEFF30880EFF358
:100F90000980816911F8021C0229FFD001B502F015
:100FA000F0FD01BD43B2002B08DB012200F01F0061
:100FB00002FA00F0024A5B0942F82300704700BFC2
:100FC00000E100E043B2002B01F10101A8BF03F1F1
:100FD00060434FEA4111B8BF054BC9B2ABBF03F53F
:100FE000614300F00F0083F800131954704700BFED
:100FF00014ED00E073B51E460A9B05460093099B5D
:101000008C1802F099FF0B4AA4F1200323F0070388
:1010100022F001029A61069A1E605A60079A9A604D
:10102000089ADA604FF08072DA61AB6400236B6675
:1010300002B070BDD3350000F8B51E4605460C461B
:1010400017460023E1EE103A00F0C4F90A4B3C4485
:1010500028469D6024F0070402F09EFD304684F38C
:101060000988002163B681F31188BFF36F8F0022D6
:10107000002302F0AEFA00BF300600200149102222
:101080000A60704710ED00E0404080F3118830BFE7
:10109000704700BFEFF30880EFF30981724601B596
:1010A00000F0D2F801BD00BF30BFFFF7FDBF00BFA9
:1010B000114A08B5114B22F07F029A60BFF34F8F9F
:1010C000BFF36F8FD3F8882042F4A002C3F88820C2
:1010D0000B4A536823F040435360BFF34F8FBFF375
:1010E0006F8F0023E1EE103A00F0C0FD00F0C8FD64
:1010F00000F03EF900F0F6FD0000000000ED00E019
:1011000030EF00E001B572B60B4A106A00281EBF2E
:101110000021116202F046FE62B6EFF30580A0F1F5
:1011200010004FEAC0000549014409C99847BDE8CD
:10113000014003490847000030060020204000001D
:10114000E10E000002F0DDFB202080F3118808484A
:101150004FF40061401880F30988EFF314800221F6
:10116000084380F31488BFF36F8FFFF7A1FF0000DF
:10117000D00B00200C4B9A6A9A6A9A6A920708D59B
:101180005A6B9A6A120604D518B19A6A22F0800244
:101190009A620020044B9A6A9A6A9A6A9A6A42F0A2
:1011A000FF029A620870704700ED00E00D4B9A6AEA
:1011B0009A6A9A6A920508D59A6B9A6A120404D5BB
:1011C00018B19A6A22F400429A620020054B9A6A8A
:1011D0009A6AD20558BF9A6A9A6A42F47F429A6222
:1011E0000870704700ED00E0074B00209A6A9A6A89
:1011F0009A6A9A6A9A6A9A6A9A6A9A6A6FEA02423A
:101200006FEA12429A62704700ED00E00D4B9A6956
:101210005A695A69D0070FD45A6991070CD45A6990
:10122000520709D45A69100706D45A69D10603D463
:101230005A69920658BF5A695A6942F0FF025A61C8
:10124000704700BFD0ED00E0F0B5414B8BB05B685C
:101250000025C3F3080385F31188BFF36F8F02F0F5
:101260007F44B4F17F4F1ED112F001041AD056060C
:1012700002F0080467D482F00402C2F3800564B16E
:10128000EFF389860022033B8DF80720042B4BD80F
:10129000DFE803F00B4C50414800EFF38886F1E79C
:1012A0000E46EFE725462E46ECE7294BDA6A920711
:1012B0003AD4DC6A14F0804408D028331B78EBB1B0
:1012C00001200DF10701FFF755FF04469DF8073097
:1012D00093B92022314602A802F0B4FC099B6DB3F9
:1012E000C3F3080222B96FEA53236FEA4323099339
:1012F00002A9204602F043FC0BB0F0BD154B1B7851
:101300002BB101200DF10701FFF750FFDDE7124B74
:101310001F88BFB217B1FFF767FFD6E70F4B5C69B5
:10132000002CD3D0FFF772FF0024CFE70DF10701A7
:101330000020C8E70DF107010020E5E723F4FF7363
:1013400023F00103D3E7002CAAD10646012599E733
:1013500000ED00E029ED00E02AED00E0D0ED00E036
:10136000024A536943F010035361704700ED00E0F7
:10137000002320210348C2180133412B82F80013B7
:10138000F9D1704700E100E038B505464FF0200381
:10139000EFF3118483F31188BFF36F8F02F0DBFD4D
:1013A0000A4B9B68AB420BD1094B5A68C2F3080247
:1013B00012B92046FFF7A2FD5A6842F080525A60E7
:1013C0002046BDE8384002F034BD00BF30060020A2
:1013D00000ED00E010B50E4B88B002930D4B0E4CA3
:1013E00003930E4B0E4A049302AB019301A82346CC
:1013F000012100F069F8002307930A4B0121E41A48
:1014000005A80593069400F001F908B010BD00BFCF
:101410000000002000000000000001200600010084
:10142000000000200000002010B50B680C7A23F0AB
:101430001F0204F01F031A43CB68640923F01F0343
:10144000044943EA440343F001038860CA600B6126
:1014500010BD00BF90ED00E00522034B5A60BFF3C2
:101460004F8FBFF36F8F704790ED00E0BFF35F8F3A
:101470000022014B5A60704790ED00E070B50E4DB0
:101480002E68102E15D80024FFF7F0FF0B4B0C4AE6
:101490001A63A64205D10B4B1E70FFF7DDFF00203B
:1014A00070BD6968204601EB0411FFF7BDFF0134F0
:1014B000EFE74FF0FF30F3E7AC42000090ED00E0C3
:1014C000AAFF44008C0600202DE9F04F8A464FF019
:1014D00000094C4F87B03C784B4DA0F104080197B0
:1014E000D14507DA58F8043F5E68B6B31F2E06D818
:1014F0006FF01504019B1C7007B0BDE8F08FF20679
:10150000F6D1D3F800B01BF01F0FF1D1584602F00E
:101510006DFB074606EB0B00013802F067FB8742C4
:10152000E6D117F1160FE3D0621EBA42E0DBAF60DE
:10153000EB68D8F80010AF602E6923F01F0CD1E9DA
:1015400000201044944546F01F0600F1FF3B17D1E0
:101550005E4505D1F8B202F027FB09F10109BFE7AA
:10156000AF60EB6820F01F0003F01F031843E86032
:10157000E0B202F019FB10F1160FB9D0441CECE7F1
:10158000013A5E45E0B222F01F02AF6005D12B693F
:1015900003F01F031A432A61EBE72C6904F01F0CC8
:1015A0004CEA02022A6102F0FFFA10F1160F9FD0F6
:1015B000AF60EA689DF81030013E62F304038DF8D5
:1015C00010302B699DF810205B0863F347128DF8EB
:1015D0001020D8F800200130D2E9003213440293E1
:1015E00023F01F031E44A6EB0B06C4B226F01F0611
:1015F0000F2C05963FF67CAF204602A9FFF714FF9B
:101600000134AAE78C06002090ED00E02DE9F74FA9
:10161000254C8A4680460027A1464FF0140B234DE7
:1016200057451ADAD8F804300193002B36D0D8F891
:1016300000100846009102F0D9FADDE900130646D1
:101640005818013802F0D2FA8642194A08D01423F9
:101650005F436FF0150349F8073003B0BDE8F08F22
:1016600016F1160F2660F8D01378B342F5DD0BFBA8
:101670000793AE60AE60E868197B60F304011973EC
:101680002969187B490861F347101873EB6823F048
:101690001F0363602B6923F01F0323610137143498
:1016A00008F10C08BCE700BF4405002090ED00E005
:1016B0008C06002070B5144B064618780D4602467D
:1016C0000021124B0F2A07DD0024114A12689A608C
:1016D0001C61AC4204DB70BD9A6019610132F1E714
:1016E00056F824104B686BB11F2BF4D9DA06F2D1EF
:1016F0000B68DB06EFD1C0B202F056FA10F1160FFC
:10170000E9D001300134E4E78C06002090ED00E0E0
:101710004405002082680C4B9A60036883F3888834
:10172000436883F38988027B02F00101EFF394831D
:1017300023F00303920748BF43F0020309B143F0CB
:10174000010383F39488704700ED02E0084AD368F0
:1017500048B123F400531B041B0C43F0BF6343F454
:101760000033D36070479BB243F40053F5E700BFEA
:1017700000ED00E0084AD36840B19BB243F48043D7
:1017800043F0BF6343F40033D360704723F48043D6
:101790001B041B0CF4E700BF00ED00E0084AD3680F
:1017A00040B19BB243F0080343F0BF6343F40033FE
:1017B000D360704723F008031B041B0CF4E700BF41
:1017C00000ED00E0034AD2F88C3043F44063C2F8E5
:1017D0008C30704700ED00E0084B1A6818B142F0F9
:1017E00001021A60704722F001021A601A6811B1F2
:1017F00042F00202F5E722F00202F2E7D0ED00E04B
:10180000014B1860704700BFF8130020F0B54B790A
:10181000012B29D0032B24D110268B79032B20D127
:10182000CC792CB1012C1CD103689B681B79C3B106
:101830000A7912B1022A14D10E2247F6122705683E
:101840000B68AD68BB422D6862D029D8B3F5965FAE
:1018500061D014D8B3F5167F5FD007D8B3F5967F63
:101860005ED06FF0220052E00026D6E7B3F5966F07
:1018700059D0B3F5166FF4D14FF41D233CE0B3F506
:10188000615F53D004D8B3F5165FEAD1324B33E031
:10189000B3F5964F4CD0B3F5E14FE2D12F4B2BE08F
:1018A000B3F5E13F46D012D84DF6C027BB4244D035
:1018B00005D8B3F5164FD4D14FF41D031CE0B3F592
:1018C000614F3DD0B3F5963FCBD1254B14E0B3F536
:1018D000E12F38D008D8B3F5613F37D0214FBB4254
:1018E000BFD14FF0806307E0B3F5612F31D01E4FB9
:1018F000BB42B6D14FF08053C5F8243534438368DA
:10190000224303C9C5F86C2583E803000020F0BD1D
:101910004FF40003F0E7154BEEE74FF41C33EBE711
:101920004FF4A033E8E74FF49E23E5E7104BE3E7DD
:10193000104BE1E74FF0EB73DEE74FF46503DBE7B5
:101940004FF46B03D8E74FF0E863D5E74FF06C73C3
:10195000D2E74FF07063CFE70050270000C075005A
:1019600000903A0190D0030040420F0000B01300F5
:1019700000F03A0000A04E00026870B59268184B63
:1019800014684FF00052856803219A601D260022DA
:10199000C3F87412C3F87022C4F80C651C26C4F88E
:1019A00014654FF000669E60C3F86C12C3F868229D
:1019B0001B23C4F808351A232946C4F81035FFF74D
:1019C00025FF58B90823C4F800351D440123C4F885
:1019D0001001C4F83455C4F83835236070BD00BF19
:1019E00000258450F0B5DAB100231C460E4D0F4F90
:1019F000BB4206D3002C14BF6FF008006FF001004B
:101A000009E055F8046BD6F80CC0604506D14C1EB1
:101A100011B908461660F0BD214601240133E7E7FD
:101A20006FF00D00F7E700BFB449000000000000B0
:101A3000054B1868043B1B68092B03D1431E584211
:101A400058417047002070473401FF004F4A08B5E5
:101A5000136843F0020313604D4B1B68092B01BF51
:101A60004FF050230022C3F81421C3F81821FFF7C8
:101A7000DFFF30B10123474A1360A2F63822C2F8D3
:101A80007835434B1B68092B07D1434B1B68012B4F
:101A90001EBF0122414BC3F87825FFF7C9FF10B1E3
:101AA0000E223F4B1A603A4B1B68092B04D10022CF
:101AB0003C4B1A6001225A600022D30003F57F03D9
:101AC000D3F80013013108D0D3F800130132D3F852
:101AD0000433B2F5807F0B60EFD1334BDA69D10765
:101AE0003BD5324B1946D3F80024012AFBD1C3F869
:101AF0000425D1F80034012BFBD12B4BDA69D20736
:101B000008D5DA69294922F00102DA61D1F8002406
:101B1000012AFBD11A6A01320AD11A6A22F0FF02A5
:101B200042F020021A62214AD2F80034012BFBD184
:101B300000221E4BC3F80425D3F80024012AFBD150
:101B4000BFF34F8F1A491B4BCA6802F4E06213437C
:101B5000CB60BFF34F8F00BFFDE71B6A0133C0D0DE
:101B6000134BD3F88C2042F44062C3F88C20D3F896
:101B7000882042F47002C3F88820BFF34F8FBFF370
:101B80006F8F0D4B0D4A1A6008BD00BFD0ED00E00D
:101B90003001FF00384A00503401FF00004000507F
:101BA000E4AE03500C4700500080FF00009003504B
:101BB00000ED00E00400FA05081400200090D003B6
:101BC00070B50026084B53F82040013053F82050E0
:101BD000A54200D870BD236820465B68984700B1D5
:101BE00066600C34F4E700BF1C450000104B70B574
:101BF00005461E460F4C9C4204D10E4CB44209D1FE
:101C0000002412E062681AB122681268AA420CD05D
:101C10000C34F0E763680BB90C34EFE7236828460F
:101C2000196801F0ECFF0028F6D1204670BD00BF16
:101C3000CC1400205414002008B50B4D4FF02002A6
:101C4000EFF3118382F31188BFF36F8F02F0B8F9BD
:101C5000012104460228D8BF084602F0C1F92C62CF
:101C6000FFF712FAEAE700BF300600200248034AF5
:101C70000021121A02F010B8000000209006002087
:101C800008B50648064A0749121A01F0DBFFBDE80D
:101C90000840054A0549064801F0D4BFD413002086
:101CA00030150020B449000000000000B4490000D5
:101CB0000000002008B50220FFF782FF074801F06E
:101CC00012FE0320FFF77CFF00F01EFC01F034FC45
:101CD000034A137B23F00103137308BD624900001C
:101CE000C405002080B5374BA2B083F308880025D7
:101CF000E023354C012784F82230E5772576657698
:101D0000A576E576636A314E43F4E0236362636A45
:101D100043F400236362A563FFF722FBFFF7AEF9EC
:101D20004FF0FF33A362E36207AB6C2229461846EB
:101D300001F0B2FF264C8DF82970A0602846FFF70D
:101D40003FFF3846FFF73CFF00F090FB214B6662F7
:101D50004FF48062CDE90473CDE902551E4BCDE905
:101D600000551E49304600F0B7FB737B23F0040298
:101D700013F01B0F727304D1B36913B9304600F02E
:101D800007FA174B012205930F23CDE903320023F5
:101D9000144DCDE9013300934FF4A072124B134957
:101DA000284600F099FB6B7BE56023F004036B731E
:101DB0000F4B4FF48062C4E906330849064B0348D1
:101DC000FFF73AF9D013002000ED00E0C405002031
:101DD00030060020AA490000B51C00009006002033
:101DE000AF49000058050020391C0000900A00206F
:101DF0004806002070B500240A4B0B48834201D3EB
:101E0000002070BD00211A699D685C61A94201D162
:101E10001C33F3E75E6901311660DE685A613244B3
:101E2000F4E700BFCC140020CC14002010B51346FA
:101E30000C464FF02002EFF3118182F31188BFF3BB
:101E40006F8F42695AB1226013684361836901331D
:101E50008361002081F31188BFF36F8F0DE01BB900
:101E600023606FF00B00F5E70246044800F0A8FA83
:101E700018B9034B9B685B69236010BD8D06002079
:101E80003006002070B504460D464FF02003EFF3F6
:101E9000118683F31188BFF36F8F02F017F880B1BA
:101EA00000212A6881664261427BD20603D18369A0
:101EB0000BB900F06DF93146BDE87040074801F0FC
:101EC000ADBF2B6862691A602B686361A369013B2F
:101ED000A36186F31188BFF36F8F70BD8D0600205C
:101EE000F8B504460F464FF02003EFF3118583F356
:101EF0001188BFF36F8FC26830495AB180688E680D
:101F0000B04215D0B7B985F31188BFF36F8F6FF06A
:101F10000F000CE08B6893F90E3023618B6801325F
:101F2000E260A36085F31188BFF36F8F0020F8BDD6
:101F30002369F2E790F90E3096F90E109942A8BF86
:101F4000194621EAE17199422BDA00F04DFA064672
:101F50003B46224629461A4800F032FA0028E6D0CD
:101F60004FF02003EFF3118583F31188BFF36F8FD8
:101F7000236821699C4207D033B193F90E3099420E
:101F8000A8BF194621EAE171A06890F90E30994284
:101F900009D16EB129460A4801F040FF6FF00A00EE
:101FA000C5E70026D4E700F01FFA0028F2D1F0E7D9
:101FB00085F31188BFF36F8FF0E700BF3006002074
:101FC0008D0600201E4B70B59A680446D37B013BFA
:101FD000D373C368012B05D0013BC360BDE87040DB
:101FE00000F0BAB84FF02003EFF3118683F31188A5
:101FF000BFF36F8F0169806890F90E30994201D06C
:1020000000F0F2F9204601F061FF0546A06080B1C2
:10201000437BDB0603D183690BB900F0B9F886F383
:102020001188BFF36F8F0023AB6695F90E302361E3
:10203000D4E7E06086F31188BFF36F8FCEE700BF6F
:102040003006002010B5084C23685BB1FEF714FC85
:102050002368064A184410610021BDE81040184664
:1020600001F0BEBF10BD00BF680600203006002092
:10207000F8B50D464FF02003EFF3118483F3118878
:10208000BFF36F8F4FF4004140F2E7360027002284
:10209000E1FB0067094B30461A6139464FF47A720A
:1020A0000023FEF7BDF8064B1860064B1D60FFF7D6
:1020B000C9FF84F31188BFF36F8FF8BD300600208D
:1020C00068060020640600204FF02003EFF3118122
:1020D00083F31188BFF36F8F044B9A68D37B013B66
:1020E000D37381F31188BFF36F8F704730060020E0
:1020F000094B03F12802824205D19B688B4202D131
:102100004B7BDB0606D1D1E9003213605A60002315
:10211000C1E90033704700BF3006002038B50D4CD0
:10212000024604F1280001F09AFE054600B9E56870
:10213000A3684AB95A7BD20606D1AA6922B9DA89BC
:102140007F2A01D9636238BD9D4201D0FFF77AFF33
:102150006562F8E73006002010B54FF02003EFF37A
:10216000118483F31188BFF36F8F084B00209A68A6
:10217000D37B0133D373FFF7D1FF84F31188BFF30F
:102180006F8FBDE8104001F060BE00BF3006002038
:10219000F8B54FF02003EFF3118483F31188BFF3F8
:1021A0006F8F154A114651F8283F8B421DD0E3B17D
:1021B000D66A90F90E5093F90E70AF4210DD5A684E
:1021C000C0E9003210605860437B43F04003437322
:1021D0000020FFF7A3FF84F31188BFF36F8FF8BDD2
:1021E000B34202D01B68002BE5D1D36A0160436083
:1021F000D36A1860D062E7E730060020F8B50446DD
:102200004FF02003EFF3118583F31188BFF36F8F35
:10221000437B5A0603D501461748FFF769FF174A63
:1022200002F12801D2E90A308B421FD0F3B194F9B0
:102230000E6093F90E70B74213DD5968C4E900319E
:102240000C605C60637B906843F040036373031B26
:1022500058425841FFF762FF85F31188BFF36F8F33
:10226000F8BD984202D01B68002BE2D1C4E90010EF
:10227000D36A1C60D462E5E75806002030060020CF
:10228000154A164938B50C689368A342144603D121
:10229000BDE83840FFF7D6BE00250D60104909683B
:1022A000B9B1D9897F2914D80E4993F90E5009681C
:1022B0008D420EDB0C498B420BD0996949B91169EB
:1022C000814203DC1846FFF799FFE1E7091A116123
:1022D00038BD00232361FBE73006002060060020A4
:1022E00068060020640600205805002038B5044622
:1022F0004FF02003EFF3118583F31188BFF36F8F45
:10230000437B5A0607D501460948FFF7F1FE637B78
:1023100023F040036373074B9868031B58425841EE
:10232000FFF7FCFE85F31188BFF36F8F38BD00BF48
:10233000580600203006002070B504460D461646AB
:10234000FFF7D4FF637B43F0020363737DB12B6817
:10235000A5609D4229D043B394F90E2093F90E1045
:1023600091421CDD5A68C4E9003214605C60731C41
:1023700022D04FF4004540F2E730002126EAE6760D
:102380004FF47A72C5FB06010023FDF749FF0B49A4
:10239000421C04F11800BDE8704000F049B96968BA
:1023A0008B4202D01B68002BD8D16B68256063601C
:1023B0006B681C606C60DAE770BD00BF6B3E0000AC
:1023C00010B50C461146064A9068064A10601A4637
:1023D000FFF7B2FF2046BDE81040FEF78FBD00BFFB
:1023E00030060020600600202DE9F84304464FF037
:1023F0002003EFF3118983F31188BFF36F8F01F08E
:10240000EBFC4EB2804660B3174D214605F128071C
:102410003846FFF76DFEAB6AA673BB422A4619D059
:10242000C3B1E96A93F90E00B0420EDD5A68C4E9FF
:10243000003214605C600120FFF770FE89F31188A0
:10244000BFF36F8F4046BDE8F883994202D01B6806
:10245000002BE7D1D36A27606360D36A1C60D46223
:10246000E9E7A673EAE700BF300600200021044B2D
:10247000084603F12802C3E90A22FFF7F9BD00BFAD
:1024800030060020014B9868704700BF30060020DE
:1024900010B502464FF02003EFF3118483F3118847
:1024A000BFF36F8F437B590704D484F31188BFF3C4
:1024B0006F8F10BD23F00403437301F034FD10B19E
:1024C0001046FFF765FE2146BDE81040014801F0C7
:1024D000A5BC00BF8D06002030B587B00E9D044618
:1024E00004950D9D03950C9D02950B9D01950A9DEC
:1024F0000095FEF77FFD034B9B6803B11B6E2366BF
:1025000007B030BD300600202DE9F04F284E294D90
:10251000B04687B0B54205F1300410D3FFF7D4FDC3
:102520004FF4004940F2E7360027224CDFF888A03C
:10253000444521D307B0BDE8F04FFFF70DBE54F876
:10254000043C059354F8103C049354F8143C039352
:1025500054F8183C029354F81C3C019354F8203C66
:10256000009354E90A2354E90C01FFF7B5FF54F82E
:10257000303CDD642546CDE7616A4B1C04D02568FC
:1025800021B92846FFF784FF3034D1E7B346BC4673
:10259000E9FB01BC4FF47A72002358466146FDF70F
:1025A0003FFE5146421C05F1180000F041F8EBE7F0
:1025B000CC140020CC1400206B3E0000034B1B68A1
:1025C0000BB9FEF759B90020704700BF6C06002018
:1025D000036840B1074A5268904204D01BB19A6820
:1025E00081680A449A60426813605A600023C0E917
:1025F000003370470C1400200B4B10B51C689C4234
:1026000008BF0024FFF7DAFF54B1A368181A20EAC4
:10261000E070064B1B6913B19842A8BF184610BD65
:102620006FF00040F5E700BF0C14002030060020DA
:1026300070B504461646C1604FF02003EFF31185D4
:1026400083F31188BFF36F8FFFF7B8FF012EACBF84
:1026500080190130164BA0601A689A4201D05E685A
:1026600032B95A68236062605A6814605C600AE09C
:102670009068A168884215DD411A91605168C4E9EB
:1026800000210C6054601A689A4206D0944204D12A
:10269000FFF7B2FF0021FEF7A1F885F31188BFF321
:1026A0006F8F70BD091A9642A160DAD01268D7E721
:1026B0000C1400202DE9F04B0446FFF7E1FD4FF02C
:1026C0002003EFF3118583F31188BFF36F8F214F40
:1026D000214EB846DFF884903460D9F80040326863
:1026E0004C45D7E900BC05D024B1A368934214DD62
:1026F0009B1AA36000241BEB02004CEBE271C8E9BB
:1027000000013460FFF778FF2146FEF767F885F394
:102710001188BFF36F8FBDE8F08B1BEB03004CEB10
:10272000E371D31A33600023C7E90001A360204698
:10273000FFF74EFF85F31188BFF36F8FE36898476B
:102740004FF02003EFF3118583F31188BFF36F8FF0
:10275000C3E700BF000000206C0600200C1400201E
:1027600038B5074C074DAC4201D3002038BD04F109
:1027700014032046C4E9053300F0E5FE1C34F2E7FB
:10278000CC140020CC14002001F045BA0A460021E8
:1027900001F082BA10B5114800F048F800B110BD40
:1027A0000F4800F043F80028F9D10E4C204600F005
:1027B0003DF80028F3D10C4B0C481C6000F036F8B3
:1027C00001460028EBD100F02DF8044608B1204660
:1027D00010BD00F051F82046FAE700BF2014002099
:1027E000141400201C1400202414002018140020AD
:1027F00008B5084800F024F8074800F021F8074819
:1028000000F01EF8064800F01BF8BDE8084000F094
:102810000BB800BF20140020141400201C1400204A
:102820001814002000207047704700BF08B5034B04
:1028300002681B6810689847002008BD301400200B
:1028400008B5034B02685B6810689847002008BD14
:10285000301400200268024B10689B68184700BFC4
:102860003014002008B5034B0268DB6810689847F5
:10287000002008BD3014002070B5094C094D2069B6
:10288000AB68984718B1084B08485B689847002127
:10289000074AEB6811602069BDE87040184700BF27
:1028A000401400203014002028140020344500007B
:1028B0007006002070B5144C144D0646AB682069B4
:1028C0009847F0B9124A13685EB91BB90120114943
:1028D000C1F8000501331360EB68206998470020B8
:1028E00070BD002BF8D0012B08BF0A4903F1FF335C
:1028F00008BFC1F8000520691360EB689847002005
:10290000EEE7054870BD00BF4014002030140020E1
:102910007006002000008450E98FFFFF0020704700
:1029200000207047430503D54FF0FF32024B1A6079
:10293000024B1860704700BF08118450081A845079
:10294000014B1860704700BF041A845008B100F0B2
:1029500003B84FF4750070470246074803681342F6
:10296000FCD021B1054B06481B680B600360054B8A
:1029700000201A60704700BF001A84500411845070
:1029800008118450081A845000F0A0B830B129B161
:1029900000230144037001308142FBD1704700BF26
:1029A0002DE9F041ADF51A7D0F4605920021144640
:1029B00012A84FF408721E4601F06EF9002308A811
:1029C00019462822069301F067F9002F3CD0002E0B
:1029D0003AD0002C38D0042106A8FFF7D7FE08A86B
:1029E0002821FFF7D3FE08A800F032F878B14FF0A5
:1029F000FF3512A84FF40871FFF7C8FF06A804219D
:102A0000FFF7C4FF28460DF51A7DBDE8F08112AB33
:102A10000DF11C080390CDE90163024605AB08A93E
:102A2000CDF8008006A800F0E9FC0028DFD133686B
:102A3000A342DCD3D8F800100546083138462246B8
:102A4000FFF7A2FE3460D4E74FF0FF35DAE700BFAE
:102A50001C2330B583B002A941F8043D044600F0C0
:102A6000B1F90546D8B9019B1C2B1BD1D4E9003222
:102A700001210033E16118BF01230AB143F00203D1
:102A8000A26832B9E268AAB9C4E908323BB90D4D6F
:102A900009E0E26843F0040362B9C4E90832284659
:102AA00003B030BD084D20461C21FFF76FFE2846BD
:102AB00003B030BD0022284643F00803C4E90832C1
:102AC00003B030BD0E0CF000370CF00010B50C4C0C
:102AD000236813B10B4B1B686BB900F031F938B1A7
:102AE0000138062896BF084B084853F8200010BD4F
:102AF0000122044B1A6001230020236010BD00BF97
:102B0000740600207806002054450000FE8FFFFF69
:102B100010B5094C23681BB101230020236010BDB0
:102B200000F07CF80028F7D00138062896BF034B48
:102B3000034853F8200010BD7406002054450000DF
:102B4000FE8FFFFFBFF34F8F0549064BCA6802F4A3
:102B5000E0621343CB60BFF34F8F00BFFDE700BFC0
:102B600000ED00E00400FA05014B5B68184700BF68
:102B700028140020024BD0E90012C3E9001270476C
:102B800028140020704700BF10B5044620B1BFF3E1
:102B90005F8F0020206010BD0348FFF7E5FFBFF303
:102BA0005F8F0020206010BD9445000010B50446E2
:102BB00010B10023236010BD0248FFF7D5FF0023AA
:102BC000236010BD7045000050B10122D0E8EF3FF6
:102BD000C0E8E12F0029F9D1012BF7D0BFF35F8FB7
:102BE0000020704770B40B4B0668C268D0E90154EE
:102BF000C3E90242C3E90065D1E903020E68064B4E
:102C0000D1E90154C3E90065C3E902401A6170BC0F
:102C1000704700BF301400204014002010B5FFF7AB
:102C20007DFE70B9FFF7B6FD80B9FFF743FE80B9AE
:102C3000114B1B681B0EF02B0DD00624FFF770FE06
:102C400000E00324FFF7D4FD204610BD04242046F5
:102C500010BD0024F2E7094A094B12689A4201D0DC
:102C60000724EBE70120FFF725FE0028F1D1054BF3
:102C700004461860E8E700BF28198450241A8450DD
:102C80000000E0200C1A845030B5ADF5157D4FF4EE
:102C9000087200210CA800F0FFFF002302A81946CB
:102CA0002822019300F0F8FF02A8FFF7D1FE18B127
:102CB00005200DF5157D30BD1C4D4FF0FF31286806
:102CC000FFF7C8FD0446F0B90020FFF7F3FDB0B9E7
:102CD0000CAA02A901A800F0D5FB04460120FFF7C9
:102CE000E9FDF0B92868FFF7BDFD10B11048FFF706
:102CF0003BFF2046002CDBD10DF5157D30BD0D4886
:102D0000FFF732FFE4E70C48FFF72EFF012CDBD181
:102D10002868FFF7A7FD0028CAD00548FFF724FF61
:102D2000C6E70648FFF720FFDCE700BF24140020B9
:102D3000CC450000E4450000B44500000446000016
:102D400008B5FFF7EBFD18B1FFF752FD032008BDF2
:102D5000FFF720FD68B9FFF7ADFD60B9154B1B68A3
:102D60001B0EF02B12D0FFF7DBFDFFF741FD062015
:102D700008BD042008BDFFF7D3FDFFF739FDFFF7BD
:102D800083FF00280CBF0020052008BD0A4A0B4B1A
:102D900012689A4205D0FFF7C3FDFFF729FD07200F
:102DA00008BD0120FFF786FD0028E4D1044B186020
:102DB000E5E700BF28198450241A84500000E02061
:102DC0000C1A845018B111B10B681C2B01D00120D2
:102DD00070474FF47F033A4AD3F8101C91425AD0FF
:102DE000D3F8102C013256D0D3F8102C4FF47F03B7
:102DF0000260D3F8141C334A91425ED0D3F8142CED
:102E000001325AD0D3F8142C4FF47F034260D3F828
:102E1000182C12F5947F4DD0D3F8182C013249D0DC
:102E2000D3F8182C4FF47F038260D3F81C1C264A79
:102E300091423CD0D3F81C2C013238D0D3F81C2C52
:102E40004FF47F03C260D3F8002C70322DD0D3F83A
:102E5000002C013229D0D3F8002C4FF47F030261FB
:102E6000D3F8042CAF321ED0D3F8042C01321AD080
:102E7000D3F8042C4FF47F034261D3F8081C134AA3
:102E800091420BD0D3F8082C013207D0D3F8083C7C
:102E900083610020704740F6FC02A7E740F2373319
:102EA0008361002070475122E4E79022D5E742F683
:102EB0000412C5E740F6D862B4E742F2D002A3E7B5
:102EC000FCF8FFFFD020FFFF0429FFFF37F3FFFFCF
:102ED000A8B32DE9F0414C1EB4F5047F2CD25BB3AE
:102EE00052B34FF0000CC900E646654664464F1EDB
:102EF00003F1FF380CE0AB4216D08E4501D10CF146
:102F0000010CA84516D00134BC4205F1010518D8C2
:102F1000610950F8211004F01F06F1401F2E18BF60
:102F200001F00101002CE6D10025A8458E464FF0A6
:102F3000010CE8D16245E6D20348BDE8F0810248C1
:102F400070470020BDE8F081370CF1002DE9F04F0B
:102F50008FB00D46DDE919418346002957D1296913
:102F6000039100211C60189B1960002A00F0228147
:102F7000814A824B11686A6A1B689A4257D10A29B2
:102F800055D19BF8033006930399042308467C4AE5
:102F90000293A2FB00029208CB0002EB420204F172
:102FA0000800A1EB4202013BDFF8D091DFF800A25C
:102FB000049000920593189B039C1C60002C00F069
:102FC000CC800026049F00F0A9FA00230793069BFB
:102FD000BBF1000F3AD0002D34D053BB5B000693F9
:102FE000BBF1000F36D0002D34D0E3B106A928463E
:102FF00000F084FA002800F07D81624B984212D0E4
:10300000009000F08BFA00980FB0BDE8F08F4FF4FD
:103010007F01D1F80C0C01300CBF4FF40471D1F8D2
:103020000C1C03919DE72B6A73B95648E8E7564894
:10303000E6E706A9284600F061FA68B1534B9842CA
:10304000DED0069B082BC9D15148D9E7082BFBD00D
:103050005B0006934F48D3E72946069800F030FA04
:103060000028EBD1069B082B00F00E81042B00F00A
:103070003181A3F10203B3FA83F35B0901930123C6
:103080001946454A136042F8843C434B19606B6A09
:10309000C9F80030D9F800206B6A9A42F5D14FF098
:1030A00000084FF0FF30CAF80080FFF73BFC3B4AB6
:1030B0003B4B40461A60FFF743FC0A22019839490E
:1030C0002D4B08601A602A69A8F15538A8FB021236
:1030D0006B6A120903EB4303DB0303FB02F3324A7F
:1030E0009B0913600123CAF800300699DBF8002021
:1030F0000B0243EA016322F07F421343CBF8003016
:1031000007A800F0CDF9002898D1284BA8FB042887
:103110001A681433089253F8102CB6EB980F0992E2
:1031200053F80C2C0A9253F8082C0B9253F8042CE9
:103130000C921B680D9301D1009B9BB93846182255
:1031400008A9FFF721FB183C18370136002C7FF443
:103150003AAF049B002B40F09A800023189A13602A
:10316000069B6FE71A46384608A9E41AFFF70CFBDE
:10317000009B1F44E9E700BF381184503011845090
:10318000ABAAAAAA310CF100300CF100020CF1003C
:10319000320CF100350CF100C4118450FEFFFF0F1A
:1031A000001184500C118450D81184501411845093
:1031B0002C118450BBF1000F3FF44CAF002D3FF4B5
:1031C00049AF01230EA941F8203DCBF80020284645
:1031D00000F094F900287FF413AF2946069800F018
:1031E0006FF900287FF40CAF069F082F00F0EB80EA
:1031F000042F00F0EA80A7F10207B7FA87F77F09EA
:1032000001221646734B74491A6018460A60943BB3
:1032100006606A6A1A6019686A6A9142F8D14FF0CA
:1032200000086E4B4FF0FF30C3F80080FFF77AFBC9
:103230006B4B6C4A40461A60FFF782FB0A226A49D0
:103240006A4B0F601A601A992B6901296A6A00F0AB
:10325000B1806749A1FB03131B09012102EB420264
:10326000D20303FB02F3634A9B0913605B4B1960B3
:103270000699DBF800200B0243EA016322F07F424B
:103280001343CBF800307FE603230193F7E6039B5B
:10329000B3F5047F3FF661AFDDE9047C20462346A9
:1032A0006E6904E0012001336345144615D85A09BC
:1032B00057F8222003F01F01CA401F2918BF02F04F
:1032C0000102002BEED0A242ECD101308642EAD1BD
:1032D00049480BE002230193D1E64FF48063DDE916
:1032E0000310AA69FFF7F4FD00285DD00023189AA7
:1032F0001360A3E62946069800F0E2F800287FF460
:103300007CAE069C082C51D0042C51D0A4F10204B0
:10331000B4FA84F4640901231E4619462D4A136049
:1033200042F8843C2B4B19606B6AC9F80030D9F81D
:1033300000206B6A9A42F5D100274FF0FF30CAF89F
:103340000070FFF7EFFA264B264A38461A60FFF75F
:10335000F7FA0A222449254B0C601A602A6924498D
:103360006B6AA1FB021203EB43031209DB0303FBAD
:1033700002F3204A9B091360CAF80060069BDBF841
:1033800000101A0242EA036321F07F421A43130A33
:1033900003F47F03134323F07F43CBF80030029BF9
:1033A000013B02937FF407AE002029E60324B2E735
:1033B0000224B0E74FF47F03D3F80C1C013106D090
:1033C000D3F80C3C45E703271AE7022718E7162332
:1033D00043E700BFC4118450401184502C11845025
:1033E00000118450FEFFFF0F0C11845038118450DF
:1033F000ABAAAAAAD8118450360CF1002DE9F043EB
:103400001B4C85B00746DDE90D56884620684FF015
:10341000FF319146FFF71EFA28BB0020FFF74AFA5A
:10342000E8B90023CDE9005602934A4641463846A2
:103430000C9BFFF78BFD05460120FFF73BFA50B9C7
:103440002068FFF70FFA10B10A48FFF78DFB2846F6
:1034500005B0BDE8F0830848FFF786FBF0E70748B2
:10346000FFF782FBDDE70648FFF77EFBD5E700BFED
:1034700024140020CC45000004460000E445000070
:10348000B445000010B5012486B005ABCDE9012498
:103490000093002204ABFFF759FD06B010BD00BF3A
:1034A00008B501464FF48060FFF750FA0023024947
:1034B000024A0B60136008BDC81184502C1184505F
:1034C0000138072815D8DFE800F0100C1408141490
:1034D0001404CB6800204B6270478B6800204B625D
:1034E00070474B6800204B6270470B6800204B62AE
:1034F00070470148704700BF310CF1000B6802E0D3
:10350000082B0B6006D8026A13424FEA4303F7D038
:103510000020704700487047310CF1000023044937
:10352000044A0B604FF480601360FFF7FBB900BFE3
:103530002C118450C411845008B5FDF74FFABDE832
:103540000840FDF7E1B9FF232DE9F04F4668C3724B
:10355000324600234FF00C090789016806FB07FC7F
:1035600090F80A806144984505DC002319468F4293
:1035700020DCBDE8F08FBCFBF2F509FB03FED0F8C0
:103580000CA0202D0AEB0E0404F1040BC4E901BBCE
:1035900005D8C372920822F003020133E3E715F164
:1035A0001F0448BF05F13E0464114AF80E1001EBF8
:1035B0008401EFE7C268056802F1040CEC1845F8D5
:1035C00003C0956801316560956833442C60946050
:1035D000CDE7044608B5084611461A46A047FEF74F
:1035E00051FFFDF7D1FE0020704770B50D4604462F
:1035F0004520A04729465220A04729462346BDE83A
:103600007040522018472DE9F04F4FF00008064651
:103610000F464FF0FF3AC1468BB01C46531E029333
:10362000002505E06DB9252800F04F813946B047E7
:10363000029B13F8010F02930028F3D10BB0BDE8F1
:10364000F08F64286ED01AD839280AD8312860D271
:103650002D2800F0408130284CD0252807D139464C
:103660000BE0582800F0BB80632800F02A8139461F
:103670002520B0473946029B1878B047D0E770281C
:1036800000F0A38011D869284CD06C2805D1B8F17E
:103690006C0F2AD14FF04C08CAE76828E7D1B8F17F
:1036A000680F22D14FF04808C2E7752871D018D8AA
:1036B0007328DCD154F8045BAB465B461BF8010B66
:1036C000002840F0FB80B9F1030F40F00A815D1B38
:1036D000AAEB0505002DA3DD39462020B047013DAA
:1036E000F8E778287BD07A28C1D1B8F1000FBED195
:1036F00080469DE7BAF1000F0EDAB9F1000F00F035
:10370000ED80A0F1300AB9F1000F08BF4FF00209B7
:103710008EE7BAF1000FF4DB0A2303FB0A0AAAF1D1
:10372000300AF0E7B8F17A0F02D154F8045B1FE0D9
:10373000B8F16C0FF9D0B8F14C0FF6D1073424F082
:103740000704F4E8022312F10041069143F100015D
:1037500007910021DDE906BC4FF0FF30614508BF4D
:10376000584504D239463046FFF73FFF58E7154623
:10377000002D05DA39462D20B0476D420AF1FF3A97
:103780004B462A46CDF800A039463046FCF7FCFEF1
:1037900046E7B8F17A0F02D154F8042B11E0B8F1E2
:1037A0006C0FF9D0B8F14C0FF6D100214FF0FF307B
:1037B000073424F00704F4E80223994208BF90423A
:1037C000D0D3CDF800A04B46DEE739463020B047D5
:1037D00039467820B0474FF0080A4FF00109029BA4
:1037E0001B78702B04D154F8043B049300230DE0A4
:1037F000B8F16C0FF7D0B8F14C0FF4D1073424F0C6
:1038000007031C4654F8082B5B6804920021102221
:103810004FF0400B03910591ABF1040B0498CBF1F1
:10382000200CABF1200120FA0BF003FA0CFC40EA6B
:103830000C0023FA01F1084310F00F0006D105999E
:1038400011B9BBF1000F22D1302103E009288CBF50
:1038500057213021084440B2394608930592B047B9
:10386000039B059A01330393089BBBF1000F23D1FF
:10387000B9F1030F7FF4D4AE039BC3EB4A05002DCF
:103880007FF7CEAE39462020B047013DF7E7511E05
:103890009245089107DBB9F1010F06D13946302076
:1038A0000993B047099B089AB6E7B9F1020FFAD11C
:1038B000099339462020F4E70595ADE73946B0472E
:1038C000FBE6394654F8040BD7E6A846A9464FF064
:1038D000FF3A0125ACE64FF00309A9E64FF00109D4
:1038E000A6E60546A4E60FB407B504A951F8040BF3
:1038F0000191FCF79BFE03B05DF804EB04B0704748
:103900007047FEF7A3B883685A7A32B993F9080072
:103910000028CCBF002001207047022070470268B9
:1039200070B5956884684FF02003EFF3118683F338
:103930001188BFF36F8F237A013B5BB2002B237298
:1039400018D1C4E900336B6883B90122EB7A03F123
:1039500050231A6000222B8903F150231A600020A3
:10396000607286F31188BFF36F8F70BD984700288F
:10397000EBD1F4E74FF00000BCBF20726FF04400C1
:10398000EFE7F8B50368064614469F6885684FF070
:103990002003EFF3118283F31188BFF36F8F2B7A2B
:1039A00001335BB22B7282F31188BFF36F8F6A7A97
:1039B00032B10CB90020F8BDD4E901319847F9E7DC
:1039C000012B06D13B6833B90122BB7A03F15023A6
:1039D0001A604CB9EEE798470028F5D1002CE9D0E1
:1039E000D4E90131304698472B689C420DD013B181
:1039F0001B68002BF9D1002020606B6813B9C5E962
:103A00000044D7E71C606C60D5E76FF04400D2E754
:103A10000022FFF7B6BF83680020C3E900007047AB
:103A200010B50022044601210520FDF7CBFA052040
:103A3000FDF7B8FA4FF050230222C3F818250322ED
:103A40000020C3F80423A368C3E9000010BD38B503
:103A50008468054623682BB161681A688B4222602E
:103A600008BF62600122627203B938BDD3E9012147
:103A7000284690472368002BF7D061681A688B426C
:103A8000226008BF6260EFE770477047002307B508
:103A900001A88DF80430FEF777FF03B05DF804FB52
:103AA000902908B5134639D10A4601460020FEF791
:103AB00077FFBDE80840714672467346B7EE000ACC
:103AC000F7EE000AB7EE001AF7EE001AB7EE002A7A
:103AD000F7EE002AB7EE003AF7EE003AB7EE004AEA
:103AE000F7EE004AB7EE005AF7EE005AB7EE006A5A
:103AF000F7EE006AB7EE007AF7EE007A8EF3008CEC
:103B000010B4F1EE10CA4FF66074C0F6FF740CEA00
:103B1000040CE1EE10CA10BCF44674476FF01500B7
:103B2000C7E7FEE7FDF7B6BA43B2A9B1002B12DB37
:103B300001215B099B0003F1604303F56143D3F866
:103B4000802200F01F0001FA00F022EA0002C3F810
:103B50008022D3F880327047002BFCDB01225B0906
:103B60009B0003F1604303F56143D3F8801200F03A
:103B70001F0002FA00F00843C3F88002E9E700F0F2
:103B800002B90146006800F0FEB808B5FDF78CFAEE
:103B9000BDE80840FDF7A4B907B5002101A8FDF76D
:103BA00089FD03B05DF804FB30B50B6885B04C6847
:103BB0009DF808200D89013C0093498923F01F03DB
:103BC000234465F3040261F3471223F01F030F2817
:103BD0008DF808200393044605D86946FDF724FCB8
:103BE000204605B030BD6FF01504F9E740E800F35A
:103BF00013F4803FD8B208BF6FF01500704701384A
:103C0000013910F8013F11F8012F934201D1002B27
:103C1000F7D1981A7047431A934210B500EB02038C
:103C200008D3024601399A420BD011F8014F02F82D
:103C3000014BF8E70A4412F8014D8A4203F8014D9E
:103C4000F9D110BDF0B581EA0004A50703460BD0F9
:103C5000013B0A4491421AD1F0BD002AFCD011F870
:103C6000014B013A03F8014B9C07F6D19508AC00D3
:103C70001E1F0F19B94205D16FF00306234406FB3E
:103C80000522E5E751F804CB46F804CFF2E711F836
:103C9000014B03F8014FDDE7034670B5C9B29C073D
:103CA00010D141EA012444EA0445940803EB840658
:103CB000B3420DD16FF0030505FB04241C44A3425D
:103CC00009D170BD002AFCD003F8011B013AE6E7D8
:103CD00043F8045BECE703F8011BF0E74FF0FF301B
:103CE00070470B46826892E8030083E803000020D7
:103CF000704703689B681B68D3F8240118B1D3F898
:103D00008004C3F880047047036882689B681B685E
:103D1000D3F8100138B1127A00200A700122C3F8DA
:103D200010011A6070474FF0FF307047002203689F
:103D300082B09B688DF807101B68C3F820210DF135
:103D40000702C3F844250122C3F848259A60D3F836
:103D500020110029FBD0DA6002B0704708B5FDF7EA
:103D600029F8FDF7A7F8BDE80840FEF7D1BE4FF0EF
:103D70002002EFF3118382F31188BFF36F8FFEE708
:103D800008B5FFF7F4FF70B505460E46FEF77AFB5F
:103D9000314604462846FFF7F3FF2046BDE8704051
:103DA000FDF7F2BAFFF771BE30B50024C0E9023268
:103DB000C0E905440161A34202D1C0E9000030BD61
:103DC000456901340D6041611144F4E70023C0E905
:103DD0000000C0E902337047437BDB0603BF806904
:103DE000B0FA80F040090020704738B504464FF023
:103DF0002003EFF3118583F31188BFF36F8F014622
:103E00008068FEF775F9637B23F00203637385F323
:103E10001188BFF36F8F0023A36038BD21B9EFF382
:103E2000058008B9FDF76AB881F31188BFF36F8F79
:103E30007047034620B9EFF305820AB9FDF75EB873
:103E400083F31188BFF36F8F70474FF02003EFF3B8
:103E5000118083F31188BFF36F8FFFF7EABF036808
:103E6000984214BF18460020704750F8103C70B5B7
:103E70000446A0F11805CBB14FF02003EFF31186F3
:103E800083F31188BFF36F8F294650F8100CFEF7AB
:103E90002FF914F80B3C23F0020304F80B3C86F3D3
:103EA0001188BFF36F8F002344F8103C14F80B3CCB
:103EB000284623F0140304F80B3CFFF78DFF20B1D4
:103EC0002846BDE87040FEF763B970BD38B54FF0C5
:103ED0002003EFF3118283F31188BFF36F8FFFF795
:103EE000BEFF044682F31188BFF36F8FC8B14FF055
:103EF0002003EFF3118583F31188BFF36F8F014621
:103F00008068FEF7F5F8637B23F00203637385F3A3
:103F10001188BFF36F8F002304F11800A36000F035
:103F200039F8204638BD437BDB0603BF8069B0FA11
:103F300080F040090020704710B5029C8373047321
:103F400000230424C3734473C0E90633C0E9133368
:103F5000C0E9161210BD036D10B5044603B19847B1
:103F60002046FFF7E0FF38B12046FEF7BFF9637B3C
:103F700043F00803637310BD637B9B0702D52046A3
:103F8000FFF733FFA369002BF1D004F1180000F014
:103F900001F8ECE710B54FF02002EFF3118482F343
:103FA0001188BFF36F8F03683BB1FEF711FB002050
:103FB00084F31188BFF36F8F10BD6FF01500F7E722
:103FC00010B54FF02003EFF3118483F31188BFF392
:103FD0006F8FFEF711FB84F31188BFF36F8F10BD55
:103FE00070B504460E464FF02003EFF3118583F3BE
:103FF0001188BFF36F8FFEF7FFFA012805DDA0429D
:1040000003DD31462046FCF7E9FB85F31188BFF359
:104010006F8F70BD7047FFFF38C2FF7F0100000047
:1040200000000000253B000000000000253B0000D0
:1040300000000000253B000000000000253B0000C0
:1040400000000000253B000000000000CD0600003D
:1040500000000000253B000000000000253B0000A0
:1040600000000000253B000000000000253B000090
:1040700000000000253B000000000000253B000080
:1040800000000000253B000000000000253B000070
:1040900000000000253B000000000000253B000060
:1040A00000000000253B000000000000253B000050
:1040B00000000000253B000000000000253B000040
:1040C00000000000253B0000000000002507000064
:1040D00000000000253B000000000000253B000020
:1040E00000000000253B000000000000253B000010
:1040F00000000000253B000000000000253B000000
:1041000000000000253B000000000000253B0000EF
:1041100000000000253B000000000000253B0000DF
:1041200000000000253B000000000000253B0000CF
:1041300000000000253B000000000000253B0000BF
:1041400000000000253B000000000000253B0000AF
:1041500000000000253B000000000000253B00009F
:1041600000000000253B000000000000253B00008F
:1041700000000000253B000000000000253B00007F
:1041800000000000253B000000000000253B00006F
:1041900000000000253B000000000000253B00005F
:1041A00000000000253B000000000000253B00004F
:1041B00000000000253B000000000000253B00003F
:1041C00000000000253B000000000000253B00002F
:1041D00000000000253B000000000000253B00001F
:1041E00000000000253B000000000000253B00000F
:1041F00000000000253B000000000000253B0000FF
:1042000000000000253B000000000000253B0000EE
:1042100000000000253B000000000000253B0000DE
:1042200000000000253B0000604600004906000039
:104230000000000060460000B10600000000000021
:104240003A460000173A0000F442000044460000DD
:10425000213A0000E84200004E46000065070000D9
:1042600000000000604600007D1400000000000017
:10427000334600007919000014450000574900003A
:104280005D3D00000000000060460000F51D0000DC
:1042900000000000604600006127000000000000F0
:1042A000DEE61E284CBBCE8F015B00000200000042
:1042B000B442000000000000244600000600000098
:1042C000E0FF0F00000000202C460000210000004D
:1042D000E0FF0020113A00001F3900008339000080
:1042E000000000000739000000000000000000008E
:1042F0000001000400000000000000000401080CA0
:10430000170100000701000007010000070100007D
:10431000070100000701000007010000070100007D
:10432000070100000701000007010000070100006D
:10433000070100000701000007010000070100005D
:10434000070100000701000007010000070100004D
:10435000070100000701000007010000070100003D
:10436000070100000701000007010000070100002D
:10437000070100000701000007010000070100001D
:10438000114800004201000018480000050100002B
:1043900022480000150100002B48000039010000F0
:1043A00034480000090100003F4800000A010000F5
:1043B0004A4800000A010000544800000B010000B8
:1043C0005E4800000F010000694800001001000075
:1043D00074480000110100007F4800000E01000039
:1043E00089480000210100009248000022010000DD
:1043F0009B48000023010000A448000024010000A5
:10440000AD48000018000000B54800002A01000077
:10441000BD4800003A010000C54800002C01000022
:10442000CD4800001C010000D64800001D0100001E
:10443000DF48000017010000E948000031010000DA
:10444000F5480000040100001701000017010000FA
:1044500017010000170100001701000017010000FC
:10446000170100001701000007010000070100000C
:10447000070100000701000007010000070100001C
:10448000070100000701000007010000070100000C
:1044900007010000070100000701000007010000FC
:1044A00007010000070100000701000007010000EC
:1044B00007010000070100000701000007010000DC
:1044C00007010000070100000002000000040000D6
:1044D0000008000000000000233B0000210E000047
:1044E000E10D0000850E0000C10D0000F01300205A
:1044F000D8130020E813002000000000E013002083
:10450000093D00002D3D0000F33C00000D180000A7
:10451000E33C000000800050010000005414002023
:10452000B4140020C0140020CC140020CC140020AF
:10453000F5FFFFFF436F756C64206E6F74206C6F26
:10454000636B20706F7765722073617665206D757F
:1045500074657800FF8FFFFFFF8FFFFFFE8FFFFF67
:10456000FE8FFFFFFD8FFFFFFC8FFFFFFC8FFFFF24
:1045700043616E277420696E697469616C697A653C
:10458000206D757465782C20776173204E554C4CE6
:104590000D0A000043616E277420756E6C6F636BAB
:1045A000206D757465782C20776173204E554C4CC6
:1045B0000D0A00004661696C20746F20616371759B
:1045C000697265206D757465780A00004661696CD2
:1045D00020746F2072656C65617365206D757465FC
:1045E000780A00004661696C20746F20696E6372FE
:1045F0006561736520504D20636F756E7465720A36
:10460000000000004661696C20746F20646563726D
:104610006561736520504D20636F756E7465720A15
:1046200000000000464C4153485F30005352414D5A
:104630005F3000554152545F3000434C4F434B5F55
:1046400033324B00434C4F434B5F31364D0073794F
:10465000735F636C6F636B00536563757265090903
:10466000004E6F6E2D53656375726509004E6F6E57
:104670002D53656375726500466C617368207265C1
:1046800067696F6E0909446F6D61696E090950654C
:10469000726D697373696F6E730A0025303275200D
:1046A000307825303578203078253035782009006D
:1046B0002563004E6F6E2D736563757265206361AF
:1046C0006C6C61626C6520726567696F6E2030206A
:1046D000706C6163656420696E20666C617368202C
:1046E000726567696F6E202564207769746820732E
:1046F000697A652025642E0A00436F756C64206E0C
:104700006F7420696E697469616C697A652073657C
:1047100063757265207365727669636573202865B9
:104720007272202564292E0A005352414D20726571
:1047300067696F6E0909446F6D61696E090950659B
:10474000726D697373696F6E730A0025303275205C
:10475000307825303578203078253035780900508C
:1047600065726970686572616C0909446F6D616991
:104770006E09095374617475730A0025303275200F
:10478000252D32317325730009534B49500A000916
:104790004552524F520A00094F4B0A0053504D3AAE
:1047A000204E5320696D6167652061742030782543
:1047B000780A0053504D3A204E53204D53502061FB
:1047C0007420307825780A0053504D3A204E5320FB
:1047D000726573657420766563746F7220617420EE
:1047E000307825780A0053504D3A20707265706118
:1047F000726520746F206A756D7020746F204E6F23
:104800006E2D53656375726520696D6167652E0A4B
:10481000004E52465F5030004E52465F434C4F436D
:104820004B004E52465F52544331004E52465F4E4B
:10483000564D43004E52465F554152544531004E4D
:1048400052465F554152544532004E52465F5457CE
:10485000494D32004E52465F5350494D33004E523F
:10486000465F54494D455230004E52465F54494DC3
:10487000455231004E52465F54494D455232004E2A
:1048800052465F5341414443004E52465F50574D9C
:1048900030004E52465F50574D31004E52465F50E9
:1048A000574D32004E52465F50574D33004E5246E0
:1048B0005F574454004E52465F495043004E5246A3
:1048C0005F564D43004E52465F465055004E52468D
:1048D0005F45475531004E52465F45475532004EC1
:1048E00052465F4450504943004E52465F4750493C
:1048F0004F544531004E52465F524547554C415446
:104900004F5253006D757465785F696E69742063EA
:10491000616C6C65642077697468204E554C4C203E
:10492000706172616D6574657200436F756C6420AF
:104930006E6F7420616C6C6F63617465206D75744B
:104940006578206265666F726520696E6974696159
:104950006C697A696E670048575F43433331305F53
:1049600030002A2A2A2A2A20426F6F74696E672033
:104970005A6570687972204F53206275696C6420A3
:1049800076322E302E39392D6E6373312D726331AC
:104990002D3736342D67623638376435643032321D
:1049A0003134202A2A2A2A2A0A006D61696E006998
:1049B000646C6500E7350000E01400200100000091
:1049C000F414002001000000081500200100000080
:1049D0001C15002001000000DD3C000000C20100A9
:1049E00000010300000000000090D0030C14002020
:1049F0000C140020441400205014002048140020FF
:104A0000401400201C14002000000000452B000072
:104A1000AD2B0000852B0000C92B0000892B000066
:104A2000880600207C06002084060020000000008C
:104A30008006002028420000000000000000000066
:104A400088420000000000000000000094420000C6
:104A500000000000000000006442000000000000B0
:104A6000000000004C420000D44200000C00002076
:104A700040420000D44200001800002070420000B4
:104A800000450000FC13002034420000000000003C
:104A9000000000005842000000000000000000007C
:104AA0007C4200000000000000000000CC14002048
:104AB000CC14002000000000000000000F000000E7
:104AC000E0140020E01400200000000000000000BE
:104AD0000F000000F4140020F41400200000000077
:104AE000000000000F00000008150020081500203D
:104AF00000000000000000000F0000001C15002056
:104B00001C15002000000000000000000F00000045
:104B1000FFFFFFFFFFFFFFFFFFFFFFFFFFFFFFFFA5
:104B20000000000000000000000000000000000085
:104B30000000000000000000000000000000000075
:104B40000000000000000000000000000000000065
:107FE0007FE97FE9F8F70EBE7FE97FE9F8F762BE27
:107FF0007FE97FE9FBF754BD0000000000000000AE
:10C0000050900220D502010047450200F5000100D2
:10C01000F5000100F5000100F5000100F500010048
:10C02000F5000100F5000100F5000100B5FF00007A
:10C03000F5000100F500010005FF00003745020092
:10C040009502010095020100950201009502010090
:10C050009502010095020100950201009502010080
:10C060009502010095020100950201009502010070
:10C070009502010095020100950201009502010060
:10C080009502010095020100950201009502010050
:10C090009502010095020100950201009502010040
:10C0A0009502010095020100950201009502010030
:10C0B000E91F0100C14F0200950201009502010035
:10C0C0009502010095020100950201009502010010
:10C0D0009502010095020100950201009502010000
:10C0E0009502010095020100DF4F02009502010058
:10C0F00095020100950201009502010095020100E0
:10C1000095020100950201009502010095020100CF
:10C1100095020100950201009502010095020100BF
:10C1200095020100950201009502010095020100AF
:10C13000950201009502010095020100950201009F
:10C140009502010000000000000000000000000057
:10C1500000000000000000000000000000000000DF
:10C1600000000000000000000000000000000000CF
:10C1700000000000000000000000000000000000BF
:10C1800000000000000000000000000000000000AF
:10C19000000000000000000000000000000000009F
:10C1A000000000000000000000000000000000008F
:10C1B000000000000000000000000000000000007F
:10C1C000000000000000000000000000000000006F
:10C1D000000000000000000000000000000000005F
:10C1E000000000000000000000000000000000004F
:10C1F000000000000000000000000000000000003F
:10C20000DEE61E284CBBCE8F015B000028D001006B
:10C210000100000000C0000060BE022025290100CE
:10C2200081F0004102E000BF83F0004330B54FEAE7
:10C2300041044FEA430594EA050F08BF90EA020F54
:10C240001FBF54EA000C55EA020C7FEA645C7FEAE7
:10C25000655C00F0E2804FEA5454D4EB5555B8BF0A
:10C260006D420CDD2C4480EA020281EA030382EA7B
:10C27000000083EA010180EA020281EA0303362D0D
:10C2800088BF30BD11F0004F4FEA01314FF4801CE0
:10C290004CEA113102D0404261EB410113F0004FF2
:10C2A0004FEA03334CEA133302D0524263EB4303A9
:10C2B00094EA050F00F0A780A4F10104D5F1200E47
:10C2C0000DDB02FA0EFC22FA05F2801841F10001A2
:10C2D00003FA0EF2801843FA05F359410EE0A5F176
:10C2E00020050EF1200E012A03FA0EFC28BF4CF0A7
:10C2F000020C43FA05F3C01851EBE37101F000455D
:10C3000007D54FF0000EDCF1000C7EEB00006EEB69
:10C310000101B1F5801F1BD3B1F5001F0CD34908F3
:10C320005FEA30004FEA3C0C04F101044FEA44524A
:10C3300012F5800F80F09A80BCF1004F08BF5FEAD1
:10C34000500C50F1000041EB045141EA050130BDB1
:10C350005FEA4C0C404141EB010111F4801FA4F154
:10C360000104E9D191F0000F04BF01460020B1FAA9
:10C3700081F308BF2033A3F10B03B3F120020CDAE1
:10C380000C3208DD02F1140CC2F10C0201FA0CF0BF
:10C3900021FA02F10CE002F11402D8BFC2F1200C24
:10C3A00001FA02F120FA0CFCDCBF41EA0C019040DA
:10C3B000E41AA2BF01EB0451294330BD6FEA040423
:10C3C0001F3C1CDA0C340EDC04F11404C4F120020E
:10C3D00020FA04F001FA02F340EA030021FA04F320
:10C3E00045EA030130BDC4F10C04C4F1200220FA77
:10C3F00002F001FA04F340EA0300294630BD21FAB5
:10C4000004F0294630BD94F0000F83F4801306BF7A
:10C4100081F480110134013D4EE77FEA645C18BF6E
:10C420007FEA655C29D094EA050F08BF90EA020F05
:10C4300005D054EA000C04BF1946104630BD91EAFD
:10C44000030F1EBF0021002030BD5FEA545C05D100
:10C450004000494128BF41F0004130BD14F580043F
:10C460003CBF01F5801130BD01F0004545F0FE41B3
:10C4700041F470014FF0000030BD7FEA645C1ABFE8
:10C48000194610467FEA655C1CBF0B46024650EA1F
:10C49000013406BF52EA033591EA030F41F400214B
:10C4A00030BD00BF90F0000F04BF0021704730B5D1
:10C4B0004FF4806404F132044FF000054FF00001A6
:10C4C00050E700BF90F0000F04BF0021704730B567
:10C4D0004FF4806404F1320410F0004548BF40423C
:10C4E0004FF000013EE700BF42004FEAE2014FEA91
:10C4F00031014FEA02701FBF12F07F4393F07F4F6C
:10C5000081F06051704732F07F4208BF704793F06E
:10C510007F4F04BF41F40021704730B54FF4607481
:10C5200001F0004521F000411CE700BF50EA010284
:10C5300008BF704730B54FF000050AE050EA01022D
:10C5400008BF704730B511F0004502D5404261EB9D
:10C5500041014FF4806404F132045FEA915C3FF4DE
:10C56000D8AE4FF003025FEADC0C18BF03325FEA7B
:10C57000DC0C18BF033202EBDC02C2F1200300FA2C
:10C5800003FC20FA02F001FA03FE40EA0E0021FA51
:10C5900002F11444BDE600BF53B94AB9002908BFEF
:10C5A00000281CBF4FF0FF314FF0FF3000F070B992
:10C5B000ADF1080C6DE904CE00F006F8DDF804E0FA
:10C5C000DDE9022304B070472DE9F04F099E0446CF
:10C5D0008946002B40F083808A42154645D9B2FA3D
:10C5E00082F24AB1C2F1200701FA02F39540944069
:10C5F00020FA07F747EA03094FEA154E230C1FFA02
:10C6000085F8B9FBFEFC0EFB1C990CFB08F143EA14
:10C61000094399420AD9EB182CBF01200020994206
:10C6200002D9002800F01D810CF1FF3C591AA3B279
:10C63000B1FBFEF00EFB101100FB08F843EA0144C9
:10C64000A04505D92C1902D2A04500F20E8101386F
:10C65000A4EB080440EA0C4000271EB1D44000239C
:10C66000C6E900433946BDE8F08F002A51D0B2FA3E
:10C6700082F2002A40F0AF80491B4FEA154E1FFAA4
:10C6800085F80127230CB1FBFEFC0EFB1C1108FBF7
:10C690000CF043EA014398420AD9EB182CBF012160
:10C6A0000021984202D9002900F0D7800CF1FF3C0C
:10C6B000191AA3B2B1FBFEF00EFB101108FB00F833
:10C6C00043EA0144A04505D92C1902D2A04500F245
:10C6D000C1800138A4EB080440EA0C40BDE78B425E
:10C6E00008D9002E74D00027C6E900013846394623
:10C6F000BDE8F08FB3FA83F767B98B42C0F0A4802E
:10C70000824240F2A1803846002EABD0C6E90049F3
:10C71000A8E7FFDEC7F12005BB4002FA07FC01FADB
:10C7200007F4EA4020FA05F8E94000FA07FE1A4348
:10C7300048EA04044FEA1248200C1FFA82F9B1FBC0
:10C74000F8FA08FB1A110AFB09FB40EA01418B4584
:10C750000AD951182CBF012300238B4502D9002B85
:10C7600000F088800AF1FF3AA1EB0B01A4B2B1FB03
:10C77000F8F008FB101100FB09F944EA0141894572
:10C7800004D9511801D289457BD8013840EA0A40C2
:10C79000A1EB0901A0FB0C89494544464B4602D355
:10C7A00006D1C64504D20138B8EB0C0469EB02038C
:10C7B000002E5DD0BEEB040261EB030101FA05F52A
:10C7C00022FA07F3F94000271D43C6E9005149E763
:10C7D0003746304646E7C2F12000954001FA02F79D
:10C7E00021FA00F34FEA154E24FA00F11FFA85F8FA
:10C7F00094403943B3FBFEF00F0C0EFB103300FBEB
:10C8000008FC47EA03439C4507D9EB182CBF0127D6
:10C8100000279C4500D98FB30138A3EB0C0389B2E4
:10C82000B3FBFEF70EFB173307FB08FC41EA03419D
:10C830008C4504D9691801D28C4525D8013FA1EB5C
:10C840000C0147EA00471DE7841A61EB030301204E
:10C85000994659E702382C443CE7ACF1020C2B44D2
:10C8600026E7ACF1020C2B44E0E602382C44EFE65C
:10C870003746F7E6AAF1020A114475E702382B445D
:10C88000CBE70238114481E7023F2944D7E700BFD4
:10C89000704700BF70B491E87800B2E802105B18EE
:10C8A00054EB0C04B2E802104D4156EB0C0680E844
:10C8B00078008041013070BC704770B491E8780016
:10C8C000B2E802105B1A74EB0C04B2E802108D415E
:10C8D00076EB0C0680E878008041404270BC7047DF
:10C8E0002DE9F00791E8F807B2E802105B1854EB65
:10C8F0000C04B2E802104D4156EB0C06B2E80210EF
:10C900004F4158EB0C08B2E8021059EB01095AEB01
:10C910000C0A80E8F80780410130BDE8F007704755
:10C920002DE9F00791E8F807B2E802105B1A74EB02
:10C930000C04B2E802108D4176EB0C06B2E802104E
:10C940008F4178EB0C08B2E8021079EB01097AEB21
:10C950000C0A80E8F80780414042BDE8F0077047C4
:10C960002DE9F007524290E87800B1E880071740BF
:10C97000DB1918EA020854EB080419EA020955EB1E
:10C9800009051AEA020A56EB0A0678C090E8780010
:10C99000B1E8800717407B4118EA020854EB08040D
:10C9A00019EA020955EB09051AEA020A56EB0A06CA
:10C9B00078C080410130BDE8F00770472DE9F007ED
:10C9C000524290E87800B1E880071740DB1B18EA74
:10C9D000020874EB080419EA020975EB09051AEA62
:10C9E000020A76EB0A0678C090E87800B1E8800782
:10C9F0001740BB4118EA020874EB080419EA02095F
:10CA000075EB09051AEA020A76EB0A0678C080413E
:10CA10004042BDE8F007704790E8300091E8C00060
:10CA2000A31B1340E41AF618EB1B1340ED1AFF1872
:10CA300030C0C0C17047F0B55242FFF7EDFFFFF7BD
:10CA4000EBFFFFF7E9FFFFF7E7FFF0BD2DE9F00788
:10CA50003AC91668A1FB069A4FF0000CE3FB06AC3E
:10CA60004FF00007E4FB06C74FF00008E5FB06782F
:10CA700040F8049B56684FF00009E1FB06A91CEB47
:10CA8000090C4FF0000949EB0909E3FB06C917EB54
:10CA900009074FF0000949EB0909E4FB067918EB97
:10CAA00009084FF0000949EB0909E5FB068940F840
:10CAB00004AB96684FF0000AE1FB06CA17EB0A07C1
:10CAC0004FF0000A4AEB0A0AE3FB067A18EB0A0861
:10CAD0004FF0000A4AEB0A0AE4FB068A19EB0A093E
:10CAE0004FF0000A4AEB0A0AE5FB069A40F804CB2D
:10CAF000D6684FF0000CE1FB067C18EB0C084FF0F9
:10CB0000000C4CEB0C0CE3FB068C19EB0C094FF002
:10CB1000000C4CEB0C0CE4FB069C1AEB0C0A4FF0DF
:10CB2000000C4CEB0C0CE5FB06AC80E88017BDE874
:10CB3000F00770470A462DE9F04F41EC140A92ECD9
:10CB4000080A1EC910EE100AA1FB00784FF0000978
:10CB5000E2FB00894FF0000AE3FB009A4FF0000B64
:10CB6000E4FB00AB12EE100A4FF0000CE1FB00BC3E
:10CB70004FF0000EE2FB00CE4FF00005E3FB00E5B6
:10CB80004FF00006E4FB005605EE107A10EE900A16
:10CB90004FF00007E1FB008719EB07094FF0000792
:10CBA00047EB0707E2FB00971AEB070A4FF0000775
:10CBB00047EB0707E3FB00A71BEB070B4FF0000752
:10CBC00047EB0707E4FB00B712EE900A1CEB070CDB
:10CBD0004FF0000747EB0707E1FB00C71EEB070E0E
:10CBE0004FF0000747EB0707E2FB00E7ED194FF0B6
:10CBF000000747EB0707E3FB0057F6194FF0000764
:10CC000047EB0707E4FB006705EE908A11EE100A78
:10CC10004FF00008E1FB00981AEB080A4FF00008FB
:10CC200048EB0808E2FB00A81BEB080B4FF00008DC
:10CC300048EB0808E3FB00B81CEB080C4FF00008B9
:10CC400048EB0808E4FB00C813EE100A1EEB080EC0
:10CC50004FF0000848EB0808E1FB00E815EB080579
:10CC60004FF0000848EB0808E2FB005816EB0806F6
:10CC70004FF0000848EB0808E3FB006817EB0807D3
:10CC80004FF0000848EB0808E4FB007806EE109A25
:10CC900011EE900A4FF00009E1FB00A91BEB090B14
:10CCA0004FF0000949EB0909E2FB00B91CEB090C44
:10CCB0004FF0000949EB0909E3FB00C91EEB090E1F
:10CCC0004FF0000949EB0909E4FB00E913EE900A73
:10CCD00015EB09054FF0000949EB0909E1FB005983
:10CCE00016EB09064FF0000949EB0909E2FB006960
:10CCF00017EB09074FF0000949EB0909E3FB00793D
:10CD000018EB09084FF0000949EB0909E4FB008919
:10CD100006EE90AA14EE901A01F110011EC910EE51
:10CD2000100A4FF0000AE1FB00BA1CEB0A0C4FF0AE
:10CD3000000A4AEB0A0AE2FB00CA1EEB0A0E4FF099
:10CD4000000A4AEB0A0AE3FB00EA15EB0A054FF07A
:10CD5000000A4AEB0A0AE4FB005A12EE100A16EB2C
:10CD60000A064FF0000A4AEB0A0AE1FB006A17EBD9
:10CD70000A074FF0000A4AEB0A0AE2FB007A18EBB6
:10CD80000A084FF0000A4AEB0A0AE3FB008A19EB93
:10CD90000A094FF0000A4AEB0A0AE4FB009A07EE80
:10CDA00010BA10EE900A4FF0000BE1FB00CB1EEB27
:10CDB0000B0E4FF0000B4BEB0B0BE2FB00EB15EBFC
:10CDC0000B054FF0000B4BEB0B0BE3FB005B16EB83
:10CDD0000B064FF0000B4BEB0B0BE4FB006B12EE62
:10CDE000900A17EB0B074FF0000B4BEB0B0BE1FB23
:10CDF000007B18EB0B084FF0000B4BEB0B0BE2FB2F
:10CE0000008B19EB0B094FF0000B4BEB0B0BE3FB0B
:10CE1000009B1AEB0B0A4FF0000B4BEB0B0BE4FBE8
:10CE200000AB07EE90CA11EE100A4FF0000CE1FBC8
:10CE300000EC15EB0C054FF0000C4CEB0C0CE2FB7E
:10CE4000005C16EB0C064FF0000C4CEB0C0CE3FBFB
:10CE5000006C17EB0C074FF0000C4CEB0C0CE4FBD8
:10CE6000007C13EE100A18EB0C084FF0000C4CEB92
:10CE70000C0CE1FB008C19EB0C094FF0000C4CEB97
:10CE80000C0CE2FB009C1AEB0C0A4FF0000C4CEB74
:10CE90000C0CE3FB00AC1BEB0C0B4FF0000C4CEB51
:10CEA0000C0CE4FB00BC08EE10EA11EE900A4FF007
:10CEB000000EE1FB005E16EB0E064FF0000E4EEB8F
:10CEC0000E0EE2FB006E17EB0E074FF0000E4EEB5E
:10CED0000E0EE3FB007E18EB0E084FF0000E4EEB3B
:10CEE0000E0EE4FB008E13EE900A19EB0E094FF0C4
:10CEF000000E4EEB0E0EE1FB009E1AEB0E0A4FF0F9
:10CF0000000E4EEB0E0EE2FB00AE1BEB0E0B4FF0D5
:10CF1000000E4EEB0E0EE3FB00BE1CEB0E0C4FF0B2
:10CF2000000E4EEB0E0EE4FB00CE14EE100AA0EC49
:10CF3000075A80E8E05FBDE8F08F00BF30B44FF0E3
:10CF4000000310F8014B11F8015B013A84EA050473
:10CF500043EA0403F5D1A3F101034FEAD37030BCD7
:10CF600070474FF0000310F8012B013943EA020328
