:10C00000A08002207DF5000057CC01009DF30000C8
:10C010009DF300009DF300009DF300009DF30000E0
:10C020009DF300009DF300009DF300005DF2000011
:10C030009DF300009DF30000ADF1000047CC01002E
:10C040003DF500003DF500003DF500003DF5000028
:10C050003DF500003DF500003DF500003DF5000018
:10C060003DF500003DF500003DF500003DF5000008
:10C070003DF500003DF500003DF500003DF50000F8
:10C080003DF500003DF500003DF500003DF50000E8
:10C090003DF500003DF500003DF500003DF50000D8
:10C0A0003DF500003DF500003DF500003DF50000C8
:10C0B0000D12010041D701003DF500003DF50000E3
:10C0C0003DF500003DF500003DF500003DF50000A8
:10C0D0003DF500003DF500003DF500003DF5000098
:10C0E0003DF500003DF500005FD701003DF5000083
:10C0F0003DF500003DF500003DF500003DF5000078
:10C100003DF500003DF500003DF500003DF5000067
:10C110003DF500003DF500003DF500003DF5000057
:10C120003DF500003DF500003DF500003DF5000047
:10C130003DF500003DF500003DF500003DF5000037
:10C140003DF50000000000000000000000000000BD
:10C1500000000000000000000000000000000000DF
:10C1600000000000000000000000000000000000CF
:10C1700000000000000000000000000000000000BF
:10C1800000000000000000000000000000000000AF
:10C19000000000000000000000000000000000009F
:10C1A000000000000000000000000000000000008F
:10C1B000000000000000000000000000000000007F
:10C1C000000000000000000000000000000000006F
:10C1D000000000000000000000000000000000005F
:10C1E000000000000000000000000000000000004F
:10C1F000000000000000000000000000000000003F
:10C20000DEE61E284CBBCE8F015B0000384A0100E1
:10C210000100000000C00000F0C30220C5210100A1
:10C2200053B94AB9002908BF00281CBF4FF0FF319D
:10C230004FF0FF3000F070B9ADF1080C6DE904CE9D
:10C2400000F006F8DDF804E0DDE9022304B07047F1
:10C250002DE9F04F099E04468946002B40F083806B
:10C260008A42154645D9B2FA82F24AB1C2F1200794
:10C2700001FA02F39540944020FA07F747EA0309D0
:10C280004FEA154E230C1FFA85F8B9FBFEFC0EFB96
:10C290001C990CFB08F143EA094399420AD9EB18AF
:10C2A0002CBF01200020994202D9002800F01D81F6
:10C2B0000CF1FF3C591AA3B2B1FBFEF00EFB1011BA
:10C2C00000FB08F843EA0144A04505D92C1902D225
:10C2D000A04500F20E810138A4EB080440EA0C40AE
:10C2E00000271EB1D4400023C6E900433946BDE80B
:10C2F000F08F002A51D0B2FA82F2002A40F0AF80CB
:10C30000491B4FEA154E1FFA85F80127230CB1FB94
:10C31000FEFC0EFB1C1108FB0CF043EA01439842A3
:10C320000AD9EB182CBF01210021984202D900291B
:10C3300000F0D7800CF1FF3C191AA3B2B1FBFEF05C
:10C340000EFB101108FB00F843EA0144A04505D993
:10C350002C1902D2A04500F2C1800138A4EB0804D8
:10C3600040EA0C40BDE78B4208D9002E74D000276C
:10C37000C6E9000138463946BDE8F08FB3FA83F7C5
:10C3800067B98B42C0F0A480824240F2A180384657
:10C39000002EABD0C6E90049A8E7FFDEC7F12005B3
:10C3A000BB4002FA07FC01FA07F4EA4020FA05F85C
:10C3B000E94000FA07FE1A4348EA04044FEA12482B
:10C3C000200C1FFA82F9B1FBF8FA08FB1A110AFBDC
:10C3D00009FB40EA01418B450AD951182CBF0123C2
:10C3E00000238B4502D9002B00F088800AF1FF3A28
:10C3F000A1EB0B01A4B2B1FBF8F008FB101100FB9C
:10C4000009F944EA0141894504D9511801D2894505
:10C410007BD8013840EA0A40A1EB0901A0FB0C8956
:10C42000494544464B4602D306D1C64504D201389D
:10C43000B8EB0C0469EB0203002E5DD0BEEB0402E6
:10C4400061EB030101FA05F522FA07F3F940002731
:10C450001D43C6E9005149E73746304646E7C2F179
:10C460002000954001FA02F721FA00F34FEA154E39
:10C4700024FA00F11FFA85F894403943B3FBFEF02B
:10C480000F0C0EFB103300FB08FC47EA03439C45EE
:10C4900007D9EB182CBF012700279C4500D98FB383
:10C4A0000138A3EB0C0389B2B3FBFEF70EFB173385
:10C4B00007FB08FC41EA03418C4504D9691801D205
:10C4C0008C4525D8013FA1EB0C0147EA00471DE749
:10C4D000841A61EB03030120994659E702382C4482
:10C4E0003CE7ACF1020C2B4426E7ACF1020C2B44E8
:10C4F000E0E602382C44EFE63746F7E6AAF1020AF6
:10C50000114475E702382B44CBE70238114481E728
:10C51000023F2944D7E700BF704700BF01234FF017
:10C520000002064963F30702054B5B1ADB0801466C
:10C5300063F38F12034810F005B800BF30ED01001F
:10C5400030ED0100FCF2010003234FF0000110B5B3
:10C5500063F30701144C154B1548E41AC4F3C904DE
:10C5600064F38F110FF0E1FF00F002F9014658B1BA
:10C570004FF0000201230F4863F3070264F38F12A8
:10C58000BDE810400FF0DEBF08210B4811F079FD27
:10C59000014640B14FF00002012363F3070264F348
:10C5A0008F120648ECE710BD30ED010030ED0100C0
:10C5B00019F301002AF30100E800022045F301000D
:10C5C00070B50446054E4518AC4200D170BD3068C8
:10C5D00014F8011B43685B689847F5E704010220E3
:10C5E0002DE9F74F074643685B6C03B198477B68BA
:10C5F0005B6B9BB13846984780B14F4D4F4B504EC7
:10C60000ED1ADFF868B1C5F3C9057B689B692BB1EA
:10C6100001220DF107013846984710B903B0BDE873
:10C62000F08F32689DF80710541C2229346019D00D
:10C630007F2901D008291BD102B1013A022C38BF51
:10C64000022400203F4B023C985434609BF8003099
:10C65000002BDAD13C4B1B78032B5ED8DFE803F0CC
:10C660002F2F4D559BF8003083F001038BF80030DD
:10C6700040F68C239C420FD928F03F0242F0010281
:10C6800062F3070865F38F18424630480FF05AFFEF
:10C6900040F68C233360B8E774B929F03F0343F0C8
:10C6A000010363F3070965F38F194A4621462848B9
:10C6B0000FF048FF3460A8E7224B9954C6E7254A9B
:10C6C000D35C8B42A1D1244B18684368DB6A03B169
:10C6D00098472249D1E8EF3F43F00102C1E8E02F3B
:10C6E0000028F7D1DB0703D408391D4811F061FE9B
:10C6F0001C4B32681A600023CCE7124B1A4412F824
:10C70000013C002B81D00A29DCE70E4B1A4412F8B9
:10C71000013C0D2B7FF479AFF5E72AF03F0242F0A0
:10C72000010262F3070A65F38F1A524619460E4852
:10C730000FF008FF69E700BF40ED010030ED010098
:10C74000F4000220264E02203F63022006F401007E
:10C7500026F40100A7F501000401022000010220D7
:10C76000404D0220F000022044F401003E6302200C
:10C77000F7B50322494B4A4900201A7005F092FA96
:10C78000484C494B0546E41AC4F3C90468B14FF05C
:10C790000002012363F30702014664F38F1243484A
:10C7A0000FF0D0FE284603B0F0BD41480EF0A8F8C7
:10C7B000404D2860E8B1404F286843689B68002BD3
:10C7C00048D098470146002844D026F03F0343F064
:10C7D000010363F3070664F38F16324638460FF001
:10C7E000B1FE286843689B69EBB90A200EF02CFF64
:10C7F000E2E701234FF0000263F3070264F38F12B4
:10C800002B492E480FF09EFE4FF0000201236FF0DF
:10C81000150163F307022A4864F38F120FF092FEAA
:10C820006FF00D05BEE701220DF1070198470028C2
:10C83000D7D1DAE7234801F083FD05460028B1D0BF
:10C840004FF00002012363F30702014664F38F12E5
:10C850001D48E3E72A68536823B19B6C13B11B4959
:10C860001046984700221A4B1A492868C3E901125A
:10C870001A600FF0A3FA07211748FFF7A1FE11482D
:10C8800001F03EF901460028D4D04FF00002012308
:10C8900063F3070264F38F121048BFE73F6302207F
:10C8A000DBBD010040ED010030ED010061F401004D
:10C8B0007FF4010004010220B6F4010086F40100B7
:10C8C00096F40100C7BD010016F50100E1C50000A6
:10C8D000F800022071C90000EBF40100F3F401003C
:10C8E00008B50FF08CFA014668B102234FF0000240
:10C8F000194863F30702194B1B1ADB0863F38F1205
:10C9000017480FF01FFE01F0B5FD014668B1022384
:10C910004FF00002104863F30702104B1B1ADB08AC
:10C9200063F38F120F480FF00DFE0F49002005F042
:10C9300009FA014678B102234FF00002064863F37A
:10C940000702064B1B1ADB0863F38F120748BDE88A
:10C9500008400FF0F7BD08BD30ED010040ED0100CB
:10C9600037F501005CF50100DBBD01007FF501003A
:10C97000684A694B116840F68B22914228BF1146E4
:10C98000002230B51C46654887B05A5414F8011B84
:10C99000A1F16105192D10F8015B98BF20398D4276
:10C9A00005D101320A2AF1D110215D4879E0002138
:10C9B0005C4813F8012BA2F16104192C10F8014B0B
:10C9C00098BF203A94427AD101310929F1D1564ACF
:10C9D0000021514811F004FB041E18DA01234FF026
:10C9E0000002524963F30702514B52485B1ADB08BD
:10C9F00063F38F1221460FF0A5FD08214E48FFF783
:10CA0000DFFD4E4B18680FF0D9F907B030BD424832
:10CA100011F0E9FA012805462CD1434811F00FFC2A
:10CA200001280ED801234FF00001404A63F30701AB
:10CA30003F4B43489B1ADB0863F38F110FF075FDE2
:10CA4000DBE702AA2946384811F0C4FB0028E9DBDD
:10CA5000BDF80830002BE5D0022B08D9032BE1D11B
:10CA6000BDF808000FF08AF905213648C7E7FFF73F
:10CA700037FFF5E7002CC0D1F6E79DF80730032B10
:10CA8000BFD801A252F823F099CA0000FBC90000E8
:10CA9000A9CA0000B9CA00002B4810F081FA01466B
:10CAA0002948FFF78DFDDFE70A46284902A803F071
:10CAB0002FFF411C02A8A2E70A462549F6E71648BF
:10CAC00000F040FE0028CFD0233096D1124801F06C
:10CAD000F5FB0028C8D023308FD11B490DF1070387
:10CAE00040F68C220C4805F039F8011EC5DA012306
:10CAF0004FF000020D4863F307020D4B1B1ADB08D1
:10CB000063F38F1213480FF01DFD01238DF80730DA
:10CB100073E700BFF0000220264E022066F30100FA
:10CB2000F6F3010071F30100E800022030ED01008E
:10CB300040ED01007BF30100B1F30100040102208C
:10CB400099F30100ACF30100B2580220E0F30100B8
:10CB5000EBF30100B9F30100014B1B681B68184798
:10CB60001C030220014B1B685B6818471C03022052
:10CB700070B5184C06462068002829DDFFF7F2FF43
:10CB8000051E16DA02234FF00005134A63F307056A
:10CB9000124B9B1ADB0863F38F150FF02CF9016819
:10CBA0002A4649420E480FF0CDFC0FF024F90568E3
:10CBB0006D424FF0FF3323600023324609490A4893
:10CBC000A38003F0A5FEA36807489847284670BDD8
:10CBD0000025FBE70801022030ED0100A8ED01006F
:10CBE000AAF50100BDF5010040630220012838B517
:10CBF0000146214C2DD10622FFF7AEFF062320600F
:10CC000023712268002A2DDA01234FF000051B4A08
:10CC100063F307051A4B9B1ADB0863F38F150FF0BC
:10CC2000EAF801682A46494216480FF08BFC0FF0DB
:10CC3000E2F8026814495242144803F069FEA368FE
:10CC400012489847002323710FF0D5F8006840423E
:10CC500038BD0228D5D111220120FFF77DFF112315
:10CC60002060CDE723790A49084803F051FE0748C0
:10CC7000A36898470020EBE70801022030ED01008F
:10CC8000A8ED0100CCF50100BDF5010040630220D4
:10CC9000E0F50100012813B5044604D0022850D065
:10CCA0006FF015042EE0304811F0C9FA0128F7D9C9
:10CCB000214601AA2C4811F08DFA041E22DBBDF892
:10CCC0000400012827D1284811F0B9FA0228E7D931
:10CCD0000DF106020221244811F07CFA041E11DB3A
:10CCE000224B1B68002B10DD02234FF00001204A6D
:10CCF00063F307011F4B20489B1ADB0863F38F1176
:10CD00000FF013FC204602B010BD9DF80600FFF79F
:10CD10006DFF0446F6E70028F4D1144B1B68002B86
:10CD20000CDA02234FF00001114A63F30701114BA3
:10CD300012489B1ADB0863F38F11E1E7FFF718FF36
:10CD4000E7E70A4C2268531C09D023790C490D48A7
:10CD500003F0DEFDA3680B4898470024D2E70A4998
:10CD6000084803F0D5FDF5E7E8000220080102209D
:10CD700030ED0100A8ED01006FF6010088F601001A
:10CD8000E0F5010040630220A1F60100044B10B45D
:10CD90001B68DC6A0023A4465DF8044B604700BFB3
:10CDA0001C0302204FF41073F0B52F4DADF5137D29
:10CDB00001936B79044693B901234FF000012B4A8C
:10CDC00063F307012A4B2B489B1ADB0863F38F118F
:10CDD0000FF0ABFB6FF015000DF5137DF0BD0128D2
:10CDE000F8D1254811F02BFA0128F3D902AE01AB96
:10CDF00032462146204811F0FFF90028ECDB0024E0
:10CE0000019B3046F45410F0CBF80746A7421FD9D7
:10CE10003A1B31192868FFF7B9FF002822DA0EF013
:10CE2000EAFF00684FF000064042FFF7A1FE022330
:10CE30000E4A63F307060E4B9B1ADB0863F38F164B
:10CE40000EF0D9FF0168324649420C480FF07AFBD8
:10CE500022460B490B4803F05BFD0A48AB68984734
:10CE60000020B9E70444D1E70801022030ED0100B9
:10CE7000A8ED010002F70100E800022018F7010008
:10CE80002AF7010040630220044B10B41B685C6A5F
:10CE90000023A4465DF8044B604700BF1C0302203A
:10CEA00030B52D4D85B02B680446002B11DA0123D7
:10CEB0004FF00001294A63F30701294B29489B1AC7
:10CEC000DB0863F38F110FF030FB6FF0150005B036
:10CED00030BD0128F9D1244811F0B1F90128F4D965
:10CEE0000DF106022146204811F074F90028EEDB0E
:10CEF000BDF80620ADF80840130243EA12230024CF
:10CF00000822ADF80A30194B03941B680DEB02019F
:10CF1000DB6828689847A0421BDA01230F4A63F3B5
:10CF200007040F4B9B1ADB0863F38F140EF063FFAB
:10CF30000168224649420E480FF004FB0EF05BFFE9
:10CF400000684042FFF714FE0EF055FF00684042B3
:10CF5000BDE72046BBE700BF0801022030ED01001D
:10CF6000A8ED010047F60100E80002201C030220A2
:10CF70005DF601002DE9F0411446804601258EB092
:10CF8000244F20220E4606A8002110F06EF83B68C0
:10CF9000CDE9075406AA5C6B002101AB4046A047CF
:10CFA000044688B14FF000021B491C4B65F3070291
:10CFB0005B1ADB08014663F38F1219480FF0C2FABF
:10CFC00020460EB0BDE8F081019B83B901234FF0EC
:10CFD0000001114A63F30701104B12489B1ADB084A
:10CFE00063F38F110FF0A1FA6FF00104E8E75B69BA
:10CFF0000D495B6876BA4B600D804E80102302AA03
:10D000000431284603F0C6FC3B6801989B6B9847A7
:10D01000D6E700BF1C03022030ED0100A8ED01009F
:10D0200028F8010045F80100044E022008B501234C
:10D03000064A49BA1380518001460432184610F05E
:10D040001EF9002818BF6FF0150008BD044E02201D
:10D05000802370B5A2B001934F4B04461A681E4658
:10D06000002A10DA01234FF000014C4A63F3070154
:10D070004B4B4C489B1ADB0863F38F110FF055FAAA
:10D080006FF0150445E0012809D00228F8D15C7939
:10D090009A68002C76D044489047002439E04348F1
:10D0A00011F0CDF80228EBD9214601AB02AA3F4886
:10D0B00011F0A2F8041E2CDB0025019B22AA1344C8
:10D0C00002210DF10202394803F8805C11F082F868
:10D0D000041E1EDB02A8BDF802400FF061FF2B46C4
:10D0E00002A9C0B2834217DB214602A8FFF79EFFC8
:10D0F0000446D4B101234FF00002284963F307022C
:10D10000274B2B485B1ADB0863F38F1221460FF085
:10D1100019FA204622B070BD11F8012B2E2A02D038
:10D12000303A092A31D80133DCE7224B08221B6848
:10D1300021495B693068984700281DDA01234FF0C8
:10D140000004164A63F30704154B9B1ADB0863F3CC
:10D150008F140EF050FE01682246494217480FF026
:10D16000F1F90EF048FE00684042FFF701FD0EF0B5
:10D1700042FE04686442CCE7012311487371B3682E
:10D180009847C6E70F489047C3E70122214602A807
:10D19000FFF7F0FEACE700BF0801022030ED010010
:10D1A000A8ED010047F60100E4F60100E8000220C6
:10D1B000AFF601001C030220044E0220C0F601005D
:10D1C000D5F60100F3F6010000230822F0B5ADF515
:10D1D000157DCDE902133F4B3F4D1B680092DC6982
:10D1E00007460DEB0203012114222868A047041E04
:10D1F0001CDA0EF000FE00684FF000054042FFF719
:10D20000B7FC0123354A63F30705354B9B1ADB084E
:10D2100063F38F150EF0EFFD01682A46494231484D
:10D220000FF090F920460DF5157DF0BDB7F5107F94
:10D2300004AE8CBF4FF410723A4628683146FFF7AF
:10D2400023FE002804461DDA02234FF00004234A7F
:10D2500063F30704224B9B1ADB0863F38F140EF071
:10D26000CAFD0168224649421F480FF06BF90EF0D3
:10D27000C2FD00684042FFF77BFC0EF0BCFD046875
:10D280006442CFE711D102234FF00001134A63F348
:10D290000701134B15489B1ADB0863F38F110FF03E
:10D2A00044F92046FFF764FCBCE70027AB6837541D
:10D2B0000F489847AB6830469847AB680D48984789
:10D2C00022460D490D4803F023FBAB680B489847F5
:10D2D0003C46A7E71C0302200801022030ED0100B4
:10D2E000A8ED0100F3F501000AF601001BF60100AC
:10D2F0002BF60100FFF6010037F601004063022023
:10D30000194B13B55B7904468BB901234FF000012B
:10D31000164A63F30701164B16489B1ADB0863F3A2
:10D320008F110FF002F96FF0150002B010BD012847
:10D33000F9D1114810F083FF0228F4D901AA21463F
:10D340000D4810F047FF0028EFDB0DF10602022127
:10D35000094810F03FFF0028E7DBBDF80610BDF8D4
:10D360000400FFF731FFE0E70801022030ED010083
:10D37000A8ED010002F70100E800022038B50446DC
:10D380000D460FF00DFE0023C0B2834216DB294686
:10D390002046FFF74BFE044674B101234FF0000214
:10D3A0000D4963F307020D4B0D485B1ADB0863F36D
:10D3B0008F1221460FF0C6F8204638BDE25C2E2AB7
:10D3C00002D0303A092A01D80133DEE70222294689
:10D3D0002046FFF7CFFDDEE730ED0100A8ED0100AC
:10D3E000AFF6010080232DE9F047ADF5387D0493B9
:10D3F000694B80461A681D46002A14DA01234FF053
:10D400000001664A63F30701654B66489B1ADB0817
:10D4100063F38F110FF089F86FF0150420460DF5B6
:10D42000387DBDE8F0871B79112B0CD001234FF01C
:10D4300000015A4A63F30701594B5B489B1ADB080A
:10D4400063F38F11E6E70128E6D1584810F0F7FEA4
:10D450000428E1D908AF04AB3A464146534810F0DE
:10D46000CBFE041EDADB4FF0000A049B0DF10A022A
:10D4700002214E4807F803A010F0ACFE041ECDDBDD
:10D4800003AA0321494810F0A5FE041EC6DB0DF1D6
:10D490000E020421454810F09DFE041EBEDB18223A
:10D4A000BDF80E3005AEBDF80A103846BDF80C9038
:10D4B0003260CDE9063AFFF761FF041EAEDB0822B9
:10D4C0003B4F41463B680092DC69142206AB28685A
:10D4D000A047041E19DA01234FF000052F4A63F319
:10D4E00007052F4B9B1ADB0863F38F150EF083FCA7
:10D4F00001682A4649422F480FF024F80EF07BFCC1
:10D5000000684042FFF734FB88E73B68B9F5107FBD
:10D510009C6A294B28AF286888BF4FF41072019687
:10D52000009398BF0FFA89F200233946A0470028DC
:10D5300006461DDA02234FF00004184A63F307047D
:10D54000174B9B1ADB0863F38F140EF054FC016831
:10D550002246494219480EF0F5FF0EF04CFC0068D7
:10D560004042FFF705FB0EF046FC0468644255E7B5
:10D570000024AB683C5412489847AB68384698473B
:10D58000AB681048984732460F49104803F0C0F97D
:10D59000AB680E48984741E70801022030ED0100D2
:10D5A000A8ED010047F601003AF70100E80002206B
:10D5B0001C030220F3F50100044E022049F701008C
:10D5C0005EF70100FFF601006AF7010040630220E8
:10D5D0002DE9F04F504BADF5357D1A680446002A11
:10D5E0001F4613DA01234FF000014C4A63F3070191
:10D5F0004B4B4C489B1ADB0863F38F110EF095FFE1
:10D600006FF015000DF5357DBDE8F08F1B79112BFE
:10D610000CD001234FF00001404A63F30701404B57
:10D6200041489B1ADB0863F38F11E7E70128E7D134
:10D630003E4810F004FE0328E2D9802304AE039391
:10D64000324603AB2146394810F0D6FD0028D9DB1D
:10D650000024039B0DF10A0202213448F45410F017
:10D66000B9FD0028CEDB4FF4107324AD03932A4696
:10D6700003AB03212D4810F0BFFD0028C2DB039B44
:10D680002846EC54BDF80A900FF08AFC49468046C3
:10D690003046FFF773FE0028B4DB4FF00809244E34
:10D6A000DFF89CA0A04509D822462249224803F071
:10D6B0002FF92148BB6898470020A3E73368CDE9DC
:10D6C00000A9A8EB0402D3F830B029190023386868
:10D6D000D84700281DDC01234FF000040F4A63F3F4
:10D6E00007040F4B9B1ADB0863F38F140EF083FBC8
:10D6F00001682246494211480EF024FF0EF07BFBE0
:10D7000000684042FFF734FA0EF075FB00684042B3
:10D7100078E70444C6E700BF0801022030ED0100AD
:10D72000A8ED010047F601003AF70100E8000220E9
:10D730001C0302208EF70100406302207AF70100EB
:10D74000044E02202DE9F041204D06460024A84653
:10D750006F6838460FF024FC0023C0B2834218DB08
:10D7600000211B4A304610F03BFC011E1CDA01234D
:10D770004FF00002174863F30702174B1B1ADB0830
:10D78000164863F38F120EF0DDFE6FF01500BDE852
:10D79000F081F25CA2F161011929F95C98BF203A8D
:10D7A00091420BD10133D9E7304610F01CFC0C2319
:10D7B00003FB0484A368BDE8F04118470134072C3B
:10D7C00005F10C05C4D16FF02200E0E7E8ED01009F
:10D7D000E800022030ED0100A8ED01007BF301001C
:10D7E00003234FF000012DE9F04F63F30701A94C2B
:10D7F000A94BA9B0E41AC4F3C90464F38F11A74874
:10D800000EF093FE40F2012200216620FFF7A4F9FA
:10D81000051E16DBA2480FF0C3FBA14902462846AD
:10D82000FFF7B4FA00280FDA4FF0000103239D48F8
:10D8300063F3070164F38F110EF077FE2846FFF7BC
:10D8400091F94FF0FF3000E1642202A92846FFF76A
:10D850001BFB0028F8D0944902A80FF04CFB70B3D2
:10D86000924902A80FF047FB914A831C0A3013F833
:10D87000011F984202F8011BF9D14FF00002032367
:10D8800063F3070264F38F1289498A480EF05AFE47
:10D890004FF4FA600EF0B1FA87480FF081FB864929
:10D8A00002462846FFF772FA002817DA4FF0000107
:10D8B000032363F3070164F38F118048BCE78049B9
:10D8C00002A80FF018FB0028E2D04FF0000101235E
:10D8D00063F3070164F38F117A48ADE7642202A96C
:10D8E0002846FFF7D1FA0028F8D003234FF00002B2
:10D8F00063F3070202A9744864F38F120EF022FE4C
:10D90000694902A80FF0F7FA00283ED02C2102A89E
:10D910000FF039FB461C6D4930460FF0ECFA80469B
:10D9200030460FF03DFB074640460FF039FB3146CD
:10D930003A1A68460FF06FFB0A2201A968460FF0F9
:10D94000EBF9634B4FF000021870032363F30702F7
:10D95000C1B264F38F125F480EF0F4FD4FF4FA6029
:10D960000EF04BFA5C480FF01BFB5B490246284661
:10D97000FFF70CFA002817DA4FF00001032363F3D6
:10D98000070164F38F11554856E74D4902A80FF07F
:10D99000B2FA0028E2D04FF00001012363F307013F
:10D9A00064F38F114E4847E7962202A92846FFF7F5
:10D9B0006BFA0028F8D03C4902A80FF09CFA002826
:10D9C00058D0484902A80FF096FA0646002844D0DD
:10D9D000454902A80FF08FFA074643480FF0E0FAD6
:10D9E00007443A4938460FF086FA00268146DFF8A8
:10D9F000FCB038460FF0D4FA804648460FF0D0FA13
:10DA00005FFA86FAA8EB0000824506F101061FD3F3
:10DA10004FF00002032363F3070264F38F123349CC
:10DA200033480EF08FFD4FF4FA600EF0E6F9284609
:10DA3000FFF798F803234FF0000163F307012D4827
:10DA400064F38F110EF071FD002029B0BDE8F08F56
:10DA500017F80A300BF80A30CBE703234FF0000128
:10DA600063F3070164F38F1123480EF05EFD1F4B33
:10DA70001E70D8E7124902A80FF03DFA0028D2D054
:10DA80004FF00001012363F3070164F38F111B487A
:10DA9000D2E600BFA8ED010030ED01005FF8010003
:10DAA00082F801008CF801007BFA01009DF801006A
:10DAB00080630220A1F80100E1F80100E9F801000B
:10DAC000B6F80100BCF80100F9F8010000F7010008
:10DAD0008A6302200BF901003FF901004BF90100B4
:10DAE0001DF9010042F901005FF901008B6302207A
:10DAF0006BF90100B1F901007AF901008EF901001A
:10DB00002DE9F04F4A4B4B4CA7B0E41AC4F3C904BB
:10DB100070B901234FF0000163F30701464864F335
:10DB20008F110EF002FD6FF0150027B0BDE8F08FE9
:10DB30004FF0FF320025414B4FF000011A60986012
:10DB40009D80032363F3070164F38F113C480EF0BB
:10DB5000ECFC40F2012229466620FEF7FDFF061E7E
:10DB600028DB384FDFF8ECA0DFF8EC902BF03F0318
:10DB700043F0030363F3070B64F38F1B5A463946E4
:10DB800050460EF0DFFC38460FF00AFA39460246DE
:10DB90003046FFF7FBF8002811DA4FF000010323AD
:10DBA000294863F3070164F38F110EF0BEFC304681
:10DBB000FEF7D8FF0220FFF719F80020B5E7022290
:10DBC00069463046FFF760F90028F8D0022249463E
:10DBD00068460FF010FA40B14FF00001032363F3E1
:10DBE000070164F38F111948DFE728F03F0343F082
:10DBF000030363F3070864F38F18414648460EF0A9
:10DC000094FC013540F6B8300EF0F7F8042D07F11A
:10DC10002207ABD13046FEF7A5FF03234FF00001EA
:10DC200063F3070164F38F1109480EF07EFCC1E72E
:10DC300030ED0100A8ED010041FA010008010220C9
:10DC40004DFA0100A0F701006CFA01007AFA010018
:10DC50007EFA010008F901007BFA0100F0B53B4BA8
:10DC60003B4CE5B0E41A3B4BC4F3C904DB794FF0FD
:10DC70000001002B62D0032363F3070164F38F11CB
:10DC800035480EF052FCFFF7ABFD014600284AD1A3
:10DC90004FF4947219901AA80FF0E7F92F4919A8B8
:10DCA0000FF0A0F92E4919A80FF09CF92D4919A8D9
:10DCB0000FF098F92A4919A80FF094F92A490B781E
:10DCC00013B119A80FF08EF9254919A80FF08AF998
:10DCD000264927480FF00FF9C51D264928460FF0A1
:10DCE0000AF9074628460FF05BF9064638460FF05A
:10DCF00057F92946321A68460FF08DF9694619A876
:10DD00000FF070F9164919A80FF06CF94FF00002E6
:10DD1000032363F3070264F38F1219A916480EF068
:10DD200011FC65B0F0BD4FF000010123134863F30F
:10DD3000070164F38F110EF0F8FBF2E7032363F39E
:10DD4000070164F38F110E48F5E700BF30ED0100C5
:10DD5000A8ED010014010220D1F901008063022026
:10DD6000E0F901008A6302208B630220E2F90100DE
:10DD70000800022000F70100EAF90100FDF90100A6
:10DD800029FA0100014B1B685B6818471C0302203D
:10DD900030B500241A4D85B028680394431C20D068
:10DDA0000423082200934FF4017103AB08F0A8FF8D
:10DDB0000446C8B101234FF00004124A63F307047C
:10DDC000114B9B1ADB0863F38F140EF01BF80168EC
:10DDD000224649420D480EF0B5FB0EF013F80468D8
:10DDE0006442204605B030BD094B18680DF06AFD4D
:10DDF000286808F0C1FEAC71AB6806489847F0E7A8
:10DE00001401022030ED010068ED0100E0FB01008B
:10DE1000D0010220FDFB01000023F0B50127704D69
:10DE20008BB0ADF81E300993AB884FF4017202211C
:10DE30003846ADF82070ADF8223008F08BFE00288F
:10DE4000286031DA4FF00004664A674B67F3070435
:10DE50009B1ADB0863F38F140DF0D4FF0168224690
:10DE6000494262480EF06EFB6FF0150401234FF03B
:10DE700000025C4963F307025B4B5D485B1ADB08F9
:10DE800063F38F1221460EF05DFB224659495A4832
:10DE900002F03EFDAB68584898470023AB710DF087
:10DEA000B1FF0468644288E002260DF11E0300966B
:10DEB00032464FF4017108F023FF044698B1012364
:10DEC0004FF00006474A63F30706474B9B1ADB08EF
:10DED00063F38F160DF096FF3246016847484942BA
:10DEE0000EF030FBC2E7009608AB3A464FF40171E2
:10DEF000286808F005FF044688B101234FF00006AA
:10DF0000384A63F30706384B9B1ADB0863F38F1616
:10DF10000DF078FF0168324649423948E0E7009643
:10DF20000DF1220304224FF40171286808F0E8FE85
:10DF3000044688B101234FF000062A4A63F307061E
:10DF4000294B9B1ADB0863F38F160DF05BFF01680A
:10DF5000324649422B48C3E70423072200934FF47B
:10DF6000017109AB286808F0CBFE044688B1012393
:10DF70004FF000061B4A63F307061B4B9B1ADB0896
:10DF800063F38F160DF03EFF0168324649421E488A
:10DF9000A6E71E4E306898B10DF0B4FC0123AA88A4
:10DFA0001B491548AB7102F0B3FCAB6812489847A7
:10DFB00010F001FC174BC3E9000120460BB0F0BD87
:10DFC0000E23CDE90444CDE90243CDE90044124BD0
:10DFD0004FF48062114912480DF020FC3060DDE7FB
:10DFE0001401022030ED010068ED0100F8FA010093
:10DFF000BCFB0100D1FB0100EF63022018FB010014
:10E0000040FB01006BFB01008DFB0100D0010220F1
:10E01000ABFB0100D800022019E10000A06502203E
:10E0200020010220012813B5044604D002284CD058
:10E030006FF015042DE02E4810F001F90128F7D9F2
:10E0400021460DF106022A4810F0C4F8041E20DB18
:10E05000BDF80630012B23D1254810F0F0F8022836
:10E0600006D9244A0221224810F0B4F8041E10DB1D
:10E07000214B9B7983B102234FF000011F4A63F3C8
:10E0800007011F4B1F489B1ADB0863F38F110EF02B
:10E090004CFA204602B010BDFFF7BEFE0446F8E77A
:10E0A000002BF6D1144B9B7963B902234FF000018A
:10E0B000124A63F30701124B13489B1ADB0863F300
:10E0C0008F11E4E7FFF764FEE8E70B4CA3794BB14F
:10E0D000A2880E490E4802F01BFCA3680C48984722
:10E0E0000024D6E70B490A4802F012FCF5E700BF0E
:10E0F000E8000220180102201401022030ED010086
:10E1000068ED010026FD010035FD0100ABFB0100BB
:10E11000EF630220FDFB01002DE9FF41584F594CF0
:10E120003D460023D8225749386808F085FD00286D
:10E1300025DC01234FF00004534A63F30704534BDB
:10E140009B1ADB0863F38F140DF05CFE0168224616
:10E1500049424F480EF0F6F90DF054FE02684D4961
:10E1600052424D4802F0D4FBBB684B489847386890
:10E1700008F002FD0023BB7104B0BDE8F0812378F4
:10E18000012B30D1F97900293CD10B460E460A46C5
:10E19000DFF8F0C0BCF8460001381F280DD89CF805
:10E1A0005000013610F0010F1CBF0133DBB2000735
:10E1B00048BF0131F6B248BFC9B201320C2A0CF196
:10E1C0000C0CE7D1DFF8F08098F80020B24219D0AB
:10E1D000009132463149304802F09AFBAB682E4834
:10E1E000984788F800602378012B0BD0022B98D138
:10E1F000EB79002B95D0AB6829489847AB68294844
:10E2000098478EE794F84430DB078AD5D4E9022397
:10E21000CDE900232449D4E904231F4802F078FB08
:10E22000AB681D48984794F82E302049039394F822
:10E230002D301948029394F82C30019394F82B3028
:10E24000009394F82A30228D02F062FBAB681248EA
:10E250009847EB79002B7FF464AF10F0ACFA144BC5
:10E2600014491A684FF47A73821A92FBF3F20A483F
:10E2700002F04EFBAB68084898470123EB7150E76A
:10E28000140102200000022030ED010068ED0100C1
:10E2900087FC0100D1FB0100EF6302209AFC010022
:10E2A0001DFD010008000220C6FC0100DFFC01008A
:10E2B000D800022007FD01002F64022038B5044673
:10E2C0001A480EF06DFE00231849C0B2834217DBD6
:10E2D0000021174A20460FF083FE011E1CDA01239D
:10E2E0004FF00002134863F30702134B1B1ADB08BD
:10E2F000124863F38F120EF025F96FF0150038BD48
:10E30000E25CA2F16105192D11F8015B98BF203A7A
:10E31000954208D10133D9E720460FF064FEBDE8ED
:10E320003840FFF77FBE6FF02200E8E76CFD010088
:10E33000E800022030ED010068ED01007BF30100F0
:10E340002DE9F74F404B414CE41AC4F3C90470B9AE
:10E3500001234FF0000163F307013D4864F38F117F
:10E360000EF0E3F86FF0150003B0BDE8F08F012266
:10E370004FF0FF310025374B374FC3E9001298604B
:10E38000364B4FF000011D60032363F3070164F374
:10E390008F1133480EF0C9F83B6840F201221B6828
:10E3A000294666209847061EB84620DB2D4FDFF829
:10E3B000C0A029F03F0343F0030363F3070964F3AC
:10E3C0008F194A46394628480EF0BCF838460EF0F8
:10E3D000E7FDD8F800300246D3F82CB039460023C8
:10E3E0003046D847002806DA3046FFF7CBFCFFF767
:10E3F00013FD0020B8E7D8F800300222D3F824B08B
:10E4000001A900233046D8470028F4D00222514603
:10E4100001A80EF0F0FD0028E6D14FF47A70013526
:10E420000DF012F9042D07F11F07C2D13046FFF796
:10E43000A9FC03234FF0000163F3070164F38F117C
:10E440000A480EF072F8D2E730ED010068ED0100E5
:10E4500041FA0100140102201C030220D001022015
:10E4600048FD01000BFC010008F9010060FD0100FE
:10E470007BFA010010B5064C236833B1FFF788FC26
:10E48000206801F05BFB00232360002010BD00BF6B
:10E49000D00102200B6801330B60014B1B68184749
:10E4A000F4C302202DE9F04F85B00E9C9B46012C51
:10E4B000B8BF0124012B0CBF30232023164682460F
:10E4C000884601250A270022DFF86C900293B6FBEC
:10E4D000F9F301930AB9B1451CD8019B414603F1F8
:10E4E0003000D04701220135019B013F09FB136633
:10E4F0000A23012FB9FBF3F9E9D1414606F13000B7
:10E50000D047BBF1030F02D1641B002C0EDC05B019
:10E51000BDE8F08FBC42E7DBBBF1020FE4D8414617
:10E52000029803920135D047039ADDE74146202047
:10E53000D047013CE9E700BF00CA9A3B014B186095
:10E54000704700BFF4C30220002307B502460193C1
:10E5500003480B4601A90DF045FE03B05DF804FB2E
:10E5600095E400004FF02002EFF3118382F311884D
:10E57000BFF36F8F0121044AC2F8401583F311885D
:10E58000BFF36F8F002070470090034030B500222A
:10E5900087B00D490D4810F01CF900240E230C4DD6
:10E5A000CDE90243CDE90444CDE90044094B4FF4E1
:10E5B0004072094928460DF031F90849284610F003
:10E5C00071F8204607B030BDE1E50000E801022007
:10E5D00030020220C1E80000A06902208EFD010087
:10E5E00001480DF05FB800BF70C5022008B500F00B
:10E5F000DFF909480DF076FF042334220748084963
:10E600000FF035FE074B084A4FF400401A60BDE892
:10E61000084000F0FDBB00BFE00102201402022010
:10E62000E0A90220F8C3022023C50100F8B50025A7
:10E630000C4BD3E8EF7FC3E8E25F002AF9D10A4C24
:10E640000A4E361B3611B54200DBF8BD63685B79B4
:10E650002BB12368DB6813B1394620469847013552
:10E660001034F0E7D8010220B8ED0100C8ED010038
:10E67000224B2DE9F0411B78054603B940B34FF01A
:10E680002003EFF3118483F31188BFF36F8F1C48CD
:10E690000DF038FF074684F31188BFF36F8F58B130
:10E6A000184BD3E8EF2F013AC3E8E12F0029F8D146
:10E6B0008DB138460EF013F825B9134B1B680BB11A
:10E6C000FFF7B4FF0E480DF01BFF051C18BF012516
:10E6D0002846BDE8F081A8460C4C0D4E361B36117D
:10E6E000B045E6DA63685B7923B1236839461B6875
:10E6F0002046984708F101081034F1E73064022001
:10E70000E0010220D4010220D8010220B8ED01006E
:10E71000C8ED0100244B70B51B6841810546984740
:10E72000224CE860D4E8EF3F0133C4E8E23F002A1E
:10E73000F8D14FF02003EFF3118683F31188BFF374
:10E740006F8F1B4829460DF0D1FE86F31188BFF369
:10E750006F8F184B1A787AB14FF02003EFF31184C2
:10E7600083F31188BFF36F8F0020FFF781FF84F3DD
:10E770001188BFF36F8F70BD0F49236809680029A6
:10E78000F9D0012B06D1BDE870404FF47A710B48E7
:10E790000DF05EBA0A2BEED1084810F026F8BDE85D
:10E7A000704007480CF07EBFF8C30220D40102205D
:10E7B000E001022031640220E0020220E801022090
:10E7C00070C50220044BD3E8EF2F0132C3E8E12FDC
:10E7D0000029F8D1704700BFD8010220044A054B38
:10E7E0009B1AB1EBD30F34BF52F8310000207047B1
:10E7F00030ED0100B8ED0100094B4268C31A1B114E
:10E80000013310B5137101224368064C5A71227806
:10E81000196012B904480CF045FF0123237010BDA4
:10E82000B8ED01003064022070C5022070B50F4BB6
:10E83000D3E8EF5F6A1CC3E8E12F0029F8D12DB9B6
:10E840000B4C0C4E361B3611B54200DB70BD237BE2
:10E8500043B123685B6903B1984704220021204635
:10E86000FFF7CAFF01351034EEE700BFDC010220DC
:10E87000B8ED0100C8ED0100F8B50E4F3D7875B94F
:10E88000FFF7D4FF0C4C0D4E361B3611B54207DB9B
:10E890000020FFF7EDFE0028FAD101233B70F8BD00
:10E8A00063685B791BB1236820461B699847013573
:10E8B0001034EBE731640220B8ED0100C8ED01002F
:10E8C00008B5FFF7B3FF0CF0E7FE0B4B186030B153
:10E8D0000A4B1B68092B02DD09480CF0E3FE084CCB
:10E8E0000020FFF7C5FE0028FAD14FF0FF31204687
:10E8F0000CF004FFF4E700BFE0020220D401022084
:10E9000070C50220144B37B59842044602D3134B0E
:10E9100098421BD3002201A911480CF07FF905464B
:10E92000B8B90122019BD3E8EF1FC3E8E02F00280C
:10E93000F9D1019821462D2204300EF003FB7E23ED
:10E94000019C84F8313084F832500434204603B0FE
:10E9500030BD044CFAE700BF44EA0100F0070200B2
:10E960001402022096FD010048B1054B984205D3E0
:10E97000D03398422CBF0020012070470020704700
:10E98000E0A9022007B504380190D0E8EF3F5A1EF5
:10E99000C0E8E12F0029F8D1012B03D101A90348D8
:10E9A0000CF068F903B05DF804FB00BF140202200C
:10E9B000202302491A4602480FF059BCB0AA02208F
:10E9C000E4020220002337B5094D01930120FFF72F
:10E9D0004FFE0446FFF7F6FE002201A928460CF080
:10E9E0001DF908B1002CF1D1019803B030BD00BF72
:10E9F000E402022007B5002201A9064801920CF0AA
:10EA00000DF910B1FFF7DEFF0190019803B05DF83A
:10EA100004FB00BFE40202207FB5047A457A14F0BB
:10EA2000010401904FEA15150ED0019B1A7A920746
:10EA300004D55B69104C0393039BB3B901A90E483D
:10EA40000CF018F904B070BD002DEED0A54201986D
:10EA5000EBD921460DF026FE0646FFF785FF10B1E3
:10EA60003046FFF78FFF0134F0E71D6803A9204609
:10EA70000CF000F90395DFE7E40202200EB403B5C1
:10EA800003AB53F8042B0146044801930DF0AAFB95
:10EA9000002002B05DF804EB03B07047A5CA010086
:10EAA0002DE9F04F11F0020485B0064690469DF81E
:10EAB000387001F0010901F0080507D011F0440F8A
:10EAC00037D11A463249FFF7D9FF0446B9F1000F92
:10EAD0000AD0304B304953F82720304B3046002ABB
:10EAE00008BF1A46FFF7CAFF3DB12D4B2D4953F819
:10EAF00027203046FFF7C2FF0546B8F1000F44D08B
:10EB0000012303FA07F7284B17F0100F274F18BF00
:10EB10001F46BDF840109DF83C00FFF75FFE3946E8
:10EB200002463046FFF7AAFF2844204405B0BDE85E
:10EB3000F08F1F4A116831B31E4A4FF4616E14689A
:10EB40004FF47A7CB3FBF4F3B3FBF1F4B4FBFEF2C5
:10EB50000EFB124E01FB14340CFB04F4B4FBF1FB6E
:10EB60004FF03C0A01FB1B440CFB04F4BEFBFAF320
:10EB7000B4FBF1F1CDE901B10AFB13E100910E49BB
:10EB8000FFF77CFFA1E708469FE7084FC1E700BFFA
:10EB9000FBFD010064EE010008F90100EDFD01003C
:10EBA00078EE010020FE0100F7FD0100F2FD0100FA
:10EBB000000302200403022004FE010038B50C46C5
:10EBC000E107054603D5084A0849FFF757FFE20663
:10EBD00008D4A3062846BDE838404CBF044905497F
:10EBE000FFF74CBF38BD00BFEDFD010008F9010083
:10EBF00000F70100FFF601002DE9F0479846089B59
:10EC00000446DD060E46174605D499064CBF294931
:10EC10002949FFF733FF0025DFF8A49045452ADB9B
:10EC20000025DFF8A080DFF8A090DFF894A0BD42B7
:10EC30002ED2725D49462046FFF720FF0135102D88
:10EC40001FD11E492046FFF719FF0025DFF870800D
:10EC5000DFF87890AF4227D9725D4946A2F12003D0
:10EC60005F2B28BF2E222046FFF708FF0135102D0D
:10EC700013D1BDE8F08749462046FFF7FFFE013576
:10EC8000CCE76A07D3D151462046FFF7F7FECEE71F
:10EC900041462046FFF7F2FED0E76B07DAD1414646
:10ECA0002046FFF7EBFED5E741462046FFF7E6FE9C
:10ECB000DCE700BF00F70100FFF60100BEFD010028
:10ECC000BCFD0100BAFD0100B4FD0100C0FD010062
:10ECD0002DE9F0478B7A174613F007048AB00546F2
:10ECE0000E460A7A1CD0D2434989C3F3C20389096C
:10ECF0000291CDE9004302F00102F3683946FFF7C3
:10ED0000CFFE8146337ADA070CD4294630460DF01F
:10ED10005FFD4CB3224639462846FFF74FFF23E0FC
:10ED2000A146EFE734BB2746EB6806AA0693A9681D
:10ED30003B4630460DF038FD069A6B681A603AB1D2
:10ED4000AB68134413F8014CA4F10A035C425C4124
:10ED500028460DF09AFE069B1F44002BE4D11CB1FF
:10ED600014492846FFF78AFE28460DF08EFE0AB0A9
:10ED7000BDE8F08730460DF0C1FC0F490246284639
:10ED8000FFF77CFE4FF000084FF0100A05AA43463B
:10ED900006A93046CDF814A00DF006FD059A002A0C
:10EDA000B8D04B46009706A92846FFF725FF059BDC
:10EDB0009844EBE7C3FD010008F9010073B5D0E901
:10EDC00000435D6842F20F738B4228BF0B460D4A29
:10EDD0000521684601F084FD06462B4620460B229D
:10EDE00009490DF0E8FC2B463246694620460DF0F5
:10EDF000E2FC2B461B22054920460DF0DCFC02B04C
:10EE000070BD00BF97FC0100E1FD0100C5FD0100E0
:10EE100001230021074A10B5074C1360A04204D813
:10EE200001B11360054B186010BD40085B00012163
:10EE3000F4E700BF0403022040420F000003022059
:10EE400001480DF022BE00BFA4EE01000148FFF70B
:10EE5000B5BF00BFA4EE010008B503480BF050FD9C
:10EE6000024B586008BD00BF7FF401001003022070
:10EE700010B50C4608460DF009FC214604480F2247
:10EE8000FFF726FF2046BDE810400DF028BC00BF6C
:10EE9000A4EE0100014B1860704700BF1C03022064
:10EEA0000A2838B50446074D04D1286843680D2167
:10EEB0005B68984728684368E1B25B6898472046DA
:10EEC00038BD00BF2003022010B5044C204601F0DD
:10EED00001FD2046BDE81040FFF730BBA1EE000069
:10EEE00008B504480BF00CFD034B1860FFF7ECFF6E
:10EEF000002008BD7FF401002003022010B500228D
:10EF000004460121052000F0C9F9052000F0B6F9FA
:10EF10000222054B0020C3F818250322C3F804235E
:10EF2000A368C3E9000010BD0050004008B5104BB5
:10EF30001A6862B10F4AD2F80423D10707D500221C
:10EF40000D481A6083685B7A0BB90DF05FFE0B4BBE
:10EF50001A685AB1074AD2F80423920706D500224C
:10EF600007481A60BDE808400DF050BE08BD00BF5C
:10EF7000005100400050004084C402200451004071
:10EF800090C4022000220D4BC3F840214FF0200214
:10EF9000EFF3118182F31188BFF36F8F084AD3F822
:10EFA00004051368C01A20F07F400344136081F306
:10EFB0001188BFF36F8F0CF0B3BD00BF005001404C
:10EFC0003C03022070B518480BF09AFC48B3436824
:10EFD00000211B689847012600244FF480334FF42A
:10EFE0000012124D3146C5F80845C5F84065C5F810
:10EFF00004330F4B15201C600E4BC3F880212246B2
:10F0000000F04CF9152000F039F920460A4B1E603B
:10F010002E60D5F80435334423F07F43C5F84035DE
:10F0200070BD4FF0FF30FBE75DFE01000050014076
:10F030004051014000E100E00850014070B5254C0E
:10F04000B0F1FF3F08BF20464FF02003EFF31185DA
:10F0500083F31188BFF36F8F1F4BD3F804151F4B39
:10F060001B68CA1A22F07F4612021AD4421E22EAF4
:10F07000E272A242A8BF2246701C1044A04294BF74
:10F0800018181819411A21F07F41134A20F07F43C4
:10F090000229C2F8403506D985F31188BFF36F8F76
:10F0A00070BD0022E8E7D2F804350D49C31A23F0F9
:10F0B0007F435C1E8C4205D94FF40012094BC3F804
:10F0C0000021E9E7012B02BF023020F07F40C2F8A7
:10F0D0004005E1E7FEFFFF00005001403C03022035
:10F0E000FEFF7F0000E100E04FF02002EFF311830C
:10F0F00082F31188BFF36F8F064AD2F80405064ADF
:10F100001268801A20F07F4083F31188BFF36F8F5D
:10F11000704700BF005001403C0302204FF0200325
:10F12000EFF3118283F31188BFF36F8F0649074B0A
:10F130000868D3F8043582F31188BFF36F8F1B1A68
:10F1400023F07F43184470473C03022000500140E5
:10F1500007488168406A884203D006494FF08052D0
:10F160000A6001B50CF008FBBDE8014070470000E3
:10F17000004D022004ED00E0094A0A49936809683D
:10F180005866996608494B6843F080534B600023EA
:10F1900083F31188BFF36F8F9368986E704700BF39
:10F1A000004D0220E4F2010000ED00E029498A68E8
:10F1B0004FF028001044EFF3098C80E8F01F4FF067
:10F1C00010001EEA000F04D0D2F8AC0020F00400BA
:10F1D00007E002F16C0080EC108AD2F8AC0050F02D
:10F1E0000400C2F8AC00202080F31188BFF36F8FB9
:10F1F000194F4FF000664A6A8A603E60506E0023E5
:10F20000536680F31188D2F8AC0010F0040F05D1DA
:10F210000023E1EE103A5EF0100E05E02EF0100E25
:10F2200002F16C0090EC108AEFF3148323F00403D6
:10F2300083F31488BFF36F8F04B510460DF012FDF1
:10F24000BDE8044002F1280090E8F01F8CF3098823
:10F2500070470000004D022004ED00E01EF0040F96
:10F260000CBFEFF30880EFF30980816911F8021CED
:10F270000229FFD001B50DF0EAFC01BD43B2002B1D
:10F2800008DB012200F01F0002FA00F0024A5B09CD
:10F2900042F82300704700BF00E100E043B2002BBA
:10F2A00001F10101A8BF03F160434FEA4111B8BF6A
:10F2B000054BC9B2ABBF03F5614300F00F0083F803
:10F2C00000131954704700BF14ED00E008B572B682
:10F2D000044B186A18B100221A620EF0C6FF62B61B
:10F2E00008BD00BF004D022073B51E460A9B0546AF
:10F2F0000093099B8C180FF0DAF90C4AA4F1200353
:10F3000023F0070322F001029A61069A1E605A60F8
:10F31000079A9A60089ADA604FF08072DA61AB64FB
:10F3200000236B66C5F8AC3002B070BD7BC1010034
:10F330002DE9F0411F4606460C4690460023E1EEBB
:10F34000103AEFF3148525F0040585F31488BFF314
:10F350006F8F00F01BFC0A4B444430469E6024F043
:10F3600007040DF07FFC384684F30988002163B65A
:10F3700081F31188BFF36F8F002200230CF0FDFE94
:10F38000004D0220014910220A60704710ED00E094
:10F39000404080F3118830BF704700BFEFF3088012
:10F3A000EFF30981724601B500F0B0FA01BD00BF6C
:10F3B0002DE9F04781468AB00C4600297AD0012217
:10F3C0004FF000033F4D62F307033F4A3F48AD1A39
:10F3D000C5F3C90565F38F13ADF80030D1E90123FA
:10F3E00009680DF0DBF801224FF0000362F3070318
:10F3F00065F38F13ADF80030D4E90423E168344895
:10F400000DF0CCF801234FF0000263F3070265F31F
:10F410008F12E1692F480DF095F827460026DFF896
:10F42000C0A0D7ED087AFCEEE77ACDED037AD7EDF0
:10F43000097AFCEEE77ACDED057AD7ED0A7AFCEE93
:10F44000E77ACDED077AD7ED0B7A0822FCEEE77A62
:10F4500028F03F0343F0010363F30708731C049390
:10F46000B31C069365F38F18F31C029608930DEBFB
:10F470000201434650460436CDED097A0DF0A9F855
:10F48000102E07F11007CCD101234FF0000263F3D7
:10F49000070265F38F12216E0F480DF053F84FF0FD
:10F4A0000002012363F3070265F38F12A1690B4881
:10F4B0000DF048F8214648460BF04EFA0AB0BDE878
:10F4C000F08700BF90ED010030ED010089FE0100E2
:10F4D000B8FE0100E7FE010039FF010048FF01000E
:10F4E000F6FE010030BFFFF7FDBF00BF114A08B5AF
:10F4F000114B22F07F029A60BFF34F8FBFF36F8FE3
:10F50000D3F8882042F4A002C3F888204FF040428C
:10F51000C3F83422BFF34F8FBFF36F8F0023E1EEA8
:10F52000103A0BF099FA0BF0A1FA00F0FBFA0BF08D
:10F53000D5FA00BF00C0000000ED00E001B572B6D2
:10F540000B4A106A00281EBF002111620EF08DFECA
:10F5500062B6EFF30580A0F110004FEAC000054944
:10F56000014409C99847BDE8014003490847000024
:10F57000004D022044EA010051F100000CF0B0FF00
:10F58000202080F3118808484FF40061401880F370
:10F590000988EFF314800221084380F31488BFF335
:10F5A0006F8FFFF7A3FF0000E081022001234FF0DF
:10F5B000000110B563F307013A4C3B4B3B48E41A9A
:10F5C000C4F3C90464F38F110CF0AFFF384B9B6A8E
:10F5D000990109D54FF00001012363F3070164F39A
:10F5E0008F1134480CF0A1FF314B9B6ADA0109D529
:10F5F0004FF00001012363F3070164F38F112E48DC
:10F600000CF093FF2A4B9B6ADB0209D54FF00001F7
:10F61000012363F3070164F38F1128480CF085FF81
:10F62000234B9B6A180309D54FF00001012363F3B4
:10F63000070164F38F1122480CF077FF1C4B9B6A83
:10F64000590309D54FF00001012363F3070164F367
:10F650008F111C480CF069FF154B9B6A9A0309D562
:10F660004FF00001012363F3070164F38F11164883
:10F670000CF05BFF0E4B9B6ADB0309D54FF00001DA
:10F68000012363F3070164F38F1110480CF04DFF61
:10F69000074A0020936A6FEA03436FEA13439362B9
:10F6A00010BD00BF90ED010030ED0100D60002005A
:10F6B00000ED00E0EE000200010102001B0102006B
:10F6C000450102006301020088010200A20102005C
:10F6D000F8B501230E464FF00001374C63F30701E4
:10F6E000364B0746E41AC4F3C90464F38F11344857
:10F6F0000CF01BFF334B9B6AD90609D54FF0000174
:10F70000012363F3070164F38F112F480CF00DFF01
:10F710002C4B9B6A1A0709D54FF00001012363F3B4
:10F72000070164F38F1129480CF0FFFE254DAB6AE9
:10F730009B071CD501234FF0000163F3070164F31D
:10F740008F1123480CF0F1FE696BAB6A18060ED5D9
:10F750004FF00002012363F3070264F38F121D4888
:10F760000CF0F0FE1FB1AB6A23F08003AB62154BC7
:10F770009B6ADA0709D54FF00001012363F3070103
:10F7800064F38F1114480CF0D0FE0E4B9B6A9B065D
:10F7900009D54FF00001012363F3070164F38F11D2
:10F7A0000E480CF0C2FE0020064B9A6A9A6A42F09C
:10F7B000FF029A623070F8BD90ED010030ED01005B
:10F7C000FEFF010000ED00E014000200470002000F
:10F7D0005A0002007200020088000200A700020026
:10F7E000F8B501230E464FF000013D4C63F30701CD
:10F7F0003C4B0746E41AC4F3C90464F38F113A483A
:10F800000CF093FE394B9B6AD90409D54FF00001E7
:10F81000012363F3070164F38F1135480CF085FE73
:10F82000324B9B6A1A0509D54FF00001012363F39F
:10F83000070164F38F112F480CF077FE2B4DAB6A54
:10F840009B051CD501234FF0000163F3070164F30E
:10F850008F1129480CF069FEA96BAB6A18040ED50C
:10F860004FF00002012363F3070264F38F12234871
:10F870000CF068FE1FB1AB6A23F40043AB621B4B74
:10F880009B6A590509D54FF00001012363F3070175
:10F8900064F38F111A480CF048FE144B9A6AD20593
:10F8A00011D54FF000010123164863F3070164F3FB
:10F8B0008F110CF03AFE00200C4A936A43F47F4308
:10F8C00093623070F8BD9B6A9B04F4D54FF0000141
:10F8D000012363F3070164F38F110B48E9E700BFCD
:10F8E00090ED010030ED010076FF010000ED00E039
:10F8F0008CFF0100470002009DFF0100B6FF0100E0
:10F90000CBFF0100E6FF0100A70002002DE9F04354
:10F91000694B9DB0D3F80480064689461446C8F367
:10F920000807002585F31188BFF36F8F02F07F432E
:10F93000B3F17F4F28D1D00726D4510603D4220734
:10F9400012D4012512E001234FF000015B4A63F35A
:10F9500007015B4B5B489B1ADB0863F38F110CF0CC
:10F96000E4FD14F0040501D04E46002500238DF877
:10F970000730FB1E092B00F28280DFE803F0076BE3
:10F980006F4E8080808080732E46EFE701234FF01A
:10F9900000014FF0000863F30701494F474B4A4805
:10F9A000FF1AC7F3C90767F38F110CF0BEFD424B76
:10F9B0008DF80780DC6A14F002040BD04FF00001D0
:10F9C0000123424863F3070167F38F110CF0ADFD8B
:10F9D000002425E0DB6A5B0022D501234FF0000103
:10F9E00063F3070167F38F1139480CF09EFD394B23
:10F9F0001B782BB101200DF10701FFF769FE0EE026
:10FA0000354B1B782BB101200DF10701FFF7E8FE04
:10FA100005E0324B1B889BB213B1FFF7C7FD0446CC
:10FA20009DF807309BB96822314602A80DF0F3FA21
:10FA3000099B002D3AD0C3F3080222B96FEA532381
:10FA40006FEA4323099302A92046FFF7B1FC1DB0DA
:10FA5000BDE8F0830DF107010020CEE70DF10701AD
:10FA60000020D3E701234FF00001144A63F307019C
:10FA7000134B1B489B1ADB0863F38F11A6E7012287
:10FA80004FF000030E4962F307030C4A1548891A28
:10FA9000C90818F4F87F61F38F13A7F11002124917
:10FAA00018BF014611480CF061FD91E723F4FF7384
:10FAB00023F00103C6E700BF00ED00E030ED0100D8
:10FAC00090ED0100CD010200F001020007020200EA
:10FAD0002802020028ED00E029ED00E02AED00E018
:10FAE00047020200920202007D020200AB02020005
:10FAF000024A536943F010035361704700ED00E080
:10FB0000BFF34F8F0549064BCA6802F4E062134306
:10FB1000CB60BFF34F8F00BFFDE700BF00ED00E0FB
:10FB20000400FA05002320210348C2180133412BA9
:10FB300082F80013F9D1704700E100E038B50546BE
:10FB40004FF02003EFF3118483F31188BFF36F8F1D
:10FB50000EF0CEFD0B4B9B68AB420DD10A4B5A68A1
:10FB6000C2F3080222B90BF007FE2046FFF704FBA0
:10FB70005A6842F080525A602046BDE838400EF084
:10FB8000D1BC00BF004D022000ED00E010B50E4BCF
:10FB900088B002930D4B0E4C03930E4B0E4A049308
:10FBA00002AB019301A82346012100F051F9002383
:10FBB00007930A4B0121E41A05A80593069400F067
:10FBC00051F908B010BD00BF000002200000000085
:10FBD00000000420060001000000022000000220B6
:10FBE00010B50B680C7A23F01F0204F01F031A43B0
:10FBF000CB68640923F01F03044943EA440343F03C
:10FC000001038860CA600B6110BD00BF90ED00E089
:10FC100008B54FF000020123074963F30702074BC1
:10FC20005B1ADB08014663F38F1205480CF08AFC6F
:10FC30006FF0150008BD00BF30ED010080ED010040
:10FC4000080302002DE9F04F0746884614460026B7
:10FC50005E4D85B046453DDA57F82630D3F804901E
:10FC6000B9F1000F59D0B9F11F0F22D919F01F0FA8
:10FC70001FD1D3F800A01AF01F0F1AD150460DF073
:10FC80001CF8834609EB0A0001380DF016F883458D
:10FC900024D06FF0150B01234FF000024C4963F3A1
:10FCA00007024C4B4C485B1ADB0863F38F12594632
:10FCB0000CE001234FF00002454963F30702454B76
:10FCC00046485B1A3146DB0863F38F120CF03AFCAE
:10FCD0006FF01504204605B0BDE8F08F1BF1160F3C
:10FCE000D9D0631E5B45D6DBC5F808B0E868C5F817
:10FCF00008B02B6957F8261020F01F0043F01F0AA8
:10FD0000D1E900321A44984202F1FF3918D1CA45AC
:10FD100005D15FFA8BF00CF0ADFF01369AE7C5F81C
:10FD200008B0EB6822F01F0203F01F031A43EA60D9
:10FD3000E0B20CF09FFF10F1160FC9D0441CECE7A5
:10FD4000C5F808B02A69013B23F01F0302F01F0227
:10FD50001343CA45E0B22B61EBD00CF08BFF10F1DE
:10FD6000160FB5D0C5F808B0EA689DF808300AF15A
:10FD7000FF3A62F304038DF808302B699DF80820E0
:10FD80005B0863F3471257F826308DF80820D3E953
:10FD900000130B44009323F01F03441C5344A3EBB4
:10FDA0000903E4B223F01F030F2C039308D9204664
:10FDB000FFF72EFF10F1160F044689D00134ACE78F
:10FDC00069462046FFF70CFFF8E700BF90ED00E022
:10FDD00030ED010080ED0100E5020200C2020200E8
:10FDE0000522034B5A60BFF34F8FBFF36F8F7047ED
:10FDF00090ED00E0BFF35F8F0022014B5A60704727
:10FE000090ED00E070B50E4D2E68102E15D8002430
:10FE1000FFF7F0FF0B4B0C4A1A63A64205D10B4BC0
:10FE20001E70FFF7DDFF002070BD6968204601EB02
:10FE30000411FFF7D5FE0134EFE74FF0FF30F3E791
:10FE40003CEE010090ED00E0AAFF44003364022084
:10FE500010B5034C2278FFF7F5FE207010BD00BFEF
:10FE6000336402202DE9F74F254C8A46804600274F
:10FE7000A1464FF0140B234D57451ADAD8F8043039
:10FE80000193002B36D0D8F80010084600910CF0F2
:10FE900014FFDDE900130646581801380CF00DFF79
:10FEA0008642194A08D014235F436FF0150349F8BE
:10FEB000073003B0BDE8F08F16F1160F2660F8D0BA
:10FEC0001378B342F5DD0BFB0793AE60AE60E868D4
:10FED000197B60F3040119732969187B490861F3E0
:10FEE00047101873EB6823F01F0363602B6923F03E
:10FEF0001F0323610137143408F10C08BCE700BF6D
:10FF00004003022090ED00E03364022070B50C4BFA
:10FF10000E461C780546234600210A4A0F2B0BDDAE
:10FF2000094951F8040BFFF75BFE2246314628468B
:10FF3000BDE87040FFF786BE936011610133EDE7C5
:10FF40003364022090ED00E0400302202DE9F04FE1
:10FF50001E460023A3B0CDE902010193134613F816
:10FF6000010B089358B1252800F085800399029B66
:10FF70009847013040F01A844FF0FF330193019805
:10FF800023B0BDE8F08F232C6CD061D8002CF6D0C4
:10FF9000202C0E9B08BF01230E93CDF82080DDF8A6
:10FFA0002080B74818F8014B21460CF0DEFF0028EE
:10FFB000E9D12A2C66D156F8043B98F80040002B72
:10FFC0000993BFBF5B42099301230F93089B03F181
:10FFD00002082E2C7BD198F800302A2B74D156F8C9
:10FFE000045B08F1010818F8014B2146A548274693
:10FFF0000CF0BBFF00286DD0434613F8014B682F6F
:020000021000EC
:10000000089307D1682C05D1482708F1020398F816
:1000100001400893672C7BD8652C80F03581472CF4
:100020005CD8452C80F03081002CA8D0252C00F025
:10003000B98303992520029B984701309CD00399EE
:100040002046029B9847013096D0019B0233AFE3D4
:100050002D2C0AD0302C0BD02B2C0B9B08BF01234E
:100060000B939AE74FF0010B97E701230F9394E767
:1000700001230A9391E700230A930E930B930F93A6
:100080009B468CE7A4F13003092B0990A1D80A22E2
:10009000DDF8208018F8014BA4F13003092B98D823
:1000A000099B02FB0344A4F13003CDE90883EFE789
:1000B000904601FB0535303D424612F8013BA3F165
:1000C00030000928F4D98EE700250A21F4E74FF023
:1000D000FF358AE7CDF8208007469BE7632C59D08F
:1000E00020D8582CA5D16F2C06F10409316840F0B6
:1000F0002883BBF1000F00F0178330238DF86C309C
:10010000002940F01B838DF86D100F46012625E075
:10011000702C00F0F58227D86E2C00F0DE82E2D839
:10012000692C86D1376806F10409002F80F29A8085
:100130002D2379428DF86C300DF16D0630460A2280
:100140000CF0B5FF0B9B06441BA8361A002B40F0A1
:1001500032830E9B002B40F02E83FF0F002D21DAFF
:100160000025AB46A846E1E0752CBCD0782CBAD06F
:10017000732C7FF45EAFB146002DB8BF6FF0004521
:10018000002659F8043BB54240F0C9822E460025AE
:100190002F4608E00027B1463D46012659F8043BAA
:1001A0008DF86C301BABEA190025AB46A846921BB4
:1001B00022EAE27291190691099990190C1A0F9985
:1001C00011B9002C00F3148303EB070A534540F0E8
:1001D000138312F1FF3280F01D83F61BB8F1000F7C
:1001E00011D09AF800000AEB0607A0F13003092BA2
:1001F000A7EB0A0640F21983474617F1FF3780F054
:100200001D83A6EB0806BBF1000F15D00AEB06070D
:100210001AF8018B03994046029B984701303FF43E
:10022000ABAEB8F12E0FA7EB0A06F1D15F46002F57
:1002300000F30D83A6EB0B0695B19AF800000AEBCC
:100240000607A0F13003092BA7EB0A0640F20A8348
:100250002E2800F007832F46002F00F30C83761B17
:1002600056441BE30B9B23B12B238DF86C3039468E
:1002700062E70E9B0BB12023F7E739461BAE5DE723
:100280002E0302003403020006F1070929F00709D2
:10029000F9E80223D80240EA5250D60220F000408A
:1002A000002AC3F30A510496059073F10003DDE9B7
:1002B0000467CDE9166741DA2D238DF86C300DF116
:1002C0006D0740F2FF73994253D1DDE904120A43EE
:1002D000A4F1410407F1030340D1192C38D8492275
:1002E0003A704E227A7046220025AB46A8461BAED5
:1002F000BA70FD709B1B0B9A002A40F0EC810E9A9D
:10030000002A40F0E8819DF86C70A7F12D02574259
:10031000574105EB0806334403EB0B0622AB3B4485
:1003200013F81C3C303B092B00F249820A9B002B3E
:1003300000F04882099B9A1B1BAB39E70B9B0BB162
:100340002B23BAE70E9B0BB12023B6E71BAFB8E710
:1003500069223A706E227A706622C5E7192C99BF1D
:100360004E2241216E22612194BF3A703A70797019
:10037000BAE7049B05980B431093CB170343462C15
:10038000119308BF6624DDE91023134300F01181A7
:10039000002900F09B800026179BA1F2FE3843F055
:1003A0000043179318F1020FC0F2A480B8F1000FB8
:1003B00000F3DD8016A808F101080CF09AFEB8F1F0
:1003C000040FF7D1002D04F0DF03B8BF0625472B3B
:1003D00040F0F880F11C02DBAE4240F3ED80023CBD
:1003E000E4B2002D00F0F480013DBBF1000F40F0BD
:1003F000EF80002DD4BF4FF0000A4FF0010A662CA9
:1004000040F0E88016EB050840F1EC8010236624EC
:100410004FF00008159300224FF00063CDE9182338
:1004200018F1FF3880F0E080169B189A19999B18F4
:10043000179A41EB0202CDE9163202F07043129393
:1004400000231393DDE91223134306D016A80CF002
:1004500061FE16A80CF04DFE0136662C40F0E180DE
:10046000002E40F3C880159B002B07DD15A916A8A8
:100470000CF07BFE013E07F8010BF4D1B0463B4681
:100480000026BBF1000F01D1002D15DD2E2203F84F
:10049000012B002E00F0C080002D40F3BF80C6F17C
:1004A000000BAB45A8BFAB46A5EB0B05002D03DD4C
:1004B000159A002A00F3A680BAF1000F40F0C6801A
:1004C00000221BAE1A709B1B15E70139049BDB1839
:1004D0000493059B5B410593DDE90423002A73F136
:1004E0000003F2DADDE90423CDE9162353E716A869
:1004F0000CF0FFFDDDE916EC00230021CDF830C043
:100500000D93BC48DDE90C23994208BF904208F1E5
:100510000108ECD30520AEFB0023CDE90623079BA1
:10052000013E00FB0C334FF0000C0793DDE906237E
:10053000CDE91623002100236FF0004207988B427B
:1005400008BF824208D2BCF1000F3FF42BAFDDE9B7
:100550000623CDE9162325E7069B08F1FF38DB18B3
:100560000693079B4FF0010C5B410793E2E716A847
:100570000CF0D0FDDDE916AE4FF0000C08F1FF38AD
:100580000136002300216FF00040994208BF7045FA
:1005900006D2BCF1000F3FF409AFCDE916AE05E776
:1005A0001AEB0A0A4EEB0E0E08F1FF384FF0010C61
:1005B000E7E70026B046FDE6AD1BBBF1000F04D116
:1005C000662416E74FF0000A19E74FF0000A19E712
:1005D0004FF0000A05F10108102398451593A8BFB4
:1005E000984618E76624F7E718A80CF093FD18A8BA
:1005F0000CF07FFD14E73B4630224FF0000803F873
:10060000012B3EE715A916A806930CF0AEFD069B3C
:10061000013D03F8010B49E7B34647E74FF0000BF4
:100620004AE715A916A80CF0A0FD3028387018BFAD
:1006300006F1FF36BBF1000F38D1002D36DC7B1CF4
:10064000BAF1000F44D04FF0000BD8461A4613F809
:10065000011D3029FAD02E2918BF1346002504F0B9
:10066000DF02452A7FF42CAF002EB4BF2D222B22AF
:100670001946B8BF7642632E01F8024B5A7008DD66
:10068000642096FBF0F200FB126602F13004D91CE4
:100690009C700A2096FBF0F20B4600FB126602F1FA
:1006A0003004303603F8024B4E7009E72E22BB1C93
:1006B0007A70002DC4DD159A002AC1DD15A916A88F
:1006C00006930CF052FD069B013D03F8010BF0E789
:1006D000D346D046C3E701271BE6B146682F59F839
:1006E000043B05D001DC482F07D0019A1A6001E0D5
:1006F000019A1A804E46089A30E4019A1A70F9E776
:10070000B14647F63003102259F8041B0DF16E0074
:10071000ADF86C300CF0CBFC0227861C1EE59A5D10
:10072000002A4AD001362EE51BAC082220460CF0E8
:10073000BEFC1BAEA61B064400270FE50DF16D04A1
:10074000F3E7752C05D10A221BA80CF0B0FC064675
:10075000F2E7BBF1000F12D047F630030DF16E083F
:10076000ADF86C30102240460CF0A1FC582C09D09A
:100770001BAEA8EB060606444FEA4B07EEE40DF16C
:100780006C08EFE71BAA12F8013BA3F161011929DC
:1007900003D8203B02F8013CF5E712F8013C002B9E
:1007A000F1D1E5E703992046FFF7E1BB019B013357
:1007B0000193B1469EE70127D0E41546E8E41BAB60
:1007C0000022F7E41BAB0A9AF4E4CDE9093203995D
:1007D000029B20209847DDE9093201303FF4CCAB81
:1007E0001AF1FF3AF1D20199214401915446EBE408
:1007F000A246F5E73233333313F8010B039909931B
:10080000029B0A929847DDE9093201307FF4DEACA1
:10081000FFF7B2BB03993020029B09929847013041
:10082000099A7FF4D6ACFFF7A7BBDDE90231984700
:1008300001303FF4A1AB1AF8010FD6E40399302040
:10084000029B984701307FF4D8ACFFF795BB039922
:100850003020029B9847013007F1FF377FF4E7AC67
:10086000FFF78ABBDDE90231984701303FF484ABE2
:100870001AF8010FE5E403993020029B98470130F4
:1008800007F1FF377FF4E8ACFFF776BB03991AF85E
:10089000010B029B984701303FF46EABA6EB0A03B5
:1008A000002BF3DC019B069A002C134401937FF785
:1008B00021AF254606E003992020029B984701308E
:1008C0003FF45AAB15F1FF35F5D2019B2344019358
:1008D00010E700BF014B1860704700BFFCC3022047
:1008E0000CB41FB509B90DF10300CDE9020107AB46
:1008F000069A02A905480193FFF728FB0022029BF4
:100900001A7005B05DF804EB02B070479FD101008A
:100910000EB40FB56FF0004105AB53F8042B0290F5
:100920000391064802A90193FFF710FB0022029BE6
:100930001A7004B05DF804EB03B070479FD101005A
:1009400038B5074C074DAC4200D138BD23681B6851
:100950005B681BB11B680BB1204698472034F2E757
:1009600000C6022020C6022038B5084C084DAC4213
:1009700000D138BD206803210C300CF024FC10B9E4
:1009800020460CF02FFC2034F1E700BF00C6022007
:1009900020C6022000232DE9F04F022889B08146AD
:1009A0008A469046CDE906333CD106AA104604910A
:1009B000194606E00478013101340470CCB2072CEA
:1009C00003D83AF81140002CF4D00133082B00F181
:1009D0000100EDD14FF0FF360127002312F8011B73
:1009E000B94288BF5EB203F10103DBB288BF0F4694
:1009F000082BF3D10393012F4FF03A0308BF4FF0B8
:100A0000FF360293002244461546039B9D4219DBA4
:100A1000444509D00023B9F1010F0CBF04F8013C93
:100A2000237003E0012805D04FF00008404609B0CC
:100A3000BDE8F08F2E2304224FF0FF36CDE90232BD
:100A40000746DFE7039B042B34D11AF8051049B998
:100A50003023204600F8023B029B63700135EDB263
:100A60000446D2E709204FF0000BDFF8D8C001940C
:100A7000B1FBFCFE0CFB1E138345059301DC6145B5
:100A800006D38346019B0EF1300E03F801EB019370
:100A90000A230138BCFBF3FC431C0599E8D14FF055
:100AA000000301990B700B1BDBB20299E0180130B7
:100AB000E154D3E7AE420DD102B916B93A2304F896
:100AC000013B3A23204600F8013B7B1E1D44EDB25A
:100AD0000022C3E712B13A2304F8013B049B33F828
:100AE00015301A0242EA132212B2C2F307235FFA48
:100AF00082FBB3B10F2BD9B20BD900236122204660
:100B00000CF09FFB0123612259460CF09AFB012255
:100B1000A4E75BB2092994BF30335733601C2370BC
:100B2000F0E7BBF10F0F03D9612259462046ECE7ED
:100B300052B2BBF1090F94BF30325732601C2270A1
:100B4000E5E700BF00CA9A3B08B5094B1A786AB9B5
:100B50000121312019700521FEF7A0FB3120FEF79D
:100B60008DFB4FF00042034BC3F80423002008BD67
:100B7000346402200010034070B5036882689B68EB
:100B8000514C187901F01F0343EA40130020D4F8B8
:100B90000453EDB200F5A27654F82660C6F304269D
:100BA000B34270D125FA00F6F6076CD5850005F141
:100BB000804505F54435D5F8106526F00106C5F8E1
:100BC0001065012505FA00F0C4F808033F4D05EB58
:100BD0008305D5F8000220F44030C5F80002906883
:100BE000C84010F001004DD0D068C84010F001009E
:100BF00048D05069C84010F0010050D09069C840FA
:100C0000C00744D41069D269C84022FA01F100F04B
:100C1000010001F00101884214BF012102210025D9
:100C200005F5A27254F8220010F0030031D1AA0099
:100C300002F1804202F54432D2F810651B0203F43F
:100C4000F85326F4473626F4407643EA014105F18D
:100C50004003C2F810659B00D2F810659BB203F107
:100C6000804303F544333143C2F810151860D2F8BD
:100C7000103543F00103C2F81035012303FA05F5DE
:100C8000C4F8045370BD0130082883D19EE70321C6
:100C9000C5E70135082DC3D16FF01200F2E71369E3
:100CA000D269534023FA01F111F0010F14BF4FF440
:100CB00000324FF44032D5F8003223F4403313436E
:100CC000C5F80032DEE700BF001003400025844075
:100CD0002DE9F74F8046856803F47040B0F5804FEA
:100CE0001E4640D009DCB0F5805F3ED0B0F5405FD5
:100CF0003DD090B16FF0150032E0B0F5E04F38D044
:100D000004DCB0F5A04FF5D1032006E0B0F5404F6C
:100D100031D0B0F5504FEDD1072006F44077B7F54C
:100D2000807F2AD0A7F5007463426341012919BF6F
:100D3000D4B2A1464FF01F0900244FF0010B06F07A
:100D4000010C4FEA4C0747EA0C0747EA0020DFF89E
:100D5000A0A040EA830706F00203A1450FD20020BD
:100D600003B0BDE8F08F0220D7E70120D5E70420CB
:100D7000D3E70520D1E70620CFE70323D6E7D8F84D
:100D800000209268117904F01F0242EA4112803279
:100D90004AF82270A9680BFA04F2002B25D01143FF
:100DA000A9606969B0064CBF114391436961A969A3
:100DB00070064CBF11439143A961296970074CBF6C
:100DC000114391432961E96930064CBF0A4321EA86
:100DD0000202EA61214640460193FFF7CDFE00285A
:100DE000BED10134E4B2019BB7E721EA0201D7E7A3
:100DF000002584404F492DE9F0410D68002D60D059
:100E00004D4B00269A681B68DFF838E19F68D2E9ED
:100E100002030340D2E90504204323EA00033868B3
:100E2000D4691269006954404440012023EA040453
:100E300093BB0B60002301201F464049404ED1F870
:100E4000042300FA03FC1CEA020F0DD056F82320FD
:100E500052B103F5A27251F8222046F82370C2F372
:100E6000042200FA02F214430133082BE7D154BBE9
:100E700085B101240025304BDFF8C8C09A681B6893
:100E80009E68D2E902130B40D2E90510014323EA20
:100E900001037BBBBDE8F08103420FD097F804C08B
:100EA00006F01F0242EA4C120EEB8202D2F800C298
:100EB00023EA00032CF4403CC2F800C20136400093
:100EC000B6E72C46B6E71C4FD7F80880D8F80010D4
:100ED0000029CDD00E68D8F80C308A682340134220
:100EE00003D04B68224638469847002EC0D0314682
:100EF0003668F0E71C421AD0307905F01F01D76937
:100F000041EA401110690CEB81017840E84010F093
:100F1000010F14BF4FF400374FF44037D1F80002EF
:100F200023EA040320F440303843C1F800020135BD
:100F30006400AEE77C110340F0C4022000100340BF
:100F40000011034000258440F0B54B79012B29D0D6
:100F5000032B24D110268B79032B20D1CC792CB1F3
:100F6000012C1CD103689B681B79C3B10A7912B1AB
:100F7000022A14D10E2247F6122705680B68AD68C5
:100F8000BB422D6862D029D8B3F5965F61D014D8E2
:100F9000B3F5167F5FD007D8B3F5967F5ED06FF0BC
:100FA000220052E00026D6E7B3F5966F59D0B3F58C
:100FB000166FF4D14FF41D233CE0B3F5615F53D0BD
:100FC00004D8B3F5165FEAD1324B33E0B3F5964F50
:100FD0004CD0B3F5E14FE2D12F4B2BE0B3F5E13F1D
:100FE00046D012D84DF6C027BB4244D005D8B3F541
:100FF000164FD4D14FF41D031CE0B3F5614F3DD023
:10100000B3F5963FCBD1254B14E0B3F5E12F38D0A3
:1010100008D8B3F5613F37D0214FBB42BFD14FF065
:10102000806307E0B3F5612F31D01E4FBB42B6D1CC
:101030004FF08053C5F8243534438368224303C9F5
:10104000C5F86C2583E803000020F0BD4FF40003D1
:10105000F0E7154BEEE74FF41C33EBE74FF4A0330A
:10106000E8E74FF49E23E5E7104BE3E7104BE1E799
:101070004FF0EB73DEE74FF46503DBE74FF46B03F0
:10108000D8E74FF0E863D5E74FF06C73D2E74FF045
:101090007063CFE70050270000C0750000903A0150
:1010A00090D0030040420F0000B0130000F03A005F
:1010B00000A04E002DE9F04101254FF0030E4FF046
:1010C000000C03680A689B6805FA02F71C681F4B4E
:1010D00086689F6002F1800743F827E04F6807F1B8
:1010E000800843F828C0C4F80C25C4F814758F682C
:1010F0007A1C10D0CA68511C0DD002F180019540B5
:101100009D6043F821E007F1800143F821C0C4F855
:101110000825C4F810753146FFF716FFA0B908235B
:10112000C4F8003506F10C03C4F81001C4F83435D6
:101130000123B268C4F8383592682360C4F84425A6
:10114000C4F84805A360E360BDE8F0810025844051
:1011500030B585B06C460546084B0FCB84E80F00D0
:10116000002201210A20FEF799F80A20FEF786F8EE
:1011700021462846FFF79EFF05B030BDC8ED0100AF
:1011800030B585B06C460546084B0FCB84E80F00A0
:10119000002201210820FEF781F80820FEF76EF8F2
:1011A00021462846FFF786FF05B030BDD8ED010087
:1011B000002208B511462A20FEF770F803F00CF95A
:1011C000014B1860002008BD7403022070B50D4B60
:1011D0000D4C1A680A2500262346196881420ED054
:1011E00051B15968511AB142C4BF1C460E46013D67
:1011F00003F10803F1D12346013A18605A601846FA
:1012000070BD00BF7803022084030220684620F0EE
:1012100007018D4619B50D4BD3E8EF2F0132C3E816
:10122000E12F0029F8D107F00BFB094B1C683CB9F2
:10123000FEF74CF8FDF78CFFBDE819408546704776
:10124000201D0AF02FFA2468F1E700BF780302207E
:101250007C0302202DE9F04F884689B00DF0ABFAEF
:10126000D8F800300646002B0F4603D10AF0A0F94B
:101270003C206EE0BCBF4FF0FF33C8F800300122C5
:10128000002102A80DF0FCF90DF1040A4FF0200333
:10129000EFF3118B83F31188BFF36F8F0AF0FCF922
:1012A000FFF794FF334943680A68894693424FF039
:1012B000000308D10193304B5A68002A4CD1C3E98E
:1012C00000AA012300E042608BF31188BFF36F8F07
:1012D000002B3DD0D8F8001002A80AF00FFA4FF00A
:1012E0002003EFF3118B83F31188BFF36F8F00207E
:1012F000214B1A6852B1524539D1019988BB5868BF
:101300001960904200D15960002301930AF0C4F99A
:10131000FFF75CFFD9F8003043608BF31188BFF30F
:101320006F8FD8F80090B9F1FF3F11D00DF043FA5C
:1013300016EB090247EBE973141A63EB0105002C65
:1013400075F10003B8BF0024C8F80040002C8FD00E
:10135000002009B0BDE8F08FC2F800A0C3F804A0D7
:10136000AFE701605968914208BF5860CCE710466A
:101370001268BFE7780302207C0302202D2810B5F5
:1013800004460CD038DC0E2809D011DC082806D021
:1013900009DC022803D0052801D0012819D10CF05E
:1013A000CDF9046010BD0C28F9D057DC0928F5E709
:1013B000282800F0838005DC1828F0D0232852D09C
:1013C0001628EBE72A28EAD051DB2B28E7D02C2877
:1013D00051D001234FF000023A4963F307023A4B20
:1013E0003A485B1ADB0863F38F1221460BF0AAF828
:1013F0000CF0A4F9364B34E03C28D0D015DC33286F
:10140000CDD005DC3028CAD0322838D02F28C5E707
:101410003628C4D001DC3428C0E73828BFD03928AA
:10142000D7D10CF08BF939231BE07D2833D009DCB0
:10143000702828D073282AD06928CAD10CF07EF9E8
:1014400037230EE07F282FD029DB802831D0812858
:10145000BFD10CF073F940F2D47302E00CF06EF9D6
:101460000D2303609EE70CF069F90B23F9E70CF0FC
:1014700065F92923F5E70CF061F92C23F1E70CF06D
:101480005DF93E23EDE70CF059F94323E9E70CF051
:1014900055F94423E5E70CF051F94823E1E70CF056
:1014A0004DF940F2D173DCE70CF048F940F2D27309
:1014B000D7E70CF043F940F2D373D2E70CF03EF9D2
:1014C0002423CEE730ED010050ED01006803020057
:1014D000ADBAADBA4FF08052014BC3F8002170474E
:1014E00000E100E04FF08052014BC3F880217047CB
:1014F00000E100E04FF00052014BC3F800217047BB
:1015000000E100E04FF00052014BC3F8802170472A
:1015100000E100E000B589B01822002102A80BF01C
:10152000A4FD012301934FF0FF33CDE903334FF0C6
:10153000805306930723002201A904488DF81C302C
:1015400009F0EEF809B05DF804FB00BF68EF010098
:1015500008B50023084AC2E90033084AD2E8EF1F61
:10156000C2E8E03F0028F9D10CF013F9FFF7D2FFF1
:10157000BDE808400CF002B97C0302207803022089
:101580002DE9F04107460D460C46DFF8248014B9DA
:101590002046BDE8F081FF2C264628BFFF26291BE8
:1015A00032463944404609F04FF9A41BEFE700BF2B
:1015B00068EF0100B0F58D7F3CD004DC012844D0F9
:1015C0004FF0FF30704740F20223984252D040F271
:1015D00003239842F4D101391329F1D801A353F818
:1015E00021F000BF811601004516010065160100BB
:1015F00057160100691601006D16010071160100F1
:10160000C1150100C1150100C1150100C11501007E
:10161000C1150100C1150100C1150100C11501006E
:10162000C1150100C1150100C1150100C11501005E
:101630005B16010001390529C2D8DFE801F0031566
:1016400017190C21022313600AE0142905D0192967
:1016500005D00429B4D10423F5E71423F3E711607E
:10166000002070470323EEE70523ECE70623EAE7B3
:101670000723E8E70229E5D00329F3D001299FD108
:101680000123E0E70122034B1860036802489A76C1
:10169000FDF700BCD403022070EF010007B50190F4
:1016A00018B1D0F8983A0C30984701A9024809F0CF
:1016B000E1FA03B05DF804FB38C5022008B5094B18
:1016C00040F201221B6800211B6866209847064BE8
:1016D0001860013004D109F039F90068404208BDB2
:1016E0000020FCE71C030220D803022030B587B09D
:1016F000FFF7E4FF1A4D1B4B0446ED1AC5F3C9056D
:101700004FF0000258B10123014663F30702164867
:1017100065F38F120AF016FF204607B030BD042390
:1017200063F3070265F38F12104911480AF00AFFAC
:101730000A234FF48062CDE902430E490E4BCDE9F6
:101740000444CDE900440D480AF068F84FF0000267
:10175000042363F3070265F38F1204490848D9E7AD
:1017600038ED010030ED0100EE030200DB03020062
:1017700010040200A06C022085170100EC03022077
:101780002D04020004234FF000022DE9F04F63F313
:1017900007029B499B4B87B05B1AC3F3C90B6BF3E2
:1017A0008F12994999480AF0CDFE4FF0FF3203A9F4
:1017B000974809F033FA0023964C0399226896481B
:1017C000C1F8983AD2F824A00C3104938DF8143063
:1017D00040F68C220068D047011E5BDA25F03F03FB
:1017E00043F0010363F307056BF38F158B482A461B
:1017F0000AF0A8FE236888485B68006898470028BC
:1018000031D1FFF75BFF70BB26F03F0343F00303CA
:1018100063F307066BF38F16314681480AF085FEA5
:1018200001238DF8143009F091F803685B420493AA
:101830000399D1F8983A002B40F0B88003A9744876
:1018400009F018FA774B9B68002BAED19DF8142055
:10185000042AAAD0744A13604FF0FF3204A97348D7
:1018600009F0D2FAA1E701234FF0000463F3070463
:101870006BF38F1409F06AF8224601686C480AF08D
:1018800061FE644B644A1B6810685B68984707B048
:10189000BDE8F08F40F68C23994204D003980144B0
:1018A000CB7A019373B127F03F0343F0010363F355
:1018B00007076BF38F1739465E480AF036FE6FF064
:1018C0003603B4E728F03F0343F004030C3063F31E
:1018D0000708FDF717F86BF38F18024643464A498D
:1018E00055480AF043FE0423DDF80CA053490AF1E1
:1018F0000C0420468DF814300BF0FDFA034620B19D
:10190000019A8DF8142004920EE04D4920460BF008
:10191000F2FA019028B302220AF117008DF8142080
:101920000BF0D4F9019B049000211A1B01321970AD
:101930009DF81430042B4FD0DFF824A1DAF80030E2
:10194000002B52D03F4C206800284ED093421DD926
:1019500003990C310BF05FFB0023CAF800302360C1
:1019600066E7394920460BF0C6FA019008B1032218
:10197000D2E7364920460BF0BEFA0346002839D09C
:1019800001228DF814206FF00702BCE729F03F0315
:1019900043F0010363F307096BF38F1949462C48A1
:1019A0000AF0C3FD6FF023030493D5E7294B00220F
:1019B0004B600B460A6043F8082FD3E8EF2F42F044
:1019C0000100C3E8E40F002CF7D1D3073FF53AAF8D
:1019D00021480CF0EEFC35E7002A3FF429AF1F4BFD
:1019E0001A68039BC3F8982A22E7002A3FF420AF25
:1019F0000D4BF5E720460BF0D3FA421C98E700BFE9
:101A000030ED010038ED0100A10302002B050200BA
:101A100038C502201C030220D8030220480502001A
:101A20006A05020088C50220DC030220C8C5022026
:101A30007E050200B5050200FF0502007BFA0100E9
:101A400011060200E40302201D060200B6F80100A0
:101A5000290602009D160100404D0220E0030220ED
:101A6000E80302202DE9F34180460E464FF00005C1
:101A70000BF096FA04232F4C63F307052E4B074611
:101A80004046E41AFCF73EFFC4F3C90464F38F1523
:101A90002B46024629492A480AF068FD294B2A4864
:101AA0001B683A46DD6A414600230068A847431C8C
:101AB00005461DD101234FF0000563F3070564F3CC
:101AC0008F1508F043FF2A46016820480AF03AFDC6
:101AD00008F03CFF03685B42009301238DF804305B
