:10C00000509002202D0101003B44020045FF00003A
:10C0100045FF000045FF000045FF000045FF000010
:10C0200045FF000045FF000045FF000005FE000041
:10C0300045FF000045FF000055FD00002B440200B5
:10C04000ED000100ED000100ED000100ED00010038
:10C05000ED000100ED000100ED000100ED00010028
:10C06000ED000100ED000100ED000100ED00010018
:10C07000ED000100ED000100ED000100ED00010008
:10C08000ED000100ED000100ED000100ED000100F8
:10C09000ED000100ED000100ED000100ED000100E8
:10C0A000ED000100ED000100ED000100ED000100D8
:10C0B000A51E0100C94E0200ED000100ED000100C7
:10C0C000ED000100ED000100ED000100ED000100B8
:10C0D000ED000100ED000100ED000100ED000100A8
:10C0E000ED000100ED000100E74E0200ED0001004F
:10C0F000ED000100ED000100ED000100ED00010088
:10C10000ED000100ED000100ED000100ED00010077
:10C11000ED000100ED000100ED000100ED00010067
:10C12000ED000100ED000100ED000100ED00010057
:10C13000ED000100ED000100ED000100ED00010047
:10C14000ED00010000000000000000000000000001
:10C1500000000000000000000000000000000000DF
:10C1600000000000000000000000000000000000CF
:10C1700000000000000000000000000000000000BF
:10C1800000000000000000000000000000000000AF
:10C19000000000000000000000000000000000009F
:10C1A000000000000000000000000000000000008F
:10C1B000000000000000000000000000000000007F
:10C1C000000000000000000000000000000000006F
:10C1D000000000000000000000000000000000005F
:10C1E000000000000000000000000000000000004F
:10C1F000000000000000000000000000000000003F
:10C20000DEE61E284CBBCE8F015B0000CCCE0100C9
:10C210000100000000C0000060BE0220C92701002C
:10C2200053B94AB9002908BF00281CBF4FF0FF319D
:10C230004FF0FF3000F07CB9ADF1080C6DE904CE91
:10C2400000F006F8DDF804E0DDE9022304B07047F1
:10C250002DE9F0478C46089D04468A46002B4AD1BA
:10C260008A42174662D9B2FA82F64EB1C6F1200E62
:10C2700001FA06F3B740B44020FA0EFE4EEA030A74
:10C280004FEA1748230C1FFA87F9BAFBF8FE08FBA0
:10C290001EAA0EFB09F243EA0A439A420BD9FB1885
:10C2A0000EF1FF312CBF012000209A4202D9002854
:10C2B00000F02A818E469A1AA3B2B2FBF8F008FB6E
:10C2C000102200FB09F943EA0244A14507D93C19B1
:10C2D00000F1FF3302D2A14500F210811846A4EB11
:10C2E000090440EA0E4000211DB1F4400023C5E9D5
:10C2F0000043BDE8F0878B4208D9002D00F0F280A2
:10C300000021C5E9000C0846BDE8F087B3FA83F1C7
:10C3100000294ED16345C0F0E880824240F2E580BA
:10C320000846002DE5D0C5E9004AE2E702B9FFDE84
:10C33000B2FA82F6002E40F099808B1A4FEA124E24
:10C340001FFA82F801214FEA144CB3FBFEF20EFBF8
:10C35000123008FB02F94CEA004CE14508D917EB12
:10C360000C0C02F1FF3302D2E14500F2CA801A46FA
:10C37000ACEB090CA3B2BCFBFEF00EFB10CC08FB2F
:10C3800000F843EA0C44A0450ED93C1900F1FF33F4
:10C390002CBF4FF0010C4FF0000CA04503D9BCF1AD
:10C3A000000F00F0A8801846A4EB080440EA024001
:10C3B0009AE7C1F120048B4002FA01FE0CFA01F663
:10C3C000E24020FA04F72CFA04FC00FA01F81343C7
:10C3D0003E431F0C320C1FFA83F9BCFBF7F007FB3E
:10C3E00010CC00FB09FA42EA0C4CE24508D913EBE9
:10C3F0000C0C00F1FF3202D2E24500F289801046B7
:10C40000ACEB0A0CB6B2BCFBF7FA07FB1ACC0AFB82
:10C4100009F946EA0C42914506D99A180AF1FF3605
:10C4200001D291457AD8B2464AEA0040A2EB09020D
:10C43000A0FB0E67BA42B446B94602D307D1B04555
:10C4400005D2B6EB0E0C67EB030301389946002DBD
:10C450006BD0B8EB0C0362EB090202FA04F4CB4098
:10C46000CA4000211C43C5E9004242E7B740C6F17B
:10C47000200201FA06F3B44021FA02FC4FEA174EFB
:10C4800020FA02F21FFA87F8BCFBFEF11A430EFBFA
:10C4900011CC01FB08F0130C43EA0C4C604507D9A2
:10C4A00017EB0C0C01F1FF3301D2604533D819466C
:10C4B000ACEB000C92B2BCFBFEF00EFB10CC00FB10
:10C4C00008F342EA0C4C634507D917EB0C0C00F15A
:10C4D000FF3201D2634525D81046ACEB030340EA96
:10C4E000014130E72946284603E7841A6CEB030331
:10C4F00001209A4615E702383C4455E702383C448F
:10C50000EDE6023ABC4433E7AEF1020E3B44D2E61C
:10C5100002389C4474E70239BC44C9E7AAF1020A14
:10C520001A4481E70238BC44D7E72946E1E600BF58
:10C53000704700BF70B491E87800B2E802105B1851
:10C5400054EB0C04B2E802104D4156EB0C0680E8A7
:10C5500078008041013070BC704770B491E8780079
:10C56000B2E802105B1A74EB0C04B2E802108D41C1
:10C5700076EB0C0680E878008041404270BC704742
:10C580002DE9F00791E8F807B2E802105B1854EBC8
:10C590000C04B2E802104D4156EB0C06B2E8021052
:10C5A0004F4158EB0C08B2E8021059EB01095AEB65
:10C5B0000C0A80E8F80780410130BDE8F0077047B9
:10C5C0002DE9F00791E8F807B2E802105B1A74EB66
:10C5D0000C04B2E802108D4176EB0C06B2E80210B2
:10C5E0008F4178EB0C08B2E8021079EB01097AEB85
:10C5F0000C0A80E8F80780414042BDE8F007704728
:10C600002DE9F007524290E87800B1E88007174022
:10C61000DB1918EA020854EB080419EA020955EB81
:10C6200009051AEA020A56EB0A0678C090E8780073
:10C63000B1E8800717407B4118EA020854EB080470
:10C6400019EA020955EB09051AEA020A56EB0A062D
:10C6500078C080410130BDE8F00770472DE9F00750
:10C66000524290E87800B1E880071740DB1B18EAD7
:10C67000020874EB080419EA020975EB09051AEAC5
:10C68000020A76EB0A0678C090E87800B1E88007E5
:10C690001740BB4118EA020874EB080419EA0209C2
:10C6A00075EB09051AEA020A76EB0A0678C08041A2
:10C6B0004042BDE8F007704790E8300091E8C000C4
:10C6C000A31B1340E41AF618EB1B1340ED1AFF18D6
:10C6D00030C0C0C17047F0B55242FFF7EDFFFFF721
:10C6E000EBFFFFF7E9FFFFF7E7FFF0BD2DE9F007EC
:10C6F0003AC91668A1FB069A4FF0000CE3FB06ACA2
:10C700004FF00007E4FB06C74FF00008E5FB067892
:10C7100040F8049B56684FF00009E1FB06A91CEBAA
:10C72000090C4FF0000949EB0909E3FB06C917EBB7
:10C7300009074FF0000949EB0909E4FB067918EBFA
:10C7400009084FF0000949EB0909E5FB068940F8A3
:10C7500004AB96684FF0000AE1FB06CA17EB0A0724
:10C760004FF0000A4AEB0A0AE3FB067A18EB0A08C4
:10C770004FF0000A4AEB0A0AE4FB068A19EB0A09A1
:10C780004FF0000A4AEB0A0AE5FB069A40F804CB90
:10C79000D6684FF0000CE1FB067C18EB0C084FF05C
:10C7A000000C4CEB0C0CE3FB068C19EB0C094FF066
:10C7B000000C4CEB0C0CE4FB069C1AEB0C0A4FF043
:10C7C000000C4CEB0C0CE5FB06AC80E88017BDE8D8
:10C7D000F00770470A462DE9F04F41EC140A92EC3D
:10C7E000080A1EC910EE100AA1FB00784FF00009DC
:10C7F000E2FB00894FF0000AE3FB009A4FF0000BC8
:10C80000E4FB00AB12EE100A4FF0000CE1FB00BCA1
:10C810004FF0000EE2FB00CE4FF00005E3FB00E519
:10C820004FF00006E4FB005605EE107A10EE900A79
:10C830004FF00007E1FB008719EB07094FF00007F5
:10C8400047EB0707E2FB00971AEB070A4FF00007D8
:10C8500047EB0707E3FB00A71BEB070B4FF00007B5
:10C8600047EB0707E4FB00B712EE900A1CEB070C3E
:10C870004FF0000747EB0707E1FB00C71EEB070E71
:10C880004FF0000747EB0707E2FB00E7ED194FF019
:10C89000000747EB0707E3FB0057F6194FF00007C7
:10C8A00047EB0707E4FB006705EE908A11EE100ADC
:10C8B0004FF00008E1FB00981AEB080A4FF000085F
:10C8C00048EB0808E2FB00A81BEB080B4FF0000840
:10C8D00048EB0808E3FB00B81CEB080C4FF000081D
:10C8E00048EB0808E4FB00C813EE100A1EEB080E24
:10C8F0004FF0000848EB0808E1FB00E815EB0805DD
:10C900004FF0000848EB0808E2FB005816EB080659
:10C910004FF0000848EB0808E3FB006817EB080736
:10C920004FF0000848EB0808E4FB007806EE109A88
:10C9300011EE900A4FF00009E1FB00A91BEB090B77
:10C940004FF0000949EB0909E2FB00B91CEB090CA7
:10C950004FF0000949EB0909E3FB00C91EEB090E82
:10C960004FF0000949EB0909E4FB00E913EE900AD6
:10C9700015EB09054FF0000949EB0909E1FB0059E6
:10C9800016EB09064FF0000949EB0909E2FB0069C3
:10C9900017EB09074FF0000949EB0909E3FB0079A0
:10C9A00018EB09084FF0000949EB0909E4FB00897D
:10C9B00006EE90AA14EE901A01F110011EC910EEB5
:10C9C000100A4FF0000AE1FB00BA1CEB0A0C4FF012
:10C9D000000A4AEB0A0AE2FB00CA1EEB0A0E4FF0FD
:10C9E000000A4AEB0A0AE3FB00EA15EB0A054FF0DE
:10C9F000000A4AEB0A0AE4FB005A12EE100A16EB90
:10CA00000A064FF0000A4AEB0A0AE1FB006A17EB3C
:10CA10000A074FF0000A4AEB0A0AE2FB007A18EB19
:10CA20000A084FF0000A4AEB0A0AE3FB008A19EBF6
:10CA30000A094FF0000A4AEB0A0AE4FB009A07EEE3
:10CA400010BA10EE900A4FF0000BE1FB00CB1EEB8A
:10CA50000B0E4FF0000B4BEB0B0BE2FB00EB15EB5F
:10CA60000B054FF0000B4BEB0B0BE3FB005B16EBE6
:10CA70000B064FF0000B4BEB0B0BE4FB006B12EEC5
:10CA8000900A17EB0B074FF0000B4BEB0B0BE1FB86
:10CA9000007B18EB0B084FF0000B4BEB0B0BE2FB92
:10CAA000008B19EB0B094FF0000B4BEB0B0BE3FB6F
:10CAB000009B1AEB0B0A4FF0000B4BEB0B0BE4FB4C
:10CAC00000AB07EE90CA11EE100A4FF0000CE1FB2C
:10CAD00000EC15EB0C054FF0000C4CEB0C0CE2FBE2
:10CAE000005C16EB0C064FF0000C4CEB0C0CE3FB5F
:10CAF000006C17EB0C074FF0000C4CEB0C0CE4FB3C
:10CB0000007C13EE100A18EB0C084FF0000C4CEBF5
:10CB10000C0CE1FB008C19EB0C094FF0000C4CEBFA
:10CB20000C0CE2FB009C1AEB0C0A4FF0000C4CEBD7
:10CB30000C0CE3FB00AC1BEB0C0B4FF0000C4CEBB4
:10CB40000C0CE4FB00BC08EE10EA11EE900A4FF06A
:10CB5000000EE1FB005E16EB0E064FF0000E4EEBF2
:10CB60000E0EE2FB006E17EB0E074FF0000E4EEBC1
:10CB70000E0EE3FB007E18EB0E084FF0000E4EEB9E
:10CB80000E0EE4FB008E13EE900A19EB0E094FF027
:10CB9000000E4EEB0E0EE1FB009E1AEB0E0A4FF05C
:10CBA000000E4EEB0E0EE2FB00AE1BEB0E0B4FF039
:10CBB000000E4EEB0E0EE3FB00BE1CEB0E0C4FF016
:10CBC000000E4EEB0E0EE4FB00CE14EE100AA0ECAD
:10CBD000075A80E8E05FBDE8F08F00BF30B44FF047
:10CBE000000310F8014B11F8015B013A84EA0504D7
:10CBF00043EA0403F5D1A3F101034FEAD37030BC3B
:10CC000070474FF0000310F8012B013943EA02038B
:10CC1000F9D1A3F101034FEAD370704711F8013B3A
:10CC200000F8013B013AF9D17047002200F8012BCE
:10CC30000139FBD1704700BF2DE9F00791E8F807F3
:10CC4000B2E802105B1854EB0C04B2E802104D413C
:10CC500056EB0C06B2E802104F4158EB0C08B2E854
:10CC6000021059EB01095AEB0C0A8941B3F1FF3369
:10CC700074F1FF3475F1FF3576F1000677F10007A6
:10CC800078F1000879F101097AF1FF3A51F10001D8
:10CC90004A425B184C414D4156F1000657F10007DE
:10CCA00058F1000859EB02095AEB010A80E8F8072D
:10CCB000BDE8F00770472DE9F00791E8F807B2E802
:10CCC00002105B1A74EB0C04B2E802108D4176EB93
:10CCD0000C06B2E802108F4178EB0C08B2E80210A3
:10CCE00079EB01097AEB0C0A89414A425B184C4105
:10CCF0004D4156F1000657F1000758F1000859EB75
:10CD000002095AEB010A80E8F807BDE8F00770470E
:10CD10000A462DE9F04F41EC140A92EC080A1EC9AC
:10CD200010EE100AA1FB00784FF00009E2FB008929
:10CD30004FF0000AE3FB009A4FF0000BE4FB00AB5E
:10CD400012EE100A4FF0000CE1FB00BC4FF0000E99
:10CD5000E2FB00CE4FF00005E3FB00E54FF00006DC
:10CD6000E4FB005605EE107A10EE900A4FF0000733
:10CD7000E1FB008719EB07094FF0000747EB0707B6
:10CD8000E2FB00971AEB070A4FF0000747EB070793
:10CD9000E3FB00A71BEB070B4FF0000747EB070770
:10CDA000E4FB00B712EE900A1CEB070C4FF00007F3
:10CDB00047EB0707E1FB00C71EEB070E4FF000072C
:10CDC00047EB0707E2FB00E7ED194FF0000747EBE1
:10CDD0000707E3FB0057F6194FF0000747EB07077B
:10CDE000E4FB006705EE908A11EE100A4FF0000890
:10CDF000E1FB00981AEB080A4FF0000848EB08081E
:10CE0000E2FB00A81BEB080B4FF0000848EB0808FA
:10CE1000E3FB00B81CEB080C4FF0000848EB0808D7
:10CE2000E4FB00C813EE100A1EEB080E4FF00008DA
:10CE300048EB0808E1FB00E815EB08054FF0000897
:10CE400048EB0808E2FB005816EB08064FF0000814
:10CE500048EB0808E3FB006817EB08074FF00008F1
:10CE600048EB0808E4FB007806EE109A11EE900AF1
:10CE70004FF00009E1FB00A91BEB090B4FF0000983
:10CE800049EB0909E2FB00B91CEB090C4FF0000962
:10CE900049EB0909E3FB00C91EEB090E4FF000093D
:10CEA00049EB0909E4FB00E913EE900A15EB0905CB
:10CEB0004FF0000949EB0909E1FB005916EB09069F
:10CEC0004FF0000949EB0909E2FB006917EB09077C
:10CED0004FF0000949EB0909E3FB007918EB090859
:10CEE0004FF0000949EB0909E4FB008906EE90AA1E
:10CEF00014EE901A01F110011EC910EE100A4FF045
:10CF0000000AE1FB00BA1CEB0A0C4FF0000A4AEBE6
:10CF10000A0AE2FB00CA1EEB0A0E4FF0000A4AEBB7
:10CF20000A0AE3FB00EA15EB0A054FF0000A4AEB98
:10CF30000A0AE4FB005A12EE100A16EB0A064FF03A
:10CF4000000A4AEB0A0AE1FB006A17EB0A074FF0F6
:10CF5000000A4AEB0A0AE2FB007A18EB0A084FF0D3
:10CF6000000A4AEB0A0AE3FB008A19EB0A094FF0B0
:10CF7000000A4AEB0A0AE4FB009A07EE10BA10EE28
:10CF8000900A4FF0000BE1FB00CB1EEB0B0E4FF0B5
:10CF9000000B4BEB0B0BE2FB00EB15EB0B054FF023
:10CFA000000B4BEB0B0BE3FB005B16EB0B064FF0A0
:10CFB000000B4BEB0B0BE4FB006B12EE900A17EB34
:10CFC0000B074FF0000B4BEB0B0BE1FB007B18EB5F
:10CFD0000B084FF0000B4BEB0B0BE2FB008B19EB3C
:10CFE0000B094FF0000B4BEB0B0BE3FB009B1AEB19
:10CFF0000B0A4FF0000B4BEB0B0BE4FB00AB07EE07
:10D0000090CA11EE100A4FF0000CE1FB00EC15EB9A
:10D010000C054FF0000C4CEB0C0CE2FB005C16EB2B
:10D020000C064FF0000C4CEB0C0CE3FB006C17EB08
:10D030000C074FF0000C4CEB0C0CE4FB007C13EEE7
:10D04000100A18EB0C084FF0000C4CEB0C0CE1FB39
:10D05000008C19EB0C094FF0000C4CEB0C0CE2FBB4
:10D06000009C1AEB0C0A4FF0000C4CEB0C0CE3FB91
:10D0700000AC1BEB0C0B4FF0000C4CEB0C0CE4FB6E
:10D0800000BC08EE10EA11EE900A4FF0000EE1FB32
:10D09000005E16EB0E064FF0000E4EEB0E0EE2FB9E
:10D0A000006E17EB0E074FF0000E4EEB0E0EE3FB7B
:10D0B000007E18EB0E084FF0000E4EEB0E0EE4FB58
:10D0C000008E13EE900A19EB0E094FF0000E4EEB96
:10D0D0000E0EE1FB009E1AEB0E0A4FF0000E4EEB17
:10D0E0000E0EE2FB00AE1BEB0E0B4FF0000E4EEBF4
:10D0F0000E0EE3FB00BE1CEB0E0C4FF0000E4EEBD1
:10D100000E0EE4FB00CE53EC172A18EE104A12EB79
:10D110000A0253EB0B0354EB0C0455EB0E050020F5
:10D1200040F1000012EB0B0253EB0C0354EB0E0426
:10D1300055EB0E0546410020474158EB000859EBDE
:10D140000A0940F10000B2EB0E0273F1000374F122
:10D15000000475EB0A0576EB0B0677EB0C0778EB12
:10D160000A0879EB0C0960F10000B5EB0B0576EBD2
:10D170000C0677EB0E0778EB0B0879EB0E0960F1E4
:10D1800000005FEAE07C7FEA0C0CDCF1000EB2EB01
:10D190000C0273EB0C0374EB0C0475F1000576F1D3
:10D1A000000677F1000778EB0E0879EB0C0960F1C7
:10D1B00000005FEAE07CDCF1000E12EB0C0253EBA6
:10D1C0000C0354EB0C0455F1000556F1000657F121
:10D1D000000758EB0E0859EB0C0940F100005FEA1C
:10D1E000E07CDCF1000E12EB0C0253EB0C0354EB71
:10D1F0000C0455F1000556F1000657F1000758EBF5
:10D200000E0859EB0C095BEC15AA51EC160A1AEB47
:10D21000060A5BEB070B50EB080051EB09015FF0CE
:10D22000000C4CF1000C1AEB070A5BEB080B50EBFF
:10D23000090051EB090152EB0C025FF0000C53EBBB
:10D240000C0354EB0C0475414CF1000CBAEB090AC9
:10D250007BF1000B70F10000B141BA4173EB0803A0
:10D26000B44175EB08056CF1000CC91B72EB0802A8
:10D2700073EB0903BC4175EB09056CF1000C5FEA27
:10D28000EC787FEA0808D8F10009BAEB080A7BEBD2
:10D29000080B70EB080071F1000172F1000273F1EC
:10D2A000000374EB090475EB08056CF1000C5FEAF0
:10D2B000EC78D8F100091AEB080A5BEB080B50EB8D
:10D2C000080051F1000152F1000253F1000354EB48
:10D2D000090455EB08054CF1000C5FEAEC78D8F135
:10D2E00000091AEB080A5BEB080B50EB080051F140
:10D2F000000152F1000253F1000354EB090455EB15
:10D30000080514EE107AA7E8000C87E83F00BDE896
:10D31000F08F00BF01234FF00002074963F30202C0
:10D32000064B6FF3C5025B1ADB08014663F38F12ED
:10D33000034816F0F3BC00BF2C6402002C6402000A
:10D34000D878020038B54FF000010323194C63F37D
:10D350000201194B6FF3C501E41AC4F3C90464F365
:10D360008F11164816F0CDFC00F09AF9054670B101
:10D370004FF00002012363F302026FF3C50201467E
:10D380000F4864F38F12BDE8384016F0C7BC08217F
:10D390000C4818F0C1F9014650B14FF000020123CA
:10D3A00063F3020265F3C50264F38F120648EAE7ED
:10D3B00038BD00BF2C6402002C640200F578020026
:10D3C00006790200E00002202179020070B50446CF
:10D3D000054E4518AC4200D170BD306814F8011BF1
:10D3E00043685B689847F5E7FC00022040F68B2213
:10D3F00070B53A4D00262B68394C934228BF13462E
:10D4000086B00A2237492046E65417F0A0F920B921
:10D4100010213548FFF7DAFF0BE00A223349204696
:10D4200017F095F90028F3D02978204601F096F8F6
:10D4300048B905212E48FFF7C9FF2E4B186816F092
:10D4400095F806B070BD233002D008212A48F2E7D3
:10D450002978204601F0C2FC0028EAD02330F4D11C
:10D4600020460DF1070340F68C22244905F044FCC8
:10D47000041E12DA01254FF000022149214B65F309
:10D4800002025B1ADB0866F3C50263F38F122146C2
:10D490001D4816F043FC8DF807509DF80730032B0C
:10D4A000CBD801A252F823F0B9D400004BD400002D
:10D4B000C5D40000D5D40000104817F033F9014658
:10D4C0000E48A7E72246114902A804F06FF8411C54
:10D4D00002A8B0E722460E49F6E700BFE8000220A6
:10D4E000225E0220427902004D7902006279020038
:10D4F0005D790200FC0002206D790200AE68022016
:10D500002C6402003C640200757902009C790200E0
:10D51000A77902002DE9F04F074685B043685B6CA0
:10D5200003B198477B685B6B9BB13846984780B1E5
:10D530004D4D4E4B4E4EED1ADFF860B1C5F3C905A7
:10D540007B689B692BB101220DF10F01384698478A
:10D5500010B905B0BDE8F08F32689DF80F10541C6B
:10D560002229346019D07F2901D008291BD102B1AA
:10D57000013A022C38BF022400203E4B023C985452
:10D5800034609BF80030002BDAD13B4B1B78032B27
:10D590005CD8DFE803F02D2D4B539BF8003083F06F
:10D5A00001038BF8003040F68C239C420ED90122F7
:10D5B00062F302086FF3C50865F38F1842462F48DF
:10D5C000019316F0ABFB019B3360B9E76CB9012303
:10D5D00063F3020964F3C50965F38F194A462146CE
:10D5E000274816F09BFB3460AAE7224B9954C8E702
:10D5F000244AD35C8B42A3D1234B18684368DB6A6F
:10D6000003B198472149D1E8EF3F43F00102C1E857
:10D61000E02F0028F7D1DB0703D408391C4818F0A5
:10D620001CFA1C4B32681A600023CDE7114B1A44D8
:10D6300012F8013C002B83D00A29DCE70D4B1A4479
:10D6400012F8013C0D2B7FF47BAFF5E7012262F36A
:10D65000020A6FF3C50A65F38F1A524619460E483F
:10D6600016F05CFB6CE700BF3C6402002C64020017
:10D67000EC000220225E02203B730220B2790200FD
:10D68000D2790200EB7A0200FC000220F8000220AE
:10D690003C5D0220E8000220F07902003A7302208B
:10D6A000F7B503224D4B4E4900201A7004F082FE5C
:10D6B0004C4D4D4B0446ED1AC5F3C90578B14FF0FA
:10D6C0000002012363F302026FF3C502014665F312
:10D6D0008F12464816F022FB204603B0F0BD4448A6
:10D6E00014F018FA434E306010B3434C306843686E
:10D6F0009B68002B4BD098470146002847D0012358
:10D7000063F302076FF3C50765F38F173A462046A8
:10D7100016F004FB306843689B692BB101220DF1C0
:10D72000070198470028F5D10A2015F0BFF8DDE77A
:10D7300001264FF0000266F3020264F3C50265F3AE
:10D740008F122B492D4816F0E9FA4FF000026FF0C6
:10D75000150166F3020264F3C502294865F38F12CE
:10D7600016F0DCFA6FF00D04B6E7264801F056FB20
:10D7700004460028B0D04FF00002012363F30202F8
:10D7800066F3C502014665F38F121F48E8E7326869
:10D79000536823B19B6C13B11C4910469847002471
:10D7A0001B4B1C4A1C60C3E90124306815F0DEFEE7
:10D7B00007211948FFF70AFE124800F0FDFE064651
:10D7C0000028D2D04FF00002012363F3020264F379
:10D7D000C502014665F38F121048C1E73B73022072
:10D7E0008B3502003C6402002C6402000D7A0200BA
:10D7F0002B7A0200FC000220627A0200327A0200D8
:10D80000427A020077350200C27A020015D5000084
:10D81000F0000220EDD30000977A02009F7A020008
:10D82000014B1B685B6818471403022070B51A4C43
:10D830000646206800282CDDFFF7F2FF051E18DAE7
:10D8400002234FF00005154A63F30205144B6FF3F2
:10D85000C5059B1ADB0863F38F1514F081F9016885
:10D860002A4649420F4816F059FA14F079F905682A
:10D870006D424FF0FF332360002332460A490B48C4
:10D880002371637103F092FEA36808489847284605
:10D8900070BD0025FBE700BF000102202C640200E0
:10D8A0009C640200EE7A0200017B02003C730220BD
:10D8B0002DE9F0411446804601258EB0254F2022E7
:10D8C0000E4606A8002116F08EFF3B68CDE90754EE
:10D8D00006AA5C6B002101AB4046A047044698B104
:10D8E0004FF000021C491D4B65F302025B1A6FF3F7
:10D8F000C502DB08014663F38F12194816F00EFAD1
:10D9000020460EB0BDE8F081019B8BB94FF00001BD
:10D91000114A124B65F302019B1A60F3C501DB0843
:10D9200063F38F110F4816F0ECF96FF00104E7E78D
:10D930005B690D495B6876BA4B600D804E801023A1
:10D9400002AA0431284603F07BFE3B6801989B6BDA
:10D950009847D5E7140302202C6402009C6402005F
:10D960007D7D02009A7D0200005E022070B5802459
:10D97000435CA4B03D2B00EB0102019404D06FF096
:10D980001504204624B070BD53783F2BF7D0444A8D
:10D99000002117F099FE041EF3DB414817F09AFFAF
:10D9A0000228ECD901AB04AA01213D4817F06FFF12
:10D9B000041EE6DB0026019B24AA134402210DF17C
:10D9C0000202374803F8806C17F04FFF041ED8DBC3
:10D9D00004A8BDF8024016F0A5FEC1B204A815F0D7
:10D9E000E2FD012578B94FF000012E4A2E4B65F378
:10D9F00002019B1A60F3C501DB0863F38F112B480A
:10DA000016F07FF9BBE7230243EA1423ADF8085070
:10DA1000ADF80A3003AA04A9284616F0F4FF04461C
:10DA2000A0B14FF000041F4A1F4B65F302049B1A7C
:10DA300066F3C504DB0863F38F1414F091F80168F2
:10DA4000224649421A4816F069F998E70822194B0C
:10DA500019481B680DEB0201DB6800689847002835
:10DA60008FDA4FF000060F4A0F4B65F302069B1A40
:10DA700064F3C506DB0863F38F1614F071F80168D0
:10DA8000324649420D4816F049F914F069F8006829
:10DA90004042FFF7CBFE14F063F80468644270E77D
:10DAA000E00002202C6402009C640200B17B0200B2
:10DAB000C27B02001403022000010220D37B02007B
:10DAC0004FF410722DE9F043394DADF5137D0192FD
:10DAD0006A794418AAB901234FF0000163F30201E7
:10DAE00062F3C501334B344A34489B1ADB0863F3B5
:10DAF0008F1116F006F96FF015000DF5137DBDE8D6
:10DB0000F083435C3D2BF6D163783F2BF3D02C4A56
:10DB1000002117F0D9FD0028EFDB294817F0DAFEC5
:10DB20000128E8D902AE01AB32460121244817F0A2
:10DB3000AEFE0028E1DB0024019B3046F45416F0D1
:10DB4000F1FD0746DFF88880A74225D9D8F80030D4
:10DB50003A1BD3F82C90311900232868C8470028B5
:10DB600024DA13F0FDFF00684FF000064042FFF793
:10DB70005DFE0223104A63F302060E4B6FF3C506E7
:10DB80009B1ADB0863F38F1613F0EAFF0168324635
:10DB900049420C4816F0C2F822460B490B4803F0E4
:10DBA00005FD0A48AB6898470020A6E70444CBE788
:10DBB000000102209C6402002C640200677C0200C9
:10DBC000E00002207D7C02008F7C02003C7302207A
:10DBD0001403022008B50123064A49BA1380518074
:10DBE00001460432184616F00EFF002818BF6FF0E9
:10DBF000150008BD005E022038B504460D4616F03B
:10DC000091FDC1B2204615F0CEFCC0B12946204698
:10DC1000FFF7E0FF044680B101234FF000020B49FB
:10DC200063F302020A4B6FF3C5025B1ADB0801467D
:10DC300063F38F12074816F071F8204638BD0222B0
:10DC400029462046FFF734FEE4E700BF2C640200BB
:10DC50009C640200C27B02002DE9F3470446104693
:10DC60000D46174616F05EFD294606462046FFF78C
:10DC7000C3FF00283EDB0024214DDFF89C80DFF845
:10DC80009C90A64209D822461E491F4803F08EFCEC
:10DC90001D48AB68984700202CE00822CDE900928F
:10DCA000D8F80030321BD3F830A039190023286887
:10DCB000D047002821DC01234FF00004134A63F30E
:10DCC0000204134B6FF3C5049B1ADB0863F38F1434
:10DCD00013F046FF0168224649420E4816F01EF82E
:10DCE00013F03EFF00684042FFF7A0FD13F038FF3D
:10DCF0000068404202B0BDE8F0870444C1E700BFBD
:10DD0000000102209F7B02003C7302202C64020071
:10DD10009C6402008B7B020014030220005E022040
:10DD200070B5354AADF5327D15684418002D14DA0A
:10DD300001234FF00001314A63F30201304B6FF3CE
:10DD4000C5019B1ADB082F4863F38F1115F0D9FF2B
:10DD50006FF015000DF5327D70BD1279112A0ED0CD
:10DD600001234FF00001254A63F30201244B6FF3B6
:10DD7000C5019B1ADB0863F38F112348E6E7435C78
:10DD80003D2BE5D163783F2BE2D0204A002117F0EC
:10DD90009BFC0028DEDB1D4817F09CFD0328D7D92B
:10DDA000802302AC0193224601AB0121174817F0F2
:10DDB0006EFD0028CEDB0026019B0DF10202022140
:10DDC0001248E65417F051FD0028C3DB4FF41073DE
:10DDD00022AD01932A4601AB03210C4817F057FDF1
:10DDE0000028B7DB019B2A46BDF802102046EE54FE
:10DDF000FFF732FFAEE700BF000102202C640200F3
:10DE00009C640200D07C0200E67C0200E00002205C
:10DE1000802330B5A3B00193524B44181D68002DE8
:10DE20001D4614DA01234FF000014F4A63F302014B
:10DE30004E4B6FF3C5019B1ADB0863F38F114C48FF
:10DE400015F05FFF6FF01504204623B030BD425C33
:10DE50003D2A7AD163783F2BF4D0464A002117F04F
:10DE600033FC041EF0DB434817F034FD0228E9D9E7
:10DE700001AB02AA01213F4817F009FD041EE3DBB4
:10DE8000019B22AA13440022022103F8802C394866
:10DE90000DF1020217F0E9FC041ED5DB02A8BDF863
:10DEA000024016F03FFCC1B202A815F07CFBB8B1ED
:10DEB000214602A8FFF78EFE0446B8B101234FF0B9
:10DEC0000002294963F30202284B6FF3C5025B1A73
:10DED000DB08014663F38F12274815F01FFFB3E7F5
:10DEE0000122214602A8FFF7E3FCE5E7234B0822C5
:10DEF0001B6823495B692868984700284FF0010395
:10DF00001EDA4FF00005184A63F30205174B64F35D
:10DF1000C5059B1ADB0863F38F1513F021FE01681A
:10DF20002A464942174815F0F9FE13F019FE006819
:10DF30004042FFF77BFC13F013FE0468644283E762
:10DF40006B711148AB6898477EE73F2A7FF47AAF40
:10DF50005C799A681CB10D489047002474E70C481E
:10DF6000904771E7000102202C6402009C640200CB
:10DF7000D07C0200E0000220C27B020014030220D9
:10DF8000005E0220257C02003A7C0200497C0200EF
:10DF9000587C0200012838B50146244C31D1244B6D
:10DFA00006221B681B68984706232060237122689D
:10DFB000002A31DA01234FF000051E4A63F30205FF
:10DFC0001D4B6FF3C5059B1ADB0863F38F1513F028
:10DFD000C7FD01682A464942184815F09FFE13F014
:10DFE000BFFD026816495242164803F0DFFAA368E3
:10DFF000144898470023237113F0B2FD0068404293
:10E0000038BD0228D3D10A4B11221B6801201B689E
:10E01000984711232060C9E723790B49094803F089
:10E02000C5FA0848A36898470020E9E700010220E4
:10E03000140302202C6402009C640200107B020086
:10E04000017B02003C730220247B020013B5435C79
:10E0500042183D2B5AD153783F2B6CD0374A0021C0
:10E0600017F032FB041E30DB344817F033FC012874
:10E0700061D901AA0121314817F0F7FB041E24DB06
:10E08000BDF80400012829D12C4817F023FC0228F0
:10E0900051D90DF106020221284817F0E6FB041EB3
:10E0A00013DB274B1B68002B12DD02234FF000010E
:10E0B000244A63F30201244B6FF3C5019B1ADB086A
:10E0C000224863F38F1115F01CFE204602B010BDEC
:10E0D0009DF80600FFF75EFF0446F6E70028F4D13E
:10E0E000174B1B68002B0EDA02234FF00001154A74
:10E0F00063F30201144B60F3C5019B1ADB0863F361
:10E100008F111348DFE7FFF791FBE5E73F2B12D1B3
:10E110000B4C2268531C09D023790E490E4803F09A
:10E1200045FAA3680C4898470024CEE70B490A48F3
:10E1300003F03CFAF5E76FF01504C6E7E0000220B3
:10E14000000102202C6402009C640200E57B0200B6
:10E15000FE7B0200247B02003C730220177C02003D
:10E1600008222DE9F0410027454EADF5147D3368B6
:10E17000444D0092DC69CDE902170DEB02038046A5
:10E18000142201212868A047041E1FDA13F0E8FCBE
:10E1900000684FF000054042FFF748FB01233A4A70
:10E1A00063F30205394B67F3C5059B1ADB0863F37C
:10E1B0008F1513F0D5FC01682A464942344815F002
:10E1C000ADFD20460DF5147DBDE8F0813368B8F54E
:10E1D000107F04AE5C6A8CBF4FF410724246286810
:10E1E0003B463146A047002804461FDA02234FF081
:10E1F0000004254A63F30204244B6FF3C5049B1A01
:10E20000DB0863F38F1413F0ABFC0168224649422C
:10E21000204815F083FD13F0A3FC00684042FFF78F
:10E2200005FB13F09DFC04686442CAE713D1022386
:10E230004FF00001144A63F30201144B60F3C5016F
:10E240009B1ADB0863F38F11134815F05AFD204623
:10E25000FFF7ECFAB5E70027AB6837540F4898474B
:10E26000AB6830469847AB680D48984722460D4941
:10E270000D4803F09BF9AB680B4898473C46A0E774
:10E2800014030220000102202C6402009C6402009E
:10E29000377B02004E7B02005F7B02006F7B020037
:10E2A000647C02007B7B02003C7302201F4A13B592
:10E2B000527944189AB901234FF0000163F3020127
:10E2C00062F3C5011A4B1B4A1B489B1ADB0863F318
:10E2D0008F1115F016FD6FF0150002B010BD435CF4
:10E2E0003D2BF8D163783F2BF5D0144A002117F06D
:10E2F000EBF90028F1DB114817F0ECFA0228EAD913
:10E3000001AA01210D4817F0B0FA0028E5DB0DF154
:10E3100006020221094817F0A8FA0028DDDBBDF843
:10E320000610BDF80400FFF71BFFD6E7000102202E
:10E330009C6402002C640200677C0200E000022062
:10E3400080232DE9F047ADF5387D0493754B4418D3
:10E350001D689846002D16DA01234FF00001724A1D
:10E3600063F30201714B6FF3C5019B1ADB08704820
:10E3700063F38F1115F0C5FC6FF0150420460DF501
:10E38000387DBDE8F0871B79112B0ED001234FF0AB
:10E390000001654A63F30201644B6FF3C5019B1AE8
:10E3A000DB0863F38F116348E4E7435C3D2BE3D163
:10E3B00063783F2BE0D0604A002117F085F9041EF6
:10E3C000DCDB5D4817F086FA0428D5D908AD04AB2C
:10E3D0002A460121584817F05AFA041ECEDB0022C3
:10E3E000049B0221EA5454480DF10A0217F03DFA49
:10E3F000041EC3DB03AA03214F4817F036FA041E9C
:10E40000BCDB0DF10E0204214B4817F02EFA041E5E
:10E41000B4DB18224FF00009BDF80E30BDF80A1029
:10E4200005AF2846BDF80CA03A60CDE90639FFF7E4
:10E43000E3FB041EA2DB0822404D01212B68009261
:10E44000DC69142206ABD8F80000A047041E1BDAD2
:10E4500001234FF00005344A63F30205334B69F39F
:10E46000C5059B1ADB0863F38F1513F079FB016870
:10E470002A464942324815F051FC13F071FB0068FE
:10E480004042FFF7D3F979E72B68BAF5107F9C6A11
:10E490002C4B28AED8F8000088BF4FF410720093C0
:10E4A00098BF0FFA8AF201974B463146A0470028E1
:10E4B00005461FDA02234FF000041B4A63F30204EF
:10E4C0001A4B6FF3C5049B1ADB0863F38F1413F028
:10E4D00047FB0168224649421B4815F01FFC13F018
:10E4E0003FFB00684042FFF7A1F913F039FB0468D5
:10E4F000644243E70024D8F808303454134898475E
:10E50000D8F8083030469847D8F80830104898476F
:10E510002A461049104803F049F8D8F808300E4848
:10E5200098472BE7000102202C6402009C64020043
:10E53000D07C0200E67C0200E000022014030220EE
:10E54000377B0200005E02209F7C0200B47C020048
:10E55000647C0200C07C02003C7302202DE9F0477D
:10E56000144E074600253446D6F80490484616F067
:10E57000D9F85FFA80F842464946384616F0E7F87F
:10E5800038B904EB0514E36841463846BDE8F04766
:10E5900018474246B168384616F0D9F80028F0D03E
:10E5A0000135072D06F11006DED16FF02200BDE81F
:10E5B000F08700BFDC6402002DE9F04F864B874CEA
:10E5C000ABB0E41AC4F3C90480B901234FF00001D1
:10E5D00063F3020160F3C50164F38F11804815F005
:10E5E00090FB6FF015002BB0BDE8F08F00254FF0C9
:10E5F000FF327C4B4FF000011A6098605D711D7115
:10E60000032363F30201784F65F3C50164F38F11AF
:10E61000764815F076FB3B6840F201221B682946DC
:10E6200066209847061E01972BDB4FF0030B704BBB
:10E630006BF3020A6FF3C50A03EB050864F38F1A44
:10E64000524641466B4815F069FB404616F06AF8A1
:10E65000019B02461B684146DB6A30461F46002389
:10E66000B847002878DA4FF000016BF302016FF32E
:10E67000C501614864F38F1115F043FB3046FFF785
:10E68000CFF80220FFF786FC5C4A41F25D115C483E
:10E69000FFF7E2FA03254FF0000165F302016FF383
:10E6A000C50164F38F11574815F02BFB4FF00001A3
:10E6B00065F302016FF3C50164F38F11524815F041
:10E6C00020FB002303A93222504804F015FB4FF031
:10E6D000000265F302026FF3C50264F38F1203A90F
:10E6E0004B4815F01BFB4FF4FA6014F0DFF80023E1
:10E6F00010A93222474804F0FFFA4FF0000265F3F8
:10E7000002026FF3C50264F38F1210A9424815F09C
:10E7100005FB4FF4FA6014F0C9F8002332221DA95A
:10E720003E4804F0E9FA4FF0000265F302026FF38D
:10E73000C50264F38F121DA9394815F0EFFA4FF0A6
:10E74000000165F302016FF3C501364864F38F11D0
:10E7500015F0D7FA002046E7019B02221B681DA98D
:10E76000D3F8248030460023C0470028F4D002228A
:10E770002D491DA815F0FAFF4FF0030B804648B154
:10E780004FF000016BF302016FF3C50164F38F11C9
:10E79000264871E76BF3020960F3C50964F38F192A
:10E7A0004946214815F0ADFA4FF47A70223514F03D
:10E7B0007DF8882D7FF439AF3046FFF731F84FF000
:10E7C00000016BF3020168F3C50164F38F1118486F
:10E7D00015F097FA55E700BF2C6402009C64020014
:10E7E000B47D02000001022014030220C07D02005B
:10E7F000F57C0200677E0200DF7D02000F7E0200D2
:10E80000147E02001C7E0200307E0200537E020055
:10E810005D7E02006A7E0200727E02007E7E020041
:10E820008A7E0200957E0200EE7D0200ED7D0200F0
:10E83000F17D0200014B1B685B681847140302203E
:10E840002DE9F04101260027744D8AB0AB884FF4C2
:10E85000017202213046ADF81E70ADF820600997B4
:10E86000ADF8223005F0CAFCB842286035DA4FF026
:10E8700000046B4A6B4B66F302049B1A67F3C504F2
:10E88000DB0863F38F1413F06BF9016822464942E9
:10E89000654815F043FA6FF0150401234FF00002AC
:10E8A0005F4963F302025F4B6FF3C5025B1ADB083B
:10E8B00063F38F1221465D4815F030FA22465C4919
:10E8C0005C4802F073FEAB685A4898470023AB716E
:10E8D00013F046F9046864428BE04FF002080DF132
:10E8E0001E03CDF8008042464FF4017105F05CFD37
:10E8F0000446A0B14FF00008494A4A4B66F30208AB
:10E900009B1A67F3C508DB0863F38F1813F028F927
:10E91000424601684848494215F000FABDE7CDF883
:10E92000008008AB32464FF40171286805F03CFDC9
:10E93000044690B14FF00008394A3A4B66F302089A
:10E940009B1A67F3C508DB0863F38F1813F008F907
:10E950000168424649423948DEE7CDF800800DF1B2
:10E96000220304224FF40171286805F01DFD0446BE
:10E9700090B14FF000082A4A2A4B66F302089B1A0E
:10E9800067F3C508DB0863F38F1813F0E9F8016833
:10E99000424649422A48BFE70423072200934FF426
:10E9A000017109AB286805F0FFFC044690B14FF0F7
:10E9B00000081B4A1B4B66F302089B1A67F3C50845
:10E9C000DB0863F38F1813F0CBF801684246494225
:10E9D0001C48A1E71C4E306878B114F0A3F801235D
:10E9E000AA881A491348AB7102F0E0FDAB681148E0
:10E9F000984720460AB0BDE8F0810E23CDE90444D3
:10EA0000CDE90243CDE90044114B4FF48062114936
:10EA1000114814F037F83060E1E700BF0C01022024
:10EA20002C6402005C640200677F02002B800200FD
:10EA3000408002007C730220877F0200AF7F0200CB
:10EA4000DA7F0200FC7F0200C80102201A80020067
:10EA50005DEA000050750220180102202DE9F04FF8
:10EA6000634F644B3D46644A87B09B1AC3F3C903A6
:10EA7000624C05930023D8226049386805F030FCC9
:10EA8000002824DC01234FF0000463F30204059BFB
:10EA90006FF3C50463F38F1413F062F80168224624
:10EAA0004942574815F03AF913F05AF802685549A7
:10EAB0005242554802F07AFDBB685348984738687F
:10EAC00005F0AEFB0023BB7107B0BDE8F08F2378E3
:10EAD000012B2DD1FA795ABB11461346164604EB89
:10EAE000020CBCF8460001381F280DD89CF85000D5
:10EAF000013610F0010F1CBF0133DBB2000748BF25
:10EB00000131F6B248BFC9B20C32902AE7D1DFF822
:10EB10001CB19BF80020B2420AD0009132463B491A
:10EB2000394802F043FDAB68374898478BF80060DE
:10EB30002678012E17D0022E9CD1EB79002B99D08C
:10EB4000032363F30208059B6FF3C50863F38F1873
:10EB500041462F4815F0D5F8AB682E489847AB686A
:10EB60002D48984786E794F84430DB0782D54FF06C
:10EB7000030B059B6BF3020A6FF3C50A63F38F1A4D
:10EB80005146264815F0BDF8D4E90223CDE900230B
:10EB90002349D4E904231C4802F008FDAB681A4855
:10EBA000984794F82E10228D94F82A30039194F807
:10EBB0002D101548029194F82C106BF30209019165
:10EBC00094F82B106FF3C5090091164902F0EEFC82
:10EBD000AB680D489847059B134863F38F19494666
:10EBE00015F08FF8EB79002B7FF444AFEE7141E71D
:10EBF0000C0102205C6402002C6402000000022070
:10EC00008D800200408002007C730220A080020000
:10EC1000388102004F81020008000220CC800200EF
:10EC2000DD800200F68002001E810200BC7302201B
:10EC30007FB50E4603234FF00001044663F3020143
:10EC4000584D594B6FF3C501ED1AC5F3C90565F36E
:10EC50008F11564815F055F8A35DA2193D2B40F0D1
:10EC60008B8053783F2B04D16FF01504204604B0FD
:10EC700070BD20464E4A002116F026FD041EF5DB2D
:10EC80004B4816F027FE0128EED90DF10A020121AA
:10EC9000474816F0EAFD041EE8DBBDF80A30012BF8
:10ECA00029D1434816F016FE022806D9414A02210E
:10ECB0003F4816F0DAFD041ED8DB3F4B4FF0000151
:10ECC0009B7953B1022363F302016FF3C5013B4803
:10ECD00065F38F1115F015F8C8E7032262F30201FE
:10ECE00063F3C50165F38F11354815F00AF8FFF796
:10ECF000A7FD0446BAE7002BB8D12F4EB27952B91E
:10ED00004FF00001022363F3020162F3C50165F3D2
:10ED10008F112C48DEE730680393431C3AD004235C
:10ED2000082200934FF4017103AB05F03DFB04464C
:10ED3000A8B101234FF0000463F302046FF3C5048C
:10ED400065F38F1412F00CFF0168224649421E48F9
:10ED500014F0E4FF12F004FF0468644286E71B4BE2
:10ED6000186813F0BFFE306805F05AFA00231848FF
:10ED7000B371B368984779E73F2B7FF475AF0E4CBA
:10ED8000A3794BB1A2881349134802F00FFCA36882
:10ED900011489847002469E70D490F4802F006FC26
:10EDA000F5E700BF5C6402002C6402005881020099
:10EDB000E0000220100102200C0102206981020003
:10EDC000788102009D810200B0810200C80102200A
:10EDD000CD8102001A8002007C73022038B50446FF
:10EDE0000C4815F09FFCC5B22A460A49204615F08A
:10EDF000AEFC28B929462046BDE83840FFF718BFC9
:10EE00002A460549204615F0A2FC0028F2D06FF0F2
:10EE1000220038BDFF8102000A8202002DE9F04F76
:10EE2000454B464D85B0ED1AC5F3C90580B90123A0
:10EE30004FF0000163F3020160F3C50165F38F1128
:10EE40003F4814F05EFF6FF0150005B0BDE8F08F8D
:10EE50004FF0FF323B4B00241A601F2298609A80CB
:10EE60009C71DC71384B4FF000011C60032363F38D
:10EE70000201364F64F3C50165F38F11344814F075
:10EE800040FF3B6840F201221B68214666209847FC
:10EE9000061E019722DBDFF8C4B0DFF8C4A003230D
:10EEA00063F302096FF3C5090BEB040865F38F19CF
:10EEB0004A464146274814F031FF404615F032FCDF
:10EEC000019B02461B684146DB6A30461F46002311
:10EED000B847002806DA3046FFF7ACFCFFF7B0FC75
:10EEE0000020B2E7019B02221B6803A9D3F824800B
:10EEF00030460023C0470028F4D00222514603A820
:10EF000015F034FC80460028E5D14FF47A701F34A8
:10EF100013F0CCFC3E2CC2D13046FFF78BFC032310
:10EF20004FF0000163F3020168F3C50165F38F112F
:10EF3000094814F0E6FED1E72C6402005C6402008C
:10EF4000B47D02000C010220C8010220140302203B
:10EF5000DB810200677E0200F38102004F80020025
:10EF6000EE7D02000B6801330B60014B1B681847F4
:10EF7000A4D302202DE9F04F85B00E9C9B46012CB6
:10EF8000B8BF0124012B0CBF302320231646824634
:10EF9000884601250A270022DFF86C900293B6FB11
:10EFA000F9F301930AB9B1451CD8019B414603F11D
:10EFB0003000D04701220135019B013F09FB136658
:10EFC0000A23012FB9FBF3F9E9D1414606F13000DC
:10EFD000D047BBF1030F02D1641B002C0EDC05B03F
:10EFE000BDE8F08FBC42E7DBBBF1020FE4D841463D
:10EFF000029803920135D047039ADDE7414620206D
:10F00000D047013CE9E700BF00CA9A3B014B1860BA
:10F01000704700BFA4D30220002313B502AC44F80C
:10F02000043D02460B460348214614F0BFFC02B0E3
:10F0300010BD00BF65EF00004FF02002EFF3118319
:10F0400082F31188BFF36F8F0121044AC2F8401583
:10F0500083F31188BFF36F8F002070470090034047
:10F06000014813F051BC00BF40D5022030B500224A
:10F0700087B00D490D4816F010FF00240E230C4DEB
:10F08000CDE90243CDE90444CDE90044094B4FF4F6
:10F0900040720949284613F0F5FC0849284616F045
:10F0A00058FE204607B030BD61F00000E0010220AC
:10F0B000280202203DF40000507902202C82020038
:10F0C00008B500F04BFA094814F0F8FD0423342287
:10F0D0000748084916F01FFC074B084A4FF4004048
:10F0E0001A60BDE8084000F06FBC00BFD8010220E4
:10F0F0000C02022090B90220A8D30220FB3C02009F
:10F10000F8B500250C4BD3E8EF7FC3E8E25F002A97
:10F11000F9D10A4C0A4E361B3611B54200DBF8BD58
:10F1200063685B792BB12368DB6813B139462046ED
:10F13000984701351034F0E7D0010220AC6402009A
:10F14000BC640200044BD3E8EF2F0132C3E8E12F87
:10F150000029F8D1704700BFD0010220044A054BB6
:10F160009B1AB1EBD30F34BF52F831000020704727
:10F170002C640200AC640200094B4268C31A1B11E4
:10F18000013310B5137101224368064C5A7122787D
:10F19000196012B9044813F0B7FB0123237010BDA6
:10F1A000AC640200BD73022040D50220F8B50F4BBD
:10F1B000D3E8EF4F621CC3E8E12F0029F8D12CB946
:10F1C0000B4D0C4E761B3611B44200DBF8BD270107
:10F1D000EB191B7B43B1EB595B6903B198470422E0
:10F1E0000021E819FFF7C8FF0134EDE7D401022040
:10F1F000AC640200BC640200144B37B5984204466C
:10F2000002D3134B98421BD3002201A9114812F0DC
:10F210002FFE0546B8B90122019BD3E8EF1FC3E8D2
:10F22000E02F0028F9D1019821462D22043015F055
:10F230004BFA7E23019C84F8313084F83250043438
:10F24000204603B030BD044CFAE700BF4061020025
:10F25000748C02000C0202203482020048B1054B7B
:10F26000984205D3D03398422CBF0020012070472C
:10F270000020704790B902202DE9F84F504B04460A
:10F280001B7803B940B34FF02003EFF3118683F3EB
:10F290001188BFF36F8F4B4814F020FD054686F3AD
:10F2A0001188BFF36F8F58B1474BD3E8EF2F013A66
:10F2B000C3E8E12F0029F8D18CB1284614F0FBFDFA
:10F2C00024B9424B1B680BB1FFF71AFF3D4814F0FD
:10F2D00003FD041C18BF01242046BDE8F88F3C4BF9
:10F2E0001B78DBB92B7ADB0718D414F0F3FD8146C9
:10F2F000284614F0C0FD26462246CC4623464FF051
:10F30000010E1CF8011B09B198420ED8314B324A4C
:10F31000DFF8DCB09B1AC3F3C90AD6B92F4E304FC1
:10F320004FF00008BF1B3F1147E0252902D182F0B2
:10F330000102E6E7002AE4D041F02007613F192FDF
:10F34000DFD8732904BF0EFA03F2164301330022FB
:10F35000D7E7B6FA86F7C7F11F073946284614F0F3
:10F360008DFD204B0246984202D31F4B984213D387
:10F370001046FFF773FF78B91C4B9A420CD001235B
:10F3800063F3020860F3C5086AF38F1843464A46E0
:10F390003946584614F0D6FC012303FA07F726EA4B
:10F3A0000706BAE773685B7923B1336829461B689F
:10F3B0003046984708F101081036B845F2DB7CE783
:10F3C000BD730220D8010220CC010220D00102200E
:10F3D000BE730220646402002C640200AC6402006C
:10F3E000BC64020040610200748C0200348202009E
:10F3F00052820200F8B50E4F3D7875B9FFF7D6FE80
:10F400000C4C0D4E361B3611B54207DB0020FFF7C2
:10F4100033FF0028FAD101233B70F8BD63685B79A4
:10F420001BB1236820461B69984701351034EBE770
:10F43000BE730220AC640200BC64020008B5FFF792
:10F44000B5FE13F05BFA0B4B186030B10A4B1B682A
:10F45000092B02DD094813F057FA084C0020FFF78A
:10F460000BFF0028FAD14FF0FF31204613F078FA55
:10F47000F4E700BFD8020220CC01022040D50220D0
:10F48000244B70B51B68418105469847224CE860C3
:10F49000D4E8EF3F0133C4E8E23F002AF8D14FF04F
:10F4A0002003EFF3118683F31188BFF36F8F1B489E
:10F4B000294614F007FC86F31188BFF36F8F184BB1
:10F4C0001A787AB14FF02003EFF3118483F3118897
:10F4D000BFF36F8F0020FFF7CFFE84F31188BFF3D7
:10F4E0006F8F70BD0F49236809680029F9D0012B7F
:10F4F00006D1BDE870404FF47A710B4813F0BCBCE4
:10F500000A2BEED1084816F0D4FCBDE8704007483D
:10F5100013F0FAB9A8D30220CC010220D8010220AE
:10F52000BE730220D8020220E001022040D5022052
:10F5300007B504380190D0E8EF3F5A1EC0E8E12F2C
:10F540000029F8D1012B03D101A9034812F0BEFC18
:10F5500003B05DF804FB00BF0C0202202023024927
:10F560001A46024816F0D7B960BA0220DC0202201F
:10F57000002373B50A4E02AC44F8043D0120FFF7A6
:10F580007BFE0546FFF7DEFD00222146304612F0E5
:10F590006FFC08B1002DF1D1019802B070BD00BF21
:10F5A000DC02022007B5002202A941F8042D05481B
:10F5B00012F05EFC10B1FFF7DBFF0190019803B081
:10F5C0005DF804FBDC0202207FB5047A457A14F072
:10F5D000010401904FEA151510D0019B1A7A920789
:10F5E00006D55B6904AC114D44F8043D039BB3B9E7
:10F5F00001A90E4812F06AFC04B070BD002DECD0D9
:10F60000AC420198E9D2214614F038FC0646FFF7D7
:10F6100025FE10B13046FFF78BFF0134F0E71E687E
:10F620002146284612F052FC0396DFE7DC02022056
:10F630000EB403B503AB53F8042B01460448019301
:10F6400014F0B4F9002002B05DF804EB03B0704789
:10F65000894202002DE9F04F11F0020485B0064600
:10F6600090469DF8387001F0010901F0080507D0B7
:10F6700011F0440F37D11A463249FFF7D9FF04463B
:10F68000B9F1000F0AD0304B304953F82720304BE6
:10F690003046002A08BF1A46FFF7CAFF3DB12D4B7E
:10F6A0002D4953F827203046FFF7C2FF0546B8F131
:10F6B000000F44D0012303FA07F7284B17F0100F6F
:10F6C000274F18BF1F46BDF840109DF83C00FFF7BC
:10F6D00045FD394602463046FFF7AAFF284420443C
:10F6E00005B0BDE8F08F1F4A116831B31E4A4FF4D0
:10F6F000616E14684FF47A7CB3FBF4F3B3FBF1F45E
:10F70000B4FBFEF20EFB124E01FB14340CFB04F4AE
:10F71000B4FBF1FB4FF03C0A01FB1B440CFB04F46F
:10F72000BEFBFAF3B4FBF1F1CDE901B10AFB13E141
:10F7300000910E49FFF77CFFA1E708469FE7084FBD
:10F74000C1E700BFCF82020074650200677E02003D
:10F75000C182020088650200F4820200C6820200B3
:10F76000CA820200F8020220FC020220D8820200B3
:10F7700038B50C46E107054603D5084A0849FFF7A6
:10F7800057FFE20608D4A3062846BDE838404CBF20
:10F7900004490549FFF74CBF38BD00BFC1820200D4
:10F7A000677E0200657C0200647C02002DE9F04760
:10F7B0009846089B0446DD060E46174605D4990672
:10F7C0004CBF29492949FFF733FF0025DFF8A490F2
:10F7D00045452ADB0025DFF8A080DFF8A090DFF8A0
:10F7E00094A0AF422ED9725D49462046FFF720FF14
:10F7F0000135102D1FD11E492046FFF719FF0025A6
:10F80000DFF87080DFF87890AF4227D9725D494603
:10F81000A2F120035F2B28BF2E222046FFF708FF0E
:10F820000135102D13D1BDE8F08749462046FFF77A
:10F83000FFFE0135CCE76A07D3D151462046FFF7DA
:10F84000F7FECEE741462046FFF7F2FED0E76B0712
:10F85000DAD141462046FFF7EBFED5E74146204688
:10F86000FFF7E6FEDCE700BF657C0200647C020077
:10F8700092820200908202008E8202008882020040
:10F88000948202002DE9F04717460A7A8B7AD24318
:10F8900013F007048AB005460E46D2B21BD0498940
:10F8A000C3F3C20389090291CDE9004302F00102CA
:10F8B000F3683946FFF7CEFE8146337ADA070CD477
:10F8C0002946304614F076FB4CB32246394628468A
:10F8D000FFF74EFF23E0A146EFE734BB2746EB6876
:10F8E00006AA0693A9683B46304614F04FFB069AD9
:10F8F0006B681A603AB1AB68134413F8014CA4F179
:10F900000A035C425C41284614F0B1FC069B1F448C
:10F91000002BE4D11CB115492846FFF789FE284683
:10F9200014F0A5FC0AB0BDE8F087304614F0D2FA16
:10F930000F4902462846FFF77BFE4FF000084FF0C4
:10F94000100A05AA434606A93046CDF814A014F0C3
:10F950001DFB059A002AB8D04B46009706A92846F9
:10F96000FFF724FF059B9844EBE700BF9782020056
:10F97000677E020073B5D0E900435D6842F20F7301
:10F980008B4228BF0B460D4A0521684601F0F6FD63
:10F9900006462B4620460B22094914F0FEFA2B4658
:10F9A00032466946204614F0F8FA2B461B220549D8
:10F9B000204614F0F2FA02B070BD00BF9D80020034
:10F9C000B58202009982020001230021074A10B586
:10F9D000074C1360A04204D801B11360054B1860B6
:10F9E00010BD40085B000121F4E700BFFC020220CB
:10F9F00040420F00F802022008B5034812F08AF8CE
:10FA0000024B586008BD00BF2B7A02000803022099
:10FA1000014814F02CBC00BFB46502000148FFF798
:10FA2000A9BF00BFB465020010B50C46084614F02B
:10FA300019FA214604480F22FFF724FF2046BDE8AB
:10FA4000104014F038BA00BFB4650200014B1860D2
:10FA5000704700BF140302200A2838B50446074D3A
:10FA600004D1286843680D215B689847286843687B
:10FA7000E1B25B689847204638BD00BF18030220FA
:10FA800010B5044C204601F073FD2046BDE810403F
:10FA9000FFF7BCBA59FA000008B5044812F03AF86A
:10FAA000034B1860FFF7ECFF002008BD2B7A020023
:10FAB0001803022010B5002204460121052000F0A1
:10FAC000C1F9052000F0AEF90222054B0020C3F871
:10FAD00018250322C3F80423A368C3E9000010BD5E
:10FAE0000050004008B5104B1A6862B10F4AD2F8B6
:10FAF0000423D10707D500220D481A6083685B7A7A
:10FB00000BB914F075FC0B4B1A685AB1074AD2F8BE
:10FB10000423920706D5002207481A60BDE8084072
:10FB200014F066BC08BD00BF00510040005000400A
:10FB300054D402200451004060D4022000220D4B16
:10FB4000C3F840214FF02002EFF3118182F31188B6
:10FB5000BFF36F8F084AD3F804051368C01A20F06A
:10FB60007F400344136081F31188BFF36F8F13F05C
:10FB7000EBB800BF005001403403022070B51848B4
:10FB800011F0C8FF48B3436800211B68984701265D
:10FB900000244FF480334FF40012124D3146C5F863
:10FBA0000845C5F84065C5F804330F4B15201C60A7
:10FBB0000E4BC3F88021224600F044F9152000F0D6
:10FBC00031F920460A4B1E602E60D5F804353344C7
:10FBD00023F07F43C5F8403570BD4FF0FF30FBE7A1
:10FBE00031830200005001404051014000E100E03B
:10FBF0000850014070B5214EB0F1FF3F08BF3046BC
:10FC00004FF02003EFF3118483F31188BFF36F8F5C
:10FC10001B491C4BD1F804251D680138531B23F0E8
:10FC20007F4301352B4420EAE070B042D4BF18185E
:10FC30009819821A22F07F4220F07F43022AC1F8ED
:10FC4000403504D984F31188BFF36F8F70BDD1F8AC
:10FC500004350D4AC31A23F07F435D1E954205D932
:10FC60004FF40012094BC3F80021EBE7012B02BF50
:10FC7000023020F07F40C1F84005E3E7FEFFFF00BF
:10FC80000050014034030220FEFF7F0000E100E04D
:10FC90004FF02002EFF3118382F31188BFF36F8FCF
:10FCA000064AD2F80405064A1268801A20F07F40FE
:10FCB00083F31188BFF36F8F704700BF005001407E
:10FCC000340302204FF02003EFF3118283F31188F5
:10FCD000BFF36F8F0649074B0868D3F8043582F3EA
:10FCE0001188BFF36F8F1B1A23F07F4318447047AE
:10FCF000340302200050014007488168406A88426E
:10FD000003D006494FF080520A6001B512F066FE3A
:10FD1000BDE8014070470000FC5C022004ED00E0FB
:10FD2000094A0A49936809685866996608494B6800
:10FD300043F080534B60002383F31188BFF36F8F30
:10FD40009368986E704700BFFC5C0220C077020089
:10FD500000ED00E029498A684FF028001044EFF3D5
:10FD6000098C80E8F01F4FF010001EEA000F04D04D
:10FD7000D2F8AC0020F0040007E002F16C0080EC47
:10FD8000108AD2F8AC0050F00400C2F8AC00202079
:10FD900080F31188BFF36F8F194F4FF000664A6AE6
:10FDA0008A603E60506E0023536680F31188D2F85B
:10FDB000AC0010F0040F05D10023E1EE103A5EF024
:10FDC000100E05E02EF0100E02F16C0090EC108A7F
:10FDD000EFF3148323F0040383F31488BFF36F8FCE
:10FDE00004B5104614F030FBBDE8044002F12800D1
:10FDF00090E8F01F8CF3098870470000FC5C02203B
:10FE000004ED00E01EF0040F0CBFEFF30880EFF3E9
:10FE10000980816911F8021C0229FFD001B514F094
:10FE200008FB01BD43B2002B08DB012200F01F00DC
:10FE300002FA00F0024A5B0942F82300704700BF53
:10FE400000E100E043B2002B01F10101A8BF03F182
:10FE500060434FEA4111B8BF054BC9B2ABBF03F5D0
:10FE6000614300F00F0083F800131954704700BF7E
:10FE700014ED00E008B572B6044B186A18B1002200
:10FE80001A6215F046FD62B608BD00BFFC5C022098
:10FE900073B51E460A9B05460093099B8C1815F006
:10FEA0005DFF0C4AA4F1200323F0070322F00102B6
:10FEB0009A61069A1E605A60079A9A60089ADA60F8
:10FEC0004FF08072DA61AB6400236B66C5F8AC302A
:10FED00002B070BD433902002DE9F0411F460646CD
:10FEE0000C4690460023E1EE103AEFF3148525F01E
:10FEF000040585F31488BFF36F8F00F043FC0A4BB1
:10FF0000444430469E6024F0070414F09DFA3846BD
:10FF100084F30988002163B681F31188BFF36F8FE2
:10FF20000022002313F00DFDFC5C02200149102289
:10FF30000A60704710ED00E0404080F3118830BF48
:10FF4000704700BFEFF30880EFF30981724601B5F7
:10FF500000F0DCFA01BD00BF2DE9F04F81468BB007
:10FF60000C4600297FD04FF001084FF00003414AB2
:10FF7000414D68F30203AD1AC5F3C9056FF3C5031C
:10FF800065F38F13ADF80030D1E901233B480968D0
:10FF900013F0F0FE4FF0000368F302036FF3C503A4
:10FFA00065F38F13ADF80030D4E90423E1683448D9
:10FFB00013F0E0FE4FF0000268F302026FF3C50297
:10FFC00065F38F12E1692F4813F0A8FE274600263B
:10FFD000DFF8BCB0D7ED087AFCEEE77ACDED037A16
:10FFE000D7ED097AFCEEE77ACDED057AD7ED0A7AFE
:10FFF000FCEEE77ACDED077AD7ED0B7A0822FCEE1E
:020000021000EC
:10000000E77A731C68F3020A04936FF3C50AB31C02
:10001000069365F38F1AF31C029608930DEB020109
:10002000534658460436CDED097A13F0BEFE102E25
:1000300007F11007CED14FF0000268F302026FF310
:10004000C50265F38F12216E0F4813F067FE4FF063
:10005000000268F302026FF3C50265F38F12A16913
:100060000A4813F05BFE2146484611F09DFD0BB097
:10007000BDE8F08F2C640200846402005D830200FE
:100080008C830200BB8302000A8402001A840200EF
:10009000CA83020030BFFFF7FDBF00BF114A08B599
:1000A000114B22F07F029A60BFF34F8FBFF36F8F27
:1000B000D3F8882042F4A002C3F888204FF04042D1
:1000C000C3F83422BFF34F8FBFF36F8F0023E1EEED
:1000D000103A11F0EFFD11F0F7FD00F01FFB11F0E9
:1000E00025FE00BF00C0000000ED00E001B572B6C3
:1000F0000B4A106A00281EBF0021116215F009FC8E
:1001000062B6EFF30580A0F110004FEAC000054988
:10011000014409C99847BDE8014003490847000068
:10012000FC5C022040610200F9FC000013F0C4FDF9
:10013000202080F3118808484FF40061401880F3B4
:100140000988EFF314800221084380F31488BFF379
:100150006F8FFFF7A3FF00009091022070B54FF062
:1001600000010126404B414C66F30201E41A6FF393
:10017000C501C4F3C9043E4D64F38F113D4813F02B
:10018000C0FDAA6A92010AD54FF0000166F3020190
:100190006FF3C50164F38F11374813F0B2FDAB6AFA
:1001A000DB010BD54FF00001012363F302016FF374
:1001B000C50164F38F11314813F0A3FD2C4DAA6AD9
:1001C000D6020BD54FF00001012363F302016FF358
:1001D000C50164F38F112A4813F093FDAB6A18032D
:1001E0000BD54FF00001012363F302016FF3C5014A
:1001F00064F38F11234813F084FD1D4DAA6A510347
:100200000BD54FF00001012363F302016FF3C50129
:1002100064F38F111C4813F074FDAB6A9A030BD57D
:100220004FF00001012363F302016FF3C50164F392
:100230008F11164813F065FD0D4DAB6ADB030BD52E
:100240004FF00001012363F302016FF3C50164F372
:100250008F110F4813F055FDAB6A00206FEA03437E
:100260006FEA1343AB6270BD2C6402008464020029
:1002700000ED00E0A8850200C0850200D3850200E1
:10028000ED85020017860200358602005A860200BC
:10029000748602002DE9F0410E464FF001084FF040
:1002A00000013D4B3D4C68F30201E41A6FF3C501B8
:1002B000C4F3C9043A4D64F38F110746394813F06B
:1002C00020FDAA6AD1060AD54FF0000168F30201A9
:1002D0006FF3C50164F38F11334813F012FDAB6A5D
:1002E0001A070BD54FF00001012363F302016FF3EE
:1002F000C50164F38F112D4813F003FD284DAB6A3F
:100300009B0720D54FF001084FF0000168F3020170
:100310006FF3C50164F38F11254813F0F2FC696B8C
:10032000AB6A18060FD54FF0000268F302026FF3B4
:10033000C50264F38F121F4813F0F0FC1FB1AB6AC3
:1003400023F08003AB62164DAA6AD2070BD54FF09B
:100350000001012363F302016FF3C50164F38F1100
:10036000154813F0CEFCAB6A9B060BD54FF000018D
:10037000012363F302016FF3C50164F38F110F488A
:1003800013F0BFFC0020064B9A6A9A6A42F0FF0203
:100390009A623070BDE8F0812C640200846402002F
:1003A00000ED00E0D0840200E6840200198502001E
:1003B0002C850200448502005A85020079850200DE
:1003C0002DE9F0410E464FF001084FF00001444B7B
:1003D000444C68F30201E41A6FF3C501C4F3C90485
:1003E000414D64F38F110746404813F08AFCAA6A16
:1003F000D1040AD54FF0000168F302016FF3C50183
:1004000064F38F113A4813F07CFCAB6A1A050BD5E4
:100410004FF00001012363F302016FF3C50164F3A0
:100420008F11344813F06DFC2F4DAB6A9B0520D51E
:100430004FF001084FF0000168F302016FF3C501AE
:1004400064F38F112C4813F05CFCA96BAB6A1804A1
:100450000FD54FF0000268F302026FF3C50264F398
:100460008F12264813F05AFC1FB1AB6A23F40043E5
:10047000AB621D4DAB6A59050BD54FF0000101234E
:1004800063F302016FF3C50164F38F111C4813F08D
:1004900038FCAB6A13F4807314D04FF000010123D1
:1004A00063F302016FF3C501164864F38F1113F073
:1004B00028FC00200C4A936A43F47F439362307017
:1004C000BDE8F081AA6A9204F3D54FF00001012241
:1004D00062F3020163F3C50164F38F110A48E6E792
:1004E0002C6402008464020000ED00E048840200F5
:1004F0005E840200198502006F8402008884020075
:100500009D840200B8840200798502002DE9F04143
:10051000704B9CB05F68064688461446C7F30807D0
:10052000002585F31188BFF36F8F02F07F43B3F18D
:100530007F4F2CD112F0010329D1620604D4230786
:1005400023D54646002512E001224FF0000162F358
:10055000020163F3C501604A604B61489B1ADB08E6
:1005600063F38F1113F0CDFB14F00405E9D10023E0
:100570008DF80730FB1E092B00F28E80DFE803F0B8
:100580000972766F8C8C8C8C8C7A0125EFE72E4665
:10059000EDE74FF001084FF0000100244E4B4F4FA4
:1005A00068F30201FF1A6FF3C501C7F3C90767F3C8
:1005B0008F114C4813F0A5FB464A8DF80740D36ACB
:1005C00013F0020324D04FF0000168F3020164F33A
:1005D000C50167F38F11444813F093FB9DF8073072
:1005E0009BB96822314602A814F0D0F8099B002D6F
:1005F0006AD0C3F3080222B96FEA53236FEA432398
:10060000099302A92046FFF7A7FC1CB0BDE8F081C2
:10061000D46A14F08044E4D04FF0000168F3020182
:1006200063F3C50167F38F11304813F06AFB304B59
:100630001B7833B140460DF10701FFF72BFE04464E
:10064000CCE72C4B1B782BB140460DF10701FFF78F
:10065000B7FEF4E7284B1C88A4B2002CBED0FFF7ED
:100660007DFDECE70DF107010020E6E70DF1070144
:100670000020ECE701234FF00001174A63F3020169
:10068000164B6FF3C5019B1ADB0863F38F111B48F0
:1006900013F037FB0024A1E701224FF000030E49BD
:1006A00062F302030D4A1648521A1649D2086FF334
:1006B000C50362F38F130F2FC8BF0146A7F11002C5
:1006C000114813F03FFBE5E723F4FF7323F0010328
:1006D00096E700BF00ED00E02C6402008464020095
:1006E0009F860200C2860200D9860200FA860200B6
:1006F00028ED00E029ED00E02AED00E01987020076
:10070000648702004F8702007D870200024A536916
:1007100043F010035361704700ED00E000232021F7
:100720000348C2180133412B82F80013F9D17047F6
:1007300000E100E038B505464FF02003EFF31184E7
:1007400083F31188BFF36F8F15F036FB0B4B9B685B
:10075000AB420DD10A4B5A68C2F3080222B912F01B
:100760003DF92046FFF7DCFA5A6842F080525A60A1
:100770002046BDE8384015F02CBA00BFFC5C0220D2
:1007800000ED00E010B50E4B88B002930D4B0E4CFF
:1007900003930E4B08A8049302AB40F81C3D0C4A8F
:1007A0002346012100F0A0F800230793094B012103
:1007B000E41A05A80593069400F066F908B010BD88
:1007C00000000220000000000000042006000100DC
:1007D000000002200000022008B54FF000020123B3
:1007E000084963F30202084B6FF3C5025B1ADB088A
:1007F000014663F38F12054813F090FA6FF015006D
:1008000008BD00BF2C64020074640200DA87020095
:100810008B7A70B403F007060C684B680A7A24F0F0
:100820001F04013B23440F2802F01F0223F01F0383
:1008300002D970BCFFF7D0BF054943F00103224342
:1008400043EA46038860CA6070BC0B61704700BF12
:1008500090ED00E00522034B5A60BFF34F8FBFF3CA
:100860006F8F704790ED00E0BFF35F8F0022014B68
:100870005A60704790ED00E0174970B50C68102C75
:1008800027D8FFF7F1FF0025144A154B4968136379
:10089000AC4201F1100605D1124B1C70FFF7DAFFD4
:1008A000002070BD087A56F8103C00F01F0123F0BC
:1008B0001F03194356F8043C400923F01F0343F07B
:1008C000010343EA40039560D1600135136131466D
:1008D000DEE74FF0FF30E4E74C65020090ED00E00A
:1008E000AAFF4400C0730220614B2DE9F74F8146F7
:1008F0008A46002798461C785E4D57453CDA59F8E1
:1009000027305E68002E5CD01F2E22D9F10620D140
:100910001B68DA061DD11846019313F09DFD019B5B
:100920008346F018013813F097FD834529D06FF006
:10093000150B01234FF000024F4963F302024F4BA6
:100940006FF3C5025B1ADB0863F38F1259464C48FC
:100950000EE001234FF00002474963F30202474BC8
:100960006FF3C5025B1A3946DB08464863F38F1202
:1009700013F0D4F96FF0150488F8004003B0BDE817
:10098000F08F1BF1160FD4D0631E5B45D1DBC5F889
:1009900008B0D5F80CC059F82710C5F808B02E6972
:1009A0002CF01F0CD1E9003298189C4546F01F0628
:1009B00000F1FF3218D1964205D15FFA8BF0FFF7B4
:1009C00027FF013799E7C5F808B0EB6820F01F0250
:1009D00003F01F031A43EA60E0B2FFF719FF10F1BA
:1009E000160FC7D0441CECE7013B9642E0B223F05F
:1009F0001F0307D1C5F808B02A6902F01F0213438C
:100A00002B61EAE70192C5F808B02C6904F01F0CCD
:100A10004CEA03032B61FFF7FBFE10F1160FA9D080
:100A200059F827C0C5F808B0DCE9001C6144013062
:100A300021F01F01013E019AEC680E442B69C0B2FF
:100A4000B61A0F284FEA530326F01F0602D9FFF704
:100A5000C3FEC4E75B0003F00E0304F01F0443F081
:100A6000010321431E43A860E9602E61BAE700BF7D
:100A7000C073022090ED00E02C6402007464020058
:100A8000B7870200948702002DE9F74F8946074691
:100A90000026DFF89080DFF890A0214C4E4519DA4F
:100AA000D7F804B0BBF1000F36D03B68184601936D
:100AB00013F0D2FC019B05460BEB0300013813F049
:100AC000CBFC1423854203FB06F306D06FF015021E
:100AD00048F8032003B0BDE8F08F15F1160F48F871
:100AE0000350F7D09AF80020AA42F3DDA5604344F2
:100AF000A560E068197B60F3040119732169187B14
:100B0000490861F347101873E26822F01F025A6027
:100B1000226922F01F021A6101360C37BEE700BFBE
:100B200090ED00E038030220C073022070B51E4B28
:100B3000064618780D46024600211C4B0F2A07DD99
:100B400000241B4A12689A601C61AC4204DB70BD31
:100B50009A6019610132F1E756F824104B6803B32B
:100B60001F2B12D801234FF00002124963F3020237
:100B7000114B6FF3C5025B1ADB082146BDE87040DC
:100B800063F38F120D4813F0C9B8DA06EAD10B6887
:100B9000DB06E7D1C0B2FFF73BFE10F1160FD6D04F
:100BA00001300134D1E700BFC073022090ED00E0B6
:100BB000380302202C64020074640200948702004F
:100BC0002DE9F04F1E4600239DB0CDE902010193AF
:100BD0001078531C069358B1252800F0898003999A
:100BE000029B9847013040F00D844FF0FF33019392
:100BF00001981DB0BDE8F08F232C70D065D8002C73
:100C0000F6D0202C0C9B08BF01230C93CDF8188044
:100C1000DDF81880BB4818F8014B214613F067FD3A
:100C20000028E9D12A2C6AD13268331D002A0792A4
:100C3000BEBF5242079201221E46B8BF0D92069ACD
:100C4000547802F102082E2C7ED198F800302A2B1D
:100C500077D1356808F10108043698F8004008F1AA
:100C600001082146A848274613F041FD00286ED010
:100C700008F10103682F069398F8004007D1682C0B
:100C800005D1482708F1020398F801400693672C24
:100C90007CD8652C80F03A81472C5CD8452C80F0BC
:100CA0003581002CA4D0252C00F0A88303992520A1
:100CB000029B9847013098D003992046029B9847A1
:100CC000013092D0019B02339EE32D2C0DD0302CAD
:100CD00008D02B2C099B08BF0123099396E7012319
:100CE000059393E70123089390E701230D938DE784
:100CF000002308930C9309930D93059388E7A4F1BF
:100D00003003092B07909ED80A22DDF8188018F8C6
:100D1000014BA4F13003092B95D8079B02FB034438
:100D2000A4F13003CDE90683EFE7904601FB0535DA
:100D3000303D424612F8013BA3F130000928F4D9B6
:100D40008BE700250A21F4E74FF0FF3589E7CDF85E
:100D5000188007469BE7632C59D021D8582CA5D181
:100D6000331D6F2C0493316840F01C83059B15AF35
:100D7000002B00F00B8330238DF85430002940F015
:100D80000E838DF855108B46012726E0702C00F05D
:100D9000E88227D86E2C00F0CF82E1D8692C85D16B
:100DA0003468331D002C049380F29E802D23614211
:100DB0008DF854300DF1550738460A2213F034FDF2
:100DC000099B074415A83F1A002B40F020830C9B79
:100DD000002B40F01C834FEAD47B002DC0F21C8313
:100DE00015AE1EE0752CBBD0782CB9D0732C7FF4D7
:100DF0005DAF002DB8BF6FF000450027331D36688A
:100E00000493BD4240F0BD820025AB4609E04FF09F
:100E1000000B01275D46331D049333681CAE06F8B2
:100E20001C3DA5EB070A0025A846A946DA442AEA94
:100E3000EA7A079B0AEB07041C1B0D9B13B9002CD5
:100E400000F3098306EB0B039E4240F006835346F2
:100E500013F1FF3380F00D83A7EB0B07B9F1000FFF
:100E600000F02C833078F219A0F130010929A2EBAF
:100E7000060340F209834A46002A40F01083A3EBA0
:100E80000909B8F1000F18D006EB090316F8012B79
:100E9000079303991046029B0592984701303FF44F
:100EA000A4AE059A079B2E2AA3EB0609EED1434672
:100EB000002B00F30583A9EB08099DB1307806EB00
:100EC0000908A0F13003092BA8EB060940F20583BD
:100ED0002E2800F00283A846B8F1000F00F3068325
:100EE000A9EB0509B14414E3099B23B12B238DF829
:100EF000543021465EE70C9B0BB12023F7E72146D7
:100F000015AF59E70088020006880200073626F070
:100F10000706D6E90001C202904606F108030493D1
:100F2000CB0243EA5053002823F0004971F100033B
:100F3000C1F30A56CDE9108942DA2D218DF85410FB
:100F40000DF1550740F2FF718E4254D158EA090362
:100F5000A4F1410407F1030042D1192C3AD84923E6
:100F60003B704E237B7046230025A846A946BB70E4
:100F7000FD7015AFC01B099B002B40F0DA810C9B64
:100F8000002B40F0D6819DF854B0ABF12D03D3F186
:100F9000000B4BEB030B1CAB5B4413F81C3C08EB46
:100FA0000907303B2F44092B074400F23B82089B82
:100FB000002B00F03B82079B15AEA3EB070A36E738
:100FC000099B0BB12B21B9E70C9B0BB12021B5E795
:100FD00015AFB7E769233B706E237B706623C3E7C9
:100FE000192C99BF4E2341226E23612294BF3B707E
:100FF0003B707A70B8E7462C48EA060049EAE67189
:1010000008BF662450EA010300F0DA80002E7AD08F
:10101000DDE910231046A6F2FE38002643F0004119
:101020000DF1700969E90C0118F1020F7ADB6FF01C
:10103000004A4FF0000BB8F1000F00F3A48010A895
:1010400008F1010813F010FCB8F1040FF7D1002DDE
:1010500004F0DF03B8BF0625472B40F0B980F21C2F
:1010600002DBB54280F2AF80023CE4B2002D00F01A
:101070007582059B013D002B40F07082002DD4BF8E
:101080004FF0000A4FF0010A662C40F0698215EB20
:10109000060840F1A380102366244FF000080F9348
:1010A00000224FF000630DF1700969E90A2318F17D
:1010B000FF3880F09580DDE91023DDE9120112EBA5
:1010C000000843EB0109CDE9108909F070484FF0A1
:1010D000000958EA090306D010A813F0D8FB10A89D
:1010E00013F0C2FB0136662C40F0C480002E7DDC7C
:1010F00030233B70059B07F1010B002B40F08D80E6
:10110000994685E0013E18EB080849EB0909B8F15A
:10111000000F79F10003F5DACDE9108978E7484648
:1011200013F0A2FBDDE910A000230B9300230A902B
:10113000BB4ADDE90ABC634508BF5A4508F101080E
:10114000EDD305224FF0000CAAFB02AB02FB00BB63
:10115000CDE910AB013E002300216FF00040994221
:1011600008BF584506D2BCF1000F3FF45DAFCDE992
:1011700010AB59E71AEB0A0A4BEB0B0B08F1FF38DF
:101180004FF0010CE7E710A813F081FBDDE9100137
:101190004FF0000C08F1FF38013600239B4508BFD3
:1011A0008A4506D2BCF1000F3FF445AFCDE91001EE
:1011B00041E70018494108F1FF384FF0010CECE716
:1011C0000026B0463BE7059BAD1B23B9662455E7D7
:1011D0004FF0000A58E74FF0000A58E76624C1E1D3
:1011E000484613F054FB13F03FFB60E7BB460F9BF0
:1011F000002B07DD0FA910A813F079FB013E0BF8B7
:10120000010BF4D1059B002B40F09F81B1461E4697
:10121000002D04DC4FF0000820E04FF000092E22E2
:101220000BF101038BF80020002E00F09581002DBA
:101230001EDDC6F10008A845A8BFA846A5EB080515
:101240009B4606E00FA910A813F051FB013D0BF8D7
:10125000010B002D02DD0F9B002BF3DCBAF1000F18
:101260001ED1002315AF8BF80030ABEB070082E6F0
:101270009B46CFE70FA910A813F039FB059B302838
:10128000387018BF06F1FF36002B3CD1002D3ADC38
:1012900007F1010BBAF1000F48D04FF00009C84622
:1012A0001BF8012C0BF1FF33302A3DD02E2A08BF4A
:1012B0009B46002504F0DF03452BD2D1002EB4BF9E
:1012C0002D232B235A46B8BF7642632E02F8024BD9
:1012D0008BF801300ADD642196FBF1F301FB136604
:1012E00003F130000BF103028BF802000A2196FB98
:1012F000F1F3934601FB136603F1300030360BF82F
:10130000020B5670ADE72E2307F1020B7B70002D08
:10131000C0DD0F9B002BBDDD0FA910A813F0E7FA6D
:10132000013D0BF8010BF2E79B46B9E7D146D046E9
:10133000C0E74FF0010B2EE6324652F8043B682F0F
:10134000049206D06C2F09D0482F07D1019A1A7049
:1013500001E0019A1A80049E069A39E4019A1A6003
:10136000F9E7331D049347F63003316810220DF17D
:101370005600ADF8543013F057FA4FF0020B871CAB
:101380002BE5F35D002B45D001373AE538460822BE
:10139000C71B13F049FA07444FF0000B1DE50DF190
:1013A0005500F4E7752C05D10A2215A813F03CFA74
:1013B0000746F1E7059BFBB147F630030DF15606F2
:1013C000ADF854301022304613F02EFA582C0CD1C0
:1013D0000DF1530313F8012FA2F1610119299CBFEC
:1013E000203A1A701A78002AF4D115AF059BF71B22
:1013F00007444FEA430BF0E415AEE3E703992046B8
:10140000FFF7EEBB019B013301930496A3E74FF076
:10141000010BE2E41D46F8E40025A846A946C6E50E
:101420003233333315AE4FF0000A02E515AEDDF866
:1014300020A0FEE405930399029B202098470130E9
:10144000059B3FF4D2AB13F1FF33F3D2019A224450
:1014500001921C46F6E42346F5E705930399029BA7
:1014600016F8010B98470130059B7FF4EDACFFF7B0
:10147000BCBB05930399029B302098470130059B24
:101480007FF4E6ACFFF7B1BBDDE902310592984786
:1014900001303FF4AAAB16F8010F059AE4E4059376
:1014A0000399029B302007929847079A013002F176
:1014B000FF32059B7FF4E0ACFFF797BBB946E0E451
:1014C00005930399029B30209847059B013003F157
:1014D000FF337FF4EDACFFF788BBDDE902319847BD
:1014E00001303FF482AB16F8010FEAE40399302093
:1014F000029B9847013008F1FF387FF4EDACFFF70D
:1015000074BB039916F8010B029B984701303FF416
:101510006CABA9EB0603002BF3DC019B002C5B44B6
:101520009B46D34407EB0B0301937FF714AF23448F
:10153000019314F1FF34FFF40EAF03992020029BB6
:1015400098470130F5D1FFF750BB2E22B146002657
:101550000BF101038BF80020B04671E64FF0000A52
:1015600005F10108102398450F93A8BF984697E509
:10157000014B1860704700BFACD302200CB41FB5FC
:1015800009B90DF10300CDE9020107AB069A02A9E2
:1015900005480193FFF714FB0022029B1A7005B067
:1015A0005DF804EB02B070472B4902000EB40FB592
:1015B0006FF0004105AB53F8042B029003910648ED
:1015C00002A90193FFF7FCFA0022029B1A7004B0F3
:1015D0005DF804EB03B070472B490200F8B5094EE3
:1015E00000243746084DAD1BAC4206EB040000D189
:1015F000F8BD3B591B685B6813B11B6803B1984782
:101600002034F1E7C0D50220E0D50220F8B50A4E1B
:1016100000243746094DAD1BAC4204EB060300D154
:10162000F8BD385903210C3013F09BF910B9184656
:1016300013F09DF92034EFE7C0D50220E0D5022059
:1016400000232DE9F04F022887B082468B46914651
:10165000CDE904333FD1039104A9DCB2002207E0B5
:101660000878013201300870A018C0B2072804D8E9
:1016700098183BF810000028F2D00133082B01F134
:101680000101EAD100234FF0FF374FF0010804AA0F
:10169000D25C424588BF5FB203F1010388BF904628
:1016A000082BF4D10293B8F1010F4FF03A0308BFB1
:1016B0004FF0FF37019300224C461646029B9E4294
:1016C00019DB4C4509D00023BAF1010F0CBF04F817
:1016D000013C237003E0012805D04FF00009484683
:1016E00007B0BDE8F08F2E2304264FF0FF37CDE979
:1016F00001368046DFE7029B042B2DD11BF8061034
:1017000049B93023204600F8023B019B6370013643
:10171000F6B20446D2E7234609204FF0000EDFF868
:10172000C0C0B1FBFCF586450CFB151100DC1DB1FA
:10173000864630351D7001330A250138BCFBF5FCA7
:10174000451CEED14FF0000119701B1BDBB2019953
:10175000E0180130E154DAE7B7420ED102B91FB9FF
:101760003A23013404F8013C3A23237008F1FF3393
:101770001E44601CF6B20022C9E71AB13A230134B4
:1017800004F8013C039B33F816301D0245EA13258B
:101790002DB2C5F30723EDB2ABB10F2BD9B20BD9E4
:1017A00000236122204613F011F90123612229460A
:1017B00013F00CF90122AAE7092994BF30315731FF
:1017C000601C2170F1E70F2D03D9612229462046C4
:1017D000EEE7092D94BF30355735601C2570E9E7D9
:1017E00000CA9A3B08B5094B1A786AB90121312021
:1017F00019700521FEF726FB3120FEF713FB4FF091
:101800000042034BC3F80423002008BDC17302202B
:1018100000100340F0B5036882689B684D4C18794E
:1018200001F01F0343EA40130020D4F80453EDB243
:1018300000F5A27654F82660C6F30426B34269D1B7
:1018400025FA00F6F60765D5850005F1804505F512
:101850004435D5F8106526F00106C5F81065012558
:1018600005FA00F0C4F808033B4D05EB8305D5F8F5
:10187000000220F44030C5F800029068C84010F023
:10188000010046D0D068C84010F0010041D0506936
:10189000C84010F0010049D09069C840C0073DD44D
:1018A0001069D269C84022FA01F100F0010001F08C
:1018B000010188420CBF02210121002505F5A27219
:1018C00054F8220010F003002AD1AF0007F1804243
:1018D00002F54432D2F810651B0226F4473626F48E
:1018E0004076C2F81065D2F8106503F4F85343EA65
:1018F00001411A4B3143C2F81015D851D2F81035B6
:1019000043F00103C2F81035012303FA05F5C4F8CA
:101910000453F0BD013008288AD1A5E70321CCE7A4
:101920000135082DCAD16FF01200F2E71369D269B0
:10193000534023FA01F111F0010F14BF4FF40032AC
:101940004FF44032D5F8003223F440331343C5F846
:101950000032DEE700100340002584400011034000
:101960002DE9F74F8046856803F47040B0F5804F4D
:101970001E4649D02CDCB0F5805F3DD0B0F5405F0D
:101980003ED060BB06F44077B7F5807F3ED0A7F528
:10199000007463426341012919BFD4B2A1464FF0DC
:1019A0001F0900244FF0010B06F0010C4FEA4C0711
:1019B00047EA0C0747EA0020DFF8C8A040EA83079F
:1019C00006F00203A14523D2002003B0BDE8F08F4A
:1019D000B0F5E04F16D005DCB0F5A04F0ED06FF09B
:1019E0001500F2E7B0F5404F04D0B0F5504FF6D1F6
:1019F0000720C7E70620C5E70120C3E70320C1E7AA
:101A00000420BFE70520BDE70220BBE70323C2E7B0
:101A1000D8F800209268117904F01F0242EA4112BE
:101A200080324AF82270A9680BFA04F2002B25D004
:101A30001143A9606969B0064CBF114391436961C4
:101A4000A96970064CBF11439143A96129697007C8
:101A50004CBF114391432961E96930064CBF0A43E9
:101A600021EA0202EA61214640460193FFF7D2FED5
:101A70000028AAD10134E4B2019BA3E721EA0201C4
:101A8000D7E700BF002584404E492DE9F0410D689D
:101A9000002D61D04C4B00269A681B68DFF834E1BA
:101AA0009F68D2E902030340D2E90504204323EAF8
:101AB00000033868D4691269006954404440012029
:101AC00023EA04049BBB0B60002301269C463F488D
:101AD0003F4FD0F8042306FA03F111420ED0D91972
