:10C00000B8810220E5FB0000B7D2010005FA00006C
:10C0100005FA000005FA000005FA000005FA000024
:10C0200005FA000005FA000005FA0000C5F8000056
:10C0300005FA000005FA000015F80000A7D201007B
:10C04000A5FB0000A5FB0000A5FB0000A5FB000070
:10C05000A5FB0000A5FB0000A5FB0000A5FB000060
:10C06000A5FB0000A5FB0000A5FB0000A5FB000050
:10C07000A5FB0000A5FB0000A5FB0000A5FB000040
:10C08000A5FB0000A5FB0000A5FB0000A5FB000030
:10C09000A5FB0000A5FB0000A5FB0000A5FB000020
:10C0A000A5FB0000A5FB0000A5FB0000A5FB000010
:10C0B00075180100A1DD0100A5FB0000A5FB000033
:10C0C000A5FB0000A5FB0000A5FB0000A5FB0000F0
:10C0D000A5FB0000A5FB0000A5FB0000A5FB0000E0
:10C0E000A5FB0000A5FB0000BFDD0100A5FB0000D3
:10C0F000A5FB0000A5FB0000A5FB0000A5FB0000C0
:10C10000A5FB0000A5FB0000A5FB0000A5FB0000AF
:10C11000A5FB0000A5FB0000A5FB0000A5FB00009F
:10C12000A5FB0000A5FB0000A5FB0000A5FB00008F
:10C13000A5FB0000A5FB0000A5FB0000A5FB00007F
:10C14000A5FB00000000000000000000000000004F
:10C1500000000000000000000000000000000000DF
:10C1600000000000000000000000000000000000CF
:10C1700000000000000000000000000000000000BF
:10C1800000000000000000000000000000000000AF
:10C19000000000000000000000000000000000009F
:10C1A000000000000000000000000000000000008F
:10C1B000000000000000000000000000000000007F
:10C1C000000000000000000000000000000000006F
:10C1D000000000000000000000000000000000005F
:10C1E000000000000000000000000000000000004F
:10C1F000000000000000000000000000000000003F
:10C20000DEE61E284CBBCE8F015B000014520100FD
:10C210000100000000C0000008C502202D28010018
:10C2200081F0004102E000BF83F0004330B54FEAE7
:10C2300041044FEA430594EA050F08BF90EA020F54
:10C240001FBF54EA000C55EA020C7FEA645C7FEAE7
:10C25000655C00F0E2804FEA5454D4EB5555B8BF0A
:10C260006D420CDD2C4480EA020281EA030382EA7B
:10C27000000083EA010180EA020281EA0303362D0D
:10C2800088BF30BD11F0004F4FEA01314FF4801CE0
:10C290004CEA113102D0404261EB410113F0004FF2
:10C2A0004FEA03334CEA133302D0524263EB4303A9
:10C2B00094EA050F00F0A780A4F10104D5F1200E47
:10C2C0000DDB02FA0EFC22FA05F2801841F10001A2
:10C2D00003FA0EF2801843FA05F359410EE0A5F176
:10C2E00020050EF1200E012A03FA0EFC28BF4CF0A7
:10C2F000020C43FA05F3C01851EBE37101F000455D
:10C3000007D54FF0000EDCF1000C7EEB00006EEB69
:10C310000101B1F5801F1BD3B1F5001F0CD34908F3
:10C320005FEA30004FEA3C0C04F101044FEA44524A
:10C3300012F5800F80F09A80BCF1004F08BF5FEAD1
:10C34000500C50F1000041EB045141EA050130BDB1
:10C350005FEA4C0C404141EB010111F4801FA4F154
:10C360000104E9D191F0000F04BF01460020B1FAA9
:10C3700081F308BF2033A3F10B03B3F120020CDAE1
:10C380000C3208DD02F1140CC2F10C0201FA0CF0BF
:10C3900021FA02F10CE002F11402D8BFC2F1200C24
:10C3A00001FA02F120FA0CFCDCBF41EA0C019040DA
:10C3B000E41AA2BF01EB0451294330BD6FEA040423
:10C3C0001F3C1CDA0C340EDC04F11404C4F120020E
:10C3D00020FA04F001FA02F340EA030021FA04F320
:10C3E00045EA030130BDC4F10C04C4F1200220FA77
:10C3F00002F001FA04F340EA0300294630BD21FAB5
:10C4000004F0294630BD94F0000F83F4801306BF7A
:10C4100081F480110134013D4EE77FEA645C18BF6E
:10C420007FEA655C29D094EA050F08BF90EA020F05
:10C4300005D054EA000C04BF1946104630BD91EAFD
:10C44000030F1EBF0021002030BD5FEA545C05D100
:10C450004000494128BF41F0004130BD14F580043F
:10C460003CBF01F5801130BD01F0004545F0FE41B3
:10C4700041F470014FF0000030BD7FEA645C1ABFE8
:10C48000194610467FEA655C1CBF0B46024650EA1F
:10C49000013406BF52EA033591EA030F41F400214B
:10C4A00030BD00BF90F0000F04BF0021704730B5D1
:10C4B0004FF4806404F132044FF000054FF00001A6
:10C4C00050E700BF90F0000F04BF0021704730B567
:10C4D0004FF4806404F1320410F0004548BF40423C
:10C4E0004FF000013EE700BF42004FEAE2014FEA91
:10C4F00031014FEA02701FBF12F07F4393F07F4F6C
:10C5000081F06051704732F07F4208BF704793F06E
:10C510007F4F04BF41F40021704730B54FF4607481
:10C5200001F0004521F000411CE700BF50EA010284
:10C5300008BF704730B54FF000050AE050EA01022D
:10C5400008BF704730B511F0004502D5404261EB9D
:10C5500041014FF4806404F132045FEA915C3FF4DE
:10C56000D8AE4FF003025FEADC0C18BF03325FEA7B
:10C57000DC0C18BF033202EBDC02C2F1200300FA2C
:10C5800003FC20FA02F001FA03FE40EA0E0021FA51
:10C5900002F11444BDE600BF53B94AB9002908BFEF
:10C5A00000281CBF4FF0FF314FF0FF3000F070B992
:10C5B000ADF1080C6DE904CE00F006F8DDF804E0FA
:10C5C000DDE9022304B070472DE9F04F099E0446CF
:10C5D0008946002B40F083808A42154645D9B2FA3D
:10C5E00082F24AB1C2F1200701FA02F39540944069
:10C5F00020FA07F747EA03094FEA154E230C1FFA02
:10C6000085F8B9FBFEFC0EFB1C990CFB08F143EA14
:10C61000094399420AD9EB182CBF01200020994206
:10C6200002D9002800F01D810CF1FF3C591AA3B279
:10C63000B1FBFEF00EFB101100FB08F843EA0144C9
:10C64000A04505D92C1902D2A04500F20E8101386F
:10C65000A4EB080440EA0C4000271EB1D44000239C
:10C66000C6E900433946BDE8F08F002A51D0B2FA3E
:10C6700082F2002A40F0AF80491B4FEA154E1FFAA4
:10C6800085F80127230CB1FBFEFC0EFB1C1108FBF7
:10C690000CF043EA014398420AD9EB182CBF012160
:10C6A0000021984202D9002900F0D7800CF1FF3C0C
:10C6B000191AA3B2B1FBFEF00EFB101108FB00F833
:10C6C00043EA0144A04505D92C1902D2A04500F245
:10C6D000C1800138A4EB080440EA0C40BDE78B425E
:10C6E00008D9002E74D00027C6E900013846394623
:10C6F000BDE8F08FB3FA83F767B98B42C0F0A4802E
:10C70000824240F2A1803846002EABD0C6E90049F3
:10C71000A8E7FFDEC7F12005BB4002FA07FC01FADB
:10C7200007F4EA4020FA05F8E94000FA07FE1A4348
:10C7300048EA04044FEA1248200C1FFA82F9B1FBC0
:10C74000F8FA08FB1A110AFB09FB40EA01418B4584
:10C750000AD951182CBF012300238B4502D9002B85
:10C7600000F088800AF1FF3AA1EB0B01A4B2B1FB03
:10C77000F8F008FB101100FB09F944EA0141894572
:10C7800004D9511801D289457BD8013840EA0A40C2
:10C79000A1EB0901A0FB0C89494544464B4602D355
:10C7A00006D1C64504D20138B8EB0C0469EB02038C
:10C7B000002E5DD0BEEB040261EB030101FA05F52A
:10C7C00022FA07F3F94000271D43C6E9005149E763
:10C7D0003746304646E7C2F12000954001FA02F79D
:10C7E00021FA00F34FEA154E24FA00F11FFA85F8FA
:10C7F00094403943B3FBFEF00F0C0EFB103300FBEB
:10C8000008FC47EA03439C4507D9EB182CBF0127D6
:10C8100000279C4500D98FB30138A3EB0C0389B2E4
:10C82000B3FBFEF70EFB173307FB08FC41EA03419D
:10C830008C4504D9691801D28C4525D8013FA1EB5C
:10C840000C0147EA00471DE7841A61EB030301204E
:10C85000994659E702382C443CE7ACF1020C2B44D2
:10C8600026E7ACF1020C2B44E0E602382C44EFE65C
:10C870003746F7E6AAF1020A114475E702382B445D
:10C88000CBE70238114481E7023F2944D7E700BFD4
:10C89000704700BF01234FF00002064963F307020F
:10C8A000054B5B1ADB08014663F38F12034810F057
:10C8B00079B900BF90F3010090F301005CF9010029
:10C8C00003234FF0000110B563F30701144C154B1F
:10C8D0001548E41AC4F3C90464F38F1110F055F934
:10C8E00000F002F9014658B14FF0000201230F4851
:10C8F00063F3070264F38F12BDE8104010F052B9E1
:10C9000008210B4811F0EDFE014640B14FF0000246
:10C91000012363F3070264F38F120648ECE710BDAE
:10C9200090F3010090F3010079F9010098F90100FA
:10C9300010010220B3F9010070B50446054E4518F8
:10C94000AC4200D170BD306814F8011B43685B68CD
:10C950009847F5E72C0102202DE9F74F0746436879
:10C960005B6C03B198477B685B6B9BB1384698471B
:10C9700080B14F4D4F4B504EED1ADFF868B1C5F303
:10C98000C9057B689B692BB101220DF1070138466F
:10C99000984710B903B0BDE8F08F32689DF80710D2
:10C9A000541C2229346019D07F2901D008291BD1B9
:10C9B00002B1013A022C38BF022400203F4B023C56
:10C9C000985434609BF80030002BDAD13C4B1B7834
:10C9D000032B5ED8DFE803F02F2F4D559BF8003076
:10C9E00083F001038BF8003040F68C239C420FD972
:10C9F00028F03F0242F0010262F3070865F38F1846
:10CA00004246304810F0CEF840F68C233360B8E749
:10CA100074B929F03F0343F0010363F3070965F399
:10CA20008F194A462146284810F0BCF83460A8E720
:10CA3000224B9954C6E7254AD35C8B42A1D1244BA3
:10CA400018684368DB6A03B198472249D1E8EF3F91
:10CA500043F00102C1E8E02F0028F7D1DB0703D43F
:10CA600008391D4811F0D5FF1C4B32681A600023AD
:10CA7000CCE7124B1A4412F8013C002B81D00A2952
:10CA8000DCE70E4B1A4412F8013C0D2B7FF479AF12
:10CA9000F5E72AF03F0242F0010262F3070A65F36C
:10CAA0008F1A524619460E4810F07CF869E700BF0D
:10CAB000A0F3010090F301001C0102204E4E022061
:10CAC0006763022074FA010094FA010015FC01006A
:10CAD0002C01022028010220684D022018010220AA
:10CAE000B2FA010066630220F7B50322494B4A49B6
:10CAF00000201A7005F00AFC484C494B0546E41A20
:10CB0000C4F3C90468B14FF00002012363F30702C4
:10CB1000014664F38F12434810F044F8284603B0EE
:10CB2000F0BD41480EF020FA404D2860E8B1404F7A
:10CB3000286843689B68002B48D098470146002826
:10CB400044D026F03F0343F0010363F3070664F388
:10CB50008F163246384610F025F8286843689B69DE
:10CB6000EBB90A200FF0A4F8E2E701234FF000022E
:10CB700063F3070264F38F122B492E4810F012F86A
:10CB80004FF0000201236FF0150163F307022A48FA
:10CB900064F38F1210F006F86FF00D05BEE7012266
:10CBA0000DF1070198470028D7D1DAE7234801F0B3
:10CBB000FBFE05460028B1D04FF00002012363F3CD
:10CBC0000702014664F38F121D48E3E72A685368A1
:10CBD00023B19B6C13B11B491046984700221A4B96
:10CBE0001A492868C3E901121A600FF017FC0721DF
:10CBF0001748FFF7A1FE114801F01CFA0146002872
:10CC0000D4D04FF00002012363F3070264F38F12C4
:10CC10001048BFE7676302203BC40100A0F3010096
:10CC200090F30100CFFA0100EDFA01002C0102207F
:10CC300024FB0100F4FA010004FB010027C40100F9
:10CC400084FB010059C9000020010220E9CC00004A
:10CC500059FB010061FB010008B50FF000FC014623
:10CC600068B102234FF00002194863F30702194B21
:10CC70001B1ADB0863F38F1217480FF093FF01F0C4
:10CC80002DFF014668B102234FF00002104863F304
:10CC90000702104B1B1ADB0863F38F120F480FF0CB
:10CCA00081FF0F49002005F081FB014678B1022386
:10CCB0004FF00002064863F30702064B1B1ADB081D
:10CCC00063F38F120748BDE808400FF06BBF08BD43
:10CCD00090F30100A0F30100A5FB0100CAFB0100D5
:10CCE0003BC40100EDFB0100684A694B116840F646
:10CCF0008B22914228BF1146002230B51C46654860
:10CD000087B05A5414F8011BA1F16105192D10F8D0
:10CD1000015B98BF20398D4205D101320A2AF1D139
:10CD200010215D4879E000215C4813F8012BA2F145
:10CD30006104192C10F8014B98BF203A94427AD123
:10CD400001310929F1D1564A0021514811F078FCEE
:10CD5000041E18DA01234FF00002524963F3070260
:10CD6000514B52485B1ADB0863F38F1221460FF0D8
:10CD700019FF08214E48FFF7DFFD4E4B18680FF0F2
:10CD80004DFB07B030BD424811F05DFC012805465F
:10CD90002CD1434811F083FD01280ED801234FF018
:10CDA0000001404A63F307013F4B43489B1ADB08ED
:10CDB00063F38F110FF0E9FEDBE702AA294638483A
:10CDC00011F038FD0028E9DBBDF80830002BE5D074
:10CDD000022B08D9032BE1D1BDF808000FF002FBAC
:10CDE00005213648C7E7FFF737FFF5E7002CC0D12C
:10CDF000F6E79DF80730032BBFD801A252F823F0C5
:10CE000011CE000073CD000021CE000031CE000015
:10CE10002B4810F0F5FB01462948FFF78DFDDFE7B1
:10CE20000A46284902A804F0A7F8411C02A8A2E774
:10CE30000A462549F6E7164800F052FE0028CFD0F2
:10CE4000233096D1124801F06DFD0028C8D0233060
:10CE50008FD11B490DF1070340F68C220C4805F0D9
:10CE6000B1F9011EC5DA01234FF000020D4863F34A
:10CE700007020D4B1B1ADB0863F38F1213480FF0E8
:10CE800091FE01238DF8073073E700BF18010220DF
:10CE90004E4E0220D4F9010064FA0100DFF90100CE
:10CEA0001001022090F30100A0F30100E9F9010054
:10CEB0001FFA01002C01022007FA01001AFA0100F2
:10CEC000DA5802204EFA010059FA010027FA01004F
:10CED000014B1B681B68184744030220014B1B6869
:10CEE0005B6818474403022070B5184C064620685A
:10CEF000002829DDFFF7F2FF051E16DA02234FF0A6
:10CF00000005134A63F30705124B9B1ADB0863F312
:10CF10008F150FF0A0FA01682A4649420E480FF01B
:10CF200041FE0FF098FA05686D424FF0FF33236021
:10CF30000023324609490A48A38004F01DF8A3687B
:10CF400007489847284670BD0025FBE730010220BE
:10CF500090F3010008F4010031FC010044FC0100E1
:10CF600068630220012838B50146214C2DD10622E4
:10CF7000FFF7AEFF0623206023712268002A2DDA16
:10CF800001234FF000051B4A63F307051A4B9B1A58
:10CF9000DB0863F38F150FF05EFA01682A464942F9
:10CFA00016480FF0FFFD0FF056FA0268144952427E
:10CFB000144803F0E1FFA368124898470023237147
:10CFC0000FF049FA0068404238BD0228D5D111223D
:10CFD0000120FFF77DFF11232060CDE723790A4967
:10CFE000084803F0C9FF0748A36898470020EBE70B
:10CFF0003001022090F3010008F4010053FC01000D
:10D0000044FC01006863022067FC0100012813B59D
:10D01000044604D0022850D06FF015042EE03048AA
:10D0200011F03DFC0128F7D9214601AA2C4811F046
:10D0300001FC041E22DBBDF80400012827D128488A
:10D0400011F02DFC0228E7D90DF106020221244837
:10D0500011F0F0FB041E11DB224B1B68002B10DDCE
:10D0600002234FF00001204A63F307011F4B2048C1
:10D070009B1ADB0863F38F110FF087FD204602B087
:10D0800010BD9DF80600FFF76DFF0446F6E7002887
:10D09000F4D1144B1B68002B0CDA02234FF0000173
:10D0A000114A63F30701114B12489B1ADB0863F323
:10D0B0008F11E1E7FFF718FFE7E70A4C2268531CDE
:10D0C00009D023790C490D4803F056FFA3680B489B
:10D0D00098470024D2E70A49084803F04DFFF5E7D6
:10D0E000100102203001022090F3010008F4010039
:10D0F0007DFD010096FD010067FC010068630220D0
:10D10000AFFD0100044B10B41B68DC6A0023A44689
:10D110005DF8044B604700BF440302204FF41073D6
:10D12000F0B52F4DADF5137D01936B79044693B99E
:10D1300001234FF000012B4A63F307012A4B2B48D0
:10D140009B1ADB0863F38F110FF01FFD6FF01500C2
:10D150000DF5137DF0BD0128F8D1254811F09FFB96
:10D160000128F3D902AE01AB32462146204811F026
:10D1700073FB0028ECDB0024019B3046F45410F0D4
:10D180003FFA0746A7421FD93A1B31192868FFF713
:10D19000B9FF002822DA0FF05EF900684FF00006B0
:10D1A0004042FFF7A1FE02230E4A63F307060E4B2F
:10D1B0009B1ADB0863F38F160FF04DF901683246B6
:10D1C00049420C480FF0EEFC22460B490B4803F095
:10D1D000D3FE0A48AB6898470020B9E70444D1E77A
:10D1E0003001022090F3010008F4010010FE01005C
:10D1F0001001022026FE010038FE010068630220B3
:10D20000044B10B41B685C6A0023A4465DF8044B11
:10D21000604700BF4403022030B52D4D85B02B6818
:10D220000446002B11DA01234FF00001294A63F371
:10D230000701294B29489B1ADB0863F38F110FF074
:10D24000A4FC6FF0150005B030BD0128F9D12448C9
:10D2500011F025FB0128F4D90DF1060221462048E2
:10D2600011F0E8FA0028EEDBBDF80620ADF8084022
:10D27000130243EA122300240822ADF80A30194BA6
:10D2800003941B680DEB0201DB6828689847A042F5
:10D290001BDA01230F4A63F307040F4B9B1ADB08C9
:10D2A00063F38F140FF0D7F80168224649420E4805
:10D2B0000FF078FC0FF0CFF800684042FFF714FE43
:10D2C0000FF0C9F800684042BDE72046BBE700BF49
:10D2D0003001022090F3010008F4010055FD010027
:10D2E00010010220440302206BFD01002DE9F041F2
:10D2F0001446804601258EB0244F20220E4606A8F3
:10D30000002110F0E2F93B68CDE9075406AA5C6BF6
:10D31000002101AB4046A047044688B14FF000020F
:10D320001B491C4B65F307025B1ADB08014663F3DC
:10D330008F1219480FF036FC20460EB0BDE8F08180
:10D34000019B83B901234FF00001114A63F30701E8
:10D35000104B12489B1ADB0863F38F110FF015FC7A
:10D360006FF00104E8E75B690D495B6876BA4B60D2
:10D370000D804E80102302AA0431284603F03EFEA1
:10D380003B6801989B6B9847D6E700BF4403022097
:10D3900090F3010008F4010028FF010045FF01009F
:10D3A0002C4E022008B50123064A49BA1380518049
:10D3B00001460432184610F092FA002818BF6FF0A8
:10D3C000150008BD2C4E0220802370B5A2B0019339
:10D3D0004F4B04461A681E46002A10DA01234FF00C
:10D3E00000014C4A63F307014B4B4C489B1ADB0886
:10D3F00063F38F110FF0C9FB6FF0150445E00128AE
:10D4000009D00228F8D15C799A68002C76D044487B
:10D410009047002439E0434811F041FA0228EBD943
:10D42000214601AB02AA3F4811F016FA041E2CDB7C
:10D430000025019B22AA134402210DF10202394862
:10D4400003F8805C11F0F6F9041E1EDB02A8BDF89B
:10D45000024010F0D5F82B4602A9C0B2834217DB78
:10D46000214602A8FFF79EFF0446D4B101234FF0E6
:10D470000002284963F30702274B2B485B1ADB089D
:10D4800063F38F1221460FF08DFB204622B070BD52
:10D4900011F8012B2E2A02D0303A092A31D8013353
:10D4A000DCE7224B08221B6821495B6930689847FA
:10D4B00000281DDA01234FF00004164A63F3070425
:10D4C000154B9B1ADB0863F38F140EF0C4FF016841
:10D4D0002246494217480FF065FB0EF0BCFF00687A
:10D4E0004042FFF701FD0EF0B6FF04686442CCE74E
:10D4F000012311487371B3689847C6E70F489047F6
:10D50000C3E70122214602A8FFF7F0FEACE700BF07
:10D510003001022090F3010008F4010055FD0100E4
:10D52000F2FD010010010220BDFD010044030220B4
:10D530002C4E0220CEFD0100E3FD010001FE0100A2
:10D5400000230822F0B5ADF5157DCDE902133F4B60
:10D550003F4D1B680092DC6907460DEB0203012179
:10D5600014222868A047041E1CDA0EF074FF00681D
:10D570004FF000054042FFF7B7FC0123354A63F343
:10D580000705354B9B1ADB0863F38F150EF063FF1D
:10D5900001682A46494231480FF004FB20460DF548
:10D5A000157DF0BDB7F5107F04AE8CBF4FF410723F
:10D5B0003A4628683146FFF723FE002804461DDA64
:10D5C00002234FF00004234A63F30704224B9B1A03
:10D5D000DB0863F38F140EF03EFF016822464942D8
:10D5E0001F480FF0DFFA0EF036FF00684042FFF7E9
:10D5F0007BFC0EF030FF04686442CFE711D10223B8
:10D600004FF00001134A63F30701134B15489B1AAF
:10D61000DB0863F38F110FF0B8FA2046FFF764FCC4
:10D62000BCE70027AB6837540F489847AB683046D3
:10D630009847AB680D48984722460D490D4803F0BE
:10D640009BFCAB680B4898473C46A7E74403022085
:10D650003001022090F3010008F401007AFC01007F
:10D6600091FC0100A2FC0100B2FC01000DFE0100D2
:10D67000BEFC010068630220194B13B55B790446B8
:10D680008BB901234FF00001164A63F30701164BD3
:10D6900016489B1ADB0863F38F110FF076FA6FF0D0
:10D6A000150002B010BD0128F9D1114811F0F7F8AA
:10D6B0000228F4D901AA21460D4811F0BBF8002830
:10D6C000EFDB0DF106020221094811F0B3F8002842
:10D6D000E7DBBDF80610BDF80400FFF731FFE0E717
:10D6E0003001022090F3010008F4010010FE010057
:10D6F0001001022038B504460D460FF081FF0023CB
:10D70000C0B2834216DB29462046FFF74BFE044693
:10D7100074B101234FF000020D4963F307020D4B72
:10D720000D485B1ADB0863F38F1221460FF03AFABB
:10D73000204638BDE25C2E2A02D0303A092A01D8B0
:10D740000133DEE7022229462046FFF7CFFDDEE760
:10D7500090F3010008F40100BDFD010080232DE9D4
:10D76000F047ADF5387D0493694B80461A681D4635
:10D77000002A14DA01234FF00001664A63F307011F
:10D78000654B66489B1ADB0863F38F110FF0FDF9B8
:10D790006FF0150420460DF5387DBDE8F0871B7944
:10D7A000112B0CD001234FF000015A4A63F30701FB
:10D7B000594B5B489B1ADB0863F38F11E6E701289E
:10D7C000E6D1584811F06BF80428E1D908AF04AB52
:10D7D0003A464146534811F03FF8041EDADB4FF059
:10D7E000000A049B0DF10A0202214E4807F803A02B
:10D7F00011F020F8041ECDDB03AA0321494811F0E3
:10D8000019F8041EC6DB0DF10E020421454811F083
:10D8100011F8041EBEDB1822BDF80E3005AEBDF8AF
:10D820000A103846BDF80C903260CDE9063AFFF791
:10D8300061FF041EAEDB08223B4F41463B6800926D
:10D84000DC69142206AB2868A047041E19DA0123FC
:10D850004FF000052F4A63F307052F4B9B1ADB0897
:10D8600063F38F150EF0F7FD01682A4649422F48F1
:10D870000FF098F90EF0EFFD00684042FFF734FB1F
:10D8800088E73B68B9F5107F9C6A294B28AF286868
:10D8900088BF4FF410720196009398BF0FFA89F277
:10D8A00000233946A047002806461DDA02234FF020
:10D8B0000004184A63F30704174B9B1ADB0863F351
:10D8C0008F140EF0C8FD01682246494219480FF036
:10D8D00069F90EF0C0FD00684042FFF705FB0EF04D
:10D8E000BAFD0468644255E70024AB683C54124812
:10D8F0009847AB6838469847AB6810489847324617
:10D900000F49104803F038FBAB680E48984741E7D1
:10D910003001022090F3010008F4010055FD0100E0
:10D9200048FE010010010220440302207AFC01009D
:10D930002C4E022057FE01006CFE01000DFE01007E
:10D9400078FE0100686302202DE9F3470446104683
:10D950000D4617460FF054FE294606462046FFF7AF
:10D96000C9FE00283CDB0024204DDFF89880DFF85A
:10D970009890A64209D822461D491E4803F0FCFA99
:10D980001C48AB68984700202AE00822CDE90092A5
:10D99000D8F80030321BD3F830A03919002328689A
:10D9A000D04700281FDC01234FF00004124A63F324
:10D9B0000704124B9B1ADB0863F38F140EF04BFD28
:10D9C0000168224649420E480FF0ECF80EF043FD84
:10D9D00000684042FFF788FA0EF03DFD00684042C3
:10D9E00002B0BDE8F0870444C3E700BF3001022065
:10D9F000E2FC01006863022090F3010008F40100DA
:10DA0000CEFC0100440302202C4E022070B52E4BA8
:10DA1000ADF5327D1A680546002A12DA01234FF06F
:10DA200000012A4A63F30701294B2A489B1ADB08A5
:10DA300063F38F110FF0A9F86FF015000DF5327D2B
:10DA400070BD1B79112B0CD001234FF000011F4A30
:10DA500063F307011E4B20489B1ADB0863F38F1109
:10DA6000E8E70128E8D11D4810F019FF0328E3D9A1
:10DA7000802302AC0193224601AB2946174810F0DF
:10DA8000EBFE0028DADB0026019B0DF102020221E9
:10DA90001248E65410F0CEFE0028CFDB4FF410738E
:10DAA00022AD01932A4601AB03210C4810F0D4FEAD
:10DAB0000028C3DB019B2A46BDF802102046EE5425
:10DAC000FFF742FFBAE700BF3001022090F30100E8
:10DAD00008F4010055FD010048FE0100100102207C
:10DAE0002DE9F041204D06460024A8466F683846CF
:10DAF0000FF086FD0023C0B2834218DB00211B4AD1
:10DB0000304610F09DFD011E1CDA01234FF000028B
:10DB1000174863F30702174B1B1ADB08164863F319
:10DB20008F120FF03FF86FF01500BDE8F081F25C46
:10DB3000A2F161011929F95C98BF203A91420BD1F9
:10DB40000133D9E7304610F07EFD0C2303FB04843B
:10DB5000A368BDE8F04118470134072C05F10C0516
:10DB6000C4D16FF02200E0E748F401001001022068
:10DB700090F3010008F40100E9F9010010B5A6B026
:10DB80009622002168460FF0A0FD40F201220021FC
:10DB90006620FFF79DF9041E0DDA01234FF0000106
:10DBA000244A63F30701244B24489B1ADB0863F3E0
:10DBB0008F110EF0EAFF22480FF022FD20490246A5
:10DBC0002046FFF79FFA002810DA03234FF00001E8
:10DBD000184A63F30701184B1A489B1ADB0863F3D2
:10DBE0008F110EF0D2FF2046FFF778F964226946C4
:10DBF0002046FFF705FB0028F8D0134968460FF0D0
:10DC0000AAFC68B103234FF000010A4A63F307013D
:10DC1000094B0E489B1ADB0863F38F110EF0B5FF1A
:10DC200040F6B8300EF019FC2046FFF757F926B041
:10DC300010BD00BF90F3010008F40100F4FC0100E6
:10DC400011FD010038FD01002602020048FD01001F
:10DC500010B5A6B09622002168460FF036FD40F2BE
:10DC6000012200216620FFF733F9041E0DDA01239B
:10DC70004FF00001244A63F30701244B24489B1A08
:10DC8000DB0863F38F110EF080FF22480FF0B8FC21
:10DC9000204902462046FFF735FA002810DA032310
:10DCA0004FF00001184A63F30701184B1A489B1AFA
:10DCB000DB0863F38F110EF068FF2046FFF70EF9C3
:10DCC000642269462046FFF79BFA0028F8D01349E2
:10DCD00068460FF040FC68B103234FF000010A4A88
:10DCE00063F30701094B0E489B1ADB0863F38F119E
:10DCF0000EF04BFF40F6B8300EF0AFFB2046FFF7BA
:10DD0000EDF826B010BD00BF90F3010008F401004B
:10DD1000F4FC010018FC010038FD0100260202009D
:10DD200023FC010003234FF000012DE9F04F63F3C2
:10DD30000701A64CA64BA9B0E41AC4F3C90464F3C6
:10DD40008F11A4480EF021FF9622002102A80FF0A7
:10DD5000BCFC40F2012200216620FFF7B9F8051E45
:10DD600016DB9D480FF04CFC9B4902462846FFF706
:10DD7000C9F900280FDA4FF000010323974863F335
:10DD8000070164F38F110EF000FF2846FFF7A6F895
:10DD90004FF0FF30F5E0642202A92846FFF730FA81
:10DDA0000028F8D08E4902A80FF0D5FB70B38D493A
:10DDB00002A80FF0D0FB8C4A831C0A3013F8011F15
:10DDC000984202F8011BF9D14FF00002032363F3DC
:10DDD000070264F38F12844984480EF0E3FE4FF487
:10DDE0007A700EF03AFB82480FF00AFC8049024636
:10DDF0002846FFF787F9002817DA4FF000010323C0
:10DE000063F3070164F38F117A48BCE77A4902A8EB
:10DE10000FF0A1FB0028E2D04FF00001012363F3D3
:10DE2000070164F38F117548ADE7642202A9284603
:10DE3000FFF7E6F90028F8D0694902A80FF08BFB3C
:10DE400000283ED02C2102A80FF0CDFB461C6C49C7
:10DE500030460FF080FB804630460FF0D1FB07467E
:10DE600040460FF0CDFB31463A1A68460FF003FCEE
:10DE70000A2201A968460FF07FFA624B4FF00002B8
:10DE80001870032363F30702C1B264F38F125E4874
:10DE90000EF088FE4FF47A700EF0DFFA5B480FF058
:10DEA000AFFB5A4902462846FFF72CF9002817DA3B
:10DEB0004FF00001032363F3070164F38F1154480B
:10DEC00061E74D4902A80FF046FB0028E2D04FF071
:10DED0000001012363F3070164F38F114D4852E7FA
:10DEE000962202A92846FFF78BF90028F8D03C4972
:10DEF00002A80FF030FB002858D0474902A80FF0C5
:10DF00002AFB0646002844D0444902A80FF023FB10
:10DF1000074642480FF074FB0744394938460FF072
:10DF20001AFB00268146DFF8F8B038460FF068FB90
:10DF3000804648460FF064FB5FFA86FAA8EB0000C3
:10DF4000824506F101061FD34FF00002032363F35D
:10DF5000070264F38F12324932480EF023FE4FF469
:10DF60007A700EF07AFA2846FEF7B8FF03234FF0D6
:10DF7000000163F307012C4864F38F110EF005FED6
:10DF8000002029B0BDE8F08F17F80A300BF80A30EE
:10DF9000CBE703234FF0000163F3070164F38F1114
:10DFA00022480EF0F2FD1E4B1E70D8E7124902A85F
:10DFB0000FF0D1FA0028D2D04FF00001012363F313
:10DFC000070164F38F111A48DDE600BF08F4010071
:10DFD00090F301005FFF010082FF01008CFF010050
:10DFE000260202009DFF010094640220A1FF0100AF
:10DFF000E1FF0100E9FF0100B6FF0100BCFF0100E5
:10E000000EFE01009E640220F9FF01002D000200B7
:10E01000390002000B000200300002004D00020037
:10E020009F640220590002009F0002006800020065
:10E030007C0002002DE9F04F524A534CA7B0A41ABD
:10E04000C4F3C90478B901234FF0000163F3070159
:10E0500064F38F114D480EF098FD6FF0150840469F
:10E0600027B0BDE8F08F00254FF0FF31484A11601E
:10E07000906095804FF00001032262F3070164F382
:10E080008F1144480EF081FD9622294668460FF014
:10E090001CFB40F2012229466620FEF719FF061EEE
:10E0A00026DB3D4FDFF808A12BF03F0242F00302D0
:10E0B00062F3070B64F38F1B5A46394637480EF05C
:10E0C00071FD38460FF09CFA394602463046FFF79C
:10E0D00019F8002819DA4FF000010323304863F3E0
:10E0E000070164F38F110EF050FD3046FEF7F6FE87
:10E0F00001234FF0000163F3070164F38F112948F6
:10E100000EF043FD4FF0FF38A9E702226946304682
:10E11000FFF776F80028F8D00222514668460FF043
:10E120009AFA804640B14FF00001032363F30701E0
:10E1300064F38F111C48D6E729F03F0242F0030236
:10E1400062F3070964F38F19494650460EF01DFD2E
:10E15000013540F6B8300EF080F9042D07F128079C
:10E16000A2D13046FEF7BAFE03234FF0000163F35D
:10E17000070164F38F110D480EF007FD0220FEF732
:10E18000F1FE6CE790F3010008F40100EC010200DD
:10E1900030010220F801020088FE0100E10D0200BA
:10E1A00017020200470202002502020029020200B3
:10E1B0002602020003234FF000012DE9F04163F332
:10E1C00007016B4C6B4B6C4EE41AC4F3C904ADF5FC
:10E1D000227D64F38F1169480EF0D7FC3746DFF8D3
:10E1E000DC813378002B00F09C8003234FF0000289
:10E1F000634E63F3070264F38F12B17961480EF046
:10E20000D1FC03234FF000025F4D63F3070264F378
:10E210008F12F1795D480EF0C5FCAB7F0B936B7FDD
:10E220000A932B7F0993EB7E0893AB7E07932B8B8E
:10E2300006936869FEF758F9CDE904012869FEF7ED
:10E2400053F9CDE90201D5E90223CDE90023504974
:10E25000D5E900230CA802F08FFE4E490CA8B56842
:10E260000FF0F0F9A847FFF7F3FC40F6B8300EF0D6
:10E27000F4F8FFF757FD014600286ED14FF4FA720B
:10E2800025A80FF022FA444925A80FF0DBF94349ED
:10E2900025A80FF0D7F9424925A80FF0D3F93F4937
:10E2A00025A80FF0CFF93F490B7813B125A80FF03F
:10E2B000C9F93A4925A80FF0C5F90CA925A80FF00E
:10E2C000C1F9374B1B78FF2B3CD025AA40F2F64111
:10E2D0003548FFF739FB4FF00005032325A863F30A
:10E2E00007050FF08DF964F38F1502462B4625A91B
:10E2F0002E480EF06BFCFFF741FC00234FF00001AD
:10E300003B70032363F3070164F38F1128480EF079
:10E310003CFC44F620600EF0A0F80DF5227DBDE82F
:10E32000F0814FF47A700EF098F825F03F0343F037
:10E33000030363F3070564F38F15294640460EF087
:10E3400024FC4EE701234FF0000163F3070164F35F
:10E350008F1118480EF019FCCDE701234FF0000192
:10E3600063F3070164F38F1113480EF00EFCC4E74A
:10E3700008F4010090F3010044650220BF00020090
:10E380003C010220EC000200000002200401020017
:10E390001C0102000DFE01009464022046010200EF
:10E3A0009E6402209F640220480102006201020074
:10E3B000D401020083010200A8010200D80002007B
:10E3C000014B1B685B6818474403022030B50024EA
:10E3D0001A4D85B028680394431C20D004230822DA
:10E3E00000934FF4017103AB08F0BEFF0446C8B1BF
:10E3F00001234FF00004124A63F30704114B9B1AE8
:10E40000DB0863F38F140EF02DF8016822464942B1
:10E410000D480EF0C7FB0EF025F804686442204654
:10E4200005B030BD094B18680DF080FD286808F074
:10E43000D7FEAC71AB6806489847F0E73C01022074
:10E4400090F30100C8F30100AD030200F8010220BF
:10E45000CA0302000023F0B50127704D8BB0ADF860
:10E460001E300993AB884FF4017202213846ADF893
:10E470002070ADF8223008F0A1FE0028286031DAC3
:10E480004FF00004664A674B67F307049B1ADB08EA
:10E4900063F38F140DF0E6FF01682246494262489B
:10E4A0000EF080FB6FF0150401234FF000025C4971
:10E4B00063F307025B4B5D485B1ADB0863F38F1263
:10E4C00021460EF06FFB224659495A4802F054FD8E
:10E4D000AB68584898470023AB710DF0C3FF046840
:10E4E000644288E002260DF11E03009632464FF486
:10E4F000017108F039FF044698B101234FF000067E
:10E50000474A63F30706474B9B1ADB0863F38F16F2
:10E510000DF0A8FF32460168474849420EF042FB21
:10E52000C2E7009608AB3A464FF40171286808F03C
:10E530001BFF044688B101234FF00006384A63F3FD
:10E540000706384B9B1ADB0863F38F160DF08AFF22
:10E550000168324649423948E0E700960DF122034E
:10E5600004224FF40171286808F0FEFE044688B1C9
:10E5700001234FF000062A4A63F30706294B9B1A32
:10E58000DB0863F38F160DF06DFF016832464942D8
:10E590002B48C3E70423072200934FF4017109AB12
:10E5A000286808F0E1FE044688B101234FF0000618
:10E5B0001B4A63F307061B4B9B1ADB0863F38F169A
:10E5C0000DF050FF0168324649421E48A6E71E4E34
:10E5D000306898B10DF0CAFC0123AA881B49154880
:10E5E000AB7102F0C9FCAB681248984710F013FCFD
:10E5F000174BC3E9000120460BB0F0BD0E23CDE957
:10E600000444CDE90243CDE90044124B4FF480624B
:10E61000114912480DF036FC3060DDE73C01022064
:10E6200090F30100C8F30100C50202008903020053
:10E630009E03020003650220E50202000D030200B2
:10E64000380302005A030200F80102207803020096
:10E650000001022055E70000B866022048010220B0
:10E66000012813B5044604D002284CD06FF01504DD
:10E670002DE02E4810F013F90128F7D921460DF1AD
:10E6800006022A4810F0D6F8041E20DBBDF806303A
:10E69000012B23D1254810F002F9022806D9244A7B
:10E6A0000221224810F0C6F8041E10DB214B9B7992
:10E6B00083B102234FF000011F4A63F307011F4B90
:10E6C0001F489B1ADB0863F38F110EF05EFA204699
:10E6D00002B010BDFFF7BEFE0446F8E7002BF6D1EE
:10E6E000144B9B7963B902234FF00001124A63F384
:10E6F0000701124B13489B1ADB0863F38F11E4E701
:10E70000FFF764FEE8E70B4CA3794BB1A2880E49F2
:10E710000E4802F031FCA3680C4898470024D6E765
:10E720000B490A4802F028FCF5E700BF100102205F
:10E73000400102203C01022090F30100C8F30100D7
:10E74000F9040200080502007803020003650220B4
:10E75000CA0302002DE9FF47624F634E3D46634BFB
:10E76000634CF61AC6F3C9060023D82260493868FC
:10E7700008F096FD002821DC01234FF0000463F32C
:10E7800007040DF06FFE016866F38F1422464942BC
:10E7900058480EF007FA0DF065FE026856495242DD
:10E7A000564802F0E9FBBB6854489847386808F0BF
:10E7B00017FD0023BB7104B0BDE8F0872378012B5F
:10E7C000D2D1F979002955D094F84430DB07CBD564
:10E7D0004FF0010928F03F0343F0030363F30708F8
:10E7E00066F38F18414646480EF0CFF9D4E902018E
:10E7F000444BA26983F80090434B1A61A26BC3E9B2
:10E800000001D4E904015A61404AC3E9020107CA80
:10E81000183303C339481A80AB68984794F82E30F0
:10E820003B49039394F82D303448029394F82C30EC
:10E83000019394F82B30009394F82A30228D02F043
:10E840009BFBAB682D489847EB79002B8CD110F0DF
:10E85000E2FA304B30491A684FF47A73821A92FB0D
:10E86000F3F2264802F088FBAB682448984785F805
:10E87000079079E70B46894608461D4AB2F846C01C
:10E880000CF1FF3CBCF11F0F10D892F850C009F1F9
:10E8900001091CF0010F1CBF0133DBB21CF0080F93
:10E8A00018BF01315FFA89F918BFC9B201300C28CD
:10E8B00002F10C02E2D1DFF868A09AF800204A4584
:10E8C00082D000914A4615490C4802F055FBAB68CE
:10E8D0000A48984723788AF80090012B3FF474AFD8
:10E8E00042E700BF3C010220C8F3010090F30100A1
:10E8F00028000220780402009E0302000365022023
:10E90000B7040200446502200000022050000220EB
:10E91000BF04020000010220E70402008B04020091
:10E920004365022038B504461A480EF069FE0023FC
:10E930001849C0B2834217DB0021174A20460FF066
:10E940007FFE011E1CDA01234FF00002134863F31F
:10E950000702134B1B1ADB08124863F38F120EF0E9
:10E9600021F96FF0150038BDE25CA2F16105192DA7
:10E9700011F8015B98BF203A954208D10133D9E7DD
:10E9800020460FF060FEBDE83840FFF769BE6FF02B
:10E990002200E8E73F0502001001022090F3010089
:10E9A000C8F30100E9F901002DE9F74F404B414C54
:10E9B000E41AC4F3C90470B901234FF0000163F3F2
:10E9C00007013D4864F38F110EF0DFF86FF015007A
:10E9D00003B0BDE8F08F01224FF0FF310025374B27
:10E9E000374FC3E900129860364B4FF000011D60AD
:10E9F000032363F3070164F38F1133480EF0C5F866
:10EA00003B6840F201221B68294666209847061E93
:10EA1000B84620DB2D4FDFF8C0A029F03F0343F0BC
:10EA2000030363F3070964F38F194A4639462848FC
:10EA30000EF0B8F838460EF0E3FDD8F80030024684
:10EA4000D3F82CB0394600233046D847002806DAE0
:10EA50003046FFF7B5FCFFF7FDFC0020B8E7D8F81B
:10EA600000300222D3F824B001A900233046D84751
:10EA70000028F4D00222514601A80EF0ECFD002837
:10EA8000E6D14FF47A7001350DF012F9042D07F13B
:10EA90002807C2D13046FFF793FC03234FF0000153
:10EAA00063F3070164F38F110A480EF06EF8D2E7A2
:10EAB00090F30100C8F30100EC0102003C010220C8
:10EAC00044030220F80102201B050200D8030200C3
:10EAD000E10D0200330502002602020010B5064CCB
:10EAE000236833B1FFF772FC206801F05BFB002361
:10EAF0002360002010BD00BFF80102200B68013325
:10EB00000B60014B1B6818470CC502202DE9F04F24
:10EB100085B00E9C9B46012CB8BF0124012B0CBF75
:10EB20003023202316468246884601250A270022E4
:10EB3000DFF86C900293B6FBF9F301930AB9B14583
:10EB40001CD8019B414603F13000D047012201351A
:10EB5000019B013F09FB13660A23012FB9FBF3F95F
:10EB6000E9D1414606F13000D047BBF1030F02D195
:10EB7000641B002C0EDC05B0BDE8F08FBC42E7DB67
:10EB8000BBF1020FE4D84146029803920135D04709
:10EB9000039ADDE741462020D047013CE9E700BF6A
:10EBA00000CA9A3B014B1860704700BF0CC5022099
:10EBB000002307B50246019303480B4601A90DF057
:10EBC00041FE03B05DF804FBFDEA00004FF02002B7
:10EBD000EFF3118382F31188BFF36F8F0121044A91
:10EBE000C2F8401583F31188BFF36F8F0020704780
:10EBF0000090034030B5002287B00D490D4810F059
:10EC000018F900240E230C4DCDE90243CDE904444C
:10EC1000CDE90044094B4FF44072094928460DF0F4
:10EC200031F90849284610F06DF8204607B030BD8C
:10EC300049EC0000100202205802022029EF0000D7
:10EC4000B86A02206105020001480DF05FB800BFFC
:10EC500088C6022008B500F0DFF909480DF072FF00
:10EC600004233422074808490FF031FE074B084AB5
:10EC70004FF400401A60BDE8084000F0FDBB00BF43
:10EC8000080202203C020220F8AA022010C502203D
:10EC900083CB0100F8B500250C4BD3E8EF7FC3E828
:10ECA000E25F002AF9D10A4C0A4E361B3611B542F2
:10ECB00000DBF8BD63685B792BB12368DB6813B1B7
:10ECC00039462046984701351034F0E7000202200B
:10ECD00018F4010028F40100224B2DE9F0411B78C3
:10ECE000054603B940B34FF02003EFF3118483F3DB
:10ECF0001188BFF36F8F1C480DF034FF074684F373
:10ED00001188BFF36F8F58B1184BD3E8EF2F013A3A
:10ED1000C3E8E12F0029F8D18DB138460EF00FF885
:10ED200025B9134B1B680BB1FFF7B4FF0E480DF06C
:10ED300017FF051C18BF01252846BDE8F081A8462D
:10ED40000C4C0D4E361B3611B045E6DA63685B7924
:10ED500023B1236839461B682046984708F101080B
:10ED60001034F1E74565022008020220FC01022070
:10ED70000002022018F4010028F40100244B70B5B1
:10ED80001B68418105469847224CE860D4E8EF3F74
:10ED90000133C4E8E23F002AF8D14FF02003EFF33B
:10EDA000118683F31188BFF36F8F1B4829460DF03E
:10EDB000CDFE86F31188BFF36F8F184B1A787AB1A6
:10EDC0004FF02003EFF3118483F31188BFF36F8FAB
:10EDD0000020FFF781FF84F31188BFF36F8F70BDB0
:10EDE0000F49236809680029F9D0012B06D1BDE835
:10EDF00070404FF47A710B480DF05EBA0A2BEED1D9
:10EE0000084810F022F8BDE8704007480CF07EBFBB
:10EE100010C50220FC0102200802022046650220E3
:10EE2000080302201002022088C60220044BD3E807
:10EE3000EF2F0132C3E8E12F0029F8D1704700BF5E
:10EE400000020220044A054B9B1AB1EBD30F34BFDA
:10EE500052F831000020704790F3010018F40100CF
:10EE6000094B4268C31A1B11013310B513710122FB
:10EE70004368064C5A712278196012B904480CF0A4
:10EE800045FF0123237010BD18F4010045650220E1
:10EE900088C6022070B50F4BD3E8EF5F6A1CC3E849
:10EEA000E12F0029F8D12DB90B4C0C4E361B361131
:10EEB000B54200DB70BD237B43B123685B6903B1BE
:10EEC0009847042200212046FFF7CAFF013510347D
:10EED000EEE700BF0402022018F4010028F401004C
:10EEE000F8B50E4F3D7875B9FFF7D4FF0C4C0D4EB9
:10EEF000361B3611B54207DB0020FFF7EDFE002878
:10EF0000FAD101233B70F8BD63685B791BB12368BC
:10EF100020461B69984701351034EBE7466502200F
:10EF200018F4010028F4010008B5FFF7B3FF0CF056
:10EF3000E7FE0B4B186030B10A4B1B68092B02DD52
:10EF400009480CF0E3FE084C0020FFF7C5FE00283E
:10EF5000FAD14FF0FF3120460CF004FFF4E700BF78
:10EF600008030220FC01022088C60220144B37B59A
:10EF70009842044602D3134B98421BD3002201A9A6
:10EF800011480CF07FF90546B8B90122019BD3E87E
:10EF9000EF1FC3E8E02F0028F9D1019821462D2268
:10EFA00004300EF0FFFA7E23019C84F8313084F89F
:10EFB00032500434204603B030BD044CFAE700BFA1
:10EFC000A4F00100C40F02003C0202206905020007
:10EFD00048B1054B984205D3D03398422CBF00204E
:10EFE0000120704700207047F8AA022007B50438B6
:10EFF0000190D0E8EF3F5A1EC0E8E12F0029F8D178
:10F00000012B03D101A903480CF068F903B05DF8A6
:10F0100004FB00BF3C020220202302491A4602489A
:10F020000FF055BCC8AB02200C030220002337B5FB
:10F03000094D01930120FFF74FFE0446FFF7F6FE4E
:10F04000002201A928460CF01DF908B1002CF1D1CD
:10F05000019803B030BD00BF0C03022007B50022A9
:10F0600001A9064801920CF00DF910B1FFF7DEFF7F
:10F070000190019803B05DF804FB00BF0C0302206F
:10F080007FB5047A457A14F0010401904FEA151512
:10F090000ED0019B1A7A920704D55B69104C03933A
:10F0A000039BB3B901A90E480CF018F904B070BD68
:10F0B000002DEED0A5420198EBD921460DF022FE9D
:10F0C0000646FFF785FF10B13046FFF78FFF01348A
:10F0D000F0E71D6803A920460CF000F90395DFE76F
:10F0E0000C0302200EB403B503AB53F8042B014606
:10F0F000044801930DF0A6FB002002B05DF804EB7C
:10F1000003B0704705D101002DE9F04F11F0020462
:10F1100085B0064690469DF8387001F0010901F06F
:10F12000080507D011F0440F37D11A463249FFF7CE
:10F13000D9FF0446B9F1000F0AD0304B304953F8DB
:10F140002720304B3046002A08BF1A46FFF7CAFF77
:10F150003DB12D4B2D4953F827203046FFF7C2FF14
:10F160000546B8F1000F44D0012303FA07F7284BF6
:10F1700017F0100F274F18BF1F46BDF840109DF81D
:10F180003C00FFF75FFE394602463046FFF7AAFF14
:10F190002844204405B0BDE8F08F1F4A116831B300
:10F1A0001E4A4FF4616E14684FF47A7CB3FBF4F39B
:10F1B000B3FBF1F4B4FBFEF20EFB124E01FB143470
:10F1C0000CFB04F4B4FBF1FB4FF03C0A01FB1B44C5
:10F1D0000CFB04F4BEFBFAF3B4FBF1F1CDE901B191
:10F1E0000AFB13E100910E49FFF77CFFA1E70846F7
:10F1F0009FE7084FC1E700BFCE050200C4F401003D
:10F20000E10D0200C0050200D8F40100F305020080
:10F21000CA050200C5050200280302202C030220B3
:10F22000D705020038B50C46E107054603D5084A64
:10F230000849FFF757FFE20608D4A3062846BDE8B1
:10F2400038404CBF04490549FFF74CBF38BD00BFEB
:10F25000C0050200E10D02000EFE01000DFE0100DE
:10F260002DE9F0479846089B0446DD060E461746F2
:10F2700005D499064CBF29492949FFF733FF0025DA
:10F28000DFF8A49045452ADB0025DFF8A080DFF8F1
:10F29000A090DFF894A0BD422ED2725D4946204670
:10F2A000FFF720FF0135102D1FD11E492046FFF723
:10F2B00019FF0025DFF87080DFF87890AF4227D97A
:10F2C000725D4946A2F120035F2B28BF2E22204603
:10F2D000FFF708FF0135102D13D1BDE8F08749462F
:10F2E0002046FFF7FFFE0135CCE76A07D3D1514630
:10F2F0002046FFF7F7FECEE741462046FFF7F2FE35
:10F30000D0E76B07DAD141462046FFF7EBFED5E7A1
:10F3100041462046FFF7E6FEDCE700BF0EFE010097
:10F320000DFE0100910502008F0502008D0502000F
:10F3300087050200930502002DE9F0478B7A1746F6
:10F3400013F007048AB005460E460A7A1CD0D24351
:10F350004989C3F3C20389090291CDE9004302F050
:10F360000102F3683946FFF7CFFE8146337ADA07A8
:10F370000CD4294630460DF05BFD4CB3224639468D
:10F380002846FFF74FFF23E0A146EFE734BB2746AF
:10F39000EB6806AA0693A9683B4630460DF034FD9B
:10F3A000069A6B681A603AB1AB68134413F8014CC3
:10F3B000A4F10A035C425C4128460DF096FE069BD0
:10F3C0001F44002BE4D11CB114492846FFF78AFEE4
:10F3D00028460DF08AFE0AB0BDE8F08730460DF0F1
:10F3E000BDFC0F4902462846FFF77CFE4FF000089F
:10F3F0004FF0100A05AA434606A93046CDF814A0DE
:10F400000DF002FD059A002AB8D04B46009706A9D8
:10F410002846FFF725FF059B9844EBE79605020079
:10F42000E10D020073B5D0E900435D6842F20F734D
:10F430008B4228BF0B460D4A0521684601F084FD2A
:10F4400006462B4620460B2209490DF0E4FC2B46CC
:10F450003246694620460DF0DEFC2B461B2205494C
:10F4600020460DF0D8FC02B070BD00BF8804020039
:10F47000B40502009805020001230021074A10B5D7
:10F48000074C1360A04204D801B11360054B18600B
:10F4900010BD40085B000121F4E700BF2C030220EF
:10F4A00040420F002803022001480DF01EBE00BF9D
:10F4B00004F501000148FFF7B5BF00BF04F50100E6
:10F4C00008B503480BF050FD024B586008BD00BF63
:10F4D000EDFA01003803022010B50C4608460DF085
:10F4E00005FC214604480F22FFF726FF2046BDE811
:10F4F00010400DF024BC00BF04F50100014B186062
:10F50000704700BF440302200A2838B50446074D5F
:10F5100004D1286843680D215B68984728684368D0
:10F52000E1B25B689847204638BD00BF480302201F
:10F5300010B5044C204601F001FD2046BDE8104006
:10F54000FFF730BB09F5000008B504480BF00CFDCF
:10F55000034B1860FFF7ECFF002008BDEDFA010037
:10F560004803022010B5002204460121052000F0C6
:10F57000C9F9052000F0B6F90222054B0020C3F8B6
:10F5800018250322C3F80423A368C3E9000010BDB3
:10F590000050004008B5104B1A6862B10F4AD2F80B
:10F5A0000423D10707D500220D481A6083685B7ACF
:10F5B0000BB90DF05BFE0B4B1A685AB1074AD2F833
:10F5C0000423920706D5002207481A60BDE80840C8
:10F5D0000DF04CBE08BD00BF00510040005000407F
:10F5E0009CC5022004510040A8C5022000220D4BFA
:10F5F000C3F840214FF02002EFF3118182F311880C
:10F60000BFF36F8F084AD3F804051368C01A20F0BF
:10F610007F400344136081F31188BFF36F8F0CF0B8
:10F62000B3BD00BF005001406403022070B518480C
:10F630000BF09AFC48B3436800211B6898470126E9
:10F6400000244FF480334FF40012124D3146C5F8B8
:10F650000845C5F84065C5F804330F4B15201C60FC
:10F660000E4BC3F88021224600F04CF9152000F023
:10F6700039F920460A4B1E602E60D5F80435334414
:10F6800023F07F43C5F8403570BD4FF0FF30FBE7F6
:10F6900030060200005001404051014000E100E00E
:10F6A0000850014070B5254CB0F1FF3F08BF20461F
:10F6B0004FF02003EFF3118583F31188BFF36F8FB1
:10F6C0001F4BD3F804151F4B1B68CA1A22F07F4644
:10F6D00012021AD4421E22EAE272A242A8BF2246B5
:10F6E000701C1044A04294BF18181819411A21F038
:10F6F0007F41134A20F07F430229C2F8403506D9E2
:10F7000085F31188BFF36F8F70BD0022E8E7D2F850
:10F7100004350D49C31A23F07F435C1E8C4205D982
:10F720004FF40012094BC3F80021E9E7012B02BF97
:10F73000023020F07F40C2F84005E1E7FEFFFF0005
:10F740000050014064030220FEFF7F0000E100E062
:10F750004FF02002EFF3118382F31188BFF36F8F14
:10F76000064AD2F80405064A1268801A20F07F4043
:10F7700083F31188BFF36F8F704700BF00500140C3
:10F78000640302204FF02003EFF3118283F311880A
:10F79000BFF36F8F0649074B0868D3F8043582F32F
:10F7A0001188BFF36F8F1B1A23F07F4318447047F3
:10F7B000640302200050014007488168406A884283
:10F7C00003D006494FF080520A6001B50CF008FBE7
:10F7D000BDE8014070470000284D022004ED00E024
:10F7E000094A0A49936809685866996608494B6846
:10F7F00043F080534B60002383F31188BFF36F8F76
:10F800009368986E704700BF284D022044F90100AC
:10F8100000ED00E029498A684FF028001044EFF31A
:10F82000098C80E8F01F4FF010001EEA000F04D092
:10F83000D2F8AC0020F0040007E002F16C0080EC8C
:10F84000108AD2F8AC0050F00400C2F8AC002020BE
:10F8500080F31188BFF36F8F194F4FF000664A6A2B
:10F860008A603E60506E0023536680F31188D2F8A0
:10F87000AC0010F0040F05D10023E1EE103A5EF069
:10F88000100E05E02EF0100E02F16C0090EC108AC4
:10F89000EFF3148323F0040383F31488BFF36F8F13
:10F8A00004B510460DF00EFDBDE8044002F128003D
:10F8B00090E8F01F8CF3098870470000284D022063
:10F8C00004ED00E01EF0040F0CBFEFF30880EFF32F
:10F8D0000980816911F8021C0229FFD001B50DF0E1
:10F8E000E6FC01BD43B2002B08DB012200F01F0043
:10F8F00002FA00F0024A5B0942F82300704700BF99
:10F9000000E100E043B2002B01F10101A8BF03F1C7
:10F9100060434FEA4111B8BF054BC9B2ABBF03F515
:10F92000614300F00F0083F800131954704700BFC3
:10F9300014ED00E008B572B6044B186A18B1002245
:10F940001A620EF0C2FF62B608BD00BF284D022049
:10F9500073B51E460A9B05460093099B8C180FF051
:10F96000D6F90C4AA4F1200323F0070322F0010288
:10F970009A61069A1E605A60079A9A60089ADA603D
:10F980004FF08072DA61AB6400236B66C5F8AC306F
:10F9900002B070BDDBC701002DE9F0411F460646ED
:10F9A0000C4690460023E1EE103AEFF3148525F063
:10F9B000040585F31488BFF36F8F00F01BFC0A4B1E
:10F9C000444430469E6024F007040DF07BFC38462A
:10F9D00084F30988002163B681F31188BFF36F8F28
:10F9E000002200230CF0F9FE284D022001491022CC
:10F9F0000A60704710ED00E0404080F3118830BF8E
:10FA0000704700BFEFF30880EFF30981724601B53C
:10FA100000F0B0FA01BD00BF2DE9F04781468AB081
:10FA20000C4600297AD001224FF000033F4D62F3CB
:10FA300007033F4A3F48AD1AC5F3C90565F38F1365
:10FA4000ADF80030D1E9012309680DF0D7F80122A3
:10FA50004FF0000362F3070365F38F13ADF8003036
:10FA6000D4E90423E16834480DF0C8F801234FF0CD
:10FA7000000263F3070265F38F12E1692F480DF06E
:10FA800091F827460026DFF8C0A0D7ED087AFCEEF3
:10FA9000E77ACDED037AD7ED097AFCEEE77ACDED82
:10FAA000057AD7ED0A7AFCEEE77ACDED077AD7ED45
:10FAB0000B7A0822FCEEE77A28F03F0343F00103BB
:10FAC00063F30708731C0493B31C069365F38F1844
:10FAD000F31C029608930DEB020143465046043690
:10FAE000CDED097A0DF0A5F8102E07F11007CCD155
:10FAF00001234FF0000263F3070265F38F12216EBA
:10FB00000F480DF04FF84FF00002012363F3070296
:10FB100065F38F12A1690B480DF044F82146484661
:10FB20000BF04EFA0AB0BDE8F08700BFF0F3010019
:10FB300090F301005C0602008B060200BA06020088
:10FB40000C0702001B070200C906020030BFFFF7C6
:10FB5000FDBF00BF114A08B5114B22F07F029A6029
:10FB6000BFF34F8FBFF36F8FD3F8882042F4A0020A
:10FB7000C3F888204FF04042C3F83422BFF34F8FC0
:10FB8000BFF36F8F0023E1EE103A0BF099FA0BF000
:10FB9000A1FA00F0FBFA0BF0D5FA00BF00C000009C
:10FBA00000ED00E001B572B60B4A106A00281EBFD6
:10FBB000002111620EF089FE62B6EFF30580A0F11C
:10FBC00010004FEAC0000549014409C99847BDE843
:10FBD0000140034908470000284D0220A4F001001D
:10FBE000B9F700000CF0ACFF202080F31188084822
:10FBF0004FF40061401880F30988EFF3148002216C
:10FC0000084380F31488BFF36F8FFFF7A3FF000052
:10FC1000F882022001234FF0000110B563F30701C1
:10FC20003A4C3B4B3B48E41AC4F3C90464F38F11CC
:10FC30000CF0ABFF384B9B6A990109D54FF00001DE
:10FC4000012363F3070164F38F1134480CF09DFF27
:10FC5000314B9B6ADA0109D54FF00001012363F3B0
:10FC6000070164F38F112E480CF08FFF2A4B9B6A1B
:10FC7000DB0209D54FF00001012363F3070164F3B0
:10FC80008F1128480CF081FF234B9B6A180309D57C
:10FC90004FF00001012363F3070164F38F11224841
:10FCA0000CF073FF1C4B9B6A590309D54FF0000100
:10FCB000012363F3070164F38F111C480CF065FF07
:10FCC000154B9B6A9A0309D54FF00001012363F39A
:10FCD000070164F38F1116480CF057FF0E4B9B6A17
:10FCE000DB0309D54FF00001012363F3070164F33F
:10FCF0008F1110480CF049FF074A0020936A6FEA01
:10FD000003436FEA1343936210BD00BFF0F3010099
:10FD100090F30100A908020000ED00E0C108020014
:10FD2000D4080200EE080200180902003609020099
:10FD30005B09020075090200F8B501230E464FF079
:10FD40000001374C63F30701364B0746E41AC4F34E
:10FD5000C90464F38F1134480CF017FF334B9B6ACE
:10FD6000D90609D54FF00001012363F3070164F3BD
:10FD70008F112F480CF009FF2C4B9B6A1A0709D5ED
:10FD80004FF00001012363F3070164F38F11294849
:10FD90000CF0FBFE254DAB6A9B071CD501234FF0F1
:10FDA000000163F3070164F38F1123480CF0EDFEAB
:10FDB000696BAB6A18060ED54FF00002012363F39E
:10FDC000070264F38F121D480CF0ECFE1FB1AB6A02
:10FDD00023F08003AB62154B9B6ADA0709D54FF01D
:10FDE0000001012363F3070164F38F1114480CF041
:10FDF000CCFE0E4B9B6A9B0609D54FF000010123F8
:10FE000063F3070164F38F110E480CF0BEFE00206F
:10FE1000064B9A6A9A6A42F0FF029A623070F8BD05
:10FE2000F0F3010090F30100D107020000ED00E0C3
:10FE3000E70702001A0802002D0802004508020028
:10FE40005B0802007A080200F8B501230E464FF065
:10FE500000013D4C63F307013C4B0746E41AC4F331
:10FE6000C90464F38F113A480CF08FFE394B9B6A3A
:10FE7000D90409D54FF00001012363F3070164F3AE
:10FE80008F1135480CF081FE324B9B6A1A0509D55B
:10FE90004FF00001012363F3070164F38F112F4832
:10FEA0000CF073FE2B4DAB6A9B051CD501234FF064
:10FEB000000163F3070164F38F1129480CF065FE1C
:10FEC000A96BAB6A18040ED54FF00002012363F34F
:10FED000070264F38F1223480CF064FE1FB1AB6A73
:10FEE00023F40043AB621B4B9B6A590509D54FF0C5
:10FEF0000001012363F3070164F38F111A480CF02A
:10FF000044FE144B9A6AD20511D54FF0000101232B
:10FF1000164863F3070164F38F110CF036FE0020DE
:10FF20000C4A936A43F47F4393623070F8BD9B6A36
:10FF30009B04F4D54FF00001012363F3070164F340
:10FF40008F110B48E9E700BFF0F3010090F30100C7
:10FF50004907020000ED00E05F0702001A080200F6
:10FF600070070200890702009E070200B90702001D
:10FF70007A0802002DE9F043694B9DB0D3F8048064
:10FF8000064689461446C8F30807002585F31188FC
:10FF9000BFF36F8F02F07F43B3F17F4F28D1D007BB
:10FFA00026D4510603D4220712D4012512E00123DE
:10FFB0004FF000015B4A63F307015B4B5B489B1A00
:10FFC000DB0863F38F110CF0E0FD14F0040501D0A1
:10FFD0004E46002500238DF80730FB1E092B00F24A
:10FFE0008280DFE803F0076B6F4E80808080807333
:10FFF0002E46EFE701234FF000014FF0000863F3B6
:020000021000EC
:100000000701494F474B4A48FF1AC7F3C90767F32F
:100010008F110CF0BAFD424B8DF80780DC6A14F0AA
:1000200002040BD04FF000010123424863F30701A3
:1000300067F38F110CF0A9FD002425E0DB6A5B005B
:1000400022D501234FF0000163F3070167F38F11FD
:1000500039480CF09AFD394B1B782BB101200DF17A
:100060000701FFF769FE0EE0354B1B782BB101202D
:100070000DF10701FFF7E8FE05E0324B1B889BB24C
:1000800013B1FFF7C7FD04469DF807309BB96822FE
:10009000314602A80DF0EFFA099B002D3AD0C3F3C8
:1000A000080222B96FEA53236FEA4323099302A996
:1000B0002046FFF7B1FC1DB0BDE8F0830DF107014C
:1000C0000020CEE70DF107010020D3E701234FF018
:1000D0000001144A63F30701134B1B489B1ADB080A
:1000E00063F38F11A6E701224FF000030E4962F37C
:1000F00007030C4A1548891AC90818F4F87F61F3F8
:100100008F13A7F11002124918BF014611480CF0D5
:100110005DFD91E723F4FF7323F00103C6E700BF01
:1001200000ED00E090F30100F0F30100A0090200EF
:10013000C3090200DA090200FB09020028ED00E011
:1001400029ED00E02AED00E01A0A0200650A02002B
:10015000500A02007E0A0200024A536943F010036B
:100160005361704700ED00E0BFF34F8F0549064B28
:10017000CA6802F4E0621343CB60BFF34F8F00BF45
:10018000FDE700BF00ED00E00400FA050023202198
:100190000348C2180133412B82F80013F9D170478C
:1001A00000E100E038B505464FF02003EFF311847D
:1001B00083F31188BFF36F8F0EF0CAFD0B4B9B6862
:1001C000AB420DD10A4B5A68C2F3080222B90BF0B8
:1001D00007FE2046FFF704FB5A6842F080525A603F
:1001E0002046BDE838400EF0CDBC00BF284D0220AF
:1001F00000ED00E010B50E4B88B002930D4B0E4C95
:1002000003930E4B0E4A049302AB019301A82346BD
:10021000012100F051F9002307930A4B0121E41A50
:1002200005A80593069400F051F908B010BD00BF71
:100230000000022000000000000004200600010071
:10024000000002200000022010B50B680C7A23F099
:100250001F0204F01F031A43CB68640923F01F0335
:10026000044943EA440343F001038860CA600B6118
:1002700010BD00BF90ED00E008B54FF00002012373
:10028000074963F30702074B5B1ADB08014663F378
:100290008F1205480CF086FC6FF0150008BD00BFFA
:1002A00090F30100E0F30100DB0A02002DE9F04FBA
:1002B00007468846144600265E4D85B046453DDA21
:1002C00057F82630D3F80490B9F1000F59D0B9F19E
:1002D0001F0F22D919F01F0F1FD1D3F800A01AF059
:1002E0001F0F1AD150460DF018F8834609EB0A008B
:1002F00001380DF012F8834524D06FF0150B01235F
:100300004FF000024C4963F307024C4B4C485B1A18
:10031000DB0863F38F1259460CE001234FF0000213
:10032000454963F30702454B46485B1A3146DB08F3
:1003300063F38F120CF036FC6FF01504204605B005
:10034000BDE8F08F1BF1160FD9D0631E5B45D6DBDD
:10035000C5F808B0E868C5F808B02B6957F826104A
:1003600020F01F0043F01F0AD1E900321A449842DE
:1003700002F1FF3918D1CA4505D15FFA8BF00CF0B4
:10038000A9FF01369AE7C5F808B0EB6822F01F0212
:1003900003F01F031A43EA60E0B20CF09BFF10F178
:1003A000160FC9D0441CECE7C5F808B02A69013B18
:1003B00023F01F0302F01F021343CA45E0B22B6172
:1003C000EBD00CF087FF10F1160FB5D0C5F808B0D0
:1003D000EA689DF808300AF1FF3A62F304038DF8E9
:1003E00008302B699DF808205B0863F3471257F823
:1003F00026308DF80820D3E900130B44009323F036
:100400001F03441C5344A3EB0903E4B223F01F036E
:100410000F2C039308D92046FFF72EFF10F1160F7B
:10042000044689D00134ACE769462046FFF70CFF4B
:10043000F8E700BF90ED00E090F30100E0F3010069
:10044000B80A0200950A02000522034B5A60BFF366
:100450004F8FBFF36F8F704790ED00E0BFF35F8F5A
:100460000022014B5A60704790ED00E070B50E4DD0
:100470002E68102E15D80024FFF7F0FF0B4B0C4A06
:100480001A63A64205D10B4B1E70FFF7DDFF00205B
:1004900070BD6968204601EB0411FFF7D5FE0134F9
:1004A000EFE74FF0FF30F3E79CF4010090ED00E040
:1004B000AAFF44004865022010B5034C2278FFF7DC
:1004C000F5FE207010BD00BF486502202DE9F74FF2
:1004D000254C8A4680460027A1464FF0140B234D39
:1004E00057451ADAD8F804300193002B36D0D8F8E3
:1004F0000010084600910CF010FFDDE900130646DD
:10050000581801380CF009FF8642194A08D0142304
:100510005F436FF0150349F8073003B0BDE8F08F73
:1005200016F1160F2660F8D01378B342F5DD0BFBF9
:100530000793AE60AE60E868197B60F3040119733D
:100540002969187B490861F347101873EB6823F099
:100550001F0363602B6923F01F03236101371434E9
:1005600008F10C08BCE700BF6803022090ED00E032
:100570004865022070B50C4B0E461C780546234694
:1005800000210A4A0F2B0BDD094951F8040BFFF734
:100590005BFE224631462846BDE87040FFF786BE26
:1005A000936011610133EDE74865022090ED00E0B2
:1005B000680302202DE9F04F1E460023A3B0CDE9C9
:1005C00002010193134613F8010B089358B1252833
:1005D00000F085800399029B9847013040F01A840F
:1005E0004FF0FF330193019823B0BDE8F08F232C27
:1005F0006CD061D8002CF6D0202C0E9B08BF0123B4
:100600000E93CDF82080DDF82080B74818F8014B14
:1006100021460CF0DAFF0028E9D12A2C66D156F8E1
:10062000043B98F80040002B0993BFBF5B4209933D
:1006300001230F93089B03F102082E2C7BD198F81D
:1006400000302A2B74D156F8045B08F1010818F821
:10065000014B2146A54827460CF0B7FF00286DD076
:10066000434613F8014B682F089307D1682C05D136
:10067000482708F1020398F801400893672C7BD8BB
:10068000652C80F03581472C5CD8452C80F030817A
:10069000002CA8D0252C00F0B98303992520029BBB
:1006A000984701309CD003992046029B984701301F
:1006B00096D0019B0233AFE32D2C0AD0302C0BD007
:1006C0002B2C0B9B08BF01230B939AE74FF0010BD8
:1006D00097E701230F9394E701230A9391E70023FF
:1006E0000A930E930B930F939B468CE7A4F1300370
:1006F000092B0990A1D80A22DDF8208018F8014BB7
:10070000A4F13003092B98D8099B02FB0344A4F100
:100710003003CDE90883EFE7904601FB0535303D16
:10072000424612F8013BA3F130000928F4D98EE7C4
:1007300000250A21F4E74FF0FF358AE7CDF8208045
:1007400007469BE7632C59D020D8582CA5D16F2C95
:1007500006F10409316840F02883BBF1000F00F076
:10076000178330238DF86C30002940F01B838DF8FF
:100770006D100F46012625E0702C00F0F58227D879
:100780006E2C00F0DE82E2D8692C86D1376806F143
:100790000409002F80F29A802D2379428DF86C3065
:1007A0000DF16D0630460A220CF0B1FF0B9B06449A
:1007B0001BA8361A002B40F032830E9B002B40F012
:1007C0002E83FF0F002D21DA0025AB46A846E1E07D
:1007D000752CBCD0782CBAD0732C7FF45EAFB146A8
:1007E000002DB8BF6FF00045002659F8043BB54214
:1007F00040F0C9822E4600252F4608E00027B1466A
:100800003D46012659F8043B8DF86C301BABEA19C4
:100810000025AB46A846921B22EAE2729119069186
:10082000099990190C1A0F9911B9002C00F314832F
:1008300003EB070A534540F0138312F1FF3280F0B7
:100840001D83F61BB8F1000F11D09AF800000AEBD7
:100850000607A0F13003092BA7EB0A0640F2198323
:10086000474617F1FF3780F01D83A6EB0806BBF162
:10087000000F15D00AEB06071AF8018B03994046C2
:10088000029B984701303FF4ABAEB8F12E0FA7EBB7
:100890000A06F1D15F46002F00F30D83A6EB0B068D
:1008A00095B19AF800000AEB0607A0F13003092B76
:1008B000A7EB0A0640F20A832E2800F007832F4692
:1008C000002F00F30C83761B56441BE30B9B23B1D4
:1008D0002B238DF86C30394662E70E9B0BB1202339
:1008E000F7E739461BAE5DE7010B0200070B02007C
:1008F00006F1070929F00709F9E80223D80240EABE
:100900005250D60220F00040002AC3F30A51049648
:10091000059073F10003DDE90467CDE9166741DA5C
:100920002D238DF86C300DF16D0740F2FF73994265
:1009300053D1DDE904120A43A4F1410407F1030392
:1009400040D1192C38D849223A704E227A7046226A
:100950000025AB46A8461BAEBA70FD709B1B0B9AD8
:10096000002A40F0EC810E9A002A40F0E8819DF8C0
:100970006C70A7F12D025742574105EB080633442E
:1009800003EB0B0622AB3B4413F81C3C303B092B1A
:1009900000F249820A9B002B00F04882099B9A1BB7
:1009A0001BAB39E70B9B0BB12B23BAE70E9B0BB1AB
:1009B0002023B6E71BAFB8E769223A706E227A703F
:1009C0006622C5E7192C99BF4E2241216E22612172
:1009D00094BF3A703A707970BAE7049B05980B435C
:1009E0001093CB170343462C119308BF6624DDE90F
:1009F0001023134300F01181002900F09B80002692
:100A0000179BA1F2FE3843F00043179318F1020F31
:100A1000C0F2A480B8F1000F00F3DD8016A808F141
:100A200001080CF096FEB8F1040FF7D1002D04F088
:100A3000DF03B8BF0625472B40F0F880F11C02DB2E
:100A4000AE4240F3ED80023CE4B2002D00F0F480B1
:100A5000013DBBF1000F40F0EF80002DD4BF4FF0FF
:100A6000000A4FF0010A662C40F0E88016EB0508FA
:100A700040F1EC80102366244FF00008159300220B
:100A80004FF00063CDE9182318F1FF3880F0E080C3
:100A9000169B189A19999B18179A41EB0202CDE9F7
:100AA000163202F07043129300231393DDE91223F0
:100AB000134306D016A80CF05DFE16A80CF049FEF4
:100AC0000136662C40F0E180002E40F3C880159B73
:100AD000002B07DD15A916A80CF077FE013E07F8DC
:100AE000010BF4D1B0463B460026BBF1000F01D10B
:100AF000002D15DD2E2203F8012B002E00F0C08002
:100B0000002D40F3BF80C6F1000BAB45A8BFAB463C
:100B1000A5EB0B05002D03DD159A002A00F3A68036
:100B2000BAF1000F40F0C68000221BAE1A709B1B6A
:100B300015E70139049BDB180493059B5B41059382
:100B4000DDE90423002A73F10003F2DADDE904236E
:100B5000CDE9162353E716A80CF0FBFDDDE916ECF2
:100B600000230021CDF830C00D93BC48DDE90C23F3
:100B7000994208BF904208F10108ECD30520AEFB72
:100B80000023CDE90623079B013E00FB0C334FF009
:100B9000000C0793DDE90623CDE91623002100238D
:100BA0006FF0004207988B4208BF824208D2BCF126
:100BB000000F3FF42BAFDDE90623CDE9162325E72F
:100BC000069B08F1FF38DB180693079B4FF0010CDA
:100BD0005B410793E2E716A80CF0CCFDDDE916AE09
:100BE0004FF0000C08F1FF380136002300216FF0B0
:100BF0000040994208BF704506D2BCF1000F3FF497
:100C000009AFCDE916AE05E71AEB0A0A4EEB0E0E58
:100C100008F1FF384FF0010CE7E70026B046FDE68B
:100C2000AD1BBBF1000F04D1662416E74FF0000A9C
:100C300019E74FF0000A19E74FF0000A05F1010823
:100C4000102398451593A8BF984618E76624F7E740
:100C500018A80CF08FFD18A80CF07BFD14E73B469C
:100C600030224FF0000803F8012B3EE715A916A823
:100C700006930CF0AAFD069B013D03F8010B49E722
:100C8000B34647E74FF0000B4AE715A916A80CF04A
:100C90009CFD3028387018BF06F1FF36BBF1000FFD
:100CA00038D1002D36DC7B1CBAF1000F44D04FF058
:100CB000000BD8461A4613F8011D3029FAD02E2908
:100CC00018BF1346002504F0DF02452A7FF42CAF3D
:100CD000002EB4BF2D222B221946B8BF7642632EB8
:100CE00001F8024B5A7008DD642096FBF0F200FB1D
:100CF000126602F13004D91C9C700A2096FBF0F2B7
:100D00000B4600FB126602F13004303603F8024B4A
:100D10004E7009E72E22BB1C7A70002DC4DD159A97
:100D2000002AC1DD15A916A806930CF04EFD069BFE
:100D3000013D03F8010BF0E7D346D046C3E7012796
:100D40001BE6B146682F59F8043B05D001DC482F5B
:100D500007D0019A1A6001E0019A1A804E46089A5B
:100D600030E4019A1A70F9E7B14647F630031022D1
:100D700059F8041B0DF16E00ADF86C300CF0C7FC97
:100D80000227861C1EE59A5D002A4AD001362EE510
:100D90001BAC082220460CF0BAFC1BAEA61B064476
:100DA00000270FE50DF16D04F3E7752C05D10A223C
:100DB0001BA80CF0ACFC0646F2E7BBF1000F12D00A
:100DC00047F630030DF16E08ADF86C301022404646
:100DD0000CF09DFC582C09D01BAEA8EB060606446F
:100DE0004FEA4B07EEE40DF16C08EFE71BAA12F88F
:100DF000013BA3F16101192903D8203B02F8013C12
:100E0000F5E712F8013C002BF1D1E5E70399204604
:100E1000FFF7E1BB019B01330193B1469EE7012738
:100E2000D0E41546E8E41BAB0022F7E41BAB0A9ABA
:100E3000F4E4CDE909320399029B20209847DDE9CB
:100E4000093201303FF4CCAB1AF1FF3AF1D20199EB
:100E5000214401915446EBE4A246F5E732333333A3
:100E600013F8010B03990993029B0A929847DDE955
:100E7000093201307FF4DEACFFF7B2BB03993020BA
:100E8000029B099298470130099A7FF4D6ACFFF78C
:100E9000A7BBDDE90231984701303FF4A1AB1AF856
:100EA000010FD6E403993020029B984701307FF46C
:100EB000D8ACFFF795BB03993020029B98470130CF
:100EC00007F1FF377FF4E7ACFFF78ABBDDE90231BA
:100ED000984701303FF484AB1AF8010FE5E4039919
:100EE0003020029B9847013007F1FF377FF4E8ACD0
:100EF000FFF776BB03991AF8010B029B9847013064
:100F00003FF46EABA6EB0A03002BF3DC019B069AC1
:100F1000002C134401937FF721AF254606E0039987
:100F20002020029B984701303FF45AAB15F1FF3562
:100F3000F5D2019B2344019310E700BF014B1860D9
:100F4000704700BF14C502200CB41FB509B90DF1DC
:100F50000300CDE9020107AB069A02A905480193F7
:100F6000FFF728FB0022029B1A7005B05DF804EB26
:100F700002B07047FFD701000EB40FB56FF000410B
:100F800005AB53F8042B02900391064802A9019384
:100F9000FFF710FB0022029B1A7004B05DF804EB0F
:100FA00003B07047FFD7010038B5074C074DAC427E
:100FB00000D138BD23681B685B681BB11B680BB18F
:100FC000204698472034F2E720C7022040C702207D
:100FD00038B5084C084DAC4200D138BD206803211B
:100FE0000C300CF020FC10B920460CF02BFC203407
:100FF000F1E700BF20C7022040C7022000232DE9EF
:10100000F04F022889B081468A469046CDE90633E2
:101010003CD106AA10460491194606E00478013135
:1010200001340470CCB2072C03D83AF81140002CDC
:10103000F4D00133082B00F10100EDD14FF0FF3661
:101040000127002312F8011BB94288BF5EB203F1E9
:101050000103DBB288BF0F46082BF3D10393012FA6
:101060004FF03A0308BF4FF0FF3602930022444688
:101070001546039B9D4219DB444509D00023B9F175
:10108000010F0CBF04F8013C237003E0012805D0D8
:101090004FF00008404609B0BDE8F08F2E2304222F
:1010A0004FF0FF36CDE902320746DFE7039B042B02
:1010B00034D11AF8051049B93023204600F8023B14
:1010C000029B63700135EDB20446D2E709204FF070
:1010D000000BDFF8D8C00194B1FBFCFE0CFB1E1323
:1010E0008345059301DC614506D38346019B0EF1E0
:1010F000300E03F801EB01930A230138BCFBF3FC2B
:10110000431C0599E8D14FF0000301990B700B1BAC
:10111000DBB20299E0180130E154D3E7AE420DD1C1
:1011200002B916B93A2304F8013B3A23204600F8E5
:10113000013B7B1E1D44EDB20022C3E712B13A23EE
:1011400004F8013B049B33F815301A0242EA1322DB
:1011500012B2C2F307235FFA82FBB3B10F2BD9B2ED
:101160000BD90023612220460CF09BFB0123612256
:1011700059460CF096FB0122A4E75BB2092994BF03
:1011800030335733601C2370F0E7BBF10F0F03D9E6
:10119000612259462046ECE752B2BBF1090F94BFD9
:1011A00030325732601C2270E5E700BF00CA9A3B1C
:1011B00008B5094B1A786AB9012131201970052147
:1011C000FEF7A0FB3120FEF78DFB4FF00042034BF2
:1011D000C3F80423002008BD496502200010034025
:1011E00070B5036882689B68514C187901F01F0341
:1011F00043EA40130020D4F80453EDB200F5A27680
:1012000054F82660C6F30426B34270D125FA00F6DE
:10121000F6076CD5850005F1804505F54435D5F810
:10122000106526F00106C5F81065012505FA00F0E5
:10123000C4F808033F4D05EB8305D5F8000220F400
:101240004030C5F800029068C84010F001004DD051
:10125000D068C84010F0010048D05069C84010F074
:10126000010050D09069C840C00744D41069D269C9
:10127000C84022FA01F100F0010001F001018842AA
:1012800014BF01210221002505F5A27254F82200A5
:1012900010F0030031D1AA0002F1804202F544327D
:1012A000D2F810651B0203F4F85326F4473626F4EF
:1012B000407643EA014105F14003C2F810659B0006
:1012C000D2F810659BB203F1804303F544333143F8
:1012D000C2F810151860D2F8103543F00103C2F8B7
:1012E0001035012303FA05F5C4F8045370BD01302D
:1012F000082883D19EE70321C5E70135082DC3D116
:101300006FF01200F2E71369D269534023FA01F13A
:1013100011F0010F14BF4FF400324FF44032D5F8F2
:10132000003223F440331343C5F80032DEE700BF38
:1013300000100340002584402DE9F74F8046856862
:1013400003F47040B0F5804F1E4640D009DCB0F584
:10135000805F3ED0B0F5405F3DD090B16FF015009A
:1013600032E0B0F5E04F38D004DCB0F5A04FF5D155
:10137000032006E0B0F5404F31D0B0F5504FEDD12D
:10138000072006F44077B7F5807F2AD0A7F50074D0
:1013900063426341012919BFD4B2A1464FF01F092E
:1013A00000244FF0010B06F0010C4FEA4C0747EA0E
:1013B0000C0747EA0020DFF8A0A040EA830706F008
:1013C0000203A1450FD2002003B0BDE8F08F022038
:1013D000D7E70120D5E70420D3E70520D1E7062091
:1013E000CFE70323D6E7D8F800209268117904F0FC
:1013F0001F0242EA411280324AF82270A9680BFAB1
:1014000004F2002B25D01143A9606969B0064CBFD6
:10141000114391436961A96970064CBF114391431F
:10142000A961296970074CBF114391432961E9699A
:1014300030064CBF0A4321EA0202EA6121464046D7
:101440000193FFF7CDFE0028BED10134E4B2019B29
:10145000B7E721EA0201D7E7002584404F492DE98B
:10146000F0410D68002D60D04D4B00269A681B6836
:10147000DFF838E19F68D2E902030340D2E90504AE
:10148000204323EA00033868D46912690069544094
:101490004440012023EA040493BB0B600023012095
:1014A0001F464049404ED1F8042300FA03FC1CEAD1
:1014B000020F0DD056F8232052B103F5A27251F855
:1014C000222046F82370C2F3042200FA02F21443E9
:1014D0000133082BE7D154BB85B101240025304BE3
:1014E000DFF8C8C09A681B689E68D2E902130B40F7
:1014F000D2E90510014323EA01037BBBBDE8F0817B
:1015000003420FD097F804C006F01F0242EA4C12C3
:101510000EEB8202D2F800C223EA00032CF4403C16
:10152000C2F800C201364000B6E72C46B6E71C4FB1
:10153000D7F80880D8F800100029CDD00E68D8F868
:101540000C308A682340134203D04B682246384649
:101550009847002EC0D031463668F0E71C421AD0BA
:10156000307905F01F01D76941EA401110690CEB91
:1015700081017840E84010F0010F14BF4FF40037AC
:101580004FF44037D1F8000223EA040320F440303E
:101590003843C1F8000201356400AEE77C11034016
:1015A00008C60220001003400011034000258440BB
:1015B000F0B54B79012B29D0032B24D110268B7940
:1015C000032B20D1CC792CB1012C1CD103689B6852
:1015D0001B79C3B10A7912B1022A14D10E2247F63F
:1015E000122705680B68AD68BB422D6862D029D808
:1015F000B3F5965F61D014D8B3F5167F5FD007D8E6
:10160000B3F5967F5ED06FF0220052E00026D6E759
:10161000B3F5966F59D0B3F5166FF4D14FF41D237F
:101620003CE0B3F5615F53D004D8B3F5165FEAD15F
:10163000324B33E0B3F5964F4CD0B3F5E14FE2D1E6
:101640002F4B2BE0B3F5E13F46D012D84DF6C02723
:10165000BB4244D005D8B3F5164FD4D14FF41D0387
:101660001CE0B3F5614F3DD0B3F5963FCBD1254B90
:1016700014E0B3F5E12F38D008D8B3F5613F37D087
:10168000214FBB42BFD14FF0806307E0B3F5612F1C
:1016900031D01E4FBB42B6D14FF08053C5F8243530
:1016A00034438368224303C9C5F86C2583E80300EB
:1016B0000020F0BD4FF40003F0E7154BEEE74FF4C8
:1016C0001C33EBE74FF4A033E8E74FF49E23E5E744
:1016D000104BE3E7104BE1E74FF0EB73DEE74FF41D
:1016E0006503DBE74FF46B03D8E74FF0E863D5E71A
:1016F0004FF06C73D2E74FF07063CFE700502700D4
:1017000000C0750000903A0190D0030040420F00E5
:1017100000B0130000F03A0000A04E002DE9F041A7
:1017200001254FF0030E4FF0000C03680A689B6818
:1017300005FA02F71C681F4B86689F6002F180075C
:1017400043F827E04F6807F1800843F828C0C4F841
:101750000C25C4F814758F687A1C10D0CA68511C07
:101760000DD002F1800195409D6043F821E007F122
:10177000800143F821C0C4F80825C4F8107531462B
:10178000FFF716FFA0B90823C4F8003506F10C03D3
:10179000C4F81001C4F834350123B268C4F83835F0
:1017A00092682360C4F84425C4F84805A360E36048
:1017B000BDE8F0810025844030B585B06C46054613
:1017C000084B0FCB84E80F00002201210A20FEF70E
:1017D00099F80A20FEF786F821462846FFF79EFF73
:1017E00005B030BD28F4010030B585B06C46054623
:1017F000084B0FCB84E80F00002201210820FEF7E0
:1018000081F80820FEF76EF821462846FFF786FF8C
:1018100005B030BD38F40100002208B511462A2079
:10182000FEF770F803F00CF9014B1860002008BDBA
:101830009C03022070B50D4B0D4C1A680A2500263A
:101840002346196881420ED051B15968511AB142EC
:10185000C4BF1C460E46013D03F10803F1D12346E7
:10186000013A18605A60184670BD00BFA0030220FC
:10187000AC030220684620F007018D4619B50D4BD8
:10188000D3E8EF2F0132C3E8E12F0029F8D107F0A8
:101890000BFB094B1C683CB9FEF74CF8FDF78CFFBD
:1018A000BDE8194085467047201D0AF02FFA2468CC
:1018B000F1E700BFA0030220A40302202DE9F04FAE
:1018C000884689B00DF0A7FAD8F800300646002BFC
:1018D0000F4603D10AF0A0F93C206EE0BCBF4FF0E8
:1018E000FF33C8F800300122002102A80DF0F8F9FA
:1018F0000DF1040A4FF02003EFF3118B83F31188ED
:10190000BFF36F8F0AF0FCF9FFF794FF3349436888
:101910000A68894693424FF0000308D10193304B87
:101920005A68002A4CD1C3E900AA012300E04260B2
:101930008BF31188BFF36F8F002B3DD0D8F80010C8
:1019400002A80AF00FFA4FF02003EFF3118B83F394
:101950001188BFF36F8F0020214B1A6852B1524596
:1019600039D1019988BB58681960904200D15960FB
:10197000002301930AF0C4F9FFF75CFFD9F80030A7
:1019800043608BF31188BFF36F8FD8F80090B9F1E3
:10199000FF3F11D00DF03FFA16EB090247EBE97358
:1019A000141A63EB0105002C75F10003B8BF002485
:1019B000C8F80040002C8FD0002009B0BDE8F08F9F
:1019C000C2F800A0C3F804A0AFE7016059689142D3
:1019D00008BF5860CCE710461268BFE7A00302209A
:1019E000A40302202D2810B504460CD038DC0E28A4
:1019F00009D011DC082806D009DC022803D005280C
:101A000001D0012819D10CF0C9F9046010BD0C28CF
:101A1000F9D057DC0928F5E7282800F0838005DC99
:101A20001828F0D0232852D01628EBE72A28EAD02D
:101A300051DB2B28E7D02C2851D001234FF0000296
:101A40003A4963F307023A4B3A485B1ADB0863F3FF
:101A50008F1221460BF0A6F80CF0A0F9364B34E0BB
:101A60003C28D0D015DC3328CDD005DC3028CAD0B6
:101A7000322838D02F28C5E73628C4D001DC3428D6
:101A8000C0E73828BFD03928D7D10CF087F93923DF
:101A90001BE07D2833D009DC702828D073282AD099
:101AA0006928CAD10CF07AF937230EE07F282FD0AD
:101AB00029DB802831D08128BFD10CF06FF940F2AA
:101AC000D47302E00CF06AF90D2303609EE70CF07A
:101AD00065F90B23F9E70CF061F92923F5E70CF020
