:10C00000909002202D0201007F4402004D000100AB
:10C010004D0001004D0001004D0001004D000100E8
:10C020004D0001004D0001004D0001000DFF00001A
:10C030004D0001004D0001005DFE00006F44020054
:10C04000ED010100ED010100ED010100ED01010034
:10C05000ED010100ED010100ED010100ED01010024
:10C06000ED010100ED010100ED010100ED01010014
:10C07000ED010100ED010100ED010100ED01010004
:10C08000ED010100ED010100ED010100ED010100F4
:10C09000ED010100ED010100ED010100ED010100E4
:10C0A000ED010100ED010100ED010100ED010100D4
:10C0B000091F0100F54E0200ED010100ED01010034
:10C0C000ED010100ED010100ED010100ED010100B4
:10C0D000ED010100ED010100ED010100ED010100A4
:10C0E000ED010100ED010100134F0200ED0101001F
:10C0F000ED010100ED010100ED010100ED01010084
:10C10000ED010100ED010100ED010100ED01010073
:10C11000ED010100ED010100ED010100ED01010063
:10C12000ED010100ED010100ED010100ED01010053
:10C13000ED010100ED010100ED010100ED01010043
:10C14000ED01010000000000000000000000000000
:10C1500000000000000000000000000000000000DF
:10C1600000000000000000000000000000000000CF
:10C1700000000000000000000000000000000000BF
:10C1800000000000000000000000000000000000AF
:10C19000000000000000000000000000000000009F
:10C1A000000000000000000000000000000000008F
:10C1B000000000000000000000000000000000007F
:10C1C000000000000000000000000000000000006F
:10C1D000000000000000000000000000000000005F
:10C1E000000000000000000000000000000000004F
:10C1F000000000000000000000000000000000003F
:10C20000DEE61E284CBBCE8F015B000070D0010023
:10C210000100000000C00000A0BE0220452801006F
:10C2200053B94AB9002908BF00281CBF4FF0FF319D
:10C230004FF0FF3000F070B9ADF1080C6DE904CE9D
:10C2400000F006F8DDF804E0DDE9022304B07047F1
:10C250002DE9F04F099E04468946002B40F083806B
:10C260008A42154645D9B2FA82F24AB1C2F1200794
:10C2700001FA02F39540944020FA07F747EA0309D0
:10C280004FEA154E230C1FFA85F8B9FBFEFC0EFB96
:10C290001C990CFB08F143EA094399420AD9EB18AF
:10C2A0002CBF01200020994202D9002800F01D81F6
:10C2B0000CF1FF3C591AA3B2B1FBFEF00EFB1011BA
:10C2C00000FB08F843EA0144A04505D92C1902D225
:10C2D000A04500F20E810138A4EB080440EA0C40AE
:10C2E00000271EB1D4400023C6E900433946BDE80B
:10C2F000F08F002A51D0B2FA82F2002A40F0AF80CB
:10C30000491B4FEA154E1FFA85F80127230CB1FB94
:10C31000FEFC0EFB1C1108FB0CF043EA01439842A3
:10C320000AD9EB182CBF01210021984202D900291B
:10C3300000F0D7800CF1FF3C191AA3B2B1FBFEF05C
:10C340000EFB101108FB00F843EA0144A04505D993
:10C350002C1902D2A04500F2C1800138A4EB0804D8
:10C3600040EA0C40BDE78B4208D9002E74D000276C
:10C37000C6E9000138463946BDE8F08FB3FA83F7C5
:10C3800067B98B42C0F0A480824240F2A180384657
:10C39000002EABD0C6E90049A8E7FFDEC7F12005B3
:10C3A000BB4002FA07FC01FA07F4EA4020FA05F85C
:10C3B000E94000FA07FE1A4348EA04044FEA12482B
:10C3C000200C1FFA82F9B1FBF8FA08FB1A110AFBDC
:10C3D00009FB40EA01418B450AD951182CBF0123C2
:10C3E00000238B4502D9002B00F088800AF1FF3A28
:10C3F000A1EB0B01A4B2B1FBF8F008FB101100FB9C
:10C4000009F944EA0141894504D9511801D2894505
:10C410007BD8013840EA0A40A1EB0901A0FB0C8956
:10C42000494544464B4602D306D1C64504D201389D
:10C43000B8EB0C0469EB0203002E5DD0BEEB0402E6
:10C4400061EB030101FA05F522FA07F3F940002731
:10C450001D43C6E9005149E73746304646E7C2F179
:10C460002000954001FA02F721FA00F34FEA154E39
:10C4700024FA00F11FFA85F894403943B3FBFEF02B
:10C480000F0C0EFB103300FB08FC47EA03439C45EE
:10C4900007D9EB182CBF012700279C4500D98FB383
:10C4A0000138A3EB0C0389B2B3FBFEF70EFB173385
:10C4B00007FB08FC41EA03418C4504D9691801D205
:10C4C0008C4525D8013FA1EB0C0147EA00471DE749
:10C4D000841A61EB03030120994659E702382C4482
:10C4E0003CE7ACF1020C2B4426E7ACF1020C2B44E8
:10C4F000E0E602382C44EFE63746F7E6AAF1020AF6
:10C50000114475E702382B44CBE70238114481E728
:10C51000023F2944D7E700BF704700BF70B491E8DD
:10C520007800B2E802105B1854EB0C04B2E8021079
:10C530004D4156EB0C0680E878008041013070BC1C
:10C54000704770B491E87800B2E802105B1A74EB9F
:10C550000C04B2E802108D4176EB0C0680E87800FE
:10C560008041404270BC70472DE9F00791E8F80720
:10C57000B2E802105B1854EB0C04B2E802104D4113
:10C5800056EB0C06B2E802104F4158EB0C08B2E82B
:10C59000021059EB01095AEB0C0A80E8F8078041B8
:10C5A0000130BDE8F00770472DE9F00791E8F80782
:10C5B000B2E802105B1A74EB0C04B2E802108D4171
:10C5C00076EB0C06B2E802108F4178EB0C08B2E86B
:10C5D000021079EB01097AEB0C0A80E8F807804138
:10C5E0004042BDE8F00770472DE9F007524290E85D
:10C5F0007800B1E880071740DB1918EA020854EB0D
:10C60000080419EA020955EB09051AEA020A56EB71
:10C610000A0678C090E87800B1E8800717407B41AF
:10C6200018EA020854EB080419EA020955EB090557
:10C630001AEA020A56EB0A0678C080410130BDE8CA
:10C64000F00770472DE9F007524290E87800B1E812
:10C6500080071740DB1B18EA020874EB080419EA8C
:10C66000020975EB09051AEA020A76EB0A0678C098
:10C6700090E87800B1E880071740BB4118EA02084B
:10C6800074EB080419EA020975EB09051AEA020AB3
:10C6900076EB0A0678C080414042BDE8F00770475B
:10C6A00090E8300091E8C000A31B1340E41AF6188C
:10C6B000EB1B1340ED1AFF1830C0C0C17047F0B536
:10C6C0005242FFF7EDFFFFF7EBFFFFF7E9FFFFF740
:10C6D000E7FFF0BD2DE9F0073AC91668A1FB069AFD
:10C6E0004FF0000CE3FB06AC4FF00007E4FB06C77D
:10C6F0004FF00008E5FB067840F8049B56684FF0C1
:10C700000009E1FB06A91CEB090C4FF0000949EBFD
:10C710000909E3FB06C917EB09074FF0000949EBCC
:10C720000909E4FB067918EB09084FF0000949EB09
:10C730000909E5FB068940F804AB96684FF0000A4A
:10C74000E1FB06CA17EB0A074FF0000A4AEB0A0A98
:10C75000E3FB067A18EB0A084FF0000A4AEB0A0AD4
:10C76000E4FB068A19EB0A094FF0000A4AEB0A0AB1
:10C77000E5FB069A40F804CBD6684FF0000CE1FBCD
:10C78000067C18EB0C084FF0000C4CEB0C0CE3FB98
:10C79000068C19EB0C094FF0000C4CEB0C0CE4FB75
:10C7A000069C1AEB0C0A4FF0000C4CEB0C0CE5FB52
:10C7B00006AC80E88017BDE8F00770470A462DE90F
:10C7C000F04F41EC140A92EC080A1EC910EE100A50
:10C7D000A1FB00784FF00009E2FB00894FF0000A4E
:10C7E000E3FB009A4FF0000BE4FB00AB12EE100AE3
:10C7F0004FF0000CE1FB00BC4FF0000EE2FB00CE5E
:10C800004FF00005E3FB00E54FF00006E4FB0056A7
:10C8100005EE107A10EE900A4FF00007E1FB00875A
:10C8200019EB07094FF0000747EB0707E2FB0097FA
:10C830001AEB070A4FF0000747EB0707E3FB00A7D7
:10C840001BEB070B4FF0000747EB0707E4FB00B7B4
:10C8500012EE900A1CEB070C4FF0000747EB07079E
:10C86000E1FB00C71EEB070E4FF0000747EB070781
:10C87000E2FB00E7ED194FF0000747EB0707E3FB8A
:10C880000057F6194FF0000747EB0707E4FB006776
:10C8900005EE908A11EE100A4FF00008E1FB0098B7
:10C8A0001AEB080A4FF0000848EB0808E2FB00A862
:10C8B0001BEB080B4FF0000848EB0808E3FB00B83F
:10C8C0001CEB080C4FF0000848EB0808E4FB00C81C
:10C8D00013EE100A1EEB080E4FF0000848EB080894
:10C8E000E1FB00E815EB08054FF0000848EB0808ED
:10C8F000E2FB005816EB08064FF0000848EB08086A
:10C90000E3FB006817EB08074FF0000848EB080846
:10C91000E4FB007806EE109A11EE900A4FF0000941
:10C92000E1FB00A91BEB090B4FF0000949EB0909DA
:10C93000E2FB00B91CEB090C4FF0000949EB0909B7
:10C94000E3FB00C91EEB090E4FF0000949EB090992
:10C95000E4FB00E913EE900A15EB09054FF000091E
:10C9600049EB0909E1FB005916EB09064FF00009F4
:10C9700049EB0909E2FB006917EB09074FF00009D1
:10C9800049EB0909E3FB007918EB09084FF00009AE
:10C9900049EB0909E4FB008906EE90AA14EE901A0F
:10C9A00001F110011EC910EE100A4FF0000AE1FB60
:10C9B00000BA1CEB0A0C4FF0000A4AEB0A0AE2FB31
:10C9C00000CA1EEB0A0E4FF0000A4AEB0A0AE3FB0C
:10C9D00000EA15EB0A054FF0000A4AEB0A0AE4FBED
:10C9E000005A12EE100A16EB0A064FF0000A4AEB44
:10C9F0000A0AE1FB006A17EB0A074FF0000A4AEB4C
:10CA00000A0AE2FB007A18EB0A084FF0000A4AEB28
:10CA10000A0AE3FB008A19EB0A094FF0000A4AEB05
:10CA20000A0AE4FB009A07EE10BA10EE900A4FF0E3
:10CA3000000BE1FB00CB1EEB0B0E4FF0000B4BEBA2
:10CA40000B0BE2FB00EB15EB0B054FF0000B4BEB78
:10CA50000B0BE3FB005B16EB0B064FF0000B4BEBF5
:10CA60000B0BE4FB006B12EE900A17EB0B074FF079
:10CA7000000B4BEB0B0BE1FB007B18EB0B084FF0B3
:10CA8000000B4BEB0B0BE2FB008B19EB0B094FF090
:10CA9000000B4BEB0B0BE3FB009B1AEB0B0A4FF06D
:10CAA000000B4BEB0B0BE4FB00AB07EE90CA11EE57
:10CAB000100A4FF0000CE1FB00EC15EB0C054FF0F9
:10CAC000000C4CEB0C0CE2FB005C16EB0C064FF080
:10CAD000000C4CEB0C0CE3FB006C17EB0C074FF05D
:10CAE000000C4CEB0C0CE4FB007C13EE100A18EB72
:10CAF0000C084FF0000C4CEB0C0CE1FB008C19EB1C
:10CB00000C094FF0000C4CEB0C0CE2FB009C1AEBF8
:10CB10000C0A4FF0000C4CEB0C0CE3FB00AC1BEBD5
:10CB20000C0B4FF0000C4CEB0C0CE4FB00BC08EEC3
:10CB300010EA11EE900A4FF0000EE1FB005E16EBDA
:10CB40000E064FF0000E4EEB0E0EE2FB006E17EBE2
:10CB50000E074FF0000E4EEB0E0EE3FB007E18EBBF
:10CB60000E084FF0000E4EEB0E0EE4FB008E13EE9F
:10CB7000900A19EB0E094FF0000E4EEB0E0EE1FB82
:10CB8000009E1AEB0E0A4FF0000E4EEB0E0EE2FB6B
:10CB900000AE1BEB0E0B4FF0000E4EEB0E0EE3FB48
:10CBA00000BE1CEB0E0C4FF0000E4EEB0E0EE4FB25
:10CBB00000CE14EE100AA0EC075A80E8E05FBDE852
:10CBC000F08F00BF30B44FF0000310F8014B11F8A4
:10CBD000015B013A84EA050443EA0403F5D1A3F1B9
:10CBE00001034FEAD37030BC70474FF0000310F8D8
:10CBF000012B013943EA0203F9D1A3F101034FEA02
:10CC0000D370704711F8013B00F8013B013AF9D1AC
:10CC10007047002200F8012B0139FBD1704700BF9B
:10CC20002DE9F00791E8F807B2E802105B1854EB21
:10CC30000C04B2E802104D4156EB0C06B2E80210AB
:10CC40004F4158EB0C08B2E8021059EB01095AEBBE
:10CC50000C0A8941B3F1FF3374F1FF3475F1FF35EC
:10CC600076F1000677F1000778F1000879F1010903
:10CC70007AF1FF3A51F100014A425B184C414D41B3
:10CC800056F1000657F1000758F1000859EB020968
:10CC90005AEB010A80E8F807BDE8F00770472DE974
:10CCA000F00791E8F807B2E802105B1A74EB0C0485
:10CCB000B2E802108D4176EB0C06B2E802108F410B
:10CCC00078EB0C08B2E8021079EB01097AEB0C0A58
:10CCD00089414A425B184C414D4156F1000657F1DB
:10CCE000000758F1000859EB02095AEB010A80E8E5
:10CCF000F807BDE8F00770470A462DE9F04F41EC10
:10CD0000140A92EC080A1EC910EE100AA1FB007862
:10CD10004FF00009E2FB00894FF0000AE3FB009AA4
:10CD20004FF0000BE4FB00AB12EE100A4FF0000CCA
:10CD3000E1FB00BC4FF0000EE2FB00CE4FF000051F
:10CD4000E3FB00E54FF00006E4FB005605EE107A29
:10CD500010EE900A4FF00007E1FB008719EB07097E
:10CD60004FF0000747EB0707E2FB00971AEB070AB3
:10CD70004FF0000747EB0707E3FB00A71BEB070B90
:10CD80004FF0000747EB0707E4FB00B712EE900AED
:10CD90001CEB070C4FF0000747EB0707E1FB00C750
:10CDA0001EEB070E4FF0000747EB0707E2FB00E71B
:10CDB000ED194FF0000747EB0707E3FB0057F619A3
:10CDC0004FF0000747EB0707E4FB006705EE908A8A
:10CDD00011EE100A4FF00008E1FB00981AEB080A68
:10CDE0004FF0000848EB0808E2FB00A81BEB080B1B
:10CDF0004FF0000848EB0808E3FB00B81CEB080CF8
:10CE00004FF0000848EB0808E4FB00C813EE100AD6
:10CE10001EEB080E4FF0000848EB0808E1FB00E8A5
:10CE200015EB08054FF0000848EB0808E2FB005836
:10CE300016EB08064FF0000848EB0808E3FB006813
:10CE400017EB08074FF0000848EB0808E4FB0078F0
:10CE500006EE109A11EE900A4FF00009E1FB00A9CE
:10CE60001BEB090B4FF0000949EB0909E2FB00B984
:10CE70001CEB090C4FF0000949EB0909E3FB00C961
:10CE80001EEB090E4FF0000949EB0909E4FB00E92C
:10CE900013EE900A15EB09054FF0000949EB09095B
:10CEA000E1FB005916EB09064FF0000949EB0909AF
:10CEB000E2FB006917EB09074FF0000949EB09098C
:10CEC000E3FB007918EB09084FF0000949EB090969
:10CED000E4FB008906EE90AA14EE901A01F110010D
:10CEE0001EC910EE100A4FF0000AE1FB00BA1CEB5D
:10CEF0000A0C4FF0000A4AEB0A0AE2FB00CA1EEBDA
:10CF00000A0E4FF0000A4AEB0A0AE3FB00EA15EBAF
:10CF10000A054FF0000A4AEB0A0AE4FB005A12EE37
:10CF2000100A16EB0A064FF0000A4AEB0A0AE1FB68
:10CF3000006A17EB0A074FF0000A4AEB0A0AE2FB05
:10CF4000007A18EB0A084FF0000A4AEB0A0AE3FBE2
:10CF5000008A19EB0A094FF0000A4AEB0A0AE4FBBF
:10CF6000009A07EE10BA10EE900A4FF0000BE1FBAA
:10CF700000CB1EEB0B0E4FF0000B4BEB0B0BE2FB51
:10CF800000EB15EB0B054FF0000B4BEB0B0BE3FB32
:10CF9000005B16EB0B064FF0000B4BEB0B0BE4FBAF
:10CFA000006B12EE900A17EB0B074FF0000B4BEBE8
:10CFB0000B0BE1FB007B18EB0B084FF0000B4BEB6E
:10CFC0000B0BE2FB008B19EB0B094FF0000B4BEB4B
:10CFD0000B0BE3FB009B1AEB0B0A4FF0000B4BEB28
:10CFE0000B0BE4FB00AB07EE90CA11EE100A4FF0FA
:10CFF000000CE1FB00EC15EB0C054FF0000C4CEBCA
:10D000000C0CE2FB005C16EB0C064FF0000C4CEB3A
:10D010000C0CE3FB006C17EB0C074FF0000C4CEB17
:10D020000C0CE4FB007C13EE100A18EB0C084FF01C
:10D03000000C4CEB0C0CE1FB008C19EB0C094FF0D5
:10D04000000C4CEB0C0CE2FB009C1AEB0C0A4FF0B2
:10D05000000C4CEB0C0CE3FB00AC1BEB0C0B4FF08F
:10D06000000C4CEB0C0CE4FB00BC08EE10EA11EEDB
:10D07000900A4FF0000EE1FB005E16EB0E064FF03B
:10D08000000E4EEB0E0EE2FB006E17EB0E074FF09C
:10D09000000E4EEB0E0EE3FB007E18EB0E084FF079
:10D0A000000E4EEB0E0EE4FB008E13EE900A19EB11
:10D0B0000E094FF0000E4EEB0E0EE1FB009E1AEB38
:10D0C0000E0A4FF0000E4EEB0E0EE2FB00AE1BEB15
:10D0D0000E0B4FF0000E4EEB0E0EE3FB00BE1CEBF2
:10D0E0000E0C4FF0000E4EEB0E0EE4FB00CE53EC98
:10D0F000172A18EE104A12EB0A0253EB0B0354EBFB
:10D100000C0455EB0E05002040F1000012EB0B0261
:10D1100053EB0C0354EB0E0455EB0E054641002077
:10D12000474158EB000859EB0A0940F10000B2EB07
:10D130000E0273F1000374F1000475EB0A0576EB3F
:10D140000B0677EB0C0778EB0A0879EB0C0960F11A
:10D150000000B5EB0B0576EB0C0677EB0E0778EBD2
:10D160000B0879EB0E0960F100005FEAE07C7FEAD2
:10D170000C0CDCF1000EB2EB0C0273EB0C0374EB45
:10D180000C0475F1000576F1000677F1000778EBE5
:10D190000E0879EB0C0960F100005FEAE07CDCF13D
:10D1A000000E12EB0C0253EB0C0354EB0C0455F184
:10D1B000000556F1000657F1000758EB0E0859EB31
:10D1C0000C0940F100005FEAE07CDCF1000E12EB9C
:10D1D0000C0253EB0C0354EB0C0455F1000556F113
:10D1E000000657F1000758EB0E0859EB0C095BECF1
:10D1F00015AA51EC160A1AEB060A5BEB070B50EB6B
:10D20000080051EB09015FF0000C4CF1000C1AEB27
:10D21000070A5BEB080B50EB090051EB090152EBDD
:10D220000C025FF0000C53EB0C0354EB0C04754143
:10D230004CF1000CBAEB090A7BF1000B70F1000015
:10D24000B141BA4173EB0803B44175EB08056CF1C9
:10D25000000CC91B72EB080273EB0903BC4175EBB0
:10D2600009056CF1000C5FEAEC787FEA0808D8F158
:10D270000009BAEB080A7BEB080B70EB080071F1B0
:10D28000000172F1000273F1000374EB090475EB05
:10D2900008056CF1000C5FEAEC78D8F100091AEB94
:10D2A000080A5BEB080B50EB080051F1000152F14A
:10D2B000000253F1000354EB090455EB08054CF14F
:10D2C000000C5FEAEC78D8F100091AEB080A5BEB76
:10D2D000080B50EB080051F1000152F1000253F12C
:10D2E000000354EB090455EB080514EE107AA7E887
:10D2F000000C87E83F00BDE8F08F00BF01234FF02E
:10D300000002064963F30702054B5B1ADB0801467E
:10D3100063F38F12034816F029BD00BFBC640200FE
:10D32000BC6402006879020003234FF0000110B5CD
:10D3300063F30701144C154B1548E41AC4F3C904F0
:10D3400064F38F1116F005FD00F096F9014658B10F
:10D350004FF0000201230F4863F3070264F38F12BA
:10D36000BDE8104016F002BD08210B4818F03AFA4B
:10D37000014640B14FF00002012363F3070264F35A
:10D380008F120648ECE710BDBC640200BC640200CA
:10D3900085790200AD790200E0000220C879020020
:10D3A00070B50446054E4518AC4200D170BD3068DA
:10D3B00014F8011B43685B689847F5E7FC000220FE
:10D3C00040F68B2230B53A4D3A4C2B6887B09342E9
:10D3D00028BF134600223849E25420460A2217F09B
:10D3E000D9F920B910213548FFF7DAFF0BE00A22FE
:10D3F0003349204617F0CEF90028F3D0297820468B
:10D4000001F052F848B905212E48FFF7C9FF2E4B0D
:10D41000186816F0D9F807B030BD233002D00821C3
:10D420002A48F2E72978204601F0DAFD0028EAD000
:10D430002330F4D126490DF1070340F68C22204613
:10D4400005F086FC011E11DA01234FF0000221488D
:10D4500063F30702204B1B1ADB0863F38F121F488C
:10D4600016F084FC01238DF80730D8E79DF80730CB
:10D47000032BCCD801A252F823F000BF8DD40000BA
:10D480001FD4000099D40000A9D40000104817F060
:10D490006EF901460E48A7E70A46114902A804F0B2
:10D4A000B5F8411C02A8B0E70A460E49F6E700BFEE
:10D4B000E8000220225E0220E9790200F4790200ED
:10D4C000097A0200047A0200FC000220147A0200A9
:10D4D000AE680220BC640200CC6402001C7A020028
:10D4E000437A02004E7A02002DE9F74F074643685F
:10D4F0005B6C03B198477B685B6B9BB13846984780
:10D5000080B14F4D4F4B504EED1ADFF868B1C5F367
:10D51000C9057B689B692BB101220DF107013846D3
:10D52000984710B903B0BDE8F08F32689DF8071036
:10D53000541C2229346019D07F2901D008291BD11D
:10D5400002B1013A022C38BF022400203F4B023CBA
:10D55000985434609BF80030002BDAD13C4B1B7898
:10D56000032B5ED8DFE803F02F2F4D559BF80030DA
:10D5700083F001038BF8003040F68C239C420FD9D6
:10D5800028F03F0242F0010262F3070865F38F18AA
:10D590004246304816F0EAFB40F68C233360B8E789
:10D5A00074B929F03F0343F0010363F3070965F3FE
:10D5B0008F194A462146284816F0D8FB3460A8E760
:10D5C000224B9954C6E7254AD35C8B42A1D1244B08
:10D5D00018684368DB6A03B198472249D1E8EF3FF6
:10D5E00043F00102C1E8E02F0028F7D1DB0703D4A4
:10D5F00008391D4818F097FA1C4B32681A6000234E
:10D60000CCE7124B1A4412F8013C002B81D00A29B6
:10D61000DCE70E4B1A4412F8013C0D2B7FF479AF76
:10D62000F5E72AF03F0242F0010262F3070A65F3D0
:10D630008F1A524619460E4816F098FB69E700BF4C
:10D64000CC640200BC640200EC000220225E0220D6
:10D650003B730220597A0200797A0200927B020021
:10D66000FC000220F80002203C5D0220E8000220BD
:10D67000977A02003A730220F7B50322494B4A49D0
:10D6800000201A7004F0CEFE484C494B0546E41ABF
:10D69000C4F3C90468B14FF00002012363F3070229
:10D6A000014664F38F12434816F060FB284603B02E
:10D6B000F0BD414814F056FA404D2860E8B1404FA3
:10D6C000286843689B68002B48D09847014600288B
:10D6D00044D026F03F0343F0010363F3070664F3ED
:10D6E0008F163246384616F041FB286843689B691E
:10D6F000EBB90A2015F0F2F8E2E701234FF000023F
:10D7000063F3070264F38F122B492E4816F02EFBA9
:10D710004FF0000201236FF0150163F307022A485E
:10D7200064F38F1216F022FB6FF00D05BEE70122A5
:10D730000DF1070198470028D7D1DAE7234801F017
:10D740006FFC05460028B1D04FF00002012363F3BF
:10D750000702014664F38F121D48E3E72A68536805
:10D7600023B19B6C13B11B491046984700221A4BFA
:10D770001A492868C3E901121A6015F025FF07212C
:10D780001748FFF70DFE114801F082F80146002806
:10D79000D4D04FF00002012363F3070264F38F1229
:10D7A0001048BFE73B730220E7350200CC6402005B
:10D7B000BC640200B47A0200D27A0200FC000220AB
:10D7C000097B0200D97A0200E97A0200D33502000F
:10D7D000697B0200E9D40000F0000220C1D3000000
:10D7E0003E7B0200467B0200014B1B681B6818470A
:10D7F00014030220014B1B685B68184714030220C6
:10D8000070B5184C06462068002829DDFFF7F2FFA6
:10D81000051E16DA02234FF00005134A63F30705CD
:10D82000124B9B1ADB0863F38F1515F0EAFE0168B3
:10D830002A4649420E4816F099FA15F0E2FE0568AC
:10D840006D424FF0FF3323600023324609490A48F6
:10D85000A38003F0DBFEA36807489847284670BD05
:10D860000025FBE700010220BC6402002C650200D9
:10D87000957B0200A87B02003C730220012838B58A
:10D880000146214C2DD10622FFF7AEFF0623206072
:10D8900023712268002A2DDA01234FF000051B4A6C
:10D8A00063F307051A4B9B1ADB0863F38F1515F01A
:10D8B000A8FE01682A464942164816F057FA15F0A4
:10D8C000A0FE026814495242144803F09FFEA36868
:10D8D000124898470023237115F093FE00684042D8
:10D8E00038BD0228D5D111220120FFF77DFF112379
:10D8F0002060CDE723790A49084803F087FE0748EE
:10D90000A36898470020EBE700010220BC640200F6
:10D910002C650200B77B0200A87B02003C7302204A
:10D92000CB7B020013B5435C42183D2B56D1537894
:10D930003F2B68D0354A002117F02CFF041E2EDB48
:10D94000324818F02DF801285DD901AA01212F488D
:10D9500017F0F1FF041E22DBBDF80400012827D1D7
:10D960002A4818F01DF802284DD90DF106020221AF
:10D97000264817F0E0FF041E11DB254B1B68002B27
:10D9800010DD02234FF00001224A63F30701224B0E
:10D9900022489B1ADB0863F38F1116F0DAF9204650
:10D9A00002B010BD9DF80600FFF768FF0446F6E7D9
:10D9B0000028F4D1164B1B68002B0CDA02234FF021
:10D9C0000001144A63F30701134B15489B1ADB0847
:10D9D00063F38F11E1E7FFF713FFE7E73F2B12D166
:10D9E0000B4C2268531C09D023790E490E4803F0D2
:10D9F0000DFEA3680C4898470024D0E70B490A485D
:10DA000003F004FEF5E76FF01504C8E7E00002201C
:10DA100000010220BC6402002C650200667C02004A
:10DA20007F7C0200CB7B02003C730220987C0200CA
:10DA3000044B10B41B68DC6A0023A4465DF8044B59
:10DA4000604700BF14030220F0B54FF41074344D4A
:10DA5000ADF5137D01946C79421894B901234FF010
:10DA60000001304A63F307012F4B30489B1ADB0853
:10DA700063F38F1116F06DF96FF015000DF5137D3E
:10DA8000F0BD435C3D2BF7D153783F2BF4D0284AAF
:10DA9000002117F07FFE0028F0DB254817F080FFFB
:10DAA0000128E9D902AE01AB32460121204817F026
:10DAB00054FF0028E2DB0024019B3046F45416F0AA
:10DAC00056FE0746A7421FD93A1B31192868FFF7AF
:10DAD000AFFF002822DA15F094FD00684FF0000631
:10DAE0004042FFF78DFE02230E4A63F307060E4BFA
:10DAF0009B1ADB0863F38F1615F083FD016832462D
:10DB000049420C4816F032F922460B490B4803F003
:10DB10007DFD0A48AB6898470020AFE70444D1E791
:10DB200000010220BC6402002C650200E87C0200B7
:10DB3000E0000220FE7C0200107D02003C73022007
:10DB40002DE9F0411446804601258EB0244F202255
:10DB50000E4606A8002116F066FE3B68CDE9075484
:10DB600006AA5C6B002101AB4046A047044688B181
:10DB70004FF000021B491C4B65F307025B1ADB08E0
:10DB8000014663F38F12194816F0F0F820460EB0E4
:10DB9000BDE8F081019B83B901234FF00001114AD8
:10DBA00063F30701104B12489B1ADB0863F38F11D4
:10DBB00016F0CFF86FF00104E8E75B690D495B6888
:10DBC00076BA4B600D804E80102302AA043128469D
:10DBD00003F05EFD3B6801989B6B9847D6E700BF5A
:10DBE00014030220BC6402002C650200247E0200A3
:10DBF000417E0200005E022010B58024435CA4B088
:10DC00003D2B00EB0102019404D06FF01504204677
:10DC100024B010BD53783F2BF7D0424A002117F0B3
:10DC2000B9FD041EF3DB3F4817F0BAFE0228ECD919
:10DC300001AB04AA01213B4817F08FFE041EE6DB6E
:10DC4000019B24AA13440022022103F8802C3548AA
:10DC50000DF1020217F06FFE041ED8DB04A8BDF818
:10DC6000024016F084FDC1B204A815F0CEFC70B9D4
:10DC700001234FF000012C4A63F307012B4B2C4882
:10DC80009B1ADB0863F38F1116F063F8BDE70120E0
:10DC9000230243EA1423ADF80800ADF80A3003AAC2
:10DCA00004A916F0C9FE044698B101234FF0000400
:10DCB0001D4A63F307041D4B9B1ADB0863F38F14A3
:10DCC00015F09FFC0168224649421A4816F04EF8AA
:10DCD0009BE70822184B19481B680DEB0201DB6813
:10DCE00000689847002892DA01234FF000040E4A9A
:10DCF00063F307040D4B9B1ADB0863F38F1415F0D5
:10DD000080FC0168224649420D4816F02FF815F0B4
:10DD100078FC00684042FFF773FD15F072FC046860
:10DD2000644274E7E0000220BC6402002C6502003B
:10DD3000327C0200437C0200140302200001022016
:10DD4000547C0200044B10B41B685C6A0023A44698
:10DD50005DF8044B604700BF1403022008B501239F
:10DD6000064A49BA1380518001460432184616F01B
:10DD700063FE002818BF6FF0150008BD005E02208A
:10DD800038B504460D4616F0F2FCC1B2204615F037
:10DD90003CFCB0B129462046FFF7E0FF044670B1D5
:10DDA00001234FF000020A4963F30702094B5B1A93
:10DDB000DB08014663F38F12074815F0D7FF2046B2
:10DDC00038BD022229462046FFF7BAFEE6E700BF2B
:10DDD000BC6402002C650200437C02002DE9F04F78
:10DDE000564BADF5357D1D684418002D1E4613DADF
:10DDF00001234FF00001524A63F30701514B52488F
:10DE00009B1ADB0863F38F1115F0A3FF6FF0150069
:10DE10000DF5357DBDE8F08F1B79112B0CD001235A
:10DE20004FF00001464A63F30701464B47489B1AEF
:10DE3000DB0863F38F11E7E7435C3D2BE6D16378A2
:10DE40003F2BE3D0424A002117F0A4FC0028DFDB7F
:10DE50003F4817F0A5FD0328D8D9802304AC0393CD
:10DE6000224603AB01213A4817F077FD0028CFDBAB
:10DE70000027039B0DF10A0202213548E75417F0F1
:10DE80005AFD0028C4DB4FF4107324AD03932A46D7
:10DE900003AB03212E4817F060FD0028B8DB039B7D
:10DEA0002846EF54BDF80A8016F061FC414607464B
:10DEB0002046FFF765FF0028AADB00244FF0080981
:10DEC000DFF89C80DFF89CA0A74209D822462149B0
:10DED000214803F09BFB2048B3689847002097E750
:10DEE000D8F80030CDE900A93A1BD3F830B0291991
:10DEF00000233068D84700281DDC01234FF00004C0
:10DF00000F4A63F307040F4B9B1ADB0863F38F146C
:10DF100015F077FB016822464942104815F026FFAC
:10DF200015F06FFB00684042FFF76AFC15F069FBD3
:10DF3000006840426CE70444C6E700BF00010220CD
:10DF4000BC6402002C650200517D0200677D020066
:10DF5000E00002208A7D02003C730220767D0200F0
:10DF600014030220005E0220802330B5A3B0019389
:10DF70004F4B44181D68002D1D4612DA01234FF047
:10DF800000014C4A63F307014B4B4C489B1ADB08DA
:10DF900063F38F1115F0DDFE6FF01504204623B0FA
:10DFA00030BD425C3D2A76D163783F2BF4D0444AA1
:10DFB000002117F0EFFB041EF0DB414817F0F0FCE6
:10DFC0000228E9D901AB02AA01213D4817F0C5FC9E
:10DFD000041EE3DB019B22AA13440022022103F862
:10DFE000802C37480DF1020217F0A5FC041ED5DB8A
:10DFF00002A8BDF8024016F0BAFBC1B202A815F0A3
:10E0000004FBA8B1214602A8FFF7A8FE0446A8B168
:10E0100001234FF00002274963F30702264B5B1AE6
:10E02000DB08014663F38F12264815F09FFEB5E723
:10E030000122214602A8FFF783FDE7E7224B0822D1
:10E040001B6822495B692868984700281DDA01236C
:10E050004FF00004174A63F30704174B9B1ADB08C1
:10E0600063F38F1415F0CDFA01682246494218482F
:10E0700015F07CFE15F0C5FA00684042FFF7C0FBC2
:10E0800015F0BFFA0468644288E7012311486B71F8
:10E09000AB68984782E73F2A7FF47EAF5C799A6845
:10E0A0001CB10D489047002478E70C48904775E76D
:10E0B00000010220BC6402002C650200517D0200B8
:10E0C000E0000220437C020014030220005E0220D4
:10E0D000A67C0200BB7C0200CA7C0200D97C020044
:10E0E00000230822F0B5ADF5157DCDE902133F4BB5
:10E0F0003F4D1B680092DC6907460DEB02030121CE
:10E1000014222868A047041E1CDA15F07AFA006869
:10E110004FF000054042FFF773FB0123354A63F3DC
:10E120000705354B9B1ADB0863F38F1515F069FA69
:10E1300001682A464942314815F018FE20460DF57F
:10E14000157DF0BDB7F5107F04AE8CBF4FF4107293
:10E150003A4628683146FFF7F5FD002804461DDAE7
:10E1600002234FF00004234A63F30704224B9B1A57
:10E17000DB0863F38F1415F044FA01682246494224
:10E180001F4815F0F3FD15F03CFA00684042FFF718
:10E1900037FB15F036FA04686442CFE711D1022349
:10E1A0004FF00001134A63F30701134B15489B1A04
:10E1B000DB0863F38F1115F0CCFD2046FFF720FB41
:10E1C000BCE70027AB6837540F489847AB68304628
:10E1D0009847AB680D48984722460D490D4803F013
:10E1E00015FAAB680B4898473C46A7E71403022092
:10E1F00000010220BC6402002C650200DE7B0200EC
:10E20000F57B0200067C0200167C0200E57C020021
:10E21000227C02003C73022013B51E4C4218647924
:10E220008CB901234FF000011B4A63F307011B4B1C
:10E230001B489B1ADB0863F38F1115F08AFD6FF002
:10E24000150002B010BD435C3D2BF8D153783F2B35
:10E25000F5D0144A002117F09DFA0028F1DB11488F
:10E2600017F09EFB0228EAD901AA01210D4817F0F8
:10E2700062FB0028E5DB0DF106020221094817F0D8
:10E280005AFB0028DDDBBDF80610BDF80400FFF7DF
:10E2900027FFD6E700010220BC6402002C650200C3
:10E2A000E87C0200E000022080232DE9F043ADF578
:10E2B000397D04936E4B44181D68002D1D4614DAF9
:10E2C00001234FF000016B4A63F307016A4B6B486F
:10E2D0009B1ADB0863F38F1115F03BFD6FF01504FB
:10E2E00020460DF5397DBDE8F0831B79112B0CD04C
:10E2F00001234FF000015F4A63F307015E4B604862
:10E300009B1ADB0863F38F11E6E7435C3D2BE5D1F5
:10E3100063783F2BE2D05B4A002117F03BFA041EE2
:10E32000DEDB584817F03CFB0428D7D908AF04AB14
:10E330003A460121534817F010FB041ED0DB00229F
:10E34000049B0221FA544F480DF10A0217F0F3FA28
:10E35000041EC5DB03AA03214A4817F0ECFA041E89
:10E36000BEDB0DF10E020421464817F0E4FA041E4C
:10E37000B6DB18224FF00008BDF80E3005AEBDF830
:10E380000A103846BDF80C903260CDE90638FFF728
:10E39000F7FC041EA4DB08223B4F01213B680092DE
:10E3A000DC69142206AB2868A047041E19DA012391
:10E3B0004FF000052F4A63F307052F4B9B1ADB082C
:10E3C00063F38F1515F01DF901682A4649422F485D
:10E3D00015F0CCFC15F015F900684042FFF710FA73
:10E3E0007EE73B68B9F5107F9C6A294B28AF286807
:10E3F00088BF4FF410720196009398BF0FFA89F20C
:10E4000043463946A047002806461DDA02234FF04E
:10E410000004184A63F30704174B9B1ADB0863F3E5
:10E420008F1415F0EEF8016822464942194815F09C
:10E430009DFC15F0E6F800684042FFF7E1F915F0A1
:10E44000E0F8046864424BE70024AB683C5412488F
:10E450009847AB6838469847AB68104898473246AB
:10E460000F49104803F0D2F8AB680E48984737E7D9
:10E4700000010220BC6402002C650200517D0200F4
:10E48000677D0200E000022014030220DE7B020010
:10E49000005E0220207D0200357D0200E57C020046
:10E4A000417D02003C7302202DE9F047144E0746DF
:10E4B00000253446D6F80490484616F058F95FFA1D
:10E4C00080F842464946384616F064F938B904EBFC
:10E4D0000514E36841463846BDE8F0471847424610
:10E4E000B168384616F056F90028F0D00135072DEE
:10E4F00006F11006DED16FF02200BDE8F08700BF04
:10E500006C65020003234FF000012DE9F04363F333
:10E510000701BF4CBF4BA7B0E41AC4F3C90464F3AE
:10E520008F11BD4815F015FC40F201220021662034
:10E53000FFF75AF9051E20DB03234FF0000163F3B8
:10E54000070164F38F11B54815F003FCB44816F0C9
:10E550000EF9B34902462846FFF76AFA00280FDA97
:10E560004FF000010323AF4863F3070164F38F11F9
:10E5700015F0EFFB2846FFF73DF94FF0FF3030E193
:10E58000642269462846FFF7DDFB0028F8D0032304
:10E590004FF0000263F307026946A34864F38F1249
:10E5A00015F0E4FBA149684616F096F8002838D02B
:10E5B0009F49684616F090F89E4A831C0A3013F86B
:10E5C000011F984202F8011BF9D14FF0000203230A
:10E5D00063F3070264F38F129649974815F0C6FB60
:10E5E0004FF4FA6015F00FF803234FF0000163F3C6
:10E5F000070164F38F11914815F0ABFB904816F0BA
:10E60000B6F88F4902462846FFF712FA002817DAB3
:10E610004FF00001032363F3070164F38F1189486E
:10E62000A6E78949684616F057F80028D8D04FF079
:10E630000001012363F3070164F38F11834897E717
:10E64000642269462846FFF77DFB0028F8D00323A3
:10E650004FF0000263F3070269467D4864F38F12AE
:10E6600015F084FB7149684616F036F8002841D051
:10E670002C21684616F06EF80026DFF8D89100F1DC
:10E680000108404616F073F8F7B2874206F101061A
:10E690002BD34FF00002032363F3070264F38F12BE
:10E6A0006C496D4815F062FB4FF4FA6014F0ABFF53
:10E6B00003234FF0000163F3070164F38F116748F0
:10E6C00015F047FB664816F052F8654902462846A1
:10E6D000FFF7AEF900281CDA4FF00001032363F3C3
:10E6E000070164F38F115F4842E718F8073009F813
:10E6F0000730C6E75449684615F0EEFF0028D3D02E
:10E700004FF00001012363F3070164F38F115648B2
:10E710002EE7962269462846FFF714FB0028F8D01A
:10E7200003234FF0000263F3070269464F4864F386
:10E730008F1215F01BFB3D49684615F0CDFF0028F0
:10E7400057D04B49684615F0C7FF0746484816F0B2
:10E750000EF80026DFF81C910744384616F007F83B
:10E760005FFA86F8404506F101063DD803234FF0D5
:10E77000000263F307023F493F4864F38F1215F02C
:10E78000F5FA4FF00001032363F3070164F38F11DF
:10E790003A4815F0DEFA03234FF0000163F3070156
:10E7A00064F38F11364815F0D4FA4FF4FA6014F080
:10E7B0002AFF03234FF0000163F3070164F38F1175
:10E7C000304815F0C6FA2846FFF714F803234FF037
:10E7D000000163F307012C4864F38F1115F0B9FAB7
:10E7E000002027B0BDE8F08317F8083009F808309A
:10E7F000B3E71549684615F06FFF0028CBD04FF0FE
:10E800000001012363F3070164F38F111F48AFE692
:10E810002C650200BC6402005B7E02007E7E02006A
:10E82000847E02008E7E02009F7E02003A800200FB
:10E83000B27E02007C730220B67E0200F97E0200E6
:10E84000F67E0200FE7E0200CB7E0200D17E020038
:10E850000E7F020086730220207F0200577F020095
:10E86000547F0200607F0200327F0200747F02004A
:10E870008A7F020090730220967F0200A57F02002B
:10E88000D07F0200D87F0200E07F0200AD7F02004F
:10E890002DE9F04F654A664CA7B0A41AC4F3C90429
:10E8A00070B901234FF0000163F30701614864F37D
:10E8B0008F1115F04EFA6FF0150027B0BDE8F08FFC
:10E8C0004FF0FF3100265C4A1160906096804FF057
:10E8D0000001032262F3070164F38F11574815F01A
:10E8E00038FA40F2012231466620FEF77DFF051E10
:10E8F00026DB534FDFF868A12BF03F0242F0030202
:10E9000062F3070B64F38F1B5A4639464D4815F0E6
:10E910002DFA384615F02BFF394602462846FFF7F8
:10E9200087F8002811DA4FF000010323464863F30B
:10E93000070164F38F1115F00CFA2846FEF75AFF11
:10E940000220FEF79BFF0020B7E702226946284617
:10E95000FFF7F8F90028F8D002225146684615F072
:10E9600028FF40B14FF00001032363F3070164F374
:10E970008F113648DFE729F03F0242F0030262F3CD
:10E98000070964F38F194946504615F0E2F901363C
:10E9900040F6B83014F037FE042E07F12207ABD151
:10E9A0002B4EDFF8C0902B4F304615F0E0FE31467D
:10E9B00002462846FFF73CF8002808DA4FF000012D
:10E9C000032363F3070164F38F112348B3E796220F
:10E9D00069462846FFF7B6F90028F8D028F03F032B
:10E9E00043F0030363F3070864F38F184246694654
:10E9F000484615F0BBF93946684615F06DFE82466B
:10EA000040F6B83014F0FFFDBAF1000FCCD0284624
:10EA1000FEF7F0FE03234FF0000163F3070164F3F8
:10EA20008F110E4815F095F98AE700BFBC6402000B
:10EA30002C65020000800200000102200C80020010
:10EA40009C7D0200AF7E02002B8002003980020014
:10EA5000547F02003D800200607F02004780020078
:10EA60003A800200747F0200014B1B685B68184704
:10EA7000140302202DE9F04F634F644B3D46644A76
:10EA8000644C9B1A85B0C3F3C90B0023D82261499B
:10EA9000386805F04DFC002821DC01234FF000040C
:10EAA00063F3070414F0C2FD01686BF38F14224670
:10EAB0004942594815F05AF914F0B8FD026857490F
:10EAC0005242574802F0A2FDBB6855489847386843
:10EAD00005F0CEFB0023BB7105B0BDE8F08F2378B5
:10EAE000012B30D1FA79002A48D113461646104638
:10EAF0004849B1F846C00CF1FF3CBCF11F0F0ED8DD
:10EB000091F850C001361CF0010F1CBF0133DBB27D
:10EB10001CF0080F18BF0132F6B218BFD2B2013094
:10EB20000C2801F10C01E4D13E490978B14225D00D
:10EB30003D4900923A48324602F068FDAB683848D9
:10EB4000984738490E702378012B17D0022B9CD19F
:10EB5000EB79002B99D028F03F0343F0030363F3D4
:10EB600007086BF38F184146304815F0F2F8AB6890
:10EB70002F489847AB682F48984786E794F8443069
:10EB8000DB0782D52AF03F0343F0030363F3070A50
:10EB90006BF38F1A5146284815F0DBF8D4E90223AD
:10EBA000CDE900232549D4E904231D4802F02EFDB8
:10EBB000AB681B48984794F82E302149039394F88A
:10EBC0002D301748029394F82C30019394F82B3091
:10EBD0000093228D94F82A3002F018FDAB6810489B
:10EBE000984729F03F0343F0030363F307096BF3EE
:10EBF0008F194946134815F0ACF8EB79002B7FF4D8
:10EC000044AF0123EB7140E70C010220EC640200E9
:10EC1000BC640200000002202E8202004182020039
:10EC2000C27302200274022050820200E8820200B5
:10EC3000FF820200080002207C8202008D82020016
:10EC4000A6820200CE8202000023F0B501276E4D9D
:10EC50008BB0ADF81E300993AB884FF401720221DE
:10EC60003846ADF82070ADF8223005F0EFFA0028F4
:10EC7000286031DA4FF00004644A654B67F30704FB
:10EC80009B1ADB0863F38F1414F0D0FC0168224652
:10EC90004942604815F06AF86FF0150401234FF0FF
:10ECA00000025A4963F30702594B5B485B1ADB08C1
:10ECB00063F38F12214615F059F8224657495848F8
:10ECC00002F0A4FCAB68564898470023AB7114F0DF
:10ECD000ADFC0468644283E002260DF11E03009639
:10ECE00032464FF4017105F087FB044698B10123C9
:10ECF0004FF00006454A63F30706454B9B1ADB08B5
:10ED000063F38F1614F092FC32460168454849427D
:10ED100015F02CF8C2E7009608AB3A464FF40171A3
:10ED2000286805F069FB044688B101234FF000060E
:10ED3000364A63F30706364B9B1ADB0863F38F16DC
:10ED400014F074FC0168324649423748E0E7009607
:10ED50000DF1220304224FF40171286805F04CFBE9
:10ED6000044688B101234FF00006284A63F30706E2
:10ED7000274B9B1ADB0863F38F1614F057FC0168CE
:10ED8000324649422948C3E70423072200934FF43F
:10ED9000017109AB286805F02FFB044688B10123F7
:10EDA0004FF00006194A63F30706194B9B1ADB085C
:10EDB00063F38F1614F03AFC0168324649421C484E
:10EDC000A6E71C4E306870B113F0C2FE0123AA887A
:10EDD00019491348AB7102F019FCAB681048984709
:10EDE00020460BB0F0BD0E23CDE90444CDE902432B
:10EDF000CDE90044114B4FF480621149114813F0E2
:10EE000057FE3060E2E700BF0C010220BC64020044
:10EE1000EC64020017810200DB81020041820200E3
:10EE2000C2730220378102005F8102008A810200E2
:10EE3000AC810200C8010220CA81020075EA00000C
:10EE400090750220180102207FB50E4603234FF073
:10EE50000001044663F30701534D544B5448ED1A27
:10EE6000C5F3C90565F38F1114F073FFA35DA219F3
:10EE70003D2B40F0828053783F2B00F0928020465B
:10EE80004C4A002116F086FC041E36DB494816F079
:10EE900087FD012840F285800DF10A0201214548D5
:10EEA00016F049FD041E28DBBDF80A30012B27D1DE
:10EEB000404816F075FD022806D93F4A02213D4818
:10EEC00016F039FD041E18DB3C4B4FF000019B7916
:10EED00043B102233A4863F3070165F38F1114F03D
:10EEE00038FF0AE0032363F3070165F38F11354808
:10EEF00014F02FFFFFF7A8FE0446204604B070BDB3
:10EF0000002BFAD12D4EB27942B94FF00001022305
:10EF100063F3070165F38F112B48E0E73068039333
:10EF2000431C37D00423082200934FF4017103AB34
:10EF300005F062FA044698B101234FF0000463F330
:10EF4000070414F073FB016865F38F1422464942ED
:10EF50001E4814F00BFF14F069FB04686442CCE710
:10EF60001B4B186813F0D4FD306805F081F90023BD
:10EF70001848B371B3689847BFE73F2B11D10F4CC6
:10EF8000A3794BB1A2881449144802F03FFBA3684F
:10EF9000124898470024B0E70E49104802F036FBAB
:10EFA000F5E76FF01504A8E7EC640200BC6402000A
:10EFB00008830200E0000220100102200C01022060
:10EFC00019830200288302004D830200608302003F
:10EFD000C80102207D830200CA810200C2730220A0
:10EFE00038B504460C4815F0C2FBC5B22A460A499A
:10EFF000204615F0CFFB28B929462046BDE8384009
:10F00000FFF722BF2A460549204615F0C3FB00281A
:10F01000F2D06FF0220038BDAF830200BA83020045
:10F020002DE9F74F404B414CE41AC4F3C90470B9C1
:10F0300001234FF0000163F307013D4864F38F1192
:10F0400014F087FE6FF0150003B0BDE8F08F1F22AB
:10F050004FF0FF310025374B374FC3E9001298605E
:10F06000364B4FF000011D60032363F3070164F387
:10F070008F11334814F06DFE3B6840F201221B688B
:10F08000294666209847061EB84620DB2D4FDFF83C
:10F09000C0A029F03F0343F0030363F3070964F3BF
:10F0A0008F194A463946284814F060FE384615F054
:10F0B0005EFBD8F800300246D3F82CB03946002366
:10F0C0003046D847002808DA3046FFF7CDFCFFF776
:10F0D000BBFD0020B8E70125DBE7D8F800300222AD
:10F0E000D3F824B001A900233046D8470028F4D033
:10F0F0000222514601A815F05CFB0028E4D14FF430
:10F100007A7013F0EBFB1F37002DE4D03046FFF789
:10F11000ABFC03234FF0000163F3070164F38F118D
:10F120000A4814F016FED2E7BC640200EC64020048
:10F13000008002000C01022014030220C8010220FA
:10F140008B830200F0810200AF7E0200A3830200E5
:10F150003A8002000B6801330B60014B1B681847B3
:10F16000E4D302202DE9F04F85B00E9C9B46012C84
:10F17000B8BF0124012B0CBF302320231646824642
:10F18000884601250A270022DFF86C900293B6FB1F
:10F19000F9F301930AB9B1451CD8019B414603F12B
:10F1A0003000D04701220135019B013F09FB136666
:10F1B0000A23012FB9FBF3F9E9D1414606F13000EA
:10F1C000D047BBF1030F02D1641B002C0EDC05B04D
:10F1D000BDE8F08FBC42E7DBBBF1020FE4D841464B
:10F1E000029803920135D047039ADDE7414620207B
:10F1F000D047013CE9E700BF00CA9A3B014B1860C9
:10F20000704700BFE4D30220002307B502460193F4
:10F2100003480B4601A914F0F9FB03B05DF804FBA9
:10F2200055F100004FF02002EFF3118382F31188B3
:10F23000BFF36F8F0121044AC2F8401583F3118890
:10F24000BFF36F8F002070470090034030B500225D
:10F2500087B00D490D4816F083FE00240E230C4D97
:10F26000CDE90243CDE90444CDE90044094B4FF414
:10F2700040720949284613F01BFC0849284616F03D
:10F28000CBFD204607B030BDA1F20000E001022016
:10F290002802022081F5000090790220DC83020020
:10F2A000014813F049BB00BF80D5022008B500F02B
:10F2B000DFF9094814F02AFD0423342207480849DD
:10F2C00016F08FFB074B084A4FF400401A60BDE868
:10F2D000084000F0FDBB00BFD80102200C02022054
:10F2E000D0B90220E8D302204B3D0200F8B500253A
:10F2F0000C4BD3E8EF7FC3E8E25F002AF9D10A4C58
:10F300000A4E361B3611B54200DBF8BD63685B79E7
:10F310002BB12368DB6813B1394620469847013585
:10F320001034F0E7D00102203C6502004C65020079
:10F33000224B2DE9F0411B78054603B940B34FF04D
:10F340002003EFF3118483F31188BFF36F8F1C4800
:10F3500014F0ECFC074684F31188BFF36F8F58B1AB
:10F36000184BD3E8EF2F013AC3E8E12F0029F8D179
:10F370008DB1384614F0C7FD25B9134B1B680BB18E
:10F38000FFF7B4FF0E4814F0CFFC051C18BF012591
:10F390002846BDE8F081A8460C4C0D4E361B3611B0
:10F3A000B045E6DA63685B7923B1236839461B68A8
:10F3B0002046984708F101081034F1E70374022051
:10F3C000D8010220CC010220D00102203C650200BD
:10F3D0004C650200244B70B51B6841810546984777
:10F3E000224CE860D4E8EF3F0133C4E8E23F002A52
:10F3F000F8D14FF02003EFF3118683F31188BFF3A8
:10F400006F8F1B48294614F085FC86F31188BFF3E3
:10F410006F8F184B1A787AB14FF02003EFF31184F5
:10F4200083F31188BFF36F8F0020FFF781FF84F310
:10F430001188BFF36F8F70BD0F49236809680029D9
:10F44000F9D0012B06D1BDE870404FF47A710B481A
:10F4500013F024BD0A2BEED1084816F08DFDBDE84F
:10F460007040074813F068BAE8D30220CC010220AC
:10F47000D801022004740220D8020220E0010220F8
:10F4800080D50220044BD3E8EF2F0132C3E8E12FEF
:10F490000029F8D1704700BFD0010220044A054B73
:10F4A0009B1AB1EBD30F34BF52F8310000207047E4
:10F4B000BC6402003C650200094B4268C31A1B1180
:10F4C000013310B5137101224368064C5A7122783A
:10F4D000196012B9044813F02FFA0123237010BDEC
:10F4E0003C6502000374022080D5022070B50F4BEA
:10F4F000D3E8EF5F6A1CC3E8E12F0029F8D12DB9EA
:10F500000B4C0C4E361B3611B54200DB70BD237B15
:10F5100043B123685B6903B1984704220021204668
:10F52000FFF7CAFF01351034EEE700BFD401022017
:10F530003C6502004C650200F8B50E4F3D7875B988
:10F54000FFF7D4FF0C4C0D4E361B3611B54207DBCE
:10F550000020FFF7EDFE0028FAD101233B70F8BD33
:10F5600063685B791BB1236820461B6998470135A6
:10F570001034EBE7047402203C6502004C65020085
:10F5800008B5FFF7B3FF13F0D1F90B4B186030B19A
:10F590000A4B1B68092B02DD094813F0CDF9084C12
:10F5A0000020FFF7C5FE0028FAD14FF0FF312046BA
:10F5B00013F0EEF9F4E700BFD8020220CC010220DC
:10F5C00080D50220144B37B59842044602D3134B22
:10F5D00098421BD3002201A9114812F069FC05468C
:10F5E000B8B90122019BD3E8EF1FC3E8E02F002840
:10F5F000F9D1019821462D22043015F08AF87E2396
:10F60000019C84F8313084F832500434204603B031
:10F6100030BD044CFAE700BFD0610200188E020032
:10F620000C020220E483020048B1054B984205D346
:10F63000D03398422CBF0020012070470020704733
:10F64000D0B9022007B504380190D0E8EF3F5A1E28
:10F65000C0E8E12F0029F8D1012B03D101A903480B
:10F6600012F052FC03B05DF804FB00BF0C02022054
:10F67000202302491A46024816F0B3B9A0BA022064
:10F68000DC020220002337B5094D01930120FFF76A
:10F690004FFE0446FFF7F6FE002201A9284612F0AD
:10F6A00007FC08B1002CF1D1019803B030BD00BFB8
:10F6B000DC02022007B5002201A90648019212F0DF
:10F6C000F7FB10B1FFF7DEFF0190019803B05DF882
:10F6D00004FB00BFDC0202207FB5047A457A14F0F7
:10F6E000010401904FEA15150ED0019B1A7A92077A
:10F6F00004D55B69104C0393039BB3B901A90E4871
:10F7000012F002FC04B070BD002DEED0A5420198AD
:10F71000EBD9214614F0DAFB0646FFF785FF10B15E
:10F720003046FFF78FFF0134F0E71D6803A920463C
:10F7300012F0EAFB0395DFE7DC0202200EB403B50A
:10F7400003AB53F8042B01460448019314F05EF90F
:10F75000002002B05DF804EB03B07047CD42020018
:10F760002DE9F04F11F0020485B0064690469DF851
:10F77000387001F0010901F0080507D011F0440FBD
:10F7800037D11A463249FFF7D9FF0446B9F1000FC5
:10F790000AD0304B304953F82720304B3046002AEE
:10F7A00008BF1A46FFF7CAFF3DB12D4B2D4953F84C
:10F7B00027203046FFF7C2FF0546B8F1000F44D0BE
:10F7C000012303FA07F7284B17F0100F274F18BF34
:10F7D0001F46BDF840109DF83C00FFF75FFE39461C
:10F7E00002463046FFF7AAFF2844204405B0BDE892
:10F7F000F08F1F4A116831B31E4A4FF4616E1468CE
:10F800004FF47A7CB3FBF4F3B3FBF1F4B4FBFEF2F8
:10F810000EFB124E01FB14340CFB04F4B4FBF1FBA1
:10F820004FF03C0A01FB1B440CFB04F4BEFBFAF353
:10F83000B4FBF1F1CDE901B10AFB13E100910E49EE
:10F84000FFF77CFFA1E708469FE7084FC1E700BF2D
:10F850004984020004660200AF7E02003B8402007D
:10F86000186602006E840200458402004084020093
:10F87000F8020220FC0202205284020038B50C4635
:10F88000E107054603D5084A0849FFF757FFE20696
:10F8900008D4A3062846BDE838404CBF04490549B2
:10F8A000FFF74CBF38BD00BF3B840200AF7E0200B3
:10F8B000E67C0200E57C02002DE9F0479846089BB3
:10F8C0000446DD060E46174605D499064CBF294965
:10F8D0002949FFF733FF0025DFF8A49045452ADBCF
:10F8E0000025DFF8A080DFF8A090DFF894A0BD42EB
:10F8F0002ED2725D49462046FFF720FF0135102DBC
:10F900001FD11E492046FFF719FF0025DFF8708040
:10F91000DFF87890AF4227D9725D4946A2F1200303
:10F920005F2B28BF2E222046FFF708FF0135102D40
:10F9300013D1BDE8F08749462046FFF7FFFE0135A9
:10F94000CCE76A07D3D151462046FFF7F7FECEE752
:10F9500041462046FFF7F2FED0E76B07DAD1414679
:10F960002046FFF7EBFED5E741462046FFF7E6FECF
:10F97000DCE700BFE67C0200E57C02000C840200AC
:10F980000A84020008840200028402000E8402003D
:10F990002DE9F0478B7A174613F007048AB0054625
:10F9A0000E460A7A1CD0D2434989C3F3C20389099F
:10F9B0000291CDE9004302F00102F3683946FFF7F6
:10F9C000CFFE8146337ADA070CD42946304614F04C
:10F9D00013FB4CB3224639462846FFF74FFF23E07E
:10F9E000A146EFE734BB2746EB6806AA0693A96851
:10F9F0003B46304614F0ECFA069A6B681A603AB14E
:10FA0000AB68134413F8014CA4F10A035C425C4157
:10FA1000284614F04EFC069B1F44002BE4D11CB179
:10FA200014492846FFF78AFE284614F042FC0AB023
:10FA3000BDE8F087304614F075FA0F4902462846B3
:10FA4000FFF77CFE4FF000084FF0100A05AA43466E
:10FA500006A93046CDF814A014F0BAFA059A002A87
:10FA6000B8D04B46009706A92846FFF725FF059B0F
:10FA70009844EBE711840200AF7E020073B5D0E931
:10FA800000435D6842F20F738B4228BF0B460D4A5C
:10FA90000521684601F0A2FD06462B4620460B22B2
:10FAA000094914F09CFA2B4632466946204614F068
:10FAB00096FA2B461B220549204614F090FA02B014
:10FAC00070BD00BF3E8202002F840200138402003A
:10FAD00001230021074A10B5074C1360A04204D847
:10FAE00001B11360054B186010BD40085B00012197
:10FAF000F4E700BFFC02022040420F00F80202209F
:10FB0000014814F0D6BB00BF446602000148FFF76D
:10FB1000B5BF00BF4466020008B5034812F022F8E2
:10FB2000024B586008BD00BFD27A020008030220D1
:10FB300010B50C46084614F0BDF9214604480F22C2
:10FB4000FFF726FF2046BDE8104014F0DCB900BFE7
:10FB500044660200014B1860704700BF1403022086
:10FB60000A2838B50446074D04D1286843680D219A
:10FB70005B68984728684368E1B25B68984720460D
:10FB800038BD00BF1803022010B5044C204601F018
:10FB90001FFD2046BDE81040FFF730BB61FB0000B1
:10FBA00008B5044811F0DEFF034B1860FFF7ECFFC7
:10FBB000002008BDD27A02001803022010B50022EE
:10FBC00004460121052000F0C1F9052000F0AEF93E
:10FBD0000222054B0020C3F818250322C3F8042392
:10FBE000A368C3E9000010BD0050004008B5104BE9
:10FBF0001A6862B10F4AD2F80423D10707D5002250
:10FC00000D481A6083685B7A0BB914F013FC0B4B38
:10FC10001A685AB1074AD2F80423920706D500227F
:10FC200007481A60BDE8084014F004BC08BD00BFD6
:10FC3000005100400050004094D402200451004084
:10FC4000A0D4022000220D4BC3F840214FF0200227
:10FC5000EFF3118182F31188BFF36F8F084AD3F855
:10FC600004051368C01A20F07F400344136081F339
:10FC70001188BFF36F8F13F079B800BF00500140B7
:10FC80003403022070B5184811F06CFF48B3436884
:10FC900000211B689847012600244FF480334FF45D
:10FCA0000012124D3146C5F80845C5F84065C5F843
:10FCB00004330F4B15201C600E4BC3F880212246E5
:10FCC00000F044F9152000F031F920460A4B1E607F
:10FCD0002E60D5F80435334423F07F43C5F8403512
:10FCE00070BD4FF0FF30FBE7AB84020000500140D5
:10FCF0004051014000E100E00850014070B5214E44
:10FD0000B0F1FF3F08BF30464FF02003EFF31184FE
:10FD100083F31188BFF36F8F1B491C4BD1F8042567
:10FD20001D680138531B23F07F4301352B4420EA23
:10FD3000E070B042D4BF18189819821A22F07F429E
:10FD400020F07F43022AC1F8403504D984F311889A
:10FD5000BFF36F8F70BDD1F804350D4AC31A23F07D
:10FD60007F435D1E954205D94FF40012094BC3F83D
:10FD70000021EBE7012B02BF023020F07F40C1F8E9
:10FD80004005E3E7FEFFFF0000500140340302207E
:10FD9000FEFF7F0000E100E04FF02002EFF311834F
:10FDA00082F31188BFF36F8F064AD2F80405064A22
:10FDB0001268801A20F07F4083F31188BFF36F8FA1
:10FDC000704700BF00500140340302204FF0200371
:10FDD000EFF3118283F31188BFF36F8F0649074B4E
:10FDE0000868D3F8043582F31188BFF36F8F1B1AAC
:10FDF00023F07F4318447047340302200050014031
:10FE000007488168406A884203D006494FF0805213
:10FE10000A6001B512F0FAFDBDE80140704700002C
:10FE2000FC5C022004ED00E0094A0A499368096875
:10FE30005866996608494B6843F080534B6000232D
:10FE400083F31188BFF36F8F9368986E704700BF7C
:10FE5000FC5C02205078020000ED00E029498A682D
:10FE60004FF028001044EFF3098C80E8F01F4FF0AA
:10FE700010001EEA000F04D0D2F8AC0020F00400FD
:10FE800007E002F16C0080EC108AD2F8AC0050F070
:10FE90000400C2F8AC00202080F31188BFF36F8FFC
:10FEA000194F4FF000664A6A8A603E60506E002328
:10FEB000536680F31188D2F8AC0010F0040F05D11E
:10FEC0000023E1EE103A5EF0100E05E02EF0100E69
:10FED00002F16C0090EC108AEFF3148323F004031A
:10FEE00083F31488BFF36F8F04B5104614F0CEFA75
:10FEF000BDE8044002F1280090E8F01F8CF3098867
:10FF000070470000FC5C022004ED00E01EF0040FCE
:10FF10000CBFEFF30880EFF30980816911F8021C30
:10FF20000229FFD001B514F0A6FA01BD43B2002B9F
:10FF300008DB012200F01F0002FA00F0024A5B0910
:10FF400042F82300704700BF00E100E043B2002BFD
:10FF500001F10101A8BF03F160434FEA4111B8BFAD
:10FF6000054BC9B2ABBF03F5614300F00F0083F846
:10FF700000131954704700BF14ED00E008B572B6C5
:10FF8000044B186A18B100221A6215F028FD62B6F7
:10FF900008BD00BFFC5C022073B51E460A9B0546E7
:10FFA0000093099B8C1815F03CFF0C4AA4F1200328
:10FFB00023F0070322F001029A61069A1E605A603C
:10FFC000079A9A60089ADA604FF08072DA61AB643F
:10FFD00000236B66C5F8AC3002B070BDA3390200D7
:10FFE0002DE9F0411F4606460C4690460023E1EEFF
:10FFF000103AEFF3148525F0040585F31488BFF358
:020000021000EC
:100000006F8F00F009FC0A4B444430469E6024F098
:10001000070414F03BFA384684F30988002163B6DC
:1000200081F31188BFF36F8F0022002313F0B9FC16
:10003000FC5C0220014910220A60704710ED00E0CC
:10004000404080F3118830BF704700BFEFF3088055
:10005000EFF30981724601B500F0B0FA01BD00BFAF
:100060002DE9F04781468AB00C4600297AD001225A
:100070004FF000033F4D62F307033F4A3F48AD1A7C
:10008000C5F3C90565F38F13ADF80030D1E901233D
:10009000096813F097FE01224FF0000362F3070393
:1000A00065F38F13ADF80030D4E90423E1683448D8
:1000B00013F088FE01234FF0000263F3070265F39B
:1000C0008F12E1692F4813F051FE27460026DFF812
:1000D000C0A0D7ED087AFCEEE77ACDED037AD7ED34
:1000E000097AFCEEE77ACDED057AD7ED0A7AFCEED7
:1000F000E77ACDED077AD7ED0B7A0822FCEEE77AA6
:1001000028F03F0343F0010363F30708731C0493D3
:10011000B31C069365F38F18F31C029608930DEB3E
:100120000201434650460436CDED097A13F065FED0
:10013000102E07F11007CCD101234FF0000263F31A
:10014000070265F38F12216E0F4813F00FFE4FF078
:100150000002012363F3070265F38F12A1690B48C4
:1001600013F004FE2146484611F044FD0AB0BDE8F4
:10017000F08700BF14650200BC640200D78402004F
:100180000685020035850200848502009485020000
:100190004485020030BFFFF7FDBF00BF114A08B51C
:1001A000114B22F07F029A60BFF34F8FBFF36F8F26
:1001B000D3F8882042F4A002C3F888204FF04042D0
:1001C000C3F83422BFF34F8FBFF36F8F0023E1EEEC
:1001D000103A11F08FFD11F097FD00F0E9FA11F0DF
:1001E000C5FD00BF00C0000000ED00E001B572B623
:1001F0000B4A106A00281EBF0021116215F0EFFBA8
:1002000062B6EFF30580A0F110004FEAC000054987
:10021000014409C99847BDE8014003490847000067
:10022000FC5C0220D061020001FE000013F06CFDB6
:10023000202080F3118808484FF40061401880F3B3
:100240000988EFF314800221084380F31488BFF378
:100250006F8FFFF7A3FF0000D091022001234FF022
:10026000000110B563F307013A4C3B4B3B48E41ADD
:10027000C4F3C90464F38F1113F06BFD384B9B6A10
:10028000990109D54FF00001012363F3070164F3DD
:100290008F11344813F05DFD314B9B6ADA0109D5AB
:1002A0004FF00001012363F3070164F38F112E481F
:1002B00013F04FFD2A4B9B6ADB0209D54FF000017A
:1002C000012363F3070164F38F11284813F041FD04
:1002D000234B9B6A180309D54FF00001012363F3F8
:1002E000070164F38F11224813F033FD1C4B9B6A06
:1002F000590309D54FF00001012363F3070164F3AB
:100300008F111C4813F025FD154B9B6A9A0309D5E4
:100310004FF00001012363F3070164F38F111648C6
:1003200013F017FD0E4B9B6ADB0309D54FF000015C
:10033000012363F3070164F38F11104813F009FDE3
:10034000074A0020936A6FEA03436FEA13439362FC
:1003500010BD00BF14650200BC64020022870200C9
:1003600000ED00E03A8702004D8702006787020037
:1003700091870200AF870200D4870200EE87020057
:10038000F8B501230E464FF00001374C63F3070127
:10039000364B0746E41AC4F3C90464F38F1134489A
:1003A00013F0D7FC334B9B6AD90609D54FF00001F7
:1003B000012363F3070164F38F112F4813F0C9FC85
:1003C0002C4B9B6A1A0709D54FF00001012363F3F8
:1003D000070164F38F11294813F0BBFC254DAB6A6C
:1003E0009B071CD501234FF0000163F3070164F361
:1003F0008F11234813F0ADFC696BAB6A18060ED55C
:100400004FF00002012363F3070264F38F121D48CB
:1004100013F0ACFC1FB1AB6A23F08003AB62154B49
:100420009B6ADA0709D54FF00001012363F3070146
:1004300064F38F11144813F08CFC0E4B9B6A9B06DF
:1004400009D54FF00001012363F3070164F38F1115
:100450000E4813F07EFC0020064B9A6A9A6A42F01E
:10046000FF029A623070F8BD14650200BC6402009D
:100470004A86020000ED00E06086020093860200DA
:10048000A6860200BE860200D4860200F386020021
:10049000F8B501230E464FF000013D4C63F3070110
:1004A0003C4B0746E41AC4F3C90464F38F113A487D
:1004B00013F04FFC394B9B6AD90409D54FF000016A
:1004C000012363F3070164F38F11354813F041FCF6
:1004D000324B9B6A1A0509D54FF00001012363F3E3
:1004E000070164F38F112F4813F033FC2B4DAB6AD7
:1004F0009B051CD501234FF0000163F3070164F352
:100500008F11294813F025FCA96BAB6A18040ED58E
:100510004FF00002012363F3070264F38F122348B4
:1005200013F024FC1FB1AB6A23F40043AB621B4BF6
:100530009B6A590509D54FF00001012363F30701B8
:1005400064F38F111A4813F004FC144B9A6AD20515
:1005500011D54FF000010123164863F3070164F33E
:100560008F1113F0F6FB00200C4A936A43F47F438B
:1005700093623070F8BD9B6A9B04F4D54FF0000184
:10058000012363F3070164F38F110B48E9E700BF10
:1005900014650200BC640200C285020000ED00E0A8
:1005A000D885020093860200E985020002860200D7
:1005B0001786020032860200F38602002DE9F0431E
:1005C000694B9DB0D3F80480064689461446C8F3AB
:1005D0000807002585F31188BFF36F8F02F07F4372
:1005E000B3F17F4F28D1D00726D4510603D4220778
:1005F00012D4012512E001234FF000015B4A63F39E
:1006000007015B4B5B489B1ADB0863F38F1113F008
:10061000A0FB14F0040501D04E46002500238DF800
:100620000730FB1E092B00F28280DFE803F0076B26
:100630006F4E8080808080732E46EFE701234FF05D
:1006400000014FF0000863F30701494F474B4A4848
:10065000FF1AC7F3C90767F38F1113F07AFB424BF8
:100660008DF80780DC6A14F002040BD04FF0000113
:100670000123424863F3070167F38F1113F069FB0D
:10068000002425E0DB6A5B0022D501234FF0000146
:1006900063F3070167F38F11394813F05AFB394BA5
:1006A0001B782BB101200DF10701FFF769FE0EE069
:1006B000354B1B782BB101200DF10701FFF7E8FE48
:1006C00005E0324B1B889BB213B1FFF7C7FD044610
:1006D0009DF807309BB96822314602A814F079F8DA
:1006E000099B002D3AD0C3F3080222B96FEA5323C5
:1006F0006FEA4323099302A92046FFF7B1FC1DB01E
:10070000BDE8F0830DF107010020CEE70DF10701F0
:100710000020D3E701234FF00001144A63F30701DF
:10072000134B1B489B1ADB0863F38F11A6E70122CA
:100730004FF000030E4962F307030C4A1548891A6B
:10074000C90818F4F87F61F38F13A7F1100212495A
:1007500018BF0146114813F01DFB91E723F4FF7306
:1007600023F00103C6E700BF00ED00E0BC64020017
:1007700014650200198802003C88020053880200B8
:100780007488020028ED00E029ED00E02AED00E089
:1007900093880200DE880200C9880200F788020000
:1007A000024A536943F010035361704700ED00E0C3
:1007B000002320210348C2180133412B82F8001383
:1007C000F9D1704700E100E038B505464FF020034D
:1007D000EFF3118483F31188BFF36F8F15F04FFB94
:1007E0000B4B9B68AB420DD10A4B5A68C2F308020F
:1007F00022B912F00BF92046FFF716FB5A6842F0B7
:1008000080525A602046BDE8384015F045BA00BF16
:10081000FC5C022000ED00E010B50E4B88B00293A6
:100820000D4B0E4C03930E4B0E4A049302AB0193F7
:1008300001A82346012100F09FF8002307930A4BEB
:100840000121E41A05A80593069400F061F908B0A7
:1008500010BD00BF000002200000000000000420C6
:1008600006000100000002200000022008B54FF041
:1008700000020123074963F30702074B5B1ADB08F9
:10088000014663F38F12054813F070FA6FF01500FC
:1008900008BD00BFBC640200046502005489020068
:1008A0008B7A70B403F007060C684B680A7A24F060
:1008B0001F04013B23440F2802F01F0223F01F03F3
:1008C00002D970BCFFF7D2BF054943EA4603224371
:1008D00043F001038860CA6070BC0B61704700BFC1
:1008E00090ED00E00522034B5A60BFF34F8FBFF33A
:1008F0006F8F704790ED00E0BFF35F8F0022014BD8
:100900005A60704790ED00E0174970B50C68102CE4
:1009100027D8FFF7F1FF0025144A154B48681363E9
:10092000AC4200F1100605D1124B1C70FFF7DAFF44
:10093000002070BD56F8103C007A23F01F0100F033
:100940001F03194356F8043C400923F01F0343EAF0
:10095000400343F0010395603046D16001351361D7
:10096000DEE74FF0FF30E4E7DC65020090ED00E0E9
:10097000AAFF4400067402202DE9F74F8A464FF083
:1009800000085D4F5D4D3C78A0F10409D04538DA90
:1009900059F8043F5E68002E57D01F2E20D9F1066B
:1009A0001ED11B68DA061BD11846019313F076FDA1
:1009B000019B8346F018013813F070FD834524D065
:1009C0006FF0150B01234FF000024D4963F307024E
:1009D0004C4B4D485B1ADB0863F38F1259460CE011
:1009E00001234FF00002464963F30702454B474895
:1009F0005B1A4146DB0863F38F1213F0B7F96FF00F
:100A000015043C7003B0BDE8F08F1BF1160FD9D070
:100A1000631E5B45D6DBC5F808B0D5F80CC0D9F825
:100A20000010C5F808B02E692CF01F0CD1E9003277
:100A300098189C4546F01F0600F1FF3219D19642E6
:100A400006D15FFA8BF0FFF72BFF08F101089DE755
:100A5000C5F808B0EB6820F01F0203F01F031A432B
:100A6000EA60E0B2FFF71CFF10F1160FC7D0441C7C
:100A7000EBE7013B9642E0B223F01F0307D1C5F834
:100A800008B02A6902F01F0213432B61EAE70192C2
:100A9000C5F808B02C6904F01F0C4CEA03032B6165
:100AA000FFF7FEFE10F1160FA9D0D9F800C0C5F867
:100AB00008B0DCE9001C6144013021F01F01013E57
:100AC000019AEC680E442B69C0B2B61A0F284FEA9F
:100AD000530326F01F0602D9FFF7C8FEC4E75B00E8
:100AE00003F00E0304F01F041E43214346F00106E9
:100AF000A860E9602E61BAE70674022090ED00E07C
:100B0000BC64020004650200318902000E89020003
:100B10002DE9F74F254C8A4680460027A1464FF025
:100B2000140B234D57451ADAD8F804300193002BE3
:100B300036D0D8F800100846009113F0AFFCDDE97C
:100B4000001306465818013813F0A8FC8642194ACB
:100B500008D014235F436FF0150349F8073003B042
:100B6000BDE8F08F16F1160F2660F8D01378B34267
:100B7000F5DD0BFB0793AE60AE60E868197B60F3B0
:100B8000040119732969187B490861F34710187328
:100B9000EB6823F01F0363602B6923F01F032361BD
:100BA0000137143408F10C08BCE700BF38030220F9
:100BB00090ED00E00674022070B51D4B06461878D3
:100BC0000D46024600211B4B0F2A07DD00241A4A5E
:100BD00012689A601C61AC4204DB70BD9A601961B6
:100BE0000132F1E756F824104B68F3B11F2B10D8EF
:100BF00001234FF00002114963F30702104B114823
:100C00005B1ADB082146BDE8704063F38F1213F0D6
:100C1000ADB8DA06ECD10B68DB06E9D1C0B2FFF75C
:100C20003FFE10F1160FD8D001300134D3E700BFDA
:100C30000674022090ED00E038030220BC6402003C
:100C4000046502000E8902002DE9F04F1E460023C4
:100C5000A3B0CDE902010193134613F8010B0893E9
:100C600058B1252800F085800399029B98470130F0
:100C700040F01A844FF0FF330193019823B0BDE890
:100C8000F08F232C6CD061D8002CF6D0202C0E9B3A
:100C900008BF01230E93CDF82080DDF82080B748EF
:100CA00018F8014B214613F047FD0028E9D12A2C02
:100CB00066D156F8043B98F80040002B0993BFBF5B
:100CC0005B42099301230F93089B03F102082E2C2A
:100CD0007BD198F800302A2B74D156F8045B08F1C8
:100CE000010818F8014B2146A548274613F024FDBA
:100CF00000286DD0434613F8014B682F089307D1A5
:100D0000682C05D1482708F1020398F801400893A0
:100D1000672C7BD8652C80F03581472C5CD8452C1E
:100D200080F03081002CA8D0252C00F0B9830399E5
:100D30002520029B984701309CD003992046029BB6
:100D40009847013096D0019B0233AFE32D2C0AD097
:100D5000302C0BD02B2C0B9B08BF01230B939AE755
:100D60004FF0010B97E701230F9394E701230A93B8
:100D700091E700230A930E930B930F939B468CE706
:100D8000A4F13003092B0990A1D80A22DDF82080B4
:100D900018F8014BA4F13003092B98D8099B02FBEA
:100DA0000344A4F13003CDE90883EFE7904601FB4B
:100DB0000535303D424612F8013BA3F130000928C9
:100DC000F4D98EE700250A21F4E74FF0FF358AE7D2
:100DD000CDF8208007469BE7632C59D020D8582CAB
:100DE000A5D16F2C06F10409316840F02883BBF1CE
:100DF000000F00F0178330238DF86C30002940F08D
:100E00001B838DF86D100F46012625E0702C00F035
:100E1000F58227D86E2C00F0DE82E2D8692C86D1CC
:100E2000376806F10409002F80F29A802D23794259
:100E30008DF86C300DF16D0630460A2213F015FD69
:100E40000B9B06441BA8361A002B40F032830E9BE6
:100E5000002B40F02E83FF0F002D21DA0025AB463A
:100E6000A846E1E0752CBCD0782CBAD0732C7FF466
:100E70005EAFB146002DB8BF6FF00045002659F8AF
:100E8000043BB54240F0C9822E4600252F4608E0BB
:100E90000027B1463D46012659F8043B8DF86C30D9
:100EA0001BABEA190025AB46A846921B22EAE27268
:100EB00091190691099990190C1A0F9911B9002CE2
:100EC00000F3148303EB070A534540F0138312F138
:100ED000FF3280F01D83F61BB8F1000F11D09AF895
:100EE00000000AEB0607A0F13003092BA7EB0A0666
:100EF00040F21983474617F1FF3780F01D83A6EBB8
:100F00000806BBF1000F15D00AEB06071AF8018B93
:100F100003994046029B984701303FF4ABAEB8F1CD
:100F20002E0FA7EB0A06F1D15F46002F00F30D83C9
:100F3000A6EB0B0695B19AF800000AEB0607A0F1A4
:100F40003003092BA7EB0A0640F20A832E2800F093
:100F500007832F46002F00F30C83761B56441BE3B8
:100F60000B9B23B12B238DF86C30394662E70E9B27
:100F70000BB12023F7E739461BAE5DE77A89020003
:100F80008089020006F1070929F00709F9E8022320
:100F9000D80240EA5250D60220F00040002AC3F3A3
:100FA0000A510496059073F10003DDE90467CDE969
:100FB000166741DA2D238DF86C300DF16D0740F284
:100FC000FF73994253D1DDE904120A43A4F14104AD
:100FD00007F1030340D1192C38D849223A704E2228
:100FE0007A7046220025AB46A8461BAEBA70FD704B
:100FF0009B1B0B9A002A40F0EC810E9A002A40F0CD
:10100000E8819DF86C70A7F12D025742574105EB1E
:101010000806334403EB0B0622AB3B4413F81C3C9D
:10102000303B092B00F249820A9B002B00F04882DA
:10103000099B9A1B1BAB39E70B9B0BB12B23BAE720
:101040000E9B0BB12023B6E71BAFB8E769223A70BD
:101050006E227A706622C5E7192C99BF4E22412173
:101060006E22612194BF3A703A707970BAE7049B9E
:1010700005980B431093CB170343462C119308BFDD
:101080006624DDE91023134300F01181002900F0EC
:101090009B800026179BA1F2FE3843F00043179374
:1010A00018F1020FC0F2A480B8F1000F00F3DD8048
:1010B00016A808F1010813F0FAFBB8F1040FF7D1F4
:1010C000002D04F0DF03B8BF0625472B40F0F88061
:1010D000F11C02DBAE4240F3ED80023CE4B2002D95
:1010E00000F0F480013DBBF1000F40F0EF80002DD7
:1010F000D4BF4FF0000A4FF0010A662C40F0E880A0
:1011000016EB050840F1EC80102366244FF0000830
:10111000159300224FF00063CDE9182318F1FF3832
:1011200080F0E080169B189A19999B18179A41EB4A
:101130000202CDE9163202F070431293002313939A
:10114000DDE91223134306D016A813F0C1FB16A83D
:1011500013F0ADFB0136662C40F0E180002E40F329
:10116000C880159B002B07DD15A916A813F0DBFB23
:10117000013E07F8010BF4D1B0463B460026BBF117
:10118000000F01D1002D15DD2E2203F8012B002EBA
:1011900000F0C080002D40F3BF80C6F1000BAB45CE
:1011A000A8BFAB46A5EB0B05002D03DD159A002A61
:1011B00000F3A680BAF1000F40F0C68000221BAEFB
:1011C0001A709B1B15E70139049BDB180493059BE0
:1011D0005B410593DDE90423002A73F10003F2DA91
:1011E000DDE90423CDE9162353E716A813F05FFBCE
:1011F000DDE916EC00230021CDF830C00D93BC488A
:10120000DDE90C23994208BF904208F10108ECD3B4
:101210000520AEFB0023CDE90623079B013E00FB22
:101220000C334FF0000C0793DDE90623CDE91623BC
:10123000002100236FF0004207988B4208BF8242D2
:1012400008D2BCF1000F3FF42BAFDDE90623CDE956
:10125000162325E7069B08F1FF38DB180693079B4A
:101260004FF0010C5B410793E2E716A813F030FB47
:10127000DDE916AE4FF0000C08F1FF38013600230F
:1012800000216FF00040994208BF704506D2BCF1C2
:10129000000F3FF409AFCDE916AE05E71AEB0A0AD5
:1012A0004EEB0E0E08F1FF384FF0010CE7E7002679
:1012B000B046FDE6AD1BBBF1000F04D1662416E776
:1012C0004FF0000A19E74FF0000A19E74FF0000A43
:1012D00005F10108102398451593A8BF984618E713
:1012E0006624F7E718A813F0F3FA18A813F0DFFA4A
:1012F00014E73B4630224FF0000803F8012B3EE78D
:1013000015A916A8069313F00EFB069B013D03F8E2
:10131000010B49E7B34647E74FF0000B4AE715A931
:1013200016A813F000FB3028387018BF06F1FF36FE
:10133000BBF1000F38D1002D36DC7B1CBAF1000F59
:1013400044D04FF0000BD8461A4613F8011D30293F
:10135000FAD02E2918BF1346002504F0DF02452AD3
:101360007FF42CAF002EB4BF2D222B221946B8BF1C
:101370007642632E01F8024B5A7008DD642096FB1A
:10138000F0F200FB126602F13004D91C9C700A20B6
:1013900096FBF0F20B4600FB126602F13004303689
:1013A00003F8024B4E7009E72E22BB1C7A70002D09
:1013B000C4DD159A002AC1DD15A916A8069313F0FD
:1013C000B2FA069B013D03F8010BF0E7D346D04685
:1013D000C3E701271BE6B146682F59F8043B05D047
:1013E00001DC482F07D0019A1A6001E0019A1A80A7
:1013F0004E46089A30E4019A1A70F9E7B14647F66A
:101400003003102259F8041B0DF16E00ADF86C305A
:1014100013F02BFA0227861C1EE59A5D002A4AD09B
:1014200001362EE51BAC0822204613F01EFA1BAE37
:10143000A61B064400270FE50DF16D04F3E7752C9C
:1014400005D10A221BA813F010FA0646F2E7BBF1F9
:10145000000F12D047F630030DF16E08ADF86C3076
:101460001022404613F001FA582C09D01BAEA8EB0D
:10147000060606444FEA4B07EEE40DF16C08EFE771
:101480001BAA12F8013BA3F16101192903D8203BE3
:1014900002F8013CF5E712F8013C002BF1D1E5E739
:1014A00003992046FFF7E1BB019B01330193B1464D
:1014B0009EE70127D0E41546E8E41BAB0022F7E4E1
:1014C0001BAB0A9AF4E4CDE909320399029B202070
:1014D0009847DDE9093201303FF4CCAB1AF1FF3A0D
:1014E000F1D20199214401915446EBE4A246F5E77B
:1014F0003233333313F8010B03990993029B0A9299
:101500009847DDE9093201307FF4DEACFFF7B2BB6A
:1015100003993020029B099298470130099A7FF481
:10152000D6ACFFF7A7BBDDE90231984701303FF4A5
:10153000A1AB1AF8010FD6E403993020029B98471B
:1015400001307FF4D8ACFFF795BB03993020029BA4
:101550009847013007F1FF377FF4E7ACFFF78ABB0C
:10156000DDE90231984701303FF484AB1AF8010FEE
:10157000E5E403993020029B9847013007F1FF37DB
:101580007FF4E8ACFFF776BB03991AF8010B029BD6
:10159000984701303FF46EABA6EB0A03002BF3DC57
:1015A000019B069A002C134401937FF721AF254637
:1015B00006E003992020029B984701303FF45AAB84
:1015C00015F1FF35F5D2019B2344019310E700BFCD
:1015D000014B1860704700BFECD302200CB41FB55C
:1015E00009B90DF10300CDE9020107AB069A02A982
:1015F00005480193FFF728FB0022029B1A7005B0F3
:101600005DF804EB02B070475B4902000EB40FB501
:101610006FF0004105AB53F8042B0290039106488C
:1016200002A90193FFF710FB0022029B1A7004B07D
:101630005DF804EB03B070475B49020038B5074C16
:10164000074DAC4200D138BD23681B685B681BB1F5
:101650001B680BB1204698472034F2E700D60220E1
:1016600020D6022038B5084C084DAC4200D138BD18
:10167000206803210C3013F08CF910B9204613F0C8
:101680008EF92034F1E700BF00D6022020D60220D8
:1016900000232DE9F04F022889B081468A46904602
:1016A000CDE906333CD106AA10460491194606E05E
:1016B0000478013101340470CCB2072C03D83AF815
:1016C0001140002CF4D00133082B00F10100EDD1C2
:1016D0004FF0FF360127002312F8011BB94288BFE3
:1016E0005EB203F10103DBB288BF0F46082BF3D1D2
:1016F0000393012F4FF03A0308BF4FF0FF360293D8
:10170000002244461546039B9D4219DB444509D0FF
:101710000023B9F1010F0CBF04F8013C237003E072
:10172000012805D04FF00008404609B0BDE8F08F11
:101730002E2304224FF0FF36CDE902320746DFE7C1
:10174000039B042B34D11AF8051049B930232046E5
:1017500000F8023B029B63700135EDB20446D2E70C
:1017600009204FF0000BDFF8D8C00194B1FBFCFE5C
:101770000CFB1E138345059301DC614506D38346AC
:10178000019B0EF1300E03F801EB01930A2301389F
:10179000BCFBF3FC431C0599E8D14FF00003019911
:1017A0000B700B1BDBB20299E0180130E154D3E758
:1017B000AE420DD102B916B93A2304F8013B3A23DF
:1017C000204600F8013B7B1E1D44EDB20022C3E71A
:1017D00012B13A2304F8013B049B33F815301A0286
:1017E00042EA132212B2C2F307235FFA82FBB3B1BB
:1017F0000F2BD9B20BD900236122204613F0FEF83B
:1018000001236122594613F0F9F80122A4E75BB2E3
:10181000092994BF30335733601C2370F0E7BBF1C4
:101820000F0F03D9612259462046ECE752B2BBF1B3
:10183000090F94BF30325732601C2270E5E700BFB9
:1018400000CA9A3B08B5094B1A786AB901213120C0
:1018500019700521FEF77AFB3120FEF767FB4FF088
:101860000042034BC3F80423002008BD0774022084
:101870000010034070B5036882689B68514C18796A
:1018800001F01F0343EA40130020D4F80453EDB2E3
:1018900000F5A27654F82660C6F30426B34270D150
:1018A00025FA00F6F6076CD5850005F1804505F5AB
:1018B0004435D5F8106526F00106C5F810650125F8
:1018C00005FA00F0C4F808033F4D05EB8305D5F891
:1018D000000220F44030C5F800029068C84010F0C3
:1018E00001004DD0D068C84010F0010048D05069C8
:1018F000C84010F0010050D09069C840C00744D4DF
:101900001069D269C84022FA01F100F0010001F02B
:101910000101884214BF01210221002505F5A272B0
:1019200054F8220010F0030031D1AA0002F18042E5
:1019300002F54432D2F810651B0203F4F85326F482
:10194000473626F4407643EA014105F14003C2F8E8
:1019500010659B00D2F810659BB203F1804303F53C
:1019600044333143C2F810151860D2F8103543F0F3
:101970000103C2F81035012303FA05F5C4F8045336
:1019800070BD0130082883D19EE70321C5E70135EA
:10199000082DC3D16FF01200F2E71369D2695340EA
:1019A00023FA01F111F0010F14BF4FF400324FF48C
:1019B0004032D5F8003223F440331343C5F80032E7
:1019C000DEE700BF00100340002584402DE9F74FFB
:1019D0008046856803F47040B0F5804F1E4640D0C5
:1019E00009DCB0F5805F3ED0B0F5405F3DD090B1EE
:1019F0006FF0150032E0B0F5E04F38D004DCB0F500
:101A0000A04FF5D1032006E0B0F5404F31D0B0F53E
:101A1000504FEDD1072006F44077B7F5807F2AD0EC
:101A2000A7F5007463426341012919BFD4B2A146EE
:101A30004FF01F0900244FF0010B06F0010C4FEA94
:101A40004C0747EA0C0747EA0020DFF8A0A040EA6D
:101A5000830706F00203A1450FD2002003B0BDE8C2
:101A6000F08F0220D7E70120D5E70420D3E7052037
:101A7000D1E70620CFE70323D6E7D8F80020926805
:101A8000117904F01F0242EA411280324AF82270B2
:101A9000A9680BFA04F2002B25D01143A9606969EB
:101AA000B0064CBF114391436961A96970064CBFF0
:101AB00011439143A961296970074CBF11439143B8
:101AC0002961E96930064CBF0A4321EA0202EA6152
:101AD000214640460193FFF7CDFE0028BED10134D8
